:020000040800F2
:10000000F0700024A503000829900008DB86000892
:1000100015900008F1050008C9DB00080000000089
:10002000000000000000000000000000E5020008E1
:10003000D50D00080000000041030008FDA20008E3
:10004000BF030008BF030008BF030008BF03000888
:10005000BF030008BF030008BF030008BF03000878
:10006000BF030008BF030008BF03000829080008F9
:10007000390800084908000859080008BF030008AB
:10008000BF030008BF030008BF0300084D0E0008AF
:10009000BD0E0008BF030008CD0E0008BF03000816
:1000A000BF030008BF030008BF030008BF03000828
:1000B000BF030008BF030008BF030008BF03000818
:1000C000BF030008BF030008BF030008BF03000808
:1000D000859C0008BF030008BF030008BF03000899
:1000E000BF030008BF03000800000000BF030008B2
:1000F000BF030008BF030008BF030008BF030008D8
:10010000BF030008BF030008BF030008BF030008C7
:10011000BF03000845A60008BF030008BF0300088E
:10012000BF030008BF030008BF030008BF030008A7
:10013000BF030008BF030008BF030008BF03000897
:1001400000000000000000000000000000000000AF
:10015000BF030008BF030008BF030008BF03000877
:10016000BF030008BF030008BF030008BF03000867
:10017000BF0300082D900008BF0300080000000026
:10018000BF030008BF03000859A60008BF0300080A
:10019000BF030008BF030008BF030008BF03000837
:1001A000BF030008BF030008BF03000800000000F1
:1001B000BF030008BF030008BF030008BF03000817
:1001C000BF030008BF03000800000000000000009B
:1001D0000000000000000000BF0300080000000055
:1001E000000000000000000000000000000000000F
:1001F0000000000000000000BF030008BF0300086B
:10020000BF030008BF03000800000000BF03000890
:10021000BF030008BF030008BF030008BF030008B6
:10022000BF03000800000000BF030008000000003A
:10023000BF030008BF03000800000000BF03000860
:10024000BF030008BF030008BF030008BF03000886
:10025000BF030008BF030008BF030008BF03000876
:10026000BF030008BF030008BF030008BF03000866
:10027000BF030008BF030008BF0300080000000020
:10028000BF030008BF030008BF030008BF03000846
:1002900000000000BF030008BF03000800000000CA
:1002A00000000000BF030008BF030008BF030008F0
:1002B000BF030008BF030008BF030008DD0E0008ED
:1002C000ED0E000855A50008BF030008DFF810D0A8
:1002D00000F0EEF800480047FDF10008AFF30080A1
:1002E000F07000242C4B19680868B0E8F04F80F3D8
:1002F0000988BFF36F8F4FF0000080F311887047BB
:100300000000000008480068006880F308884FF08B
:10031000000080F3148862B661B6BFF34F8FBFF35D
:100320006F8F00DF00BF00BF08ED00E0DFF80C00BA
:10033000016841F470010160704700BF88ED00E082
:10034000EFF30980BFF36F8F134B1A681EF0100F85
:1003500008BF20ED108A20E9F04F106009B44FF07B
:10036000500080F31188BFF34F8FBFF36F8F10F0F1
:1003700089F84FF0000080F3118809BC19680868FB
:10038000B0E8F04F1EF0100F08BFB0EC108A80F3F9
:100390000988BFF36F8F704734010024EFF30580A5
:1003A000704700000648804706480047FEE7FEE722
:1003B000FEE7FEE7FEE7FEE7FEE7FEE7FEE7FEE715
:1003C000F1A30008CD0200082DE9F05F05460020EA
:1003D00092469B4688460646814640241BE02846B6
:1003E00041464746224600F053F853465A46C01A43
:1003F000914110D311461846224600F03AF82D1AC2
:1004000067EB01084F4622460120002100F031F839
:1004100017EB00094E41201EA4F10104DFDC484621
:1004200031462A464346BDE8F09F40EA01039B0758
:1004300003D009E008C9121F08C0042AFAD203E059
:1004400011F8013B00F8013B521EF9D27047D2B2BD
:1004500001E000F8012B491EFBD270470022F6E7AD
:1004600010B513460A4604461946FFF7F0FF20462A
:1004700010BD202A04DB203A00FA02F10020704768
:100480009140C2F1200320FA03F3194390407047D2
:10049000202A04DB203A21FA02F00021704721FAD9
:1004A00002F3D040C2F12002914008431946704740
:1004B000064C074D06E0E06840F0010394E80700B1
:1004C00098471034AC42F6D3FFF704FF9C100108A4
:1004D000BC10010870B58C1810F8015B15F007030B
:1004E00001D110F8013B2A1106D110F8012B03E0CD
:1004F00010F8016B01F8016B5B1EF9D12B0705D4D5
:100500000023521E0DD401F8013BFAE710F8013B1D
:10051000CB1A921C03E013F8015B01F8015B521E39
:10052000F9D5A142D8D3002070BD00000120204998
:100530004870204890ED010ADFED1F0A60EE200AA6
:100540009FED1E1A80EE810A10EE100AC1F802001B
:10055000184890ED000AB1EE400ADFED170A60EE90
:10056000200A9FED161A80EE810A10EE100AC1F8DB
:100570000600104890ED020ADFED0F0A60EE200A37
:100580009FED0E1A80EE810A10EE100AC1F80A00E3
:100590000846D0F82100C1F80E000846D0F8250022
:1005A000C1F812000846D0F82900C1F816007047BB
:1005B00078690024246C0024DB0F49400000344398
:1005C00070B505460C4600260DB1022C00D870BD52
:1005D000A11E06480288284600F0DCFE0646A01E42
:1005E0002E54310A601E295400BFF0E76006002433
:1005F00000BFFEE710B54B780C7843EA04231BB22A
:100600000380CB788C7843EA04231BB243804B7978
:100610000C7943EA04231BB283808B79837110BD6C
:100620002DE9FC4104460D4616461F4640F2675828
:10063000200A8DF80000E0B28DF80100280A8DF83C
:100640000200E8B28DF80300300A8DF80400F0B221
:100650008DF80500380A8DF80600F8B28DF807000D
:1006600008236A46414602480EF0AEFCBDE8FC8114
:10067000640B00242DE9FC4106460F4614461D4636
:100680004FF4A4688DF800608DF80170200A8DF891
:100690000200E0B28DF8030028128DF80400E8B2E1
:1006A0008DF8050008236A46414602480EF08CFC8E
:1006B000BDE8FC81640B00247CB504460D4640F285
:1006C000FF1600208DF800008DF80100200A8DF83B
:1006D0000200E0B28DF80300280A8DF80400E8B2A9
:1006E0008DF8050000208DF806008DF8070008231E
:1006F0006A46314601480EF067FC7CBDC40A0024FE
:1007000038B504464FF4FF75200A8DF80000E0B2BA
:100710008DF8010002236A46294602480EF054FC77
:1007200038BD0000640B00247CB504460D464FF430
:100730000076200A8DF80000E0B28DF80100280A4A
:100740008DF80200E8B28DF8030008236A463146AE
:1007500001480EF039FC7CBDC40A00240346042B7A
:1007600015D007DC7BB1012B0ED0022B0DD0032B53
:1007700012D10BE0202B0BD0212B0AD0222B09D039
:10078000232B09D107E008E007E006E005E004E0DC
:1007900003E002E001E000E000BF00BF002070477E
:1007A0000020704710B50022044905480BF047F8B7
:1007B000044903480BF034F8002010BD5C1D0024F0
:1007C000801000245C15002470B504460D462146B7
:1007D00003480BF025F802480AF0EEFF002070BD38
:1007E0008010002410B503460C460021084610BDB9
:1007F0002DE9F04104460D4600260A48D0F8BC72A7
:10080000D7F8140210B10120BDE8F0812A46214634
:1008100004480BF014F803480BF0C4F806463046C1
:10082000F2E700008010002410B5024801F082FBBE
:1008300010BD0000BC0F002410B5024801F07AFB87
:1008400010BD0000440F002410B5024801F072FBF7
:1008500010BD00002C0D002410B5024801F06AFB09
:1008600010BD0000A40D00240146374A08689042DC
:1008700049D0354A18320868904244D0324A303262
:10088000086890423FD0304A4832086890423AD0D7
:100890002D4A60320868904235D02B4A7832086879
:1008A000904230D0284A9032086890422BD0264A95
:1008B000A8320868904226D0244A0868904222D084
:1008C000224A1832086890421DD0204A3032086807
:1008D000904218D01D4A48320868904213D01B4AF3
:1008E0006032086890420ED0184A78320868904208
:1008F00009D0164A90320868904204D0134AA832B0
:100900000868904201D1012000E00020B0B10A78CF
:10091000103A1823B2FBF3F000F007020C4B9A5C7C
:10092000CA65032805D90A686FF30902121D8A6592
:1009300003E00A686FF309028A6503E0086820F0A3
:10094000FF008865886D7047100002401004024067
:10095000980A010810B502682B4C0368A34222D004
:10096000294C14340368A3421DD0274C2834036853
:10097000A34218D0244C3C340368A34213D0224C29
:1009800050340368A3420ED01F4C64340368A34262
:1009900009D01D4C78340368A34204D01A4C8C341F
:1009A0000368A34201D1012300E000238BB1037847
:1009B000083B1424B3FBF4F1144B03EB81030366EF
:1009C000124B8033436601F01F040123A34083666A
:1009D00018E00378103B1824B3FBF4F10C4B9A4257
:1009E00004D80B4BA83B9A4200D30831094B03EBC8
:1009F00081030366074B8033436601F01F04012324
:100A0000A340836610BD00000854025800580258E5
:100A1000B8040240000802400179A9B3082940D86F
:100A2000204B02689A4222D01E4B143302689A422D
:100A30001DD01C4B283302689A4218D0194B3C3306
:100A400002689A4213D0174B503302689A420ED074
:100A5000144B643302689A4209D0124B783302680F
:100A60009A4204D00F4B8C3302689A4201D1012282
:100A700000E000224AB14A1E0B4B03EB8202C26621
:100A8000094A4032026708E00BE04A1E074B03EBBD
:100A90008202C266054A403202674A1E0123934021
:100AA0004367704708540258005902580009024031
:100AB000014600208A69D2B98A6A32B1012A0DD072
:100AC000022A03D0032A10D10EE000BFCA6A02F046
:100AD0008072B2F1807F00D1012007E0CA6AB2F1D2
:100AE000C07F00D1012001E000E000BF36E08A694C
:100AF000B2F5005F1BD18A6A32B1012A07D0022AFF
:100B000003D0032A11D10AE000BF01200EE0CA6A17
:100B100002F08072B2F1807F00D1012006E0CA6A43
:100B2000B2F1C07F00D1012000E000BF16E08A6A68
:100B300032B1012A05D0022A04D0032A0CD103E0E5
:100B400000BF00BF012008E0CA6A02F08072B2F163
:100B5000807F00D1012000E000BF00BF704700008F
:100B6000F0B5856D846D984F0668BE4270D0964F83
:100B700018370668BE426BD0934F30370668BE42C6
:100B800066D0914F48370668BE4261D08E4F6037BD
:100B90000668BE425CD08C4F78370668BE4257D09C
:100BA000894F90370668BE4252D0874FA8370668F3
:100BB000BE424DD0854F0668BE4249D0834F18379C
:100BC0000668BE4244D0814F30370668BE423FD0EF
:100BD0007E4F48370668BE423AD07C4F6037066881
:100BE000BE4235D0794F78370668BE4230D0774F55
:100BF00090370668BE422BD0744FA8370668BE42B5
:100C000026D0734F0668BE4222D0714F1437066853
:100C1000BE421DD06E4F28370668BE4218D06C4FBA
:100C20003C370668BE4213D0694F50370668BE4253
:100C30000ED0674F64370668BE4209D0644F7837DC
:100C40000668BE4204D0624F8C370668BE4201D1AE
:100C5000012600E000263EB1D0E919767E60C66E1E
:100C600016B1D0E91C767E60574F0668BE4249D067
:100C7000554F18370668BE4244D0534F3037066888
:100C8000BE423FD0504F48370668BE423AD04E4F22
:100C900060370668BE4235D04B4F78370668BE4293
:100CA00030D0494F90370668BE422BD0464FA83708
:100CB0000668BE4226D0454F0668BE4222D0434F4A
:100CC00018370668BE421DD0404F30370668BE4216
:100CD00018D03E4F48370668BE4213D03B4F6037AE
:100CE0000668BE420ED0394F78370668BE4209D03A
:100CF000364F90370668BE4204D0344FA837066896
:100D0000BE4201D1012600E00026DEB190F85C6011
:100D100006F01F073F26BE40AE600668366826F420
:100D2000802607683E60066873608668402E04D19E
:100D30000668B2600668F16044E00668B160066863
:100D4000F2603FE0224F0668BE4222D0204F1437A7
:100D50000668BE421DD01E4F28370668BE4218D016
:100D60001B4F3C370668BE4213D0194F50370668F8
:100D7000BE420ED0164F64370668BE4209D0144FEB
:100D800078370668BE4204D0114F8C370668BE42E1
:100D900001D1012600E00026A6B190F85C6006F0C3
:100DA0001F070126BE406660066873608668402E95
:100DB00004D10668B2600668F16003E00668B160BD
:100DC0000668F260F0BD000010000240100402400E
:100DD00008540258704710B500F008F800F03EF8CB
:100DE0000AF078FA10BD72B600BFFEE700B589B010
:100DF0000020019002900220039001200490002026
:100E00000590069001A9104802F02BFC08B1FFF7ED
:100E1000EAFF002003460222114600900A4802F031
:100E200074FC08B1FFF7DFFF00220121064802F041
:100E30007BFB08B1FFF7D7FF034803F06BFA08B15B
:100E4000FFF7D1FF09B000BDC40A002410B5024865
:100E500002F074FD10BD0000C40A002400B589B082
:100E600000200190012002900220039004900020B5
:100E70000590069001A9104802F0F3FB08B1FFF7B6
:100E8000B2FF002003460222114600900A4802F0F9
:100E90003CFC08B1FFF7A7FF00221021064802F032
:100EA00043FB08B1FFF79FFF034803F033FA08B193
:100EB000FFF799FF09B000BD640B002410B502488C
:100EC00002F03CFD10BD0000640B002410B5024888
:100ED00002F034FD10BD0000640B002410B5024880
:100EE00002F02CFD10BD0000040C002410B50248D7
:100EF00002F024FD10BD0000040C002410B50146D2
:100F00004A6B0868D0F884004FF6FC74A04340EAAE
:100F100082000C68C4F884000868D0F8840020F4CB
:100F20007F04088F44EA00400C68C4F88400886B92
:100F300002440868D0F888004FF6FC74A04340EAE9
:100F400082000C68C4F888000868D0F8880020F493
:100F5000FE04888F44EA00400C68C4F88800C86B1F
:100F600002EB40020868D0F8A0004FF6FC74A043E2
:100F700040EA82000C68C4F8A0000868D0F8A0001D
:100F800020F4FE044020405A44EA00400C68C4F8B3
:100F9000A000D1E9104004FB00220868D0F8B0009E
:100FA0004FF6FC74A04340EA82000C68C4F8B0001D
:100FB0000868D0F8B00020F4FE04B1F8480044EA14
:100FC00000400C68C4F8B000D1E9124004FB0022D4
:100FD0000868D0F8AC004FF6FC74A04340EA8200E9
:100FE0000C68C4F8AC00D1E9144004FB0022086886
:100FF000D0F8F0004FF6FC74A04340EA82000C6881
:10100000C4F8F0000868D0F8F00020F47C14B1F8BF
:10101000580044EA00400C68C4F8F000886D02EB08
:1010200040020868D0F8C0004FF6FC74A04340EAC4
:1010300082000C68C4F8C0000868D0F8C00020F432
:101040007C14B1F85C0044EA00400C68C4F8C000AD
:101050000868D0F8C00020F07C5491F8600044EAA1
:1010600000600C68C4F8C0002A4C486B04EB800098
:10107000C866CC6E886B04EB80040C670C6FC86B81
:1010800004EBC0044C67D1E9100460434C6F04EBDF
:1010900080048C67D1E9120460438C6F04EB8004F8
:1010A000CC67D1E914046043CC6F04EB800480204A
:1010B00044504458886D04EBC004842044508C6E26
:1010C000C86D60438424645804EB80048820445035
:1010D0008C6E086E60438824645804EB8004902072
:1010E000445040580C4CA04209D99831486840F00F
:1010F00020004860032001F89809012010BDCB6E44
:1011000002E0002018601B1D902040589842F8D83B
:101110000020F3E700AC0040FCD300402DE9F04193
:10112000054614461E46D1F804C0BCF1000F0AD192
:10113000D1F810C0D1F808804CEA080CB1F8008052
:101140004CEA88430BE0D1F810C04CF0804CD1F849
:1011500008804CEA080CD1F800804CEA080391F8AA
:101160002080D1F81CC04CEA086CD1F818804CEAF9
:10117000080CD1F814804CEA080CD1F80C804CEA29
:101180000807D5F868C00CFB06FCD5F8848008EB8E
:101190008C021360121D1760121D002019E000F16F
:1011A000030C14F80CC04FEA0C6800F1020C14F8A0
:1011B0000CC048EA0C4800F1010C14F80CC048EAD5
:1011C0000C2C14F800804CEA080CC2F800C0121D68
:1011D000001DDFF81880D1F80CC008EB1C4C9CF8FF
:1011E00000C08445DBD8BDE8F0810000A00A0108FA
:1011F00000B50420064908710421054880F8CC1088
:10120000283007F0E7FE0248F03007F0E3FE00BDAB
:101210009C03002408B500BF0FF0BEFA009000F058
:1012200021FA032168460FF063F8F5E79FED200AE5
:1012300080ED130A9FED1F0A80ED1B0A9FED1C0A2B
:1012400080ED1C0A9FED1B0A80ED1A0A9FED1A0A19
:1012500080ED190A9FED190A80ED270A9FED150A06
:1012600080ED2F0A9FED120A80ED300A9FED140ADF
:1012700080ED2E0A9FED100A80ED2D0A9FED0E0ADB
:1012800080ED320A9FED0F0A80ED330A9FED0A0AC6
:1012900080ED340A9FED080A80ED350A9FED090ABA
:1012A00080ED360A9FED040A80ED370A7047000092
:1012B000005043470050C3460000000000803B46FA
:1012C00000204B466F12833A9FED200A80ED130AEF
:1012D0009FED1F0A80ED1B0A9FED1C0A80ED1C0A82
:1012E0009FED1B0A80ED1A0A9FED1A0A80ED190A7C
:1012F0009FED190A80ED270A9FED150A80ED2F0A50
:101300009FED120A80ED300A9FED140A80ED2E0A3F
:101310009FED100A80ED2D0A9FED0E0A80ED320A36
:101320009FED0F0A80ED330A9FED0A0A80ED340A23
:101330009FED080A80ED350A9FED090A80ED360A17
:101340009FED040A80ED370A7047000000504347C4
:101350000050C3460000000000803B4600204B4682
:101360006F12833A00B5012006490871022081F806
:10137000E400081DFFF7A8FF0248E430FFF756FF1E
:1013800000BD0000C00100244FF0E0200069C0F360
:101390000040704730B5034613B94FF6FF7030BDBB
:1013A00009E013F8014B82EA0400C0B2054D35F89C
:1013B000100080EA2222081EA1F10101F1D110469D
:1013C000EDE70000360C010810B52C4454B108229A
:1013D0000549204607F0F8F9042203491031304648
:1013E00007F0F2F910BD00006200002410B51148AA
:1013F00000F042F8BDEEC00A10EE100A00B20E492D
:1014000008800C48E03000F037F8BDEEC00A10EE5E
:10141000100A00B208494880B1F90000FFF770F9DE
:101420000549B1F902000549B1F90010FFF744F987
:1014300010BD0000C401002490030024FC0500241A
:10144000D0F80F1001627047D0F80F10016270479A
:1014500010B507488078074908700548C07881F8BA
:10146000C40100F0E1F800F037F807F049F910BDC9
:10147000A0010024C001002470B52DED028B0446AC
:1014800004F12405261D94ED071AF0EE410A94EDAF
:10149000081AB0EE410A05F1500007F0C0FF86EDD2
:1014A000050A94ED051AF0EE410A94ED061AB0EE25
:1014B000410A284607F0B3FFB0EE408AB0EE480A72
:1014C000BDEC028B70BD0000024991F8C42180F888
:1014D000C4207047C001002410B5044800F016F87D
:1014E0000248E03000F012F810BD0000C4010024F2
:1014F00010B5054807F064FA0348E03007F01AFA1F
:10150000FFF774FF10BD0000C401002470B505464C
:1015100005F124042E463078012802D002286DD12E
:1015200035E094F8A00001280FD002281DD13448DE
:10153000344902682046FEF778FF31483249026894
:1015400004F15000FEF771FF1FE02D482D491039BE
:1015500002682046FEF769FF29482B4910390268C6
:1015600004F15000FEF761FF0FE0254825492039BE
:1015700002682046FEF759FF2148234920390268B6
:1015800004F15000FEF751FF00BF00BF00BF94F808
:10159000A000012811D002281FD119481949303163
:1015A00002682046FEF741FF1548174930310268AE
:1015B00004F15000FEF739FF1FE0114811492031B6
:1015C00002682046FEF731FF0D480F4920310268BE
:1015D00004F15000FEF729FF0FE0094809491031D6
:1015E00002682046FEF721FF0548074910310268CE
:1015F00004F15000FEF719FF00BF00BF70BD0000EE
:101600008C030024B2060024A207002410B505486C
:1016100008F0B8FA0348E03008F07CFAFFF7E6FE7D
:1016200010BD0000C401002400B50448FFF74CFFC2
:101630000248E030FFF748FF00BD0000C40100246D
:1016400010B50020064908804880B1F90000FFF776
:1016500057F80349B1F902000021FFF72DF810BD3A
:101660009803002410B5FFF7F3FE1048807A012894
:1016700002D1FFF7CBFF18E00C48807A022802D194
:10168000FFF736FF11E00948807A03280DD108489A
:1016900090F8C40107490978884204D0044890F8BA
:1016A000C40104490870FFF7CBFF10BD386C00245B
:1016B000C0010024880300242DE9F041044602F013
:1016C0004BFF804614B90120BDE8F08194F8350045
:1016D000022808D08020606500BF002084F8340014
:1016E00000BF0120F0E7FE492068884249D0FC494C
:1016F00018312068884244D0F94930312068884246
:101700003FD0F7494831206888423AD0F4496031E7
:101710002068884235D0F24978312068884230D03C
:10172000EF499031206888422BD0ED49A8312068DC
:10173000884226D0EB492068884222D0E9491831F6
:10174000206888421DD0E74930312068884218D08F
:10175000E44948312068884213D0E249603120686A
:1017600088420ED0DF4978312068884209D0DD49AF
:1017700090312068884204D0DA49A8312068884234
:1017800001D1012000E0002068B12068006820F04D
:101790001E00216808602068406920F080002168F0
:1017A0004861256806E02068006820F00E00216886
:1017B00008602568CA492068884270D0C849183135
:1017C000206888426BD0C64930312068884266D094
:1017D000C34948312068884261D0C14960312068DE
:1017E00088425CD0BE4978312068884257D0BC49D5
:1017F00090312068884252D0B949A8312068884287
:101800004DD0B8492068884249D0B649183120687F
:10181000884244D0B3493031206888423FD0B14932
:101820004831206888423AD0AE4960312068884209
:1018300035D0AC4978312068884230D0A949903100
:10184000206888422BD0A749A8312068884226D03A
:10185000A5492068884222D0A349143120688842D3
:101860001DD0A14928312068884218D09E493C31BA
:101870002068884213D09C495031206888420ED09D
:10188000994964312068884209D0974978312068A5
:10189000884204D094498C312068884201D10120CB
:1018A00000E0002028B1206E006820F48070216ED6
:1018B00008608B492068884249D0894918312068DE
:1018C000884244D086493031206888423FD08449DC
:1018D0004831206888423AD0814960312068884286
:1018E00035D07F4978312068884230D07C499031AA
:1018F000206888422BD07A49A8312068884226D0B7
:1019000078492068884222D0764918312068884278
:101910001DD0744930312068884218D0714948314F
:101920002068884213D06F496031206888420ED009
:101930006C4978312068884209D06A499031206822
:10194000884204D06749A8312068884206D12068BF
:10195000006820F001002168086005E02068006848
:1019600020F001002168086011E002F0F5FDA0EB15
:10197000080005280BD920206065032084F8350075
:1019800000BF002084F8340000BF01209CE62868D6
:1019900000F001000028E8D151492068884249D070
:1019A0004F4918312068884244D04D493031206871
:1019B00088423FD04A494831206888423AD0484955
:1019C00060312068884235D04549783120688842A6
:1019D00030D043499031206888422BD04049A8310B
:1019E0002068884226D03F492068884222D03D495D
:1019F0001831206888421DD03A4930312068884229
:101A000018D0384948312068884213D035496031B0
:101A1000206888420ED0334978312068884209D046
:101A2000304990312068884204D02E49A83120687E
:101A3000884201D1012000E0002040B1A66D94F859
:101A40005C0000F01F013F208840B06007E0A76DF8
:101A500094F85C0000F01F01012088407860204964
:101A60002068884276D01E4918312068884271D09B
:101A70001B493031206888426CD0194948312068B0
:101A8000884267D0164960312068884262D0144984
:101A90007831206888425DD01149903120688842B1
:101AA00058D00F49A8312068884253D00D4920688A
:101AB00088424FD00B491831206888424AD00949E2
:101AC00030312068884245D0064948312068884234
:101AD00040D004496031206888423BD0014905E08C
:101AE0001000024010040240085402587831206867
:101AF00088422FD02549206888422BD023491831AD
:101B00002068884226D022492068884222D0204975
:101B10001431206888421DD01D4928312068884230
:101B200018D01B493C312068884213D018495031E5
:101B3000206888420ED0164964312068884209D056
:101B4000134978312068884204D011498C312068CB
:101B5000884201D1012000E0002068B1D4E91910C9
:101B60004860E06E40B1E06E006820F48070E16E85
:101B70000860D4E91C104860012084F8350000BFDB
:101B8000002084F8340000BF00BF9DE5A00402409F
:101B90000854025870B504460CB9012070BD94F881
:101BA0003500022803D0802060650120F6E7DC497B
:101BB0002068884249D0DA4918312068884244D0E8
:101BC000D7493031206888423FD0D5494831206814
:101BD00088423AD0D24960312068884235D0D04915
:101BE00078312068884230D0CD49903120688842D1
:101BF0002BD0CB49A8312068884226D0C94920681B
:101C0000884222D0C7491831206888421DD0C54972
:101C100030312068884218D0C24948312068884253
:101C200013D0C0496031206888420ED0BD49783158
:101C30002068884209D0BB4990312068884204D08E
:101C4000B849A8312068884201D1012000E0002075
:101C5000F0B3042084F83500B149206888424BD0A5
:101C6000AF4918312068884246D0AD4930312068EC
:101C7000884241D0AA494831206888423CD0A849CE
:101C800060312068884237D0A54978312068884281
:101C900032D0A3499031206888422DD0A049A83184
:101CA0002068884228D09F492068884224D09D49D6
:101CB0001831206888421FD09A4930312068884204
:101CC0001AD0984948312068884215D0954900E0DB
:101CD00020E06031206888420ED092497831206837
:101CE000884209D08F4990312068884204D08D49BC
:101CF000A8312068884206D12068006820F00100E1
:101D00002168086009E12068006820F0010021686E
:101D1000086002E12068006820F00E002168086079
:101D20007F492068884249D07D491831206888421F
:101D300044D07B493031206888423FD078494831CF
:101D4000206888423AD0764960312068884235D090
:101D5000734978312068884230D0714990312068C9
:101D600088422BD06E49A8312068884226D06D4920
:101D70002068884222D06B491831206888421DD0E3
:101D8000684930312068884218D066494831206857
:101D9000884213D063496031206888420ED061497F
:101DA00078312068884209D05E49903120688842A5
:101DB00004D05C49A8312068884206D120680068B8
:101DC00020F001002168086005E02068006820F02C
:101DD00001002168086052492068884270D050494B
:101DE0001831206888426BD04D49303120688842D4
:101DF00066D04B4948312068884261D048496031FB
:101E0000206888425CD0464978312068884257D0A3
:101E1000434990312068884252D04149A831206816
:101E200088424DD03F492068884249D03D49183109
:101E30002068884244D03B493031206888423FD0F6
:101E400038494831206888423AD0364960312068A4
:101E5000884235D0334978312068884230D03149C2
:101E60009031206888422BD02E49A83120688842C2
:101E700026D02D492068884222D02B491431206871
:101E800088421DD0284928312068884218D0264928
:101E90003C312068884213D0234950312068884261
:101EA0000ED0214964312068884209D01E4978311A
:101EB0002068884204D01C498C312068884201D1B6
:101EC000012000E00020D8B1206E006820F480706E
:101ED000216E0860A56D94F85C0000F01F010120E0
:101EE00088406860D4E919104860E06E40B1E06E47
:101EF000006820F48070E16E0860D4E91C1048602E
:101F0000012084F8350000BF002084F8340000BFB1
:101F1000206D10B12046216D884700203EE600006C
:101F20001000024010040240085402580146486D57
:101F3000704700002DE9F84F044600200090FE484D
:101F400000684FF41651B0FBF1FAA66DD4F8588032
:101F50003768D8F80090F9492068884249D0F74995
:101F600018312068884244D0F449303120688842D2
:101F70003FD0F2494831206888423AD0EF49603179
:101F80002068884235D0ED4978312068884230D0C9
:101F9000EA499031206888422BD0E849A83120686E
:101FA000884226D0E6492068884222D0E449183188
:101FB000206888421DD0E24930312068884218D01C
:101FC000DF4948312068884213D0DD4960312068FC
:101FD00088420ED0DA4978312068884209D0D84941
:101FE00090312068884204D0D549A83120688842C1
:101FF00001D1012000E0002000287DD094F85C0091
:1020000000F01F01082088403840002868D0CB49E4
:102010002068884249D0C94918312068884244D094
:10202000C6493031206888423FD0C44948312068D1
:1020300088423AD0C14960312068884235D0BF49D2
:1020400078312068884230D0BC499031206888427D
:102050002BD0BA49A8312068884226D0B8492068D8
:10206000884222D0B6491831206888421DD0B44930
:1020700030312068884218D0B14948312068884200
:1020800013D0AF496031206888420ED0AC49783116
:102090002068884209D0AA4990312068884204D03B
:1020A000A749A8312068884204D12068006800F060
:1020B000040003E02068006800F0080080B1206898
:1020C000006820F004002168086094F85C0000F0CB
:1020D0001F0108208840B060606D40F0010060651D
:1020E00094F85C0000F01F01012088403840E8B3FC
:1020F00092492068884200E0B7E24BD08F491831FE
:102100002068884246D08D4930312068884241D0CD
:102110008A494831206888423CD08849603120682B
:10212000884237D0854978312068884232D0834947
:102130009031206888422DD08049A831206888429B
:1021400028D07F492068884224D07D4918312068F2
:1021500088421FD07A493031206888421AD07849A5
:1021600048312068884215D0754900E026E060318A
:10217000206888420ED0724978312068884209D0A0
:102180006F4990312068884204D06D49A831206899
:10219000884204D12068406900F0800002E0206895
:1021A0000068002050B194F85C0000F01F0101208D
:1021B0008840B060606D40F00200606594F85C009B
:1021C00000F01F01042088403840E8B35B492068D4
:1021D00088424BD0594918312068884246D0574927
:1021E00030312068884241D05449483120688842C3
:1021F0003CD0524960312068884237D04F4978310D
:102200002068884232D04D499031206888422DD0D4
:102210004A49A8312068884228D049492068884224
:1022200024D047491831206888421FD044493031B2
:10223000206888421AD0424948312068884215D027
:102240003F496031206800E024E088420ED03C49DC
:1022500078312068884209D0394990312068884215
:1022600004D03749A8312068884204D1206800682A
:1022700000F0020002E020680068002050B194F8ED
:102280005C0000F01F0104208840B060606D40F0E9
:102290000400606594F85C0000F01F011020884085
:1022A0003840E8B325492068884251D02349183185
:1022B000206888424CD0214930312068884247D07C
:1022C0001E4948312068884242D01C49603120684C
:1022D00088423DD0194978312068884238D0174962
:1022E00090312068884233D01449A8312068884250
:1022F0002ED01349206888422AD01149183120680D
:10230000884225D00E4930312068884220D00C49BF
:102310004831206888421BD009496031206800E0BC
:102320004DE0884214D006497831206888420FD0A9
:1023300003499031206805E09C0000241000024011
:1023400010040240884203D0FE492068884204D12C
:102350002068006800F0080003E02068006800F0D2
:10236000040060B394F85C0000F01F011020884066
:10237000B0602068006800F4802080B120680068A8
:1023800000F4002028B9206CC8B12046216C884791
:1023900015E0A06C98B12046A16C88470FE020683A
:1023A000006800F4807028B92068006820F00800F8
:1023B00021680860206C10B12046216C884794F891
:1023C0005C0000F01F0120208840384000287DD0AC
:1023D000DD492068884249D0DB49183120688842AD
:1023E00044D0D9493031206888423FD0D64948315D
:1023F000206888423AD0D44960312068884235D07C
:10240000D14978312068884230D0CF499031206856
:1024100088422BD0CC49A8312068884226D0C949AF
:10242000A8392068884221D0C6499039206888425E
:102430001CD0C44978392068884217D0C149603916
:102440002068884212D0BF494839206888420DD0A0
:10245000BC4930392068884208D0BA491839206808
:10246000884203D0B7492068884204D120680068B8
:1024700000F0100003E02068006800F0020028B3BC
:1024800094F85C0000F01F0120208840B06094F8B0
:10249000350004282DD12068006820F0160021683E
:1024A00008602068406920F0800021684861206C45
:1024B00008B9A06C28B12068006820F008002168E5
:1024C000086094F85C0000F01F0100E03FE03F204E
:1024D0008840B060012084F8350000BF002084F8F7
:1024E000340000BF206D10B12046216D8847BDE843
:1024F000F88F2068006800F4802080B120680068B0
:1025000000F4002028B9606C08B32046616C88474D
:102510001DE0E06BD8B12046E16B884717E02068EA
:10252000006800F4807068B92068006820F010002E
:1025300021680860012084F8350000BF002084F87D
:10254000340000BFE06B10B12046E16B8847606D3E
:1025500000287AD0606D00F00100E8B3042084F810
:1025600035007949206888424BD077491831206876
:10257000884246D0744930312068884241D072493F
:102580004831206888423CD06F49603120688842D9
:1025900037D06D4978312068884232D06A4990310D
:1025A000206888422DD06849A8312068884228D008
:1025B0006449A8392068884223D06249903920684C
:1025C00088421ED05F4978392068884219D05D4919
:1025D00060392068884200E040E012D0594948390B
:1025E000206888420DD0574930392068884208D089
:1025F000544918392068884203D0524920688842DB
:1026000006D12068006820F001002168086005E01C
:102610002068006820F001002168086000BF009871
:10262000401C0090504500D905E02068006800F08B
:1026300001000028F3D100BF2068006800F001000D
:1026400020B1032084F8350003E00DE0012084F878
:10265000350000BF002084F8340000BFE06C002883
:1026600002D02046E16C8847D9E138492068884289
:1026700022D036491431206888421DD03349283190
:102680002068884218D031493C312068884213D0F4
:102690002E495031206888420ED02C496431206880
:1026A000884209D0294978312068884204D02749D6
:1026B0008C312068884201D1012000E000200028F0
:1026C000D2D02068056894F85C0000F01F01042057
:1026D000884000EA0900D8B305F00400C0B394F8BC
:1026E0005C0000F01F0104208840C8F8040005F4D5
:1026F000004080B105F4803030B9A06C0028B3D020
:102700002046A16C88478AE1206C0028ACD0204686
:10271000216C884783E105F02000E8BB0A49206866
:10272000884253D008491831206888424ED0064963
:1027300030312068884249D00349483120688842B6
:1027400044D006E0B8040240100002400854025889
:102750004FE0B44960312068884237D0B1497831C0
:102760002068884232D0AF499031206888422DD00D
:10277000AC49A8312068884228D0AB4920688842FB
:1027800024D0A9491831206888421FD0A649303189
:10279000206888421AD000E025E0A349483120682B
:1027A000884213D0A0496031206888420ED09E49EB
:1027B00078312068884209D09B499031206888424E
:1027C00004D09949A8312068884206D12068006861
:1027D00020F008002168086005E02068006820F00B
:1027E000040021680860206C10B32046216C8847E3
:1027F00015E194F85C0000F01F010220884000EA17
:102800000900E8B305F00200D0B394F85C0000F0D2
:102810001F0102208840C8F8040005F4004070B190
:1028200005F4803028B9606C10B12046616C88478F
:10283000F5E0E06BF0B32046E16B8847EFE005F090
:102840002000C0BB7749206888424ED075491831B6
:102850002068884249D0734930312068884244D08A
:1028600070494831206888423FD06E496031206805
:1028700088423AD06B4978312068884235D000E0F0
:102880004EE068499031206888422ED06549A831D1
:102890002068884229D064492068884225D062494E
:1028A00018312068884220D05F4930312068884242
:1028B0001BD001E06EE02DE05B4948312068884282
:1028C00013D059496031206888420ED0564978317A
:1028D0002068884209D0544990312068884204D049
:1028E0005149A8312068884206D12068006820F04C
:1028F00014002168086005E02068006820F00A00E4
:1029000021680860012084F8350000BF002084F8A9
:10291000340000BFE06BE8B32046E16B88477EE0FF
:1029200094F85C0000F01F010820884000EA0900CC
:1029300080B305F0080068B33A49206888424BD05C
:10294000384918312068884246D0364930312068ED
:10295000884241D033494831206888423CD03149CF
:1029600060312068884237D02E497831206888420B
:1029700032D02C499031206888422DD02949A83185
:102980002068884228D028492068884224D02649D7
:10299000183100E043E0206888421DD022493031E0
:1029A0002068884218D0204948312068884213D0D6
:1029B0001D496031206888420ED01B49783120685B
:1029C000884209D0184990312068884204D01649BD
:1029D000A8312068884206D12068006820F01C00D9
:1029E0002168086005E02068006820F00E0021687A
:1029F000086094F85C0000F01F0101208840C8F8CE
:102A000004000120606584F8350000BF002084F8D0
:102A1000340000BFE06C10B12046E16C884700BF75
:102A200065E5000010000240100402402DE9F0416D
:102A3000044601F091FD804614B90120BDE8F08103
:102A4000FE492068884249D0FC49183120688842F4
:102A500044D0FA493031206888423FD0F7494831A4
:102A6000206888423AD0F54960312068884235D0E4
:102A7000F24978312068884230D0F049903120689E
:102A800088422BD0ED49A8312068884226D0EC49F5
:102A90002068884222D0EA491831206888421DD037
:102AA000E74930312068884218D0E549483120682C
:102AB000884213D0E2496031206888420ED0E04954
:102AC00078312068884209D0DD49903120688842F9
:102AD00004D0DB49A8312068884201D1012000E000
:102AE0000020002873D0606A00B100BF022084F883
:102AF000350000BF002084F8340000BFCF492068B3
:102B0000884249D0CD4918312068884244D0CB4909
:102B10003031206888423FD0C84948312068884217
:102B20003AD0C64960312068884235D0C3497831EF
:102B30002068884230D0C1499031206888422BD02B
:102B4000BE49A8312068884226D0BD492068884205
:102B500022D0BB491831206888421DD0B849303195
:102B60002068884218D0B64948312068884213D07E
:102B7000B3496031206888420ED0B149783120686D
:102B8000884209D0AE4990312068884204D0AC49CF
:102B9000A8312068884206D12068006820F0010032
:102BA0002168086005E02068006820F001002168C5
:102BB00008600DE001F0D0FCA0EB0800052807D963
:102BC00020206065032084F83500012036E769E0A5
:102BD0002068006800F001000028EBD1206805683B
:102BE00098480540D4E90201084321690843616916
:102BF0000843A1690843E1690843216A0843054382
:102C0000606A042803D1D4E90B01084305436068D6
:102C1000292802D360682E2817D960683F2802D37C
:102C20006068422811D96068472802D36068482844
:102C30000BD960684F2802D36068522805D96068B4
:102C4000742804D36068772801D8012000E00020B0
:102C500008B145F48015206805602068456925F0B5
:102C60000705606A0543606A04280DD1A06A054320
:102C7000E06A48B12046FDF71BFF28B1402060659F
:102C8000012084F83500D9E6206845612046FDF72B
:102C9000EBFD064694F85C0000F01F013F208840E1
:102CA000B0609EE068492068884222D066491431AD
:102CB000206888421DD0644928312068884218D095
:102CC00061493C312068884213D05F495031206807
:102CD00088420ED05C4964312068884209D05A4944
:102CE00078312068884204D057498C312068884266
:102CF00001D1012000E00020E0B353492068884260
:102D000022D051491431206888421DD04E492831C3
:102D10002068884218D04C493C312068884213D042
:102D200049495031206888420ED0474964312068B3
:102D3000884209D0444978312068884204D0424909
:102D40008C312068884201D1012000E0002000B1D0
:102D500000BF022084F8350000BF002084F8340052
:102D600000BF2068056839480540A068402802D1A6
:102D7000102106E02EE0A068802801D1C10100E00A
:102D80000021E06841EAD001206941EAD001606990
:102D900041EAD001A06941EAD001E06941EAD001ED
:102DA000206A41EA10100543206805602649206822
:102DB000401A1421B0FBF1F08000E0652046FDF7D9
:102DC00053FD074694F85C0000F01F010120884085
:102DD000786006E040206065032084F8350001201B
:102DE0002CE61649206888427AD0144918312068A8
:102DF000884275D0114930312068884270D00F491F
:102E00004831206888426BD00C4960312068884284
:102E100066D00A4978312068884261D007499031EC
:102E2000206888425CD00549A8312068884257D084
:102E300003492068884253D0014909E0100002404C
:102E4000100402403F8010FE085402580F00FEFF9D
:102E500018312068884243D03749206888423FD0E3
:102E600035491831206888423AD0334930312068DA
:102E7000884235D0304948312068884230D02E49C8
:102E80006031206888422BD02B49783120688842F5
:102E900026D02A492068884222D028491431206847
:102EA00088421DD0254928312068884218D02349FE
:102EB0003C312068884213D0204950312068884234
:102EC0000ED01E4964312068884209D01B497831F0
:102ED0002068884204D019498C312068884201D189
:102EE000012000E0002000B32046FDF733FDA0687C
:102EF000802801D1002060602079216E0860D4E92B
:102F000019104860606860B16068082809D82046D8
:102F1000FDF782FD0020E16E0860D4E91C104860D6
:102F200003E00020E0662067606700206065012004
:102F300084F83500002081E540040240085402581E
:102F40002DE9F04104460D4616461F464FF0000895
:102F500014B90120BDE8F08100BF94F834000128C5
:102F600001D10220F6E7012084F8340000BF94F874
:102F7000350001287ED1022084F8350000206065EC
:102F800065492068884249D06349183120688842E1
:102F900044D061493031206888423FD05E49483191
:102FA000206888423AD05C4960312068884235D038
:102FB000594978312068884230D05749903120688B
:102FC00088422BD05449A8312068884226D05349E2
:102FD0002068884222D051491831206888421DD08B
:102FE0004E4930312068884218D04C494831206819
:102FF000884213D049496031206888420ED0474941
:1030000078312068884209D044499031206888424C
:1030100004D04249A8312068884206D1206800685F
:1030200020F001002168086005E02068006820F0B9
:103030000100216808603B46324629462046FDF7DC
:103040008FFD3549206888424BD0334918312068BC
:10305000884246D0304930312068884241D02E49DC
:103060004831206888423CD02B4960312068884232
:1030700037D000E043E0284978312068884230D0DA
:1030800025499031206888422BD02349A8312068F7
:10309000884226D021492068884222D01F49183111
:1030A000206888421DD01D4930312068884218D0E0
:1030B0001A4948312068884213D018496031206885
:1030C00088420ED0154978312068884209D01349CA
:1030D00090312068884204D01049A8312068884285
:1030E00006D12068006840F001002168086010E007
:1030F0002068006840F001002168086009E04FF492
:103100000060606500BF002084F8340000BF4FF00D
:10311000010840461EE70000100002401004024073
:103120002DE9F04104460D4616461F464FF00008B3
:1031300014B90120BDE8F08100BF94F834000128E3
:1031400001D10220F6E7012084F8340000BF94F892
:10315000350001287ED1022084F83500002060650A
:10316000E4492068884249D0E24918312068884201
:1031700044D0E0493031206888423FD0DD494831B1
:10318000206888423AD0DB4960312068884235D0D7
:10319000D84978312068884230D0D64990312068AB
:1031A00088422BD0D349A8312068884226D0D24902
:1031B0002068884222D0D0491831206888421DD02A
:1031C000CD4930312068884218D0CB494831206839
:1031D000884213D0C8496031206888420ED0C64961
:1031E00078312068884209D0C349903120688842EC
:1031F00004D0C149A8312068884206D120680068FF
:1032000020F001002168086005E02068006820F0D7
:103210000100216808603B46324629462046FDF7FA
:103220009FFCB449206888424BD0B24918312068CD
:10323000884246D0AF4930312068884241D0AD49FC
:103240004831206888423CD0AA49603120688842D1
:1032500037D000E042E1A74978312068884230D079
:10326000A4499031206888422BD0A249A831206817
:10327000884226D0A0492068884222D09E49183131
:10328000206888421DD09C4930312068884218D07F
:10329000994948312068884213D0974960312068A5
:1032A00088420ED0944978312068884209D09249EA
:1032B00090312068884204D08F49A8312068884224
:1032C00001D1012000E0002080B12068006820F0DA
:1032D0001E0040F0160021680860206CB0B1206824
:1032E000006840F00800216808600FE0206800686E
:1032F00020F00E0040F00A0021680860206C28B120
:103300002068006840F0040021680860794920685E
:10331000884270D077491831206888426BD075494F
:1033200030312068884266D072494831206888422E
:1033300061D070496031206888425CD06D49783135
:103340002068884257D06B4990312068884252D01B
:103350006849A831206888424DD067492068884272
:1033600049D0654918312068884244D062493031DB
:10337000206888423FD060494831206888423AD06E
:103380005D4960312068884235D05B4978312068DA
:10339000884230D058499031206888422BD0564915
:1033A000A8312068884226D054492068884222D01B
:1033B00052491431206888421DD050492831206874
:1033C000884218D04D493C312068884213D04B497F
:1033D0005031206888420ED04849643120688842C4
:1033E00009D0464978312068884204D043498C315D
:1033F0002068884201D1012000E0002090B1206EB9
:10340000006800F4803028B1206E006840F48070BD
:10341000216E0860E06E28B1E06E006840F48070B4
:10342000E16E086033492068884249D0314918313B
:103430002068884244D02F493031206888423FD0EC
:103440002C494831206888423AD02A4960312068A6
:10345000884235D0274978312068884230D02549C4
:103460009031206888422BD02249A83120688842B8
:1034700026D021492068884222D01F49183120686F
:1034800088421DD01C4930312068884218D01A4922
:1034900048312068884213D017496031206888423B
:1034A0000ED0154978312068884209D012499031F0
:1034B0002068884204D01049A8312068884206D18B
:1034C0002068006840F001002168086010E0206872
:1034D000006840F001002168086009E04FF40060D6
:1034E000606500BF002084F8340000BF4FF0010881
:1034F00040461FE6100002401004024008540258E3
:1035000070B5044601F028F806462546681C10B13F
:1035100004480078054400BF01F01EF8801BA84253
:10352000FAD370BD9800002430B5034693F8984054
:10353000012C01D0022C3ED11868806D084030B9B2
:103540001868C06D40F001001D68E8650EE018685D
:10355000806D0840884206D11868C06D40F00200B6
:103560001D68E86502E003201D68E86501F400704D
:1035700030B11868D0F8E00010431D68C5F8E000CD
:1035800001F4806030B11868D0F8E40010431D6881
:10359000C5F8E40000BF1868406D0B4D0D4028438E
:1035A0001D6868650948006840EA9170074D286009
:1035B00000BF002030BDD3F89C0040F00200C3F8EB
:1035C0009C000120F6E70000FFFFCF3F14A8004059
:1035D0002DE9F04104460E461746706800B900E038
:1035E00000BF94F89800022832D12068D0F8C000BB
:1035F00000F07C5040B9D4F89C0040F02000C4F8A2
:103600009C000120BDE8F0812068D0F8C40000F4DF
:10361000001038B1D4F89C0040F40070C4F89C004D
:103620000120EFE72068D0F8C400C0F304452B4622
:103630003A4631462046FDF771FD0120A840216839
:10364000C1F8D0000120A840C4F894000020D9E7B8
:10365000D4F89C0040F00800C4F89C000120D1E799
:103660007047F0B5024692F89860012E01D0022E04
:1036700043D1C868072800D100BF086818BBC868D4
:10368000072800D000BFC86807280BD1088A4FF070
:10369000605747EA0040CF6940EA07208F6940EA57
:1036A00007040AE0087A80070F7B40EAC7600F8AA8
:1036B00040EA07404F6940EA0704D76E486807EBC5
:1036C00080031C6017E0C868072800D000BF0F7B8C
:1036D000086940EA4774C868072801D18D6903E08A
:1036E0000F7A486940EA8775176F486807EBC0038F
:1036F0001C601B1D1D600020F0BDD2F89C0040F036
:103700000200C2F89C000120F6E770B50446049D53
:1037100094F8980001280AD1080140EA820040EAA2
:10372000430028432668C6F88000002070BDD4F806
:103730009C0040F00400C4F89C000120F6E77047AC
:10374000704700002DE9F04304460D469C460023D7
:1037500094F89880B8F1020F74D1402D38D12068C8
:10376000D0F8A00000F4FE0040B9D4F89C0040F06E
:103770002000C4F89C000120BDE8F0832068D0F848
:10378000A40000F07F0038B9D4F89C0040F48070A9
:10379000C4F89C000120EFE72068D0F8A400C0F333
:1037A000006040B12068D0F8A0004FF00049B9EBAC
:1037B000D07F00D101232068D0F8A400C0F30520F9
:1037C0000344606C5843D4F8749009EB80014BE0DB
:1037D000412D38D12068D0F8B00000F4FE0038B98F
:1037E000D4F89C0040F02000C4F89C000120C3E7FE
:1037F0002068D0F8B40000F07F0038B9D4F89C00FD
:1038000040F48070C4F89C000120B5E72068D0F82F
:10381000B400C0F3006040B12068D0F8B0004FF0B1
:103820000049B9EBD07F00D101232068D0F8B40063
:10383000C0F305200344E06C5843D4F8789009EBBA
:10384000800111E06EE0206DA84207D8D4F89C00FA
:1038500040F02000C4F89C0001208DE7606D6843B3
:10386000D4F87C9009EB8001086800F0804050603B
:10387000506820B90868C0F38A40106003E0086807
:1038800020F060401060086800F000509060086808
:1038900000F000401061091D088880B2D0610868FE
:1038A00000F47020D060086800F48010506108684F
:1038B00000F4001090610868C0F3066010620868A8
:1038C000C00F5062091D0F46002603E0B85D0CF8DA
:1038D0000600761CDFF85C90D06809EB1040007899
:1038E000B042F3D8402D03D12068C0F8A83017E0CB
:1038F000412D03D12068C0F8B83011E0202D06D248
:103900000120A840D4F80090C9F8980008E005F01C
:103910001F09012000FA09F0D4F80090C9F89C00B2
:10392000002029E7D4F89C0040F00800C4F89C006F
:10393000012021E7A00A0108704700002DE9F04F9F
:103940008DB00446EF4800688707EE48001D006808
:1039500007EA80772068006D00F470482068406DA9
:1039600000EA08082068006D00F00F092068406D2B
:1039700000EA09092068006D00F0F00A2068406D37
:1039800000EA0A0A2068006D00F0715B2068406D53
:1039900000EA0B0B2068006D00F060700C9020684E
:1039A000406D0C9908400C902068456D2068066DAC
:1039B000C5F3002070B1C6F3002058B100BF4FF42A
:1039C0008070216808650020CE49086000BF20464D
:1039D000FFF7B2FFC5F38020C8B1C6F38020B0B1B5
:1039E0002068D0F8DC000A902068D0F8E4000A993A
:1039F00008400A9000BF4FF48060216808650020ED
:103A0000C049086000BF20460A9900F0A3FC67B1D6
:103A100000BFBD48384021680865B80FB949086043
:103A200000BF39462046FFF71BFEB8F1000F0ED04D
:103A300000BFB54808EA0000216808654FEA9870A1
:103A4000B049086000BF4146204600F085FCB9F14E
:103A5000000F0ED000BFAC4809EA000021680865DD
:103A60004FEA9970A749086000BF4946204600F018
:103A7000D7FBBAF1000F0ED000BFA3480AEA00003E
:103A8000216808654FEA9A709E49086000BF514658
:103A9000204600F013FCC5F3C02070B1C6F3C0206F
:103AA00058B100BF4FF400602168086500209549B7
:103AB000086000BF204600F050FCC5F34020C8B1AC
:103AC000C6F34020B0B12068D0F8D8000B90206831
:103AD000D0F8E0000B9908400B9000BF4FF4007045
:103AE0002168086500208749086000BF20460B99BF
:103AF00000F031FCC5F3C04070B1C6F3C04058B10E
:103B000000BF4FF400202168086500207D4908604F
:103B100000BF204600F082FBC5F3004070B1C6F341
:103B2000004058B100BF4FF4803021680865002084
:103B30007449086000BF204600F00BFCC5F38040CC
:103B400070B1C6F3804058B100BF4FF480202168A7
:103B5000086500206B49086000BF204600F0F8FBB4
:103B6000C5F3404088B1C6F3404070B100BF4FF488
:103B700000302168086500206249086000BFD4F861
:103B80009C0040F08000C4F89C000C9870B100BF0D
:103B90005D490C980840216808650C98800F5949C8
:103BA000086000BF20460C99FFF7CAFDBBF1000F6B
:103BB00010D000BF54480BEA0000216808654FEAA6
:103BC0009B705049086000BFD4F89C0040EA0B008D
:103BD000C4F89C004D49206888427DD160688068A7
:103BE00000F00300002877D06068006A00F00F0042
:103BF00009906068406A0999084009906068006A05
:103C000000F0300008906068406A08990840089009
:103C10006068006A00F4C07007906068406A0799A5
:103C2000084007906068006A00F4FC4006906068F5
:103C3000406A0699084006906068006A00F4F02027
:103C400005906068406A0599084005906068406A80
:103C500002906068006A0190099830B10998616823
:103C600008622046099900F070FB089830B1089866
:103C7000616808622046089900F069FB0298C0F369
:103C80008010A0B10198C0F3801080B16068C06B53
:103C9000000C04906068C06B00F03F00039040206F
:103CA000616808622046DDE9032100F04FFB0798B8
:103CB00030B10798616808622046079900F044FB1C
:103CC000069840B1069861680862D4F89C0006998D
:103CD0000843C4F89C0000E00AE0059840B105984C
:103CE00061680862D4F89C0005990843C4F89C00F8
:103CF000D4F89C0010B12046FFF721FD0DB0BDE8BF
:103D0000F08F000010A80040FFFFCF3F00A0004050
:103D100070B594B004464C22B34901A8FCF785FB6A
:103D200014B9012014B070BDB0492068884203D195
:103D3000206800F580706060A068B0F5407F00D119
:103D400000BF206C00B100BFA06C00B100BF206DAF
:103D500000B100BF206E00B100BFD4E917100844C5
:103D600000B100BF94F8980028B9002084F89900A9
:103D7000204600F03DF92068806920F0100021689D
:103D8000886100F0E9FB05460EE000F0E5FB401B12
:103D90000A2809D99834606840F001006060032067
:103DA00004F898090120BDE72068806900F0080048
:103DB0000828EAD02068806940F001002168886105
:103DC00000F0CAFB05460EE000F0C6FB401B0A28C7
:103DD00009D99834606840F001006060032004F85D
:103DE000980901209EE72068806900F00100002802
:103DF000EAD02068806940F0020021688861207C58
:103E0000012806D12068806920F04000216888617F
:103E100005E02068806940F0400021688861607C8E
:103E2000012806D12068806940F4804021688861BB
:103E300005E02068806920F4804021688861A07CCA
:103E4000012806D12068806920F4805021688861AB
:103E500005E02068806940F480502168886120680E
:103E6000806920F44070A168084321688861206857
:103E7000806920F0A400216888612068006920F032
:103E8000100021680861E068012806D12068806977
:103E900040F004002168886120E0E068F0B1E0684B
:103EA000022815D02068806940F080002168886170
:103EB0002068006940F0100021680861E06803286C
:103EC0000CD12068806940F020002168886105E0FD
:103ED0002068806940F0200021688861207E401EB3
:103EE0004106E069401E41EA0020216A491E08435C
:103EF000A18A491E40EA01402168C861A068B0F566
:103F0000407F0FD1A06A401EE16A491E40EA0121AC
:103F1000206B401E41EA0011A08C401E41EA004087
:103F20002168C860206E38B12068D0F8C000616E8A
:103F300008432168C1F8C000D4E91710084460B1F3
:103F40002068D0F8C80020F0070001AAA16E52F83E
:103F5000211008432168C1F8C800206C60B12068B6
:103F6000D0F8BC0020F0070001AA616C52F82110C3
:103F700008432168C1F8BC00A06C68B12068D0F883
:103F8000BC0020F0700101AAE06C52F8200041EA68
:103F900000102168C1F8BC00206D68B12068D0F81D
:103FA000BC0020F4E06101AA606D52F8200041EAF3
:103FB00000202168C1F8BC000C492068884205D166
:103FC0006068806820F0030061688860002044F821
:103FD000940FA06001202071943C2046FCF78EFFD6
:103FE000064630469EE60000B00A010800A00040E8
:103FF00010B5B6B00446142130A8FCF72FFAB8214A
:1040000002A8FCF72BFA7E492068884249D14FF478
:1040100000410020CDE9021048031D9002A801F0E4
:1040200015FD08B1FCF7DFFE76480068401C7549B5
:1040300008600846006801280DD100BF724800687A
:1040400040F48070704908600846006800F4807091
:10405000019000BF00BF00BF6B480C38006840F003
:10406000080069490C3908600846006800F008003B
:10407000019000BF00BF032030900220319000204B
:10408000329033900920349030A9604800F066F9EE
:1040900000220521132000F017FB132000F000FB85
:1040A000ABE05B492068884251D14FF400410020C9
:1040B000CDE9021048031D9002A801F0C7FC08B129
:1040C000FCF791FE4F480068401C4E4908600846C6
:1040D000006801280DD100BF4B48006840F4807093
:1040E000494908600846006800F48070019000BFEC
:1040F00000BF00BF44480C38006840F0020042494D
:104100000C3908600846006800F00200019000BF0A
:1041100000BF602030900220319000203290339018
:104120000920349030A93B4800F018F900220521FD
:10413000142000F0C9FA142000F0B2FA0022052180
:10414000162000F0C1FA162000F0AAFA55E0324914
:104150002068884251D14FF400410020CDE902107F
:1041600048031D9002A801F071FC08B1FCF73BFE6A
:1041700024480068401C234908600846006801285C
:104180000DD100BF2048006840F480701E490860CF
:104190000846006800F48070019000BF00BF00BFB7
:1041A00019480C38006840F0080017490C390860BD
:1041B0000846006800F00800019000BF00BF4FF4FF
:1041C00040503090022031900020329033900520F2
:1041D000349030A90D4800F0C1F8002205219F203D
:1041E00000F072FA9F2000F05BFA00220521A02067
:1041F00000F06AFAA02000F053FA36B010BD0000BB
:1042000000A0004018000024EC440258000C0258A2
:1042100000A400400004025800D400407047000091
:1042200070B504460D4605F00100002838D01D4940
:104230002068884234D140211B48FCF70FF91A4B03
:104240001A4A40212046FFF77DFA18480068A0F27C
:10425000012068B1012812D0052802D006281DD1FE
:1042600015E012481049C2681148FCF7C3F916E07E
:104270000E480D49C2680F48FCF7BCF90FE00B4827
:104280000949C2680B48C830FCF7B4F907E0074891
:104290000549C2680848FCF7ADF900E000BF00BF5F
:1042A00070BD000000A00040C46A00249C6A002485
:1042B000A8020024A40300243405002470B5044699
:1042C0000D4605F01000D8B10E492068884217D17C
:1042D00040210D48FCF7C2F80B4B0C4A4121204607
:1042E000FFF730FA09480068A0F2052030B9074806
:1042F0000549C2680648FCF77DF900E000BF00BF31
:1043000070BD000000A400402C6B0024046B00244E
:10431000C8010024014691F8980001280CD1022020
:1043200081F898000868806920F001000A689061AF
:104330000020C1F89C007047D1F89C0040F00400B8
:10434000C1F89C000120F6E770477047704770473E
:10435000704770477047704770477047F8B502461E
:104360000B4600216D4DD2E001278F401E6806EA02
:104370000704002C72D01E7906F00306012E04D02B
:104380001E7906F00306022E13D190684F00032613
:10439000BE40B0434F00DE68BE403043906050687E
:1043A00001268E40B0431E79C6F300168E4030437E
:1043B00050601E7906F00306032E09D0D0684F0026
:1043C0000326BE40B0434F009E68BE403043D060DD
:1043D0001E7906F00306022E13D1CF0802F1200643
:1043E00056F827004E07F70E0F26BE40B0434F0782
:1043F000FF0E1E69BE403043CF0802F1200646F88A
:10440000270010684F000326BE40B0431E7906F017
:1044100003064F00BE40304310605E6806F440362D
:10442000002E73D000BF3E4E366846F002063C4F69
:104430003E603E46366806F00206009600BF00BFAA
:10444000384E8F0856F827008E07370F0F26BE40CC
:10445000B043354EB24202D1002629E056E0334E39
:10446000B24201D1012623E0314EB24201D10226EF
:104470001EE0304EB24201D1032619E02E4EB24268
:1044800001D1042614E02D4EB24201D105260FE0E1
:104490002B4EB24201D106260AE02A4EB24201D189
:1044A000072605E0284EB24201D1092600E00A267F
:1044B0008F073F0FBE4030431A4E8F0846F8270043
:1044C0004FF0B0463068A0435E6806F4801606B12F
:1044D00020434FF0B04630607068A0435E6806F439
:1044E000001606B120434FF0B04670606868A043E4
:1044F0005E6806F4003606B1204368602868A04371
:104500005E6806F4803606B120432860491C1E68A8
:10451000CE40002E7FF428AFF8BD00008000005888
:10452000F4440258080400580000025800040258DD
:1045300000080258000C02580010025800140258DB
:1045400000180258001C0258002402580AB1816168
:1045500001E00B0483617047014800687047000068
:104560009000002403480068034909780844014981
:1045700008607047900000249800002410B50320C4
:1045800000F0E0F802F0D6FA10490968C1F30321FF
:104590000F4A515C01F01F0120FA01F40B4800683A
:1045A00000F00F001146085C00F01F0024FA00F034
:1045B00008490860084804600F2000F00FF808B1AF
:1045C000012010BD00F054F80020FAE7184402580A
:1045D000240B0108A00000249C00002470B58AB0C0
:1045E0000446102C0AD200222146A12000F06CF8CB
:1045F000A12000F055F81948046002E001200AB03B
:1046000070BD00BF1648006840F080701449086013
:104610000846006800F08070009000BF00BF01A94C
:1046200002A802F007FA02F073FA45000D48B5FB44
:10463000F0F0461E0C480D49086040F2E7310B4887
:10464000C160466000210161816003F01AFA18B967
:10465000064803F04FFAD2E70120D0E79400002487
:10466000EC44025840420F0000E0004034100024A7
:1046700008B500BF0948006840F00200074908601B
:104680000846006800F00200009000BF00BF002252
:104690000F21901E00F018F808BD0000F4440258E5
:1046A0000146084600280DDB00BF00BF00F01F03D5
:1046B00001229A4043099B0003F1E023C3F8002143
:1046C00000BF00BF00BF70472DE9F05F80460D4678
:1046D000164609F06DFB074639462A46334601F077
:1046E0000700C0F1070ABAF1040F02D94FF0040A1B
:1046F00001E0C0F1070AD14600F1040ABAF1070F40
:1047000002D24FF0000A01E0A0F1030AD4464FF0B4
:10471000010A0AFA09FAAAF1010A0AEA020A0AFADD
:104720000CFA4FF0010B0BFA0CFBABF1010B0BEA8F
:10473000030B4AEA0B042146404609F041FBBDE861
:10474000F09F000000BF00F00702064B19684FF60B
:10475000FF031940044B0B4343EA0221014B19604C
:1047600000BF70470CED00E00000FA0501460A6842
:104770000120C1F80005002081F8F404906940F0A0
:1047800000609061506D024B1843506500207047E7
:104790000300001070470246106841620020704715
:1047A000F0B5034615461868446A21B944EA054045
:1047B0001E68B06219E01868806A04EB1044002299
:1047C00008E0186800F5827050F8220004EB1044ED
:1047D000501CC2B2481E9042F3D844EA05471868FC
:1047E00000F582704E1E40F826700020F0BD10B516
:1047F0000446D4F8080507F057FD10BD70B504460F
:104800000D4605EBC50304F13C0101EB8301CA68C9
:104810002946D4F8080507F042FC70BD70B504467F
:104820000D4605EBC50304F51F7101EB8301CA6852
:104830002946D4F8080507F0B6FC70BD10B504464B
:10484000D4F8080507F033FD10BD2DE9F04104460A
:104850000D4605F08000802808D105F00F0000EB20
:10486000C00104F13C0000EB810607E005F00F00F9
:1048700000EBC00104F51F7000EB81063146206893
:1048800008F05EFF07463846BDE8F08170B5044683
:104890000E4606F0800080280AD106F00F0000EBDB
:1048A000C00104F13C0000EB81050120687009E0C3
:1048B00006F00F0000EBC00104F51F7000EB81054E
:1048C0000020687006F00F00287000BF94F8BC0448
:1048D000012801D1022070BD012084F8BC0400BF72
:1048E0002946206808F0C8FA00BF002084F8BC04FC
:1048F00000BF00BFEFE770B504460E4606F00F009C
:104900006168884201D9012070BD06F080008028CE
:104910000AD106F00F0000EBC00104F13C0000EBEF
:1049200081050120687009E006F00F0000EBC0016E
:1049300004F51F7000EB8105002068700020A8704E
:1049400006F00F00287000BF94F8BC04012801D1C4
:104950000220D9E7012084F8BC0400BF2946206862
:1049600008F080FC00BF002084F8BC0400BF00BF3A
:10497000CAE7024601F00F0000EBC00302F51F700A
:1049800000EB8300406970472DE9F04705460E466D
:1049900090461F464FF0000906F0800080280AD19B
:1049A00006F00F0000EBC00105F13C0000EB8104B4
:1049B0000120607009E006F00F0000EBC00105F572
:1049C0001F7000EB81040020607006F00F00207063
:1049D000C4F808802771607808B120786083022FBE
:1049E00001D10020607100BF95F8BC04012802D1FC
:1049F0000220BDE8F087012085F8BC0400BF2146F5
:104A0000286808F045F900BF002085F8BC0400BF05
:104A10004846EEE72DE9F04105460E461746984612
:104A200006F00F0000EBC00105F51F7000EB8104DC
:104A3000E760C4F8108000206061607006F00F002D
:104A40002070E868012800D1E7612A7B21462868A8
:104A500008F09CFC0020BDE8F08170B504460D46CE
:104A600005F00F006168884201D9012070BD05F092
:104A7000800080280AD105F00F0000EBC00104F18E
:104A80003C0000EB81060120707007E005EBC501DA
:104A900004F51F7000EB8106002070700120B070DB
:104AA00005F00F00307000BF94F8BC04012801D15C
:104AB0000220DBE7012084F8BC0400BF31462068F7
:104AC00008F017FC05F00F0028B9217B04F2C4425E
:104AD000206808F08FFB00BF002084F8BC0400BFF2
:104AE00000BFC3E72DE9F04105460E46174698463C
:104AF00006F00F0000EBC00105F13C0000EB810463
:104B0000E760C4F81080002060610120607006F04A
:104B10000F002070E868012800D1E7612A7B214658
:104B2000286808F033FC0020BDE8F0812DE9FE4F35
:104B30000446D4F800B05E46206808F0E8FE00287D
:104B400074D1206808F022FF08B9BDE8FE8F40F656
:104B500008008059C0F30D20C4F8FC04206808F058
:104B600015FF00F00200022805D12068406900F01E
:104B7000020021684861206808F008FF00F010007A
:104B8000102845D12068806920F0100021688861D4
:104B9000DBF8209009F00F0000EBC00104F51F7056
:104BA00000EB810AC9F3434002281AD147F6F0709E
:104BB00009EA000030B3C9F30A125846DAF80C10BB
:104BC00008F0E9FEC9F30A11DAF80C000844CAF843
:104BD0000C00C9F30A11DAF814000844CAF81400EA
:104BE00010E0C9F3434006280CD1082204F2C44166
:104BF000584608F0D0FEC9F30A11DAF81400084448
:104C0000CAF814002068806940F0100021688861AB
:104C1000206808F0BBFE00F40020B0F5002F7BD127
:104C20000025206808F082FE029072E003E30298FB
:104C300000F00100002868D0E9B2206808F099FE71
:104C4000804608F0010048B1012106F5306000EB14
:104C5000451081602946204604F0E4FA08F0080077
:104C6000082809D1082106F5306000EB4510816065
:104C70002946204604F0A4FA08F01000102805D1B7
:104C8000102106F5306000EB4510816008F002004D
:104C9000022824D1DBF8140000F08000802807D11E
:104CA00040F60400805940F4806140F604008151D0
:104CB00005EBC50104F51F7000EB810A9AF80300AB
:104CC000012806D100208AF80300E9B2204600F04E
:104CD000BDFA022106F5306000EB4510816008F056
:104CE0002000202805D1202106F5306000EB45107A
:104CF000816008F40050B0F5005F06D14FF4005118
:104D000006F5306000EB451081606D1C029840088C
:104D10000290029800288AD1206808F037FE00F43B
:104D20008020B0F5802F7DD1206808F0F5FD02903D
:104D300000259AE0029800F00100002873D0E9B243
:104D4000206808F0FDFD804608F00100F0B305F092
:104D50000F0101208840019040F6340081590198EC
:104D600021EA000040F634018851012106F5106067
:104D700000EB45108160E068012824D105EBC501F6
:104D800004F13C0000EB810005EBC502C16804F1B1
:104D90003C0000EB82008068014405EBC50204F191
:104DA0003C0000EB8200C1606DB905EBC50104F168
:104DB0003C0000EB8100006928B904F2C4420121E3
:104DC000206808F017FAE9B2204600E001E0FFF79A
:104DD00015FD08F00800082805D1082106F5106027
:104DE00000EB4510816008F01000102805D110215B
:104DF00006F5106000EB4510816008F04000402887
:104E000005D1402106F5106000EB4510816008F0E7
:104E1000020002281DD12946584608F039FD05EB4D
:104E2000C50101E025E01CE004F13C0000EB810A33
:104E30009AF80300012806D100208AF80300E9B29D
:104E4000204600F0FAF9022106F5106000EB45104B
:104E5000816008F08000802803D12946204604F0B4
:104E600083FA6D1C029840080290029800287FF493
:104E700061AF206808F08AFD00F00040B0F1004FFB
:104E80001CD140F60400805920F0010140F60400D6
:104E9000815194F8F404012807D1002084F8F40427
:104EA00000212046FFF776FC02E0204600F0E0FA01
:104EB0002068406900F0004021684861206808F0DF
:104EC00065FD00F40060B0F5006F0ED140F60800FB
:104ED000805900F0010010B1204600F021FB20684D
:104EE000406900F4006021684861206808F04EFDC8
:104EF00000F00060B0F1006F19D12068406900F047
:104F000000602168486194F8F40468B9012084F8CD
:104F1000F4042068406DC0F38300C4F8F804012154
:104F20002046FFF737FC02E0204600F0F9FA20683F
:104F300008F02CFD00F48050B0F5805F7ED140F683
:104F40000400805920F0010140F604008151102135
:104F5000206808F09DFC002732E04FF67F3106F50F
:104F6000106000EB4710816006F5106000EB471001
:104F7000006820F4001106F5106000EB4710016096
:104F80004FF67F3106F5306000EB4710816006F583
:104F9000306000EB4710006820F4001106F5306027
:104FA00000EB4710016006F5306000EB4710006829
:104FB00040F0006106F5306000EB471001607F1C97
:104FC0006068B842C9D840F61C00805940F0011111
:104FD00040F61C008151206B70B1D6F8840840F077
:104FE0000B01C6F8841840F64400805940F00B01CC
:104FF00040F6440081510FE040F61400805942F21F
:105000002B01084340F614018851081F805940F0D5
:105010000B014FF401608151D6F8000820F4FE60C6
:10502000C6F80008217B04F2C442206808F0E2F8C8
:105030002068406900F48050216800E000E0486189
:10504000206808F0A3FC00F40050B0F5005F17D111
:10505000206807F085FE206808F046FC206101F01A
:105060001FFD0090227C2068009908F017FD204663
:1050700000F0E6F92068406900F4005021684861BA
:10508000206808F083FC00F00800082808D12046BA
:1050900000F0F5F92068406900F0080021684861D7
:1050A000206808F073FC00F08000802818D1DBF83D
:1050B000180020F08000CBF8180001250DE005EB6A
:1050C000C50104F51F7000EB8100C078012803D1F1
:1050D000E9B22046FFF7B9FB6D1C6068A842EED824
:1050E000206808F053FC00F48010B0F5801F2DD12B
:1050F000012522E006F5106000EB4510D0F8009085
:1051000005EBC50104F13C0000EB810000790128AA
:1051100012D109F00040B0F1004F0DD1012105EB93
:10512000C50204F13C0000EB8200C170E8B240F01F
:1051300080012046FFF789FB6D1C6068A842D9D822
:105140002068406900F4801021684861206808F0F8
:105150001DFC00F40010B0F5001F44D1012538E01B
:1051600006F5306000EB4510D0F8009005EBC50166
:1051700004F51F7000EB81000079012828D109F0A7
:105180000040B0F1004F23D109F4803094F8FC14B2
:1051900001F0010188421BD1012105EBC50204F594
:1051A0001F7000EB8200C170DBF8180040F0800037
:1051B000CBF81800DBF8140000F0800040B940F68E
:1051C0000400805940F4007140F60400815103E06E
:1051D0006D1C6068A842C3D800BF2068406900F415
:1051E000001021684861206808F0D0FB00F0804082
:1051F000B0F1804F08D12046FFF7F9FA20684069E6
:1052000000F0804021684861206808F0BFFB00F092
:10521000040004280FD12068D0F8049009F004009D
:10522000042802D12046FFF709FB2068406840EAC5
:1052300009002168486000BF87E470B504460D4648
:105240002946D4F8080507F0A3F870BD70B50446E8
:105250000D462946D4F8080507F0BEF870BD70B5B4
:105260008AB0044614B901200AB070BD266894F8CB
:10527000BD0428B9002084F8BC04204600F0A8F83A
:10528000032084F8BD04F06B00F4807008B900219D
:10529000E160206807F0A6FF282204F110016846AB
:1052A000FBF7C3F894E80F0007F06EFD20B1022071
:1052B00084F8BD040120D7E70021206808F09BFB9B
:1052C000002531E0012105EBC50204F13C0000EBB3
:1052D0008200417005EBC50104F13C0000F821504B
:1052E00005EBC50100EB81004583002105EBC502FC
:1052F00004F13C0000EB8200017105EBC50204F1F2
:105300003C0000EB8200816005EBC50204F13C002B
:1053100000EB8200C16005EBC50204F13C0000EB2C
:1053200082000161681CC5B26068A842CAD8002525
:105330002AE0002105EBC50204F51F7000EB820096
:10534000417005EBC50104F51F7000F821500021E4
:1053500005EBC50200EB8200017105EBC50204F507
:105360001F7000EB8200816005EBC50204F51F7021
:1053700000EB8200C16005EBC50204F51F7000EB75
:1053800082000161681CC5B26068A842D1D8282299
:1053900004F110016846FBF748F894E80F0007F0A5
:1053A00035FE20B1022084F8BD0401205CE7002016
:1053B00084F83800012084F8BD04606A012802D115
:1053C0002046FFF7D3F9206807F00EFE00204BE7D8
:1053D00010B5B0B00446B82102A8FBF73FF8164953
:1053E0002068884225D14FF480210020CDE90210A9
:1053F0004FF44010239002A800F028FB08B1FBF7FF
:10540000F2FC00F0D7F800BF0C48006840F00070D4
:105410000A4908600846006800F00070019000BF6B
:1054200000BF002205214D20FFF74EF94D20FFF768
:1054300037F930B010BD000000000440D8440258D5
:1054400070B504460125206908B9002506E02069E9
:10545000022801D1012501E0FBF7C5FC2946D4F85B
:10546000080507F062F8D4F8080507F009F870BDE0
:1054700010B50446D4F8080507F038F810BD10B58B
:105480000446D4F8080507F03CF810BD70B5044692
:105490000D4600BF94F8BC04012801D1022070BD64
:1054A000012084F8BC0400BF84F8385029462068E5
:1054B00008F0D5FA00BF002084F8BC0400BF00BF8C
:1054C000EDE710B5044604F2C441D4F8080507F02E
:1054D00043F810BD70B50446256800BF94F8BC04BD
:1054E000012801D1022070BD012084F8BC0400BF56
:1054F000E86B00F4807030B9A06A012803D1A86B72
:1055000040F48030A863206808F090F9206807F024
:1055100059FD00BF002084F8BC0400BF00BFE2E7D3
:1055200010B50446D4F8080507F073F82068D0F8E1
:10553000000E40F001002168C1F8000E206A28B179
:105540000348006840F006000149086010BD0000F3
:1055500010ED00E070B5044615480068C0F3800007
:1055600048B91348006800F00700A04201D00120AC
:1055700070BD0020FCE70E48006820F007002043C3
:105580000B490860FEF7E8FF054607E0FEF7E4FF79
:10559000401BB0F57A7F01D90120E9E704480838BB
:1055A0000068C0F340300028F0D00020E0E70000A1
:1055B0000C4802580348006840F0807001490860B8
:1055C000704700000C48025810B501F069FA05490F
:1055D0000968C1F30211044A515C01F01F01C8407F
:1055E00010BD000020440258240B010870B501468C
:1055F000844D2D6805F00303824D2D68C5F30530F9
:10560000804D2D1D2D68C5F300147E4D14352D6879
:10561000C5F3CC0515FB04F501EE105AB8EE411A9E
:10562000F0EE410A00286FD023B1012B4ED0022B9F
:105630006BD16BE0734D283D2D68C5F340153DB32C
:10564000704D283D2D68C5F3C1066F4D25FA06F251
:1056500001EE102AF8EE411A01EE100AB8EE411AD6
:1056600081EE812A9FED691AC0EE811A654D1035D1
:105670002D68C5F3080501EE105AB8EE411A31EE57
:10568000811AF7EE001A31EE211A22EE010A1CE00F
:1056900001EE100AB8EE411ADFED5D1A81EE812AA3
:1056A0009FED5A1AC0EE811A564D10352D68C5F37C
:1056B000080501EE105AB8EE411A31EE811AF7EEE4
:1056C000001A31EE211A22EE010A5BE001EE100A07
:1056D000B8EE411ADFED4F1A81EE812A9FED4B1A89
:1056E000C0EE811A474D10352D68C5F3080501EE4F
:1056F000105AB8EE411A31EE811AF7EE001A31EE67
:10570000211A22EE010A3DE077E01DE001EE100AC9
:10571000B8EE411A9FED402AC2EE011A9FED3B1AE6
:1057200080EE812A374D10352D68C5F3080501EE4E
:10573000105AB8EE411A32EE011AB7EE002A31EED5
:10574000021A21EE810A1DE001EE100AB8EE411A9C
:10575000DFED301A81EE812A9FED2C1AC0EE811AFE
:10576000284D10352D68C5F3080501EE105AB8EE26
:10577000411A31EE811AF7EE001A31EE211A22EEAB
:10578000010A00BF00BF1F4D10352D68C5F3462527
:1057900001EE105AB8EE411AF7EE001A31EE211A56
:1057A000C0EE011ABCEEE11A81ED001A154D10355C
:1057B0002D68C5F3064501EE105AB8EE411AF7EE12
:1057C000001A31EE211AC0EE011ABCEEE11A81ED89
:1057D000011A0C4D10352D68C5F3066501EE105AFF
:1057E000B8EE411AF7EE001A31EE211AC0EE011A96
:1057F000BCEEE11A81ED021A03E000250D604D6058
:105800008D6070BD284402580090D003000000460F
:105810000024744C0024744A001BB74B70B5014639
:10582000844D2D6805F00303824D2D68C5F30550A6
:10583000804D2D1D2D68C5F300247E4D1C352D682F
:10584000C5F3CC0515FB04F501EE105AB8EE411A6C
:10585000F0EE410A00286FD023B1012B4ED0022B6D
:105860006BD16BE0734D283D2D68C5F340153DB3FA
:10587000704D283D2D68C5F3C1066F4D25FA06F21F
:1058800001EE102AF8EE411A01EE100AB8EE411AA4
:1058900081EE812A9FED691AC0EE811A654D183597
:1058A0002D68C5F3080501EE105AB8EE411A31EE25
:1058B000811AF7EE001A31EE211A22EE010A1CE0DD
:1058C00001EE100AB8EE411ADFED5D1A81EE812A71
:1058D0009FED5A1AC0EE811A564D18352D68C5F342
:1058E000080501EE105AB8EE411A31EE811AF7EEB2
:1058F000001A31EE211A22EE010A5BE001EE100AD5
:10590000B8EE411ADFED4F1A81EE812A9FED4B1A56
:10591000C0EE811A474D18352D68C5F3080501EE14
:10592000105AB8EE411A31EE811AF7EE001A31EE34
:10593000211A22EE010A3DE077E01DE001EE100A97
:10594000B8EE411A9FED402AC2EE011A9FED3B1AB4
:1059500080EE812A374D18352D68C5F3080501EE14
:10596000105AB8EE411A32EE011AB7EE002A31EEA3
:10597000021A21EE810A1DE001EE100AB8EE411A6A
:10598000DFED301A81EE812A9FED2C1AC0EE811ACC
:10599000284D18352D68C5F3080501EE105AB8EEEC
:1059A000411A31EE811AF7EE001A31EE211A22EE79
:1059B000010A00BF00BF1F4D18352D68C5F34625ED
:1059C00001EE105AB8EE411AF7EE001A31EE211A24
:1059D000C0EE011ABCEEE11A81ED001A154D183522
:1059E0002D68C5F3064501EE105AB8EE411AF7EEE0
:1059F000001A31EE211AC0EE011ABCEEE11A81ED57
:105A0000011A0C4D18352D68C5F3066501EE105AC4
:105A1000B8EE411AF7EE001A31EE211AC0EE011A63
:105A2000BCEEE11A81ED021A03E000250D604D6025
:105A30008D6070BD284402580090D00300000046DD
:105A40000024744C0024744A001BB74B2DE9F0412C
:105A500004460025A8464FF00062D4E9001011402A
:105A60000020134659404040014331D1606E48B197
:105A7000B0F5801F0DD0B0F5001F11D0B0F5401F5C
:105A800016D114E0FE48006840F40030FC4908607C
:105A900010E0022104F1080003F0C2FE054609E00F
:105AA000022104F1280003F06DFF054602E001E049
:105AB000012500BF00BF55B9F1482430006820F42B
:105AC0004010616E0843EE492431086000E0A846AA
:105AD0004FF48072D4E90010114000201346594061
