:020000040800F2
:100000006055002009030008F93800081531000880
:10001000E5380008E50600082D490008000000004A
:10002000000000000000000000000000490200087D
:10003000050A000800000000A5020008FD3E0008B7
:1000400023030008230300082303000823030008F8
:1000500023030008230300082303000823030008E8
:100060002303000823030008230300080D090008E8
:1000700019090008250900082303000831090008B0
:100080003D09000823030008230300082303000898
:1000900015070008230300082303000823030008B2
:1000A0002303000823030008230300082303000898
:1000B0002303000823030008230300082303000888
:1000C0002303000823030008230300082303000878
:1000D000230300082303000895480008AD480008E2
:1000E0002303000823030008230300082303000858
:1000F00023030008454000082303000823030008E9
:100100002303000823030008230300082303000837
:10011000D5420008ED42000823030008230300082D
:1001200023030008490900085509000823030008B3
:100130002303000800000000000000002303000863
:100140004D070008230300082303000823030008C9
:10015000230300082303000823030008B94800080C
:1001600023030008230300082303000823030008D7
:100170002303000823030008000000000000000023
:10018000230300082303000800F002F800F04CF8F5
:100190000AA090E8000C82448344AAF10107DA45E2
:1001A00001D100F041F8AFF2090EBAE80F0013F0E8
:1001B000010F18BFFB1A43F00103184768830000C2
:1001C000888300000A4410F8014B14F00F0508BFA3
:1001D00010F8015B240908BF10F8014B6D1E05D013
:1001E00010F8013B6D1E01F8013BF9D1641E03D0EC
:1001F000641E01F8015BFBD19142E4D3704700001B
:100200000023002400250026103A28BF78C1FBD81F
:10021000520728BF30C148BF0B6070471FB507F0B9
:1002200060FE1FBD10B510BD00F0DCF91146FFF7F0
:10023000F5FF06F00FF800F0FAF903B4FFF7F2FF4C
:1002400003BC00F0FDF900002C4B19680868B0E809
:10025000F04F80F30988BFF36F8F4FF0000080F3F9
:10026000118870470000000008480068006880F3AB
:1002700008884FF0000080F3148862B661B6BFF3BF
:100280004F8FBFF36F8F00DF00BF00BF08ED00E0AE
:10029000DFF80C00016841F470010160704700BF95
:1002A00088ED00E0EFF30980BFF36F8F134B1A68FE
:1002B0001EF0100F08BF20ED108A20E9F04F1060EB
:1002C00009B44FF0500080F31188BFF34F8FBFF394
:1002D0006F8F06F0B5FD4FF0000080F3118809BC68
:1002E00019680868B0E8F04F1EF0100F08BFB0ECB6
:1002F000108A80F30988BFF36F8F70470C070020C6
:10030000EFF305807047000009488047094800471F
:10031000FEE7FEE7FEE7FEE7FEE7FEE7FEE7FEE7B5
:10032000FEE7FEE704480549054A064B7047000012
:10033000C13F000889010008604F0020605500207F
:10034000605100206051002053EA020C00F06980E7
:100350002DE9F04B4FF00006002B1FBFB3FA83F5D9
:1003600003FA05F424FA05F65E4012BF1643B2FA0A
:1003700082F502FA05F4C5F120051EBF22FA05FC3C
:1003800044EA0C04203556EA044C4FEA144418BFE2
:10039000641C4FF000084FF00009904271EB030C11
:1003A00039D3002919BFB1FA81F701FA07F6B0FA7B
:1003B00080F700FA07F6C7F120071EBF20FA07FCF6
:1003C00046EA0C062037B6FBF4FCA7EB0507103F06
:1003D00007F01F0BCBF120060CFA0BFB2CFA06F6EC
:1003E00044BFB3460026202FA4BF5E464FF0000B4B
:1003F0005BEA060C08BF4FF0010B19EB0B09ABFBD6
:10040000027C48EB0608C01B06FB02CC0BFB03CCAE
:1004100071EB0C01C1E70B46024641464846BDE878
:10042000F08B13B54FF000004FF00001AFF30080E8
:10043000BDE81C407047032A40F2308010F0030CE6
:1004400000F0158011F8013BBCF1020F624498BF27
:1004500011F801CB00F8013B38BF11F8013BA2F1C4
:10046000040298BF00F801CB38BF00F8013B11F03F
:10047000030300F02580083AC0F0088051F8043BDF
:10048000083A51F804CBA0E80810F5E7121D5CBF4C
:1004900051F8043B40F8043BAFF30080D20724BF7F
:1004A00011F8013B11F801CB48BF11F8012B24BF13
:1004B00000F8013B00F801CB48BF00F8012B704762
:1004C00010B5203AC0F00B80B1E81850203AA0E8EF
:1004D0001850B1E81850A0E81850BFF4F5AF5FEA23
:1004E000027C24BFB1E81850A0E8185044BF18C9D6
:1004F00018C0BDE810405FEA827C24BF51F8043B7D
:1005000040F8043B08BF7047D20728BF31F8023BD0
:1005100048BF11F8012B28BF20F8023B48BF00F864
:10052000012B70474FF000020429C0F0128010F038
:10053000030C00F01B80CCF1040CBCF1020F18BFBF
:1005400000F8012BA8BF20F8022BA1EB0C0100F052
:100550000DB85FEAC17C24BF00F8012B00F8012B25
:1005600048BF00F8012B70474FF0000200B513465A
:1005700094469646203922BFA0E80C50A0E80C50C3
:10058000B1F12001BFF4F7AF090728BFA0E80C5074
:1005900048BF0CC05DF804EB890028BF40F8042B6D
:1005A00008BF704748BF20F8022B11F0804F18BFDA
:1005B00000F8012B704770477047704710B500F086
:1005C00009F8006810BD10B5044600F003F8046097
:1005D00010BD000000487047FC4E002000487047E6
:1005E000FC4E00207546FFF7F9FFAE460500694650
:1005F000534620F00700854618B020B5FFF792FE5D
:10060000BDE820404FF000064FF000074FF0000813
:100610004FF0000B21F00701AC46ACE8C009ACE894
:10062000C009ACE8C009ACE8C0098D46704710B5F8
:100630000446AFF300802046BDE81040FFF7FDBD43
:1006400001491820ABBEFEE72600020070470000FB
:10065000164801219FED170A41701549D1ED010A95
:1006600060EE801ADFED140A81EEA01A11EE102A56
:1006700040F8022F91ED001A61EE001A81EEA01AE7
:1006800011EE102A426091ED021A21EE001A81EE5D
:10069000200A10EE101A8160D0F81F10C160D0F847
:1006A00023100161D0F82710416170470C11002020
:1006B000E80F0020DB0F49400000344330B50C4602
:1006C00005000CD0022C0AD90548A11E0288284634
:1006D00000F044FA291901F8020D000A487030BDF3
:1006E0001C050020FEE7000000B58BB069460848F5
:1006F00000F03EF86946064800F0DCFB02210448A1
:1007000000F058FB024800F02DFF0BB000BD0000C8
:10071000CC090020014800F0C8BC0000CC09002032
:1007200000B58BB06946084800F022F869460648D3
:1007300000F0C0FB0221044800F03CFB024800F03E
:1007400011FF0BB000BD0000F4090020014800F0CB
:10075000ACBC0000F40900200A8852BA02804A8822
:1007600052BA42808A8852BA8280897981717047F0
:1007700000220123C1E906230A604A608A60CA6038
:100780004A610A610E22C1E908320068034B9842AF
:1007900003D0034B984200D14A6170470064004087
:1007A0000068004070B5174C40F267552560002581
:1007B000A560E56008252561134C050A2570607069
:1007C000080AA070E170100A20716271180AA07105
:1007D000E371012322460B490C4800F0FDFA002882
:1007E0000FD0022322460749084800F0F5FA0028F6
:1007F00007D02246BDE8704004230249034800F0B8
:10080000EBBA70BD180F00202C000020F409002066
:1008100070B5154C4FF4A46525600025A560E56012
:1008200006252561114C20706170100AA070E270DD
:10083000180A20716371012322460B490C4800F00D
:10084000CBFA00280FD0022322460749084800F0BF
:10085000C3FA002807D02246BDE8704004230249AD
:10086000034800F0B9BA70BD180F00202C0000201A
:10087000F409002008B50B4A40F2FF13136000236F
:100880009360D36008231361074A030A9370D07002
:10089000080A107151716B460249044800F09CFA35
:1008A00008BD0000E80E00201C000020CC0900203C
:1008B000134910B54FF4FF720A6000228A60CA60C3
:1008C00008220A610F49020A01230A7048700A4689
:1008D0000B490D4800F080FA00280FD00223094A86
:1008E0000749094800F078FA002807D0BDE8104011
:1008F0000423044A0249044800F06EBA10BD000007
:10090000E80E00201C000020F4090020014800F03F
:10091000B7BE0000200D0020014800F0B1BE00006D
:10092000E00D0020014800F0ABBE0000C00C00202C
:10093000014800F0A5BE0000600C0020014800F056
:100940009FBE0000800D0020014800F099BE00000D
:10095000AC0A0020014800F093BE0000400E0020C9
:1009600001681823CAB2103AB2FBF3F2054B6FF3D9
:100970000901032A9B5CC36500D9091D81650846EE
:1009800070470000A082000810B5014600208B6966
:100990008A6A4FF0C07453B1B3F5005F15D072B1DD
:1009A000012A0CD0022A0AD0032A09D104E01AB184
:1009B000012A06D0022A03D1C96AC90100D5012043
:1009C00010BDC96AA142FAD010BD002AF7D0012A91
:1009D000F2D0022AF3D0032AF3D010BD30B5046858
:1009E000256825F480252560046863608368402BB2
:1009F000036803D099600068C26030BD9A600068E7
:100A0000C16030BD704710B5FFF76EFEFFF788FE7E
:100A1000BDE8104003F05CBF72B6FEE7074800B5C2
:100A20000421017180F8CC10283002F04DFF0348FA
:100A30005DF804EBF03002F047BF000080020020B8
:100A40002DE9084006F0FCFA009000F08FF9032130
:100A5000684606F071F9F5E7DFED150A9FED151A06
:100A6000C0ED130A80ED1B1AC0ED1C0A9FED120A9F
:100A700080ED1A1ADFED111A80ED190AC0ED271A60
:100A8000C0ED300ADFED0E0A00F1B40181EC030A7B
:100A9000DFED0C0A80ED320AC0ED330A80ED340A36
:100AA00080ED350AC0ED360A80ED370A7047000048
:100AB000005043470050C3460000000000803B4602
:100AC00000204B466F12833ADFED150A9FED151A91
:100AD000C0ED130A80ED1B1AC0ED1C0A9FED120A2F
:100AE00080ED1A1ADFED111A80ED190AC0ED271AF0
:100AF000C0ED300ADFED0E0A00F1B40181EC030A0B
:100B0000DFED0C0A80ED320AC0ED330A80ED340AC5
:100B100080ED350AC0ED360A80ED370A70470000D7
:100B2000005043470050C3460000000000803B4691
:100B300000204B466F12833A074800B5012100F8A8
:100B4000041F022180F8E010FFF7BEFF02485DF8A5
:100B500004EBE430FFF780BFA400002010B558B1CB
:100B6000084C491E0BD310F8013B5340DBB234F85C
:100B7000133083EA1222F4E74FF6FF7010BD1046DF
:100B800010BD0000A080000810B5104800F036F835
:100B9000BDEEC00A0D4C10EE100A0C3C208004F192
:100BA000EC0000F02BF8BDEEC00A10EE100A6080D9
:100BB000B4F90000FFF77CFE0549B4F90200B1F971
:100BC0000010BDE81040FFF755BE0000A80000204F
:100BD0006E020020074810B5074982780A70C07875
:100BE00081F8C40100F0A6F800F01EF8BDE810403E
:100BF00002F0A0BA78000020A400002070B50446DE
:100C000000F12405061DD0ED070A90ED080A7430A6
:100C100002F00EFF86ED050AD4ED050A2846BDE870
:100C2000704002F005BF000010B5044800F016F84F
:100C30000248BDE81040E03000F010B8A8000020E5
:100C400010B5054802F07CFB0348E03002F02AFBB7
:100C5000BDE81040FFF798BFA800002070B50178EC
:100C60002A4C00F1240500F17406012902D0022962
:100C70004BD123E095F8A000012813D00228244985
:100C80006268284606D03031FFF7D5FB214930464F
:100C9000626811E05031FFF7CEFB1E49304620312B
:100CA000626809E01A49284640316268FFF7C3FBD1
:100CB0001849304610316268FFF7BDFB95F8A00077
:100CC000012814D0022812496268284607D06031F2
:100CD000FFF7B1FB0F4930463031626811E08031D7
:100CE000FFF7A9FB0B4930465031626809E008491B
:100CF000284670316268FFF79EFB06496268403102
:100D00003046BDE87040FFF796BB70BD90000020F4
:100D10001E0500203E06002010B5054803F044F8EB
:100D20000348E03003F00EF8BDE81040FFF72CBF99
:100D3000A80000200448014690F8C42180F8C8208B
:100D400081F8A82170470000A400002010B5064CCF
:100D5000002020806080FFF7ABFDB4F90200BDE801
:100D600010400021FFF786BD9800002010B5FFF766
:100D700031FF0E48007A01280FD0022811D0032835
:100D800013D10B4890F8C41114380278914200D066
:100D90000170BDE81040FFF7D9BFBDE81040FFF774
:100DA000BBBFBDE81040FFF74BBF10BDFC0F0020DC
:100DB000A400002090F82020012A07D0022A05D0A4
:100DC000416A41F480214162012070470068426914
:100DD0000A43426100207047F0B590F82050046843
:100DE000A468012D05D0022D03D0416A41F4802171
:100DF0005DE014F0406F01D1E50055D5C4F3016406
:100E0000022C03D9416A41F4000150E00125A540BC
:100E10001D608D684FF4C0739DB1CE6835434E6838
:100E200045EAC605066803EB0417F5514FF4C27591
:100E3000076805EB04150E697E51097D012905D06F
:100E400009E00E88CD6845EA4655EBE701684E5942
:100E500046F480764E511179D579567941EA05618B
:100E600095792D0445EA062529434FF4C676056891
:100E700006EB0416A9511178D57841EA05619578F9
:100E800052782D0445EA022211434FF4C4750268DA
:100E900005EB04155151006803EB0411425842F070
:100EA000010242500020F0BD416A41F4001141624C
:100EB0000120F0BD10B590F82020012A07D0022AA9
:100EC00005D0416A41F480214162012010BD3B48B8
:100ED000D0F8002242F00102C0F80022D0F800222F
:100EE00022F47C52C0F80022D0F800224B6A42EA79
:100EF0000322C0F800220A7D02F01F0301229A405B
:100F0000D0F81C329343C0F81C32CB69B3B9D0F887
:100F10000C329343C0F80C328C894B6864F31F4346
:100F20004C6900EBC404C4F840320C890B6864F3CC
:100F30001F434C6900EBC404C4F84432CB69012B55
:100F400016D1D0F80C321343C0F80C320C884B6821
:100F500064F31F434C6900EBC404C4F840320C89AD
:100F6000CB6864F31F434C6900EBC404C4F84432FB
:100F70008B69002BD0F804320ED01343C0F8043232
:100F80000B69002BD0F8143208D01343C0F8143288
:100F9000096A012904D008E09343EFE79343F5E79A
:100FA000D0F81C121143C0F81C12D0F8001221F026
:100FB0000101C0F80012002010BD000000640040D4
:100FC000704730B590F82040012C05D0022C03D09A
:100FD000416A41F480215DE00468002955D024690C
:100FE000A40754D04FF4D874056804EB01142D59AC
:100FF00015F00405956005682D594ED0ED08556033
:1010000005682C5904F00204D4604FF4DA740568C2
:1010100004EB01142D5905F00F05156105682D59D4
:10102000C5F30725956105682C59240C54614FF4CC
:10103000DC72046802EB0112A4581C700468A45806
:10104000240A5C700468A458240C9C700468A2589C
:10105000120EDA704FF4DE72046802EB0112A4582B
:101060001C710468A458240A5C710468A458240CF8
:101070009C710468A258120EDA71006881B101698E
:1010800041F020010161002030BDE468A8E7416A19
:1010900041F400114162012030BD6D0D1560AFE7D4
:1010A000C16841F02001C160EDE72DE9F05F054620
:1010B000006800244669D0F804908768D0F80CB026
:1010C000D0F810A0D0F81880F10748D0F90714D054
:1010D00001218160B80703D5284600F070FA0CE0C2
:1010E000780702D54FF4006407E0380702D54FF4C3
:1010F000805402E0284600F061FAF80516D5296808
:101100004FF480708860B80503D5284600F059FA7E
:101110000CE0780502D544F4005407E0380502D508
:1011200044F4804402E0284600F04AFAF80316D559
:1011300029684FF480308860B80303D5284600F052
:1011400042FA0CE0780302D544F4004407E0380387
:1011500002D544F4803402E0284600F033FA300728
:1011600007D55FEACB6004D52968102044F40074E9
:10117000C86070074FF0080707D55FEA0B7004D509
:101180002868C760284600F09BF9B00706D5286894
:10119000C068800702D0284600F094F9700607D591
:1011A0005FEACA6004D52968102044F480640861AD
:1011B000B00607D55FEA0A7004D52868076128469B
:1011C00000F0CCF9F00606D528680069800702D047
:1011D000284600F0C4F9B00308D55FEAC96005D518
:1011E000296810204860284600F0BAF9F00307D5B6
:1011F0005FEA097004D528684760284600F0E4F9E2
:10120000300446D55FEA497040D5F00504D55FEA61
:10121000C87001D044F00104B00504D55FEA8870BD
:1012200001D544F00204700504D55FEA487001D589
:1012300044F00404300529D518F0700F26D008F0CA
:101240007000402815D006DC102809D020280AD0CC
:10125000302816D10AE050280ED0602811D10EE0B7
:1012600044F008040DE044F010040AE044F02004C7
:1012700007E044F0400404E044F0800401E044F45A
:1012800080742868816921F07001816129680420D7
:101290004860002C05D0686A204368622846FFF742
:1012A0008FFEBDE8F09F70B5040003D094F82000D5
:1012B00010B104E0012070BD204600F081F82068E4
:1012C000016841F00101016000F05CFC0546052663
:1012D00004E000F057FC401B0A2811D82068406841
:1012E000C007F6D02068016821F00201016000F01B
:1012F00049FC05460BE000F045FC401B0A2806D9D6
:10130000606A40F40030606284F82060D2E72068B0
:1013100040688007EFD4207E0128206801683DD016
:1013200021F080010160607E01282068016838D0CA
:1013300021F040010160A07E01282068016833D0BF
:1013400021F020010160E07E0128206801682ED094
:1013500041F010010160207F01282068016829D038
:1013600021F008010160607F01282068016824D015
:1013700021F004010160D4E902010843D4E9041218
:10138000114308436168491E08432168C861002071
:101390006062012084F82000002070BD41F08001CF
:1013A000C0E741F04001C5E741F02001CAE721F064
:1013B0001001CFE741F00801D4E741F00401D9E77B
:1013C000F0B587B0044614216846FFF7CDF8374BD7
:1013D0003748DFF8D4E01968D4F800C0344A022551
:1013E0000326092710300024491CF44524D1196034
:1013F000012907D1016841F000710160006800F027
:1014000000700590106840F001001060106802AB99
:1014100000F0010005904FF4C050CDE9000583E8CD
:10142000D0006946234800F0AFFA002205211420BD
:1014300000F046FC142033E0DFF87CE0F44531D1C5
:10144000D0F800C04CF0806CC0F800C0D0F800C0EC
:1014500001290CF0806CCDF814C0196007D1016827
:1014600041F000710160006800F0007005901068A4
:1014700040F002001060106802AB00F0020005901E
:101480004FF44050CDE9000583E8D00069460B4891
:1014900000F07AFA00220521402000F011FC4020E3
:1014A00000F000FC07B0F0BD006400401800002010
:1014B0003038024000000240006800400004024052
:1014C0007047000010B5044600681D498AB0884284
:1014D0001FD16B4602AA00211A48FFF772FD02983D
:1014E000A0F50070013809D001280AD0052802D0E3
:1014F00006280ED109E06946134808E069461348FA
:1015000005E012486946C83001E069461048FFF717
:1015100023F91049206888420FD16B4602AA0021A6
:101520000D48FFF74EFD0298A0F50070053804D174
:1015300005486946E038FFF70FF90AB010BD000012
:1015400000640040CC0900208C01002088020020AB
:101550001804002000680040F4090020704770471C
:101560007047000070B5044690F82000012804D0B0
:10157000606A40F40020606218E0022084F82000D5
:101580002068016821F00101016000F0FBFA0546C6
:101590000EE000BF00F0F6FA401B0A2808D9606A86
:1015A00040F400306062052084F82000012070BD06
:1015B00020684068C007EDD1606270BD7047704719
:1015C000704770477047704770472DE9F0410446F7
:1015D000876D00F0D7FA064694F8350000250228FA
:1015E00006D08020606584F834500120BDE8F08189
:1015F0002068016821F0160101602068416921F02E
:1016000080014161206C08B9A06C20B1206801689C
:1016100021F0080101602068016821F001010160EA
:101620000CE000F0AFFA801B052807D92020606588
:10163000032084F8350084F83450D7E72068006828
:10164000C007EED194F85C103F208840B8600120BC
:1016500084F8350084F834500020C7E790F835103E
:10166000022903D08021416501207047052180F8BF
:1016700035100068016821F0010101600020704709
:101680002DE9F84304464FF00009CDF80090634877
:101690004FF41651A56D0068B0FBF1F72E6894F871
:1016A0005C10082000FA01F131420FD021680A686D
:1016B00052070BD50A6822F004020A6094F85C1005
:1016C0008840A860606D40F00100606594F85C108F
:1016D0004FF0010808FA01F0304208D0216849694A
:1016E000090604D5A860606D40F00200606594F8BA
:1016F0005C1004208840304208D0216809688907BE
:1017000004D5A860606D40F00400606594F85C103A
:1017100010208840304218D021680968090714D584
:10172000A86020680168490304D50068000308D553
:10173000A16C07E00168C90503D4016821F0080124
:101740000160216C09B12046884794F85C10202084
:101750008840304231D021680968C9062DD5A8607B
:1017600094F8350005282068016806D0490347D55C
:10177000006800031DD4616C1CE021F016010160BB
:101780002068416921F080014161206C08B9A06C9A
:1017900020B12068016821F00801016094F85C1014
:1017A0003F208840A86084F8358084F83490216D0B
:1017B0001FE0E16B09B120468847606D00282BD0FF
:1017C000606DC00714D0052084F8350020680168DA
:1017D00021F0010101600098401C0090B84203D83C
:1017E00020680068C007F6D184F8358084F834900A
:1017F000E16C002910D001B02046BDE8F043084755
:101800000168C905D5D4016821F01001016084F890
:10181000358084F83490CCE7BDE8F8837407002065
:101820002DE9F041044600F0ADF906465CB1022016
:1018300084F83500002584F834502068016821F0D0
:10184000010101600DE00120BDE8F08100F09AF98E
:10185000801B052805D920206065032084F8350009
:10186000F2E720680068C007F0D1226811682048BC
:101870000140D4E901031843D4E903363343184344
:1018800063691843A3691843E3691843236A18433B
:101890000843616A042903D1D4E90B1319430843AF
:1018A000106020684069666A20F0070130460E43E8
:1018B000012704280CD1A06A0643E06A40B1204603
:1018C000FFF762F820B14020606584F83570BAE710
:1018D000206846612046FFF743F894F85C203F21DA
:1018E00091408160656584F835700020ACE70000A8
:1018F0003F8010F02DE9F0410446866D90F83400E9
:10190000002501280DD0012084F8340094F83570AA
:101910000020012F07D084F8340002252846BDE8B6
:10192000F0810220FBE7022784F8357060652046CD
:10193000FFF754F894F85C103F208840B0602068AE
:10194000016841F016010160206C20B12068016837
:1019500041F0080101602068016841F00101016067
:10196000DCE7000070B5044600F00CF90546601C89
:1019700002D004480078044400F004F9401BA0425F
:10198000FAD370BD000700202DE9F84FDFF8BCA1A5
:101990000022012503264FF00F090AF1040BAAF1DA
:1019A000040E00BF0B6805FA02F42340A34270D175
:1019B0000F7907F00307012F01D0022F16D1876896
:1019C0004FEA420806FA08FC27EA0C07D1F80CC0D7
:1019D0000CFA08FC4CEA070CC0F808C04768A7439B
:1019E0000C79C4F3001494403C4344600C79E44304
:1019F000A4070AD0C4684FEA420C06FA0CF7BC43AD
:101A00008F6807FA0CF72743C7600C7904F00304CA
:101A1000022C12D1D40800EB840CDCF820405707CC
:101A2000FF0E09FA07F824EA0804D1F8108008FA32
:101A300007F848EA0408CCF8208004684FEA420C12
:101A400006FA0CF7BC430F7907F0030707FA0CF707
:101A5000274307604C6814F4403F70D03C4C276823
:101A600047F480472760246822F0030704F4804489
:101A70000094384C07EB040CDCF8084897074FEA51
:101A8000177809FA08F7BC43334FB84202D1002750
:101A900024E054E0314FB84201D101271EE0304F1D
:101AA000B84201D1022719E02E4FB84201D10327D5
:101AB00014E02D4FB84201D104270FE02B4FB8425C
:101AC00001D105270AE02A4FB84201D1062705E0D7
:101AD000284FB84201D1072700E0082707FA08F786
:101AE0002743CCF80878DAF800405746D1F804C00C
:101AF0009C435FEACC2C00D51C433C60DBF80040E3
:101B00005F46D1F804C09C435FEA8C2C00D51C438F
:101B10003C60DEF800407746D1F804C09C435FEAA1
:101B20008C3C00D51C433C60084F083F3C68D1F812
:101B300004C09C435FEACC3C00D51C433C60521C73
:101B4000102AFFF42FAFBDE8F88F0000083C0140D9
:101B500044380240003001400000024000040240CE
:101B600000080240000C0240001002400014024035
:101B700000180240001C02400AB18161704709044C
:101B8000FBE7000001488068704700000007002064
:101B90000248816802781144816070470007002084
:101BA0000B4810B5016841F400710160016841F40F
:101BB00080610160016841F480710160032000F0E0
:101BC0009FF80F2000F006F800F050F8002010BD3C
:101BD000003C024030B505461F4887B0002401682C
:101BE00041F480710160006806A900F480700090E3
:101BF00001A800F031F90498A8B100F04DF94000B7
:101C00001649174AB0FBF1F11648491E026040F22E
:101C1000E732C0E90324C0E90114846100F0B8FB95
:101C2000040003D015E000F037F9E9E70D4800F0B3
:101C3000DDFB04000DD12D2000F034F8102D07D26B
:101C4000002229462D2000F03BF80748056000E0FF
:101C5000012407B0204630BD4038024040420F000A
:101C600000200040A00E0020040700200C4882B095
:101C7000016841F480410160006800F480400090F8
:101C80000748001F016841F0805101600068002290
:101C900000F0805000900F21901E02B000F010B8AC
:101CA00044380240002809DB00F01F020121914066
:101CB0004009800000F1E020C0F8001170470000EA
:101CC000F0B40E4B1B680C46C3F30223C3F10705A7
:101CD000042D00D90425191D072901D2002300E095
:101CE000DB1E012606FA05F1491E214099409E405F
:101CF000761E16403143F0BC02F0DEBE0CED00E073
:101D0000064900F0070208684FF6FF03184040EA52
:101D10000220034A10430860704700000CED00E009
:101D20000000FA052DE9F0470E46050065D0DFF802
:101D30001481D8F80000F7B200F00700B04207D2D3
:101D400088F80070D8F8000000F00700B04254D1C5
:101D500028683D4C810712D5400703D5206840F420
:101D6000E05020602878000703D5206840F46040E8
:101D700020602068A96820F0F000084320602878DF
:101D8000C0072DD0304968680839012812D00228D0
:101D900013D0032811D00968890700292DDA21689A
:101DA00021F0030101432160FFF7ECFE814641F27F
:101DB000883A0EE009688903EFE709688901ECE7D2
:101DC000FFF7E0FEA0EB0901514502D90320BDE871
:101DD000F0872068696800F00C00B0EB810FEFD14C
:101DE000D8F80010404601F00701B14207D907704A
:101DF000006800F00700B04201D00120E7E7287832
:101E0000400705D52068E96820F4E05008432060C9
:101E10002878000706D52068296920F4604040EA48
:101E2000C100206000F058F82168084AC1F303118E
:101E3000515CC8400649086006480068FFF7CAFEC2
:101E40000020C4E7003C024008380240A882000895
:101E500074070020040700200F2202600C4A136858
:101E600003F003034360136803F0F0038360136817
:101E700003F4E053C36012684FF4E05303EAD20264
:101E800002610448006800F0070008607047000025
:101E900008380240003C02400448054900680968CF
:101EA000044AC1F38221515CC84070477407002086
:101EB00008380240B88200080448054900680968EB
:101EC000044AC1F34231515CC84070477407002096
:101ED00008380240B8820008154810B5006810F0B4
:101EE0000C02144813D01449042A0FD0082A0ED12A
:101EF0000F4C241F2268236802F03F025B0207D5C3
:101F00002068C0F38810A0FB010106E0084610BD60
:101F10002168C1F38811A1FB00010023FEF714FA28
:101F20002168C1F30141491C4900B0FBF1F010BD2B
:101F3000083802400024F40040787D012DE9F84F74
:101F400004006ED02078DFF84C93C007A9F1040597
:101F50004AD009F104000168C1F38101012908D0C8
:101F60000068C0F3810002280AD1D9F800004002BD
:101F700006D52868800337D560680028E1D033E0B3
:101F80006068B0F5803F10D0B0F5A02F286810D061
:101F900020F480302860286820F480202860606861
:101FA000A8B1FFF7EFFD06460DE0286840F4803049
:101FB000F4E740F480202860F7E700BFFFF7E2FD78
:101FC000801B642873D828688003F7D50CE0FFF7DE
:101FD000D9FD064605E000BFFFF7D4FD801B64284D
:101FE000F0D828688003F7D42078DFF8AC82800727
:101FF0004FF0000A3ED5A748001D016811F00C0FF4
:1020000008D00068C0F3810002280BD1D9F8000085
:10201000400207D42868800716D5E068012800D15F
:1020200012E033E1E068B8B10120C8F80000FFF722
:10203000A9FD064605E000BFFFF7A4FD801B0228AE
:10204000C0D828688007F7D52868216920F0F800F3
:1020500040EAC10028600DE0C8F800A0FFF792FD3B
:10206000064604E0FFF78EFD801B02281FD8286873
:102070008007F7D42078000722D5864F874861690A
:10208000703771B101210160FFF77CFD064604E065
:10209000FFF778FD801B022809D838688007F7D53C
:1020A0000EE0C0F800A0FFF76DFD064605E082E0F7
:1020B000FFF768FD801B02287DD838688007F7D4B9
:1020C0002078400768D5DFF8CCB100270BF13C0B36
:1020D000DBF80000C0000BD4DBF8001041F08051A9
:1020E000CBF80010DBF80000012700F080500090D2
:1020F0006B4E3068C00510D4306840F4807030609A
:10210000FFF740FD009005E0FFF73CFD0099401A05
:10211000022850D83068C005F6D55E4EA0686C36EF
:1021200001280FD00528306810D020F00100306061
:10213000306820F004003060A068B8B1FFF722FDDD
:1021400000900FE0306840F00100F4E740F0040038
:102150003060F7E7FFF716FD0099411A41F2883029
:10216000814266D830688007F4D50EE0FFF70AFD9B
:10217000009007E0FFF706FD0099411A41F2883010
:10218000814256D830688007F4D42FB1DBF80010B4
:1021900021F08051CBF80010A069C8B33D49091D5A
:1021A0000968C1F3810102294AD00228504607D0AC
:1021B000C8F8600000E03CE0FFF7E4FC04463BE0C8
:1021C0004746C8F86000FFF7DDFC064605E000BFA3
:1021D000FFF7D8FC801B02282BD828688001F7D491
:1021E000D4E907010843A16A2E4A490802EB0141DC
:1021F000626A41EA8211084394F82C1040EA0161B6
:10220000C9F8001001203866FFF7BCFC044606E060
:102210003EE000BFFFF7B6FC001B022809D8286883
:102220008001F7D534E000BFFFF7ACFC001B0228AB
:1022300002D90320BDE8F88F28688001F4D427E094
:102240000128F7D0D9F80000E26900F4800191423A
:102250001CD1226A00F03F01914217D147F6C071AC
:10226000626A0140B1EB821F10D1A26A4FF0FF33C6
:1022700000F4403103EB5202B1EB024F06D194F867
:102280002C1000F07060B0EB016F01D00120D1E79D
:102290000020CFE70438024000004742800E47424A
:1022A000007000400000FFFF7047704710B590F8C5
:1022B0003C20012A22D0012280F83C20CA688C6888
:1022C00022F4407222434C6822F4806222430C685C
:1022D00022F4006222430C6922F4805222434C69AA
:1022E00022F400522243C969002322F480420A43A7
:1022F00001684A6480F83C30002010BD022010BD07
:1023000070B590F83C20012A32D0012480F83C407E
:10231000022280F83D2003685A689D6822F070060A
:102320000A6832435A60134B02689A4214D0B2F1E1
:10233000804F11D0104B9A420ED0104B9A420BD0C6
:102340000F4B9A4208D00F4B9A4205D00E4B9A423F
:1023500002D00E4B9A4204D1496825F080031943FC
:10236000916080F83D40002180F83C10084670BD27
:10237000022070BD00000140000400400008004041
:10238000000C0040000401400040014000180040E3
:1023900010B5040003D094F83D0010B107E001200F
:1023A00010BD002084F83C00204600F01EF80220FA
:1023B00084F83D00211D206801F04AFE012084F8C8
:1023C000460084F83E0084F83F0084F8400084F81A
:1023D000410084F8420084F8430084F8440084F803
:1023E000450084F83D00002010BD704790F83D1076
:1023F000012901D001207047022180F83D100168B9
:10240000CA6842F00102CA6000681149884214D0CB
:10241000B0F1804F11D00F4988420ED00E4988424A
:102420000BD00E49884208D00D49884205D00D498D
:10243000884202D00C49884204D1816801F007012A
:10244000062903D0016841F00101016000207047B6
:10245000000001400004004000080040000C004063
:10246000000401400040014000180040704770B572
:102470000446006801694FF00005C943890715D477
:10248000C168C943890711D4E91E01610120207781
:10249000206880698007204602D0FFF7E7FF04E04C
:1024A00000F0DAF8204600F0AFF9257720680169DE
:1024B000C943490717D4C168C943490713D46FF00A
:1024C00004010161022020772068806910F4407FB8
:1024D000204602D0FFF7CAFF04E000F0BDF8204616
:1024E00000F092F9257720680169C943090716D4DD
:1024F000C168C943090712D46FF0080101610420C3
:1025000020772068C0698007204602D0FFF7AEFF21
:1025100004E000F0A1F8204600F076F92577206865
:102520000169C943C90617D4C168C943C90613D490
:102530006FF010010161082020772068C06910F455
:10254000407F204602D0FFF791FF04E000F084F8BE
:10255000204600F059F9257720680169C943C90769
:1025600008D1C168C943C90704D1891E0161204649
:1025700000F01AFA20680169C943090609D4C16844
:10258000C943090605D46FF0800101612046FFF7B9
:102590008BFE20680169C943490609D4C168C94353
:1025A000490605D46FF040010161204600F006FAAB
:1025B00020680169C94389060BD4C168C9438906EB
:1025C00007D46FF0200101612046BDE87040FFF79D
:1025D0006CBE70BD10B586B0044614216846FDF788
:1025E000C3FF2368174C002117480222A34211D1D0
:1025F000036843F001030360006800F001000590E8
:10260000D0010090CDE901210120CDE903106946F8
:102610000E4812E00E4CA34211D1036843F00203AE
:102620000360006800F00200059020200090CDE9D2
:102630000121CDE9031269460648FFF7A5F906B066
:1026400010BD000000000140303802400000024090
:102650000004004000040240704770B5044690F842
:102660003C0000260D4601280FD0012084F83C00D4
:102670006AB1042A1DD0082A2FD00C2A3FD0012687
:10268000002084F83C00304670BD022070BD2068F8
:1026900001F050FD2068816941F0080181612068E6
:1026A000816921F004018161206881692A691143EF
:1026B00011E0206801F06EFD2068816941F400613D
:1026C00081612068816921F480618161206881696C
:1026D0002A6941EA02218161D2E7206801F090FD78
:1026E0002068C16941F00801C1612068C16921F019
:1026F0000401C1612068C1692A69114311E02068A1
:1027000001F0B2FD2068C16941F40061C161206837
:10271000C16921F48061C1612068C1692A6941EA07
:102720000221C161ACE710B5040003D094F83D006C
:1027300010B107E0012010BD002084F83C002046C5
:1027400000F01EF8022084F83D00211D206801F0F1
:102750007FFC012084F8460084F83E0084F83F00A6
:1027600084F8400084F8410084F8420084F8430073
:1027700084F8440084F8450084F83D00002010BD32
:1027800038B5054600681B4A0021904223D11A48FB
:10279000026842F0010202600068194C00F001007A
:1027A0000090164820604FF0406060604020C4E90F
:1027B000020100012061400060618000C4E906015F
:1027C000216220466162FFF72BF808B1FEF724F979
:1027D0006C62A56338BD0B498842FBD10648001FD7
:1027E000016841F002010160006800F00200009001
:1027F00038BD000000000140443802402864024017
:10280000AC0A0020000400400021014800F066B836
:102810001C0A002010B50446022249B104290ED03A
:10282000082913D094F84100012816D0012010BDCA
:1028300094F83E000128F9D184F83E200FE094F886
:102840003F000128F2D184F83F2008E094F84000CE
:102850000128EBD184F8402001E084F841200122D6
:10286000206801F059FC16492068164A884201D0B8
:10287000904203D1436C43F4004343642068884290
:1028800013D0B0F1804F10D00F4988420DD00F49BE
:1028900088420AD00E49884207D0904205D00D499F
:1028A000884202D00C49884204D1816801F00701B6
:1028B000062903D0016841F001010160002010BD2C
:1028C00000000140000401400004004000080040F6
:1028D000000C0040004001400018004070B50D00A1
:1028E00004464FF0000607D0042D0CD0082D11D05F
:1028F0000C2D16D0012648E02068C16821F4007133
:10290000C160606A13E02068C16821F48061C16021
:10291000A06A0CE02068C16821F40061C160E06A2F
:1029200005E02068C16821F48051C160206BFEF78A
:1029300095FE00222946206801F0EEFB184B41F27B
:10294000111120688A10984202D0164B984209D182
:10295000036A0B4206D1036A134203D1436C23F48A
:10296000004343642068036A0B4206D1016A1142A6
:1029700003D1016821F00101016001203DB1042D66
:1029800008D0082D09D084F84100304670BD84F885
:102990003E00FAE784F83F00F7E784F84000F4E7E8
:1029A000000001400004014000680349884201D151
:1029B000FFF7EEB8704700000020004070477047F6
:1029C00010B504460068406994F83D10C0F3C0108B
:1029D000212911D180B12068143050E8001F21F066
:1029E000800140E80012002AF5D1606B08B1FEF7C3
:1029F000ECFD204601F04EFD2068406994F83E1041
:102A0000C0F38010222911D180B12068143050E821
:102A1000001F21F0400140E80012002AF5D1A06B10
:102A200008B1FEF7D2FD204601F00DFD002010BDDB
:102A300070470000F8B5016804460868CA684B6929
:102A400010F00F0F4FF0000559D003F0010602F40B
:102A50009077374365D0C10705D0D10503D5216CE8
:102A600041F001012164410705D5D90703D0216C4C
:102A700041F002012164810705D5D90703D0216CFB
:102A800041F004012164010707D502F02001314320
:102A900003D0216C41F008012164216C00293AD057
:102AA000800604D5900602D5204601F0C3FD2068BB
:102AB0004069216CC0F38010090700D460B3204640
:102AC00001F0C1FC20684069400621D5206814301F
:102AD00050E8001F21F0400140E80012002AF5D123
:102AE000A06BA8B16C490165A06BFEF7B7FD00288B
:102AF00011D0A06B016D01B0BDE8F040084783061E
:102B00000FD593060DD52046BDE8F84001F092BDE3
:102B10002046FFF78DFFF8BD2046FFF789FF2564AB
:102B2000F8BD266B2023012E79D1C60677D5D606AF
:102B300075D50868486800904869400640D5A16B83
:102B4000086840680004000CEAD0A28D8242E7D9F0
:102B5000E085C869B0F5807F2DD020680C3050E842
:102B6000001F21F4807140E80012002AF5D120688E
:102B7000143050E8001F21F0010140E80012002A43
:102B8000F5D12068143050E8001F21F0400140E8E2
:102B90000012002AF5D184F83E30256320680C30FD
:102BA00050E8001F21F0100140E80012002AF5D182
:102BB000A06BFEF70AFDA08DE18D401A81B229E0DD
:102BC000A08DE18D401A81B2E08D0028A8D00029A7
:102BD000A6D020680C3050E8002F22F4907240E814
:102BE0000026002EF5D12068143050E8002F22F086
:102BF000010240E80026002EF5D184F83E3025631E
:102C000020680C3050E8002F22F0100240E800232A
:102C1000002BF5D12046FFF7D2FEF8BDFFE70506F1
:102C20002BD5150629D594F83D002128F5D1A068AB
:102C3000B0F5805F01D12069B0B1206A411C2162EA
:102C4000216800784860E08C401E0004000CE0849D
:102C5000E3D12068C16821F08001C1602068C168AB
:102C600041F04001C160D8E7206A0088C0F3080045
:102C70004860206A801C2062E5E74006CDD55006FA
:102C8000CBD5CA68204622F04002CA6084F83D30A5
:102C900000F03EFAC1E700000543000870B50400EB
:102CA00004D094F83D00002510B106E0012070BD6D
:102CB00084F83C50204600F023F8242084F83D009E
:102CC0002068C16821F40051C160204601F012FD66
:102CD0002068016921F4904101612068416921F077
:102CE0002A0141612068C16841F40051C160256436
:102CF000202084F83D0084F83E00002070BD0000D4
:102D00002DE9F04F87B0054614216846FDF72CFCED
:102D1000C348DFF808831038D5F800C0C04B032142
:102D200002220827DFF8FCE2002406154FF00069B4
:102D3000C44558D1D3F800C0A2464CF4002CC3F8C7
:102D400000C01B6803F400230593036843F00103EC
:102D50000360006800F0010005908DE81600CDE9E1
:102D6000031769467046FEF70FFEDFF8C082AE49D2
:102D700040464F46E0E80219402152C04FF440312E
:102D800040F814498461C0E907414046C8F824402E
:102D9000FEF746FD08B1FDF73FFEA348A34CC5F87A
:102DA000348030386034C8F83850C4E90007C4F8BB
:102DB00008A0C4E903A68115C4F814A0C4E906A1BB
:102DC000C4F820A02046C4F824A0FEF729FD08B1CD
:102DD000FDF722FEAC63002205213420A563FEF737
:102DE0006FFF342053E0DFF848824FF0040BC445F6
:102DF00052D1D3F800C04CF4801CC3F800C01B684B
:102E000003F480130593036843F00403036003682D
:102E100003F004030593036843F0080303600068AC
:102E2000884600F0080005904FF48050CDE900027C
:102E3000CDE902489246694604977E48FEF7A4FD14
:102E4000CDE90248CDE900BA69467B480497FEF710
:102E50009BFD764F7448C03760383860C7E90194ED
:102E6000C7E903467C614FF40030BC61C7E9074005
:102E700038467C62FEF7D4FC08B1FDF7CDFDAF63A8
:102E8000002205213520BD63FEF71AFF3520FEF72D
:102E900009FF07B0BDE8F08FDFF8A0814FF0070A07
:102EA000C4453DD11F6847F400371F601B6803F419
:102EB00000330593036843F0010303600068CDE924
:102EC000024100F0010005900C20CDE90002CDF890
:102ED00010A069467046FEF757FD5348584F18300A
:102EE0003860C7E90194C7E9034680157C61C7E9EA
:102EF00006404FF44030C7E9080B0120C7E90A0437
:102F000038463C63FEF78CFC08B1FDF785FDAF63E6
:102F1000002205212620BD63FEF7D2FE2620B6E75B
:102F2000DFF82081C44538D11F6847F480271F602F
:102F30001B6803F480230593036843F002030360D6
:102F40000068CDE9024100F0020005904FF44060B6
:102F5000CDE90002CDF810A069463B48FEF714FD0C
:102F6000374F3148603748383860C7E90194C7E9BE
:102F700003467C61BC61FC613C6238467C62FEF7C2
:102F80004FFC08B1FDF748FDAF6300220521272063
:102F9000BD63FEF795FE272079E72C4B9C457FF417
:102FA00078AF1F4B1B1DD3F800C04CF0200CC3F8AA
:102FB00000C01B6803F020030593036843F004037B
:102FC00003600068CDE9024100F004000590C020D4
:102FD000CDE90002049769461648FEF7D5FC184F64
:102FE0001B48C03738604FF02060C7E90104C7E9CB
:102FF00003467C61BC61FC613C6238467C62FEF742
:103000000FFC08B1FDF708FDAF6300220521472042
:10301000BD63FEF755FE472039E70000004C004035
:10302000403802400000024070600240600C002006
:103030000050004000080240000C024000440040E4
:10304000800D0020004800400004024000140140B0
:103050004064024090F83E30202B0ED159B152B15D
:1030600090F83C30012B08D0012380F83C3000233D
:10307000036301F0C5BB0120704702207047704711
:103080007047000070B5044690F83D00202836D106
:1030900091B38AB394F83C00012830D0012084F821
:1030A0003C002162A284E28400252564212084F86A
:1030B0003D00636B1348D863636B13481864636BFC
:1030C0001248D864606B134605652668606B321D34
:1030D000FEF710FC21686FF04000086084F83C5057
:1030E0002068143050E8001F41F0800140E80012D1
:1030F000002AF5D1002070BDFFE70120FBE7022088
:10310000F9E70000FB4300083D44000815430008B0
:1031100070477047FEE7000010B5054C0120207095
:1031200000F068F808B102202070207810BD00007F
:103130003400002000B5044800F03CF802485DF877
:1031400004EBE03000F00EB8AC00002010B50349ED
:10315000034800F0D9FD002010BD0000FD38000834
:10316000400F002008490A23B1F90E2092FBF3F228
:1031700000EE102AB8EEC00A10EE102A40F8072F11
:103180000968416070470000E80F002010B5FFF7A4
:10319000C3FF0149487010BD780000202DE90840A8
:1031A00003F04EFF009000F019F80121684603F08B
:1031B000C3FDF5E708490A23B1F9102092FBF3F2A9
:1031C00000EE102AB8EEC00A10EE102A40F8072FC1
:1031D0008968416070470000E80F002000B504488E
:1031E00003F026F802485DF804EB0C3003F028B831
:1031F000E80F002070B5074D00246C7003F0ACF8A8
:103200000549D1E90021801A8C4101D30120687061
:10321000687870BD34000020880000201649002026
:103220000A7A012A03D0022A01D0032A06D14A7A57
:10323000012A05D0022A03D0032A01D001207047B9
:10324000B1F900304FF4A56203F525739342F5D828
:10325000B1F9023003F525739342EFD8B1F9043088
:1032600003F525739342E9D8B1F9061001F52571EC
:103270009142E3D870470000FC0F002070B5074D65
:103280000024AC7003F068F80549D1E90021801AE8
:103290008C4101D30120A870A87870BD6000002087
:1032A000800000200346224910B52148143990F8C7
:1032B000C4010A78904205D008701D48D0F8F31078
:1032C000C0F804111B48C17CB0F90E0061B11A4965
:1032D0001A4C91ED0C0A10EE102AA24204D0B5EE61
:1032E000C00AF1EE10FA0ED100EE100AD3ED330A47
:1032F000B8EEC00A20EE800A83ED320AD3ED080A48
:1033000030EEC00A07E0D3F80F00D1ED050A00EE59
:10331000100A30EE200A03F1200083ED080A00F0C5
:1033200065FCD3F80B005861D3F80F00D86110BDCD
:10333000A4000020FC0F0020E4040020002EC24660
:1033400010B504462048A0F1140290F8C411137877
:10335000994203D01170D0F8131041621B48C17C10
:10336000B0F90C0061B11A4A1A4B92ED0C0A10EE3A
:10337000101A994204D0B5EEC00AF1EE10FA0ED13F
:1033800000EE100AD4ED360AB8EEC00A20EE800A2C
:1033900084ED350AD4ED080A30EEC00A07E0D4F80F
:1033A0000F00D2ED060A00EE100A30EE600A04F1BA
:1033B000200084ED080A01F03DFBD4F80B006061A9
:1033C000D4F80F00E06110BDA4000020FC0F002025
:1033D000E4040020002EC246104810B50E490160DA
:1033E0000321416000214FF410228160C0E90312E3
:1033F0004FF4001242610176012242768276C27653
:1034000001774177FDF74FFF002803D0BDE810405A
:10341000FDF702BB10BD000000640040CC09002095
:10342000104810B50E4901600321416000214FF49E
:1034300010228160C0E903124FF40012426101764C
:10344000012242768276C27601774177FDF72BFF23
:10345000002803D0BDE81040FDF7DEBA10BD000023
:1034600000680040F4090020254808B5016841F4CF
:1034700080010160016801F480010091016841F45C
:10348000001101600068002200F400100090052186
:103490000B20FEF715FC0B20FEF704FC0022052193
:1034A0000C20FEF70DFC0C20FEF7FCFB0022052192
:1034B0000D20FEF705FC0D20FEF7F4FB0022052190
:1034C0000F20FEF7FDFB0F20FEF7ECFB002205218D
:1034D0001020FEF7F5FB1020FEF7E4FB002205218B
:1034E0003920FEF7EDFB3920FEF7DCFB0022052139
:1034F0003A20FEF7E5FBBDE808403A20FEF7D2BBD4
:103500003038024010B5AAB01C2221496846FCF7A9
:10351000D7FF0021684602F0D1FF1E4C1C491C2237
:1035200020601C3107A8FCF7CBFF002107A802F0A0
:10353000C5FF174960601C2238310EA8FCF7C0FF98
:1035400000210EA802F0BAFF1149A0601C225431DC
:1035500015A8FCF7B5FF002115A802F0AFFF0C4934
:10356000E0601C2270311CA8FCF7AAFF00211CA8F7
:1035700002F0A4FF064920611C228C3123A8FCF72D
:103580009FFF002123A802F099FF60612AB010BDBF
:10359000F87E0008000000202DE9F04186B01421DB
:1035A0006846FCF7E1FF26480025016841F08001EC
:1035B0000160016801F080010591016841F001019D
:1035C0000160016801F001010591016841F002010B
:1035D0000160016801F002010591016841F00401F8
:1035E0000160016801F004010591016841F00801E2
:1035F00001600068134F00F00800059000220421CC
:103600003846FEF7B9FADFF840807E1500223146D1
:103610004046FEF7B1FA042001248DE831006946E6
:1036200038460394FEF7B0F90096CDE901456946A6
:1036300040460394FEF7A8F906B0BDE8F08100000B
:1036400030380240000402400008024010B592B039
:1036500000240F941C2108A81094FCF785FF20215A
:103660006846FCF781FF20481E4901600121C0E93E
:1036700001146821C0E9031444618461FFF753F821
:1036800008B1FDF7C9F90F940FA917481094FEF778
:1036900037FE08B1FDF7C0F96020CDE908040A94AF
:1036A0000B940C940D94002208A90F480E94FEF779
:1036B000D4FF08B1FDF7B0F900944FF40050CDE904
:1036C0000440029401940394694607480794FEF766
:1036D000EDFD08B1FDF7A0F90348FEF77BFF12B03E
:1036E00010BD0000000001401C0A002010B58AB087
:1036F000002407941C2168460894FCF735FF1748FE
:10370000154901605321C0E9011444F61F61C0E965
:10371000031480218161FFF706F808B1FDF77CF9F9
:10372000079407A90D480894FEF7EAFD08B1FDF7D4
:1037300073F96020CDE90004029404226946074829
:103740000494FEF78AFF08B1FDF766F90348FEF717
:1037500041FF0AB010BD000000040040640A0020D0
:103760000C4810B50A4901604FF4E1314160002175
:1037700081600C22C160C0E904128161C161FFF760
:103780008DFA002803D0BDE81040FDF745B910BD03
:10379000004C00400C0B00200C4810B50A49016099
:1037A0004FF461214160002181600C22C160C0E9B9
:1037B00004128161C161FFF771FA002803D0BDE8EE
:1037C0001040FDF729B910BD00500040500B0020FB
:1037D0000E4810B50C4901600D4941604FF480510D
:1037E000816000214FF48062C0E903120C22C0E91D
:1037F0000521C161FFF752FA002803D0BDE810404F
:10380000FDF70AB910BD000000440040940B0020F1
:10381000A08601000C4810B50A4901604FF4E1315F
:103820004160002181600C22C160C0E90412816105
:10383000C161FFF733FA002803D0BDE81040FDF75F
:10384000EBB810BD00480040D80B00200C4810B564
:103850000A4901604FF4E1314160002181600C228E
:10386000C160C0E904128161C161FFF717FA002845
:1038700003D0BDE81040FDF7CFB810BD00140140E3
:103880001C0C00200249032081F8940100F002B8CA
:10389000800200200848094B0949C0E97F13002233
:1038A0000849C0F8F821C0F80412C0E99313C0F821
:1038B0004822C0F854127047800200200050C346CE
:1038C00000401C4600204B4604498162044A826441
:1038D000C164426400210164704700000050434706
:1038E00000401C46FEE700B5FDF726F9FDF796F807
:1038F0005DF804EBFFF7C6BFFEE700002DE9F041DD
:103900000024051D474EB0F8847027E0285DC028CC
:103910003BD012DCA52829D008DC902822D0A02892
:1039200024D0A12822D0A22817D11FE0B02824D06B
:10393000B12822D0B22810D11FE0D12867D006DCF0
:10394000C12822D0C22820D0D02806D124E0D928EE
:1039500051D0E02864D0F02862D0641CA742D5DCA6
:10396000BDE8F0816878B070A41CF7E7281950F81A
:10397000011F7160808830813BE0281950F8011FD9
:10398000C6F80A108088F08133E0281950F8011F2A
:1039900031618088B0822CE028194178827801EB6F
:1039A000022109B200EE101A2049F8EEC00A9FED7C
:1039B0001E0A80EE801A81ED001AC278037902EBAC
:1039C000032212B200EE902AF8EEE00A80EE801A8E
:1039D000F2EE040A81ED011A4279807902EB0020AF
:1039E00000B200EE100AB8EEC00A80EE201A81ED97
:1039F000021AE41DB2E70D4829190C3851F8012FBD
:103A0000C2604A68026189680D344161A6E70748CF
:103A1000291910220C30491CFCF70DFD11349DE7CB
:103A2000641D9BE7340000200000C842CC0F00203A
:103A3000F0B510EE101A30EE600A016110EE901A27
:103A4000816110EE101AC161026C00EE102A00EEC6
:103A5000902AB1EE401A00EE101A02F089F910EE29
:103A6000101AC161426A00EE101A00EE902A30EE80
:103A7000800A10EE103A4362826A00EE103A00EEBD
:103A8000902AB4EEE00AF1EE10FA01DD426211E094
:103A900000EE902A00EE103AF1EE600AB4EEE00A71
:103AA000F1EE10FA06D200EE102AB1EE400A10EE46
:103AB000102AEBE7026800EE101A00EE902A20EEC2
:103AC000800A10EE105AC562426800EE102A426A5F
:103AD00000EE902A20EE200A10EE103A00EE101AA6
:103AE0000363026A00EE902A826870EE600A00EEBC
:103AF000102A20EE800A10EE107A476304694269AA
:103B000000EE104A00EE902AC26870EE600A00EEE5
:103B1000102A20EE800A10EE106A00EE103A86633A
:103B2000826C00EE902AB4EEE00AF1EE10FA01DDAC
:103B3000026311E000EE902A00EE103AF1EE600A06
:103B4000B4EEE00AF1EE10FA06D200EE102AB1EE61
:103B5000400A10EE102AEBE7026B00EE105A00EE5E
:103B6000902A70EE200A00EE107A70EE800A00EEC5
:103B7000106A30EE800A10EE102AC26301624461BE
:103B8000416C00EE102A00EE901AB4EEE00AF1EE5D
:103B900010FA01DDC16311E000EE901A00EE102A68
:103BA000F1EE600AB4EEE00AF1EE10FA06D200EE91
:103BB000101AB1EE400A10EE101AEBE7C06B00EEDF
:103BC000100AF0BD0748017A0748012906D00329E9
:103BD00006D0022901D10121C17070470221FBE703
:103BE0000021F9E7FC0F002078000020094A016855
:103BF000914203DDB3EE070A80ED000A064A016830
:103C0000914202D800EE101A7047BBEE060A80ED12
:103C1000000A70470000B8410000B0C12DE9F04132
:103C2000384C014620462778D0E903200623A61DFC
:103C30000025072F62D2DFE807F004081A1F272AA1
:103C400031005A295BD1012009E080F88810A529AC
:103C500004D0A62905D0A72951D105E00220207063
:103C60004DE0EAB3904749E00560237047E0A0F8D3
:103C70008410B1700320F2E730F8842F42EA012269
:103C80000280F1700420EAE761800520E7E762889E
:103C900042EA012161800560A580E6E70368061D10
:103CA0005F1C0760995590F88810A72907D1016813
:103CB000082904D30821A0F88410904725702069B2
:103CC000B0F884200168914219D390F88800A528A3
:103CD00015D10C490422891D881E02F085FA00E0E6
:103CE0000CE02169074804C9001D02F07DFAA08894
:103CF0006188884202D1D4E90310884725700020EA
:103D0000BDE8F0814C00002070B5044D0446E96028
:103D10008C21FCF729FC2C6170BD00004C000020B8
:103D200010B5074C01202070FFF778FA08B1002089
:103D30002070FFF7A3FA08B102202070207810BD90
:103D4000600000200346164900B51548143990F864
:103D5000C4010A78904205D008701148D0F8F310D9
:103D6000C0F804110F48D3ED330AB0F9020000EE99
:103D7000100A03F12000B8EEC00A20EE800A83ED9D
:103D8000320AD3ED080A30EE800A83ED080AFFF705
:103D90002DFFD3F80B005861D3F80F00D86100BD98
:103DA000A4000020FC0F002010B504461548A0F127
:103DB000140290F8C4111378994203D01170D0F80E
:103DC000131041621048D4ED330AB0F900004042AC
:103DD00000EE100A04F12000B8EEC00A20EE800ABE
:103DE00084ED320AD4ED080A30EE800A84ED080A28
:103DF00000F020FED4F80B006061D4F80F00E06101
:103E000010BD0000A4000020FC0F002030B5144BB2
:103E10001C68656945F0400565611B68DC6844F015
:103E20001004DC600F4B1C68256825F00105256037
:103E30001C682568ED07F7D11D680B4CAC601C6849
:103E4000E06018680161186842601868016841F410
:103E5000802101601868016841F00101016030BDF6
:103E6000940B0020800D00200444004010B5FFF7A3
:103E700057FF0149087010BD780000200D480D491A
:103E8000703150F8212F4A6142688A618268CA61A4
:103E900002690A6242694A6282698A62C2690A6385
:103EA000C268CA62026A4A63426A8A63806AC863F5
:103EB000704700000C11002002492422A1F12400C7
:103EC000FFF7A4BF681000202DE9084003F0B8F800
:103ED00000900321684602F02FFFF7E72DE9084024
:103EE00003F0AEF8009000F09FF80221684602F05F
:103EF00023FFF5E7012002F0D5FAFBE710B55020CB
:103F000080F31188BFF34F8FBFF36F8F03F09EF8DC
:103F100018B104494FF080500860002080F31188E8
:103F200010BD000004ED00E030B593B030216846CC
:103F3000FCF71AFB14210CA8FCF716FB1E48002501
:103F4000016841F080510160006800F080501190DC
:103F50001A48016841F4804101600068022400F4BD
:103F60008040119001200090000401908001CDE973
:103F70000640192008904FF4A870CDE909040420E8
:103F80000B906846FDF7DAFF08B172B6FEE70CA9A0
:103F90000F2081E831004FF4A0500F904FF4805073
:103FA000109005210CA8FDF7BDFE002801D072B6C7
:103FB000FEE713B030BD0000403802400070004002
:103FC0000248016841F470010160704788ED00E02B
:103FD00010B5134CB4F90630B4F90420B4F902104A
:103FE000B4F90000FCF7DEFBA38AB4F90A20617A79
:103FF000207AFCF70DFC0B48017809B142780AB928
:1040000000228270012907D0022902D041780229BA
:1040100001D10221817010BD41780129FAD0F5E764
:10402000FC0F00207800002010B5FFF7D1FFFFF74C
:104030001DFFFFF7ABF8FFF7C5FDBDE8104002F02C
:104040005BBD00000148FEF712BA0000A00E002080
:10405000F0B50268254C264D264E274F274B4FF0D2
:10406000804CA04209D0604507D0A84205D0B0429C
:1040700003D0B84201D0984204D122F0700E4A68B1
:1040800042EA0E02A0421BD0604519D0A84217D0C8
:10409000B04215D0B84213D0984211D0184DA84262
:1040A0000ED0184DA8420BD0174DA84208D0174D7E
:1040B000A84205D0164DA84202D0164DA84203D101
:1040C00022F44075CA682A434D6922F080022A43CF
:1040D00002608A68C2620A688262A04201D0984285
:1040E00001D10969016301214161F0BD0000014076
:1040F0000004004000080040000C004000040140A3
:1041000000400140004401400048014000180040C8
:10411000001C00400020004010B501F01F030121E9
:10412000046A99408C430462016A9A401143016217
:1041300010BD0000F0B5026A22F001020262036ABB
:1041400042688469124E24F073050C682C4323F0F6
:1041500002058B682B430D4DA84201D0B04205D11A
:1041600023F00807CB683B4323F00403A84201D0A7
:10417000B04205D14D6922F4407215438A692A4341
:1041800042608461496841630362F0BD0000014000
:1041900000040140F0B5026A22F010020262026AD5
:1041A000436884690D6824F4E64444EA05248D6874
:1041B00022F0200242EA05120F4D104EA84201D013
:1041C000B04206D1CF6822F0800242EA071222F004
:1041D0004002A84201D0B04207D14D6923F44063A8
:1041E00043EA85038D6943EA850343608461496836
:1041F00081630262F0BD0000000001400004014044
:10420000F0B5026A22F480720262026A4368C469ED
:1042100022F4007224F073050C68124E2C438D6852
:1042200042EA05220E4DA84201D0B04206D1CF6825
:1042300022F4006242EA072222F48062A84201D0FE
:10424000B04207D14D6923F4405343EA05138D6909
:1042500043EA05134360C4614968C1630262F0BD6B
:10426000000001400004014030B5026A22F480528F
:104270000262046A4268C3690D6823F4E64343EAB4
:1042800005238D6824F4005444EA0534084DA842FF
:1042900002D0084DA84204D14D6922F4804242EA7E
:1042A00085124260C36149680164046230BD000048
:1042B000000001400004014070B502F04DF8044DCB
:1042C0000024C5E9040402F047F8C5E9060470BDFE
:1042D0007000002010B50448FEF7ACFBBDE81040AC
:1042E000014800F0E5B800000C0B002010B50448B0
:1042F000FEF7A0FBBDE81040014800F0D9B800006F
:10430000500B002010B5806B0021C185C184FEF7E1
:104310008FFB10BD70B5846B2068406994F83D1028
:10432000C0F3C0100025212904D118B1E58420462E
:1043300000F0B0F82068406994F83E10C0F3801097
:10434000222904D118B1E585204600F07CF8206CC4
:1043500040F0100020642046FEF76AFB70BD10B5E7
:104360000146806B09680968C9052FD40021C18501
:1043700001680C3151E8002F22F4807241E80023DB
:10438000002BF5D10168143151E8002F22F0010211
:1043900041E80023002BF5D10168143151E8002FCA
:1043A00022F0400241E80023002BF5D1202180F8C3
:1043B0003E10016B012909D101680C3151E8002F31
:1043C00022F0100241E80023002BF5D1016B0129F6
:1043D00002D0FEF754FE10BD818DFEF7F0FA10BD3D
:1043E00010B5806B016B012902D0FEF749FE10BDAC
:1043F000818D4908FEF7E3FA10BD10B50146806BC8
:1044000009680968C90516D40021C18401681431FE
:1044100051E8002F22F0800241E80023002BF5D163
:1044200001680C3151E8002F42F0400241E80023BE
:10443000002BF5D110BDFEF76BFE10BD10B5806BE3
:10444000FEF767FE10BD01680C3151E8002F22F421
:10445000907241E80023002BF5D10168143151E836
:10446000002F22F0010241E80023002BF5D1016B5F
:10447000012909D101680C3151E8002F22F0100206
:1044800041E80023002BF5D1202180F83E100021C7
:104490000163704701680C3151E8002F22F0C0021F
:1044A00041E80023002BF5D1202180F83D10704712
:1044B0002DE9F84356490024064647F23055884214
:1044C0004AD108680268920604D5016840680090E5
:1044D000BDE8F8830268D206FAD502684068009009
:1044E000886B006802684FF024031603494A066887
:1044F00026F001060660886B00684668C6F124064F
:10450000B6B216804360886B006802680DD442F42E
:1045100000220260886B0068016841F001010160BF
:10452000122E12D13C493D480DE022F400220260D7
:10453000886B0068016841F001010160122E04D10E
:1045400036483549243002F055FA01F005FF344968
:104550002844C1E90004BBE73248864217D100680D
:104560000168C943C906B3D40168C943C906AFD4B9
:104570000168406800902B48FEF722FA274832383D
:1045800000F0D6F925493222323926483BE0264848
:10459000864226D100680168C943C90698D40168DB
:1045A000A046406800902048FEF70AFA1B4F0024FE
:1045B0004837385DFFF732FB641C802CF9D317496C
:1045C000802248313046FEF745FD144880214830AE
:1045D000FBF7A8FF01F0C0FE144A2844C2E9000816
:1045E00076E713488642B6D100680168C943C90618
:1045F000B1D40168406800900D48FEF7E1F9054923
:1046000004220B48891CBDE8F843FEF723BD0000D7
:10461000940B002064000020FC0F002044100020B8
:10462000800000200C0B0020500B00208800002090
:104630001C0C002008B590F83E10222901D0022061
:1046400008BD82684FF480539A4201D1016921B1BB
:10465000816A9A421BD04AB10AE00268816A5268B4
:10466000C2F308020A80816A891C08E0026972B1FB
:104670000268526802F07F020A70816A491C8162F6
:10468000C18D491E0904090CC18503D019E00268D7
:104690005268F1E70168CA6822F02002CA60016826
:1046A000CA6822F48072CA6001684A6922F0010275
:1046B0004A61202180F83E10016B012903D0FEF7EA
:1046C000DEFC002008BD0021016301680C3151E8C7
:1046D000002F22F0100241E80023002BF5D10168E1
:1046E0000A68D20602D50A6849680091818DFEF7F2
:1046F00066F9E6E770B5044600680169E26821F4EE
:104700004051114301612169A068E2690843616970
:10471000114308432168CA6849F20C639A43024373
:10472000CA6020684169A26921F440711143416166
:1047300031492068884202D03049884202D1FDF7D1
:10474000BBFB01E0FDF7A8FBE2690023192164250A
:104750003226B2F5004F626828D0A0FB0101930F0A
:104760009200FBF7F1FD0146B0FBF5F06FF0180287
:10477000504301EB800006EB0010B0FBF5F000F0B9
:10478000F002B1FBF5F002EB0012B1FBF5F06FF0B7
:104790001803584301EB800006EB0010B0FBF5F066
:1047A00000F00F0021681044886070BDA0FB01017B
:1047B00092185B41FBF7C8FD0146B0FBF5F0020122
:1047C000B1FBF5F06FF01803584301EB800006EBE6
:1047D000C000B0FBF5F000F0F80002EB4002B1FBC6
:1047E000F5F0584301EB800006EBC000B0FBF5F09C
:1047F00000F00700D6E7000000100140001401405F
:1048000038B581628285002513460446056422205E
:1048100084F83E00A26B1C48D063A26B1B48106456
:10482000A26B1B48D064A06B0A4605652168A06B8B
:10483000091DFDF75FF8206801684068009084F862
:104840003C50206948B120680C3050E8001F41F40A
:10485000807140E80012002AF5D12068143050E839
:10486000001F41F0010140E80012002AF5D1206844
:10487000143050E8001F41F0400140E80012002AC7
:10488000F5D1002038BD00005F430008E143000877
:104890001543000810B50448FEF7CCF8BDE81040F9
:1048A0000148FFF705BE0000940B00200148FEF709
:1048B000C1B80000D80B002010B50448FEF7BAF8C4
:1048C000BDE810400148FFF7F3BD00001C0C0020BC
:1048D00010B5FFF7F1FAFEF739FC0F480068C16820
:1048E00041F01001C1600D480068C16841F010013D
:1048F000C1600B480068C16841F01001C1600948FF
:104900000068C16841F01001C160BDE8104032226A
:1049100005490248FEF79EBB940B00200C0B0020BB
:10492000500B00201C0C002012100020FEE700009D
:1049300038B5054600780D4CA52815D194F83110EE
:10494000284600F03FF800280ED094F83120294680
:104950002046FBF770FD04F16D00031F1A1F009045
:10496000111F103801F01CFA38BD00002B11002077
:104970000C4910B501F151008C7F5A2200F8012B2F
:104980004A7F491CFBF757FD064821465130FBF78B
:1049900095FE22460349BDE8104051310248FEF71A
:1049A00071BB00000C1100200C0B00202DE9084009
:1049B00002F046FB009000F033F80221684602F056
:1049C000BBF9F5E730B50C46050014D0022C12D91E
:1049D0000A48A11E02882846FCF7C0F82919C2B26D
:1049E00011F8023C9A4206D111F8011CB1EB102FCC
:1049F00001D1012030BD002030BD00001C05002089
:104A000006482D2180F84F10302180F850101921D0
:104A100041771C2181771A21017770470C11002002
:104A200010B5FBF715FEFFF7A3FFBDE81040FFF739
:104A300025BA0000104990ED000A104BD1F8131070
:104A40009FED0F1A00EE901A70EE600A10EE902A99
:104A50009A4202DD30EE410A0AE000EE901A094A5D
:104A600070EE600A10EE901A914203D930EE010AFE
:104A700080ED000A70470000A400002000003443CD
:104A80000000B443000034C303B40198410000980F
:104A900050EAC12018BF04204A0D18BF40F00100A1
:104AA00040F2FF72B2EB515F08BF40F002000128F4
:104AB00008BF052002B070470907090E002804DB73
:104AC00000F1E02080F80014704700F00F0000F1C2
:104AD000E02080F8141D704770B59B482DED020B47
:104AE0002DED068B079D25F00044A04218DC974869
:104AF000844202DC0AD1069840B19DED060BBDEC64
:104B0000068B02B0BDE8704001F0EEB8002DCCBFBE
:104B10009FED8F0B9FED900BBDEC068B02B070BD2F
:104B20008F48A04215DD8F48A042D8BF4FF0FF3418
:104B300058DD9DED060B51EC100BFFF7A5FF042887
:104B400008BF01F005F99DED060BBDEC068B02B028
:104B500070BD9DED060B51EC100B01F05CFBCDE937
:104B6000060181489FED828BA0423CDD8248A04235
:104B70001FDD00249FED82AB9DED060B53EC1A2B3D
:104B800051EC100B02F068FB9DED060B41EC190B8C
:104B900053EC1A2B51EC100B02F03CFE53EC182B8B
:104BA00003F044F853EC192B02F00AFCCDE906019E
:104BB00049E09DED060B012453EC182B51EC100B32
:104BC00002F04AFB9DED060B41EC190B53EC182B40
:104BD00051EC100B03F02AF853EC192B02F0F0FB08
:104BE000CDE906012FE06848A0421FDD02249FEDB9
:104BF000689B9DED060B53EC192B51EC100B02F04A
:104C000009FE53EC182B02F027FB9DED060B41EC3F
:104C1000180B53EC192B51EC100B03F007F853EC65
:104C2000182B02F0CDFBCDE906010CE09DED060B43
:104C3000032453EC102B9FED580B51EC100B02F09A
:104C4000BFFBCDE906019DED060B53EC102B51EC9B
:104C5000100B02F0DFFD41EC180B53EC182B02F0A7
:104C6000D9FD41EC190B4E480621B0EE490AF0EE91
:104C7000690A784400F024FF53EC182B51EC100B18
:104C800002F0C8FD41EC180B4648B0EE490AF0EEC0
:104C9000690A0521784400F013FF53EC192B51ECFD
:104CA000100B02F0B7FD41EC100B51EC180B53EC5C
:104CB000102B002C0EDA02F0CFFA9DED061B53EC00
:104CC000112B02F0A7FD9DED061B53EC112B02F0FA
:104CD000D5FE35E002F0C0FA9DED061B53EC112B1A
:104CE00002F098FD41EC100B2F48784400EBC40013
:104CF00090ED001B51EC100B53EC112B02F096FFC2
:104D00009DED061B53EC112B02F090FF41EC100BB4
:104D10002648784400EBC40090ED001B51EC100BCA
:104D200053EC112B02F0AAFE41EC100B002DA2BF98
:104D3000BDEC068B02B070BD51EC100B02F04EFAC8
:104D400041EC100B01E70000000010440000F07F70
:104D5000182D4454FB21F93F182D4454FB21F9BF71
:104D60000000DC3F0000203E0000F33F0000000098
:104D7000000000000000F03F0000E63F00000000DF
:104D80000000000000000040008003400000000020
:104D9000000000000000F83F000000000000F0BF2D
:104DA0000A370000C03600004A3600000236000014
:104DB00070B56F4E2DED040B2DED048B82B0DDF838
:104DC00024C0DDE907235C422CF000411C4341EA8A
:104DD000D474069D22F00040B44205D86C422C43A6
:104DE00040EAD474B4420BD99DED081B9DED060B2F
:104DF00002B0BDEC048B04B0BDE8704000F07EBF93
:104E0000ACF14054A4F17F641C430BD0022404EAAB
:104E1000AC7444EAD27405439FED578B9FED582B39
:104E200007D015E09DED060B51EC100B00F0B0FF24
:104E300042E0002C11BF012C9DED060B02B0BDEC31
:104E4000048B04BF04B070BD022C38D0032C3BD0BF
:104E50000B439FED4D1B9FED4E0B0AD0B14218D175
:104E6000B04209D121F0804120F0804009910790A3
:104E70000FE0002A15DA10E0474B7B44002C08BFF6
:104E800093ED000B0DD0012C10D0022C17D0032C69
:104E90001AD0B0421DD1002A03DAB0EE410AF0EE7A
:104EA000610A02B0BDEC048B04B070BD93ED000B41
:104EB00051EC100B02F092F941EC100BF1E7B0EE5F
:104EC000480AF0EE680AECE7B0EE420AF0EE620A39
:104ED000E7E7401A00159FED329B3C28C8BF8DEDD7
:104EE000000B17DCBCF1000FBCBF10F13C0F8DEDC7
:104EF000009B0FDB9DED080B53EC102B9DED060B7B
:104F000051EC100B02F05CFA01F085F900F040FF63
:104F1000CDE90001B4B1012C10D0022C9FED220B81
:104F200053EC102B9DED000B51EC100B19D002F03F
:104F30007DFE53EC182B02F079FEBDE7019880F05E
:104F4000004001909DED000B53EC192B51EC100B20
:104F500002F08EFB04BF0220FBF735FB9DED000B3A
:104F60009FE702F063FE53EC182B02F087FDA3E7E6
:104F70000000F07F00000000182D4454FB21094080
:104F8000182D4454FB2109C0182D4454FB21F9BFAE
:104F9000182D4454FB21F93F623500000000000049
:104FA0000000000000000000075C143326A6A13CAE
:104FB00010B52F499FED2C1B2DED020B84B00598E9
:104FC00020F000408842D8BF9DED040B2DDD29491B
:104FD000884209D1049840B94FF00100FBF7F3FA79
:104FE00000F096FE06B010BD05DB9DED040B00F051
:104FF0007BFE06B010BD68469DED040B00F08CFAF8
:1050000010F0030004BF9DED021B9DED000B0CD0C2
:1050100001280ED09DED021B9DED000B022817D03C
:10502000012000F0C9FD06B010BD00F091FC06B0F3
:1050300010BD9DED021B9DED000B012000F0BCFD9D
:1050400051EC100B02F0CAF806B041EC100B10BD89
:1050500000F07EFC51EC100B02F0C0F806B041EC01
:10506000100B10BD00000000000000000000000058
:10507000FB21E93F0000F07F70B52DED020B2DED17
:105080000A8B82B00D98C40F20F00045AE488542CF
:1050900048D3AE48854219D30C99C5F31300084391
:1050A00009D09DED0C0B02B0BDEC0A8B02B0BDE83F
:1050B000704000F019BE002C14BF9FEDA50B9DEDB4
:1050C0000C0B02B0BDEC0A8B02B070BD9FEDA20BC1
:1050D00053EC102B9DED0C0B51EC100B02F098FCD7
:1050E0000AD20220FBF76FFA02B0BDEC0A8B02B0C5
:1050F000BDE8704000F01CBE9FED990B53EC102BE7
:105100009DED0C0B51EC100B02F048FB0AD2022073
:10511000FBF759FA02B0BDEC0A8B02B0BDE8704053
:1051200000F016BE90489FED92BBA8425CD2924818
:10513000854219D29148784400EBC40090ED000BF1
:1051400053EC102B9DED0C0B51EC100B02F06EFD8F
:1051500041EC1A0B8A48784400EBC40090ED009BA8
:10516000C4F10100041B36E09FED870B53EC102BBC
:105170009DED0C0B51EC100B02F04CFB41EC100BB5
:105180008348784400EBC40090ED001B51EC100BF9
:1051900053EC112B02F060F802F0A6FA044602F07C
:1051A000D2FA41EC180B9FED7C0B53EC102B02F064
:1051B00031FB9DED0C1B53EC112B02F05FFC41EC1D
:1051C0001A0B9FED770B51EC180B53EC102B02F0E0
:1051D00021FB41EC190B51EC1A0B53EC192B02F08B
:1051E00025FDCDE90C011BE06F48854217D29FEDEC
:1051F000700B53EC102B9DED0C0B51EC100B02F0CF
:105200002BF853EC1B2B02F003FC08D29DED0C0B8A
:1052100053EC1B2B51EC100B02F01EF86EE0002437
:105220009DED0C0B53EC102B51EC100B02F0F2FA2D
:1052300041EC180B60480521B0EE480AF0EE680A10
:10524000784400F03DFC53EC182B51EC100B02F0AD
:10525000E1FA9DED0C1B53EC112B02F00FFC41EC1D
:10526000180B9FED570B5CB353EC182B51EC100B44
:1052700002F0DCFC9DED0C0B41EC1C0B53EC182BED
:1052800051EC100B02F0C6FA53EC1C2B02F098F80C
:1052900053EC192B02F0F2FB53EC1A2B02F0C6FC74
:1052A00053EC1B2B02F0EAFBCDE900016FF47F7099
:1052B000844226DB01EB045001909DED000B00E7DA
:1052C00053EC102B51EC180B02F0B0FC9DED0C0BC5
:1052D00041EC190B53EC182B51EC100B02F09AFA1D
:1052E00053EC192B02F06CF89DED0C1B53EC112BB9
:1052F00002F09CFC53EC1B2B02F0C0FB41EC100BAA
:10530000DFE608464FF07A5101EB04519FED2E0B7A
:10531000084453EC102B01909DED000B51EC100B49
:1053200002F078FA0D4645EC100B044651EC100BD8
:10533000FFF7AAFB042808BF00F00AFD45EC104B5C
:10534000BFE6000000000000422E86400000F07F13
:105350000000000000000000EF39FAFE422E8640F7
:1053600051302DD5104987C0422ED63F0000000095
:10537000000000000000F03FB2A2F03F96310000B4
:105380008631000000000000FE822B654715F73FC4
:105390003A310000000000000000E0FE422EE63F2F
:1053A000763C7935EF39EA3D0000303E00000000E0
:1053B0009C7500883CE4377EAC30000000000000A3
:1053C000000000000000004000000000000070012C
:1053D00010B52F499FED2C1B2DED020B84B00598C5
:1053E00020F000408842DCBF00209DED040B32DD40
:1053F0002849884209D1049840B94FF00100FBF7D1
:10540000E2F800F085FC06B010BD05DB9DED040B55
:1054100000F06AFC06B010BD68469DED040B00F07C
:105420007BF810F0030011D0012818D09DED021B6D
:105430009DED000B02281AD000F08AFA51EC100BF7
:1054400001F0CCFE06B041EC100B10BD9DED021B2F
:105450009DED000B012000F0AFFB06B010BD9DEDEF
:10546000021B9DED000B00F073FA06B010BD012089
:1054700000F0A2FB51EC100B01F0B0FE06B041ECC5
:10548000100B10BD00000000000000000000000034
:10549000FB21E93F0000F07F00B52DED048BB0EE5D
:1054A000409AF0EE609A83B051EC190B02F0F2FAD8
:1054B00041EC180B18EE100A18EE901A8DED008BC7
:1054C000002818BF0120084320F00040C0F17F6091
:1054D00000F1E040C00F14D019EE101A19EE900A36
:1054E0008DED009B002918BF0121084320F00040EA
:1054F000C0F17F6000F1E040C00F04BF0120FBF766
:1055000062F8B0EE480A03B0F0EE680ABDEC048B16
:1055100000BD0000000000002DE9F14F04462DED14
:10552000020B2DED088B8AB09FEDE70B80ED020B8F
:10553000139EE74826F0004585420ADC9DED120BDC
:10554000002084ED000B0AB0BDEC088B03B0BDE871
:10555000F08FE0489FEDE0AB9FEDE1BBA84247DD57
:10556000E14F9FEDE39B9FEDE48B9DED120B53EC20
:105570001A2B51EC100B002E1CDD02F057FB41ECF6
:10558000100BBD4208D053EC1B2B51EC100B02F05A
:105590004DFBC4E900010BE053EC192B51EC100B4F
:1055A00002F044FB53EC182B02F040FBC4E900016D
:1055B0000120C8E701F050FE41EC100BBD4208D0BD
:1055C00053EC1B2B51EC100B01F046FEC4E900011B
:1055D0000BE053EC192B51EC100B01F03DFE53EC9A
:1055E000182B01F039FEC4E900014FF0FF30AAE7A3
:1055F000C348A84279DB9DED120B51EC100B00F073
:105600000AFE41EC180B9FEDC00B53EC102B02F07F
:1056100001F99FEDBF1B53EC112B01F01DFE02F0B1
:1056200063F8074602F08FF841EC190B53EC1A2B84
:1056300002F0F0F853EC182B02F020FA41EC180BB2
:1056400053EC1B2B51EC190B02F0E4F8DFF8C8A265
:1056500041EC100B4FEA15580125FA4453EC102B7E
:1056600051EC180B02F0E2FA032DC4E900013DD021
:10567000C1F30A5005EB4511A8EB00001139814236
:1056800034DA0AEB051BB0EE48AA9BED000BF0EEF6
:1056900068AA53EC102B51EC190B02F0BBF841EC4B
:1056A0001B0B51EC1A0B53EC1B2B02F0BFFA41EC15
:1056B000180B51EC1A0B53EC182B02F0B7FA53EC01
:1056C0001B2B02F0B3FA9BED020B41EC1A0B53ECCF
:1056D000102B51EC190B02F09DF853EC1A2B02F031
:1056E000A5FA41EC100B6D1CB8E70EE0002EA8BF28
:1056F0003846BFF628AF94ED000B51EC100B01F0CB
:105700006DFDC4E9000178421DE7C6F3130040F4C3
:10571000801EC6F30A50A0F2F530471100F01F05B5
:10572000C5F12000DDF848B00890002006900790F1
:105730000520EC467949002D07EB0002794408BFAB
:1057400051F8221009D051F8223001EB8201AB4010
:105750004A68089922FA01F11943A1FB0E26A1FB20
:105760000B131A449A4234BF0123002303EB0608AB
:105770000CEB8003D3E901A60E448E4234BF012115
:10578000002192448A4411B1924502D903E0924526
:1057900001D2012100E00021C3E901A641444CF8F7
:1057A0002010011EA0F10100C4DC029800F100509D
:1057B000850F0298DDE903678000DDF8148001F0B1
:1057C000C2FF41EC1A0B304601F0D4FF9FED541B91
:1057D00053EC112B02F01EF841EC1B0B384601F084
:1057E000C9FF9FED511B53EC112B02F013F841EC54
:1057F000180B404601F0BEFF9FED4D1B53EC112BE3
:1058000002F008F841EC190B51EC180B53EC192B72
:1058100001F022FD53EC1B2B01F01EFD53EC1A2B63
:1058200001F01AFDCDE90801002008909DED080B5C
:1058300053EC1A2B51EC100B02F0F8F953EC1B2B24
:1058400002F0F4F953EC182B02F0F0F953EC192B99
:1058500002F014F99FED381B53EC112B01F0DAFF25
:105860009FED370B41EC180B53EC102B9DED080B03
:1058700051EC100B01F0CEFF53EC182B01F0ECFCB7
:105880009FED310B41EC180B53EC102B9DED080BE9
:1058900051EC100B01F0BEFF53EC182B01F0DCFCB7
:1058A00041EC100B139810F0004F06D06D4251ECF4
:1058B000100B01F093FC41EC100B284684ED000B1B
:1058C00041E60000000000000000000000000000B1
:1058D000FB21E93F7CD9024000004054FB21F93F05
:1058E0003163621A61B4D03DFB21F93F0000000032
:1058F0000000601A61B4D03D7370032E8A19A33B77
:10590000FB2139410000000083C8C96D305FE43FCE
:10591000000000000000E03F8A2D0000D82C0000AD
:10592000000000000000103E000000000000103CDD
:10593000000000000000103A182D4454FB21F93DEE
:105940003326A611460B113C00000054FB21F93D03
:1059500010B52DED040B2DED088B82B0B0EE419A01
:10596000F0EE619A0B9820F000449FED4BABB4F140
:10597000795F11DA9DED0A0B51EC100B01F0B4FECA
:10598000002801BFB0EE4A0AF0EE6A0A02B0BDEC90
:10599000088B04BF04B010BD9DED0A0B53EC102B17
:1059A00051EC100B01F036FF41EC180B3C4806217E
:1059B000B0EE480AF0EE680A784400F081F853EC43
:1059C000182B51EC100B01F025FF9DED0A0B41EC5B
:1059D0001B0B53EC192B51EC100B01F01BFF41EC8E
:1059E000190B53EC1B2B51EC180B01F013FF53EC6C
:1059F000192B02F01BF99FED2C0B41EC190B53EC0A
:105A0000102B51EC180B01F005FF41EC100B28484E
:105A1000844210DA53EC192B51EC100B02F006F90A
:105A200053EC1A2B02F02AF841EC100B02B0BDEC3B
:105A3000088B04B010BD1F48A042BCBF9FED1E1BC9
:105A40008DED001B06DBA4F50010019000200090F6
:105A50009DED001B51EC100B53EC112B02F0E6F8FE
:105A60009DED000B41EC180B53EC102B51EC1A0B75
:105A700002F0DCF841EC1A0B53EC192B51EC180B2B
:105A800002F0D4F853EC1A2B01F0F8FF41EC100BA4
:105A9000CCE7000000000000000000000000F03F24
:105AA000F429000000000000000000000000E03FBA
:105AB0003333D33F0000E93F000000000000D23F35
:105AC00070B504462DED028B4D1E00EBC500B0EE07
:105AD000408AF0EE608A90ED000B35F0060017D09A
