:020000040800F2
:100000000875002029030008E5470008FB3E0008AA
:10001000D1470008150700082D7D000800000000EA
:10002000000000000000000000000000690200085D
:10003000FD0A000800000000C5020008FD56000887
:100040004303000843030008430300084303000878
:100050004303000843030008430300084303000868
:10006000430300084303000843030008110A000883
:10007000430300081D0A000843030008290A00087A
:10008000350A00084303000843030008430300083F
:100090004507000843030008430300084303000822
:1000A0004303000843030008430300084303000818
:1000B0004303000843030008430300084303000808
:1000C00043030008430300084303000843030008F8
:1000D0004303000899610008B16100084303000868
:1000E00043030008430300084303000843030008D8
:1000F000430300085958000843030008430300085D
:1001000043030008430300084303000843030008B7
:10011000E15B0008F95B00084303000843030008A3
:1001200043030008410A0008430300084303000892
:100130004303000800000000000000004303000823
:100140007D07000843030008430300084303000839
:100150004D0A00084303000843030008C961000872
:100160004303000843030008430300084303000857
:1001700043030008E94700080000000000000000F9
:10018000430300084303000800F002F800F05CF8A5
:100190000AA090E8000C82448344AAF10107DA45E2
:1001A00001D100F051F8AFF2090EBAE80F0013F0D8
:1001B000010F18BFFB1A43F00103184760B9000094
:1001C00080B900000A444FF0000C10F8013B13F016
:1001D000070408BF10F8014B1D1108BF10F8015BA0
:1001E000641E05D010F8016B641E01F8016BF9D193
:1001F00013F0080F1EBF10F8014BAD1C0C1B09D1EA
:100200006D1E58BF01F801CBFAD505E014F8016B5B
:1002100001F8016B6D1EF9D59142D6D370470000ED
:100220000023002400250026103A28BF78C1FBD8FF
:10023000520728BF30C148BF0B6070471FB50BF095
:100240004AF91FBD10B510BD00F0DCF91146FFF7EB
:10025000F5FF09F003FB00F0FAF903B4FFF7F2FF32
:1002600003BC00F0FDF900002C4B19680868B0E8E9
:10027000F04F80F30988BFF36F8F4FF0000080F3D9
:10028000118870470000000008480068006880F38B
:1002900008884FF0000080F3148862B661B6BFF39F
:1002A0004F8FBFF36F8F00DF00BF00BF08ED00E08E
:1002B000DFF80C00016841F470010160704700BF75
:1002C00088ED00E0EFF30980BFF36F8F134B1A68DE
:1002D0001EF0100F08BF20ED108A20E9F04F1060CB
:1002E00009B44FF0500080F31188BFF34F8FBFF374
:1002F0006F8F0AF075F84FF0000080F3118809BC89
:1003000019680868B0E8F04F1EF0100F08BFB0EC95
:10031000108A80F30988BFF36F8F7047D0060020E2
:10032000EFF30580704700000948804709480047FF
:10033000FEE7FEE7FEE7FEE7FEE7FEE7FEE7FEE795
:10034000FEE7FEE704480549054A064B70470000F2
:10035000C557000889010008086F002008750020B3
:10036000087100200871002053EA020C00F0698037
:100370002DE9F04B4FF00006002B1FBFB3FA83F5B9
:1003800003FA05F424FA05F65E4012BF1643B2FAEA
:1003900082F502FA05F4C5F120051EBF22FA05FC1C
:1003A00044EA0C04203556EA044C4FEA144418BFC2
:1003B000641C4FF000084FF00009904271EB030CF1
:1003C00039D3002919BFB1FA81F701FA07F6B0FA5B
:1003D00080F700FA07F6C7F120071EBF20FA07FCD6
:1003E00046EA0C062037B6FBF4FCA7EB0507103FE6
:1003F00007F01F0BCBF120060CFA0BFB2CFA06F6CC
:1004000044BFB3460026202FA4BF5E464FF0000B2A
:100410005BEA060C08BF4FF0010B19EB0B09ABFBB5
:10042000027C48EB0608C01B06FB02CC0BFB03CC8E
:1004300071EB0C01C1E70B46024641464846BDE858
:10044000F08B13B54FF000004FF00001AFF30080C8
:10045000BDE81C407047032A40F2308010F0030CC6
:1004600000F0158011F8013BBCF1020F624498BF07
:1004700011F801CB00F8013B38BF11F8013BA2F1A4
:10048000040298BF00F801CB38BF00F8013B11F01F
:10049000030300F02580083AC0F0088051F8043BBF
:1004A000083A51F804CBA0E80810F5E7121D5CBF2C
:1004B00051F8043B40F8043BAFF30080D20724BF5F
:1004C00011F8013B11F801CB48BF11F8012B24BFF3
:1004D00000F8013B00F801CB48BF00F8012B704742
:1004E00010B5203AC0F00B80B1E81850203AA0E8CF
:1004F0001850B1E81850A0E81850BFF4F5AF5FEA03
:10050000027C24BFB1E81850A0E8185044BF18C9B5
:1005100018C0BDE810405FEA827C24BF51F8043B5C
:1005200040F8043B08BF7047D20728BF31F8023BB0
:1005300048BF11F8012B28BF20F8023B48BF00F844
:10054000012B70474FF000020429C0F0128010F018
:10055000030C00F01B80CCF1040CBCF1020F18BF9F
:1005600000F8012BA8BF20F8022BA1EB0C0100F032
:100570000DB85FEAC17C24BF00F8012B00F8012B05
:1005800048BF00F8012B70474FF0000200B513463A
:1005900094469646203922BFA0E80C50A0E80C50A3
:1005A000B1F12001BFF4F7AF090728BFA0E80C5054
:1005B00048BF0CC05DF804EB890028BF40F8042B4D
:1005C00008BF704748BF20F8022B11F0804F18BFBA
:1005D00000F8012B704770477047704710B500F066
:1005E00009F8006810BD10B5044600F003F8046077
:1005F00010BD000000487047A86E002000487047FA
:10060000A86E00207546FFF7F9FFAE460500694663
:10061000534620F00700854618B020B5FFF792FE3C
:10062000BDE820404FF000064FF000074FF00008F3
:100630004FF0000B21F00701AC46ACE8C009ACE874
:10064000C009ACE8C009ACE8C0098D46704710B5D8
:100650000446AFF300802046BDE81040FFF7FDBD23
:1006600001491820ABBEFEE72600020070470000DB
:1006700019489FED1B0A9FED1C2A10F8011F41F03D
:10068000010100F8011B1549D1ED010A60EE801A45
:10069000DFED140A81EEA01A11EE102A026091ED2E
:1006A000001A61EE001A81EE821A11EE102A4260E1
:1006B00091ED021A21EE001A81EE200A10EE101AB6
:1006C0008160D0F81F10C160D0F823100161D0F80C
:1006D000271041617047000028140020601000209E
:1006E000DB0F494000003443000034C330B50C46F2
:1006F00005000CD0022C0AD90548A11E0288284604
:1007000000F02EFB291901F8020D000A487030BDD7
:10071000E0040020FEE7000000B58BB06946084801
:1007200000F03EF86946064800F0D6FC0221044875
:1007300000F058FC024801F03FF80BB000BD00008B
:10074000840A0020014800F0C8BD0000840A00208F
:1007500000B58BB06946084800F022F869460648A3
:1007600000F0BAFC0221044800F03CFC024801F011
:1007700023F80BB000BD0000AC0A0020014800F0D7
:10078000ACBD0000AC0A00200A8852BA02804A8838
:1007900052BA42808A8852BA8280897981717047C0
:1007A00000220123C1E906230A604A608A60CA6008
:1007B0004A610A610E22C1E908320068034B98427F
:1007C00003D0034B984200D14A6170470064004057
:1007D0000068004070B5174C40F267552560002551
:1007E000A560E56008252561134C050A2570607039
:1007F000080AA070E170100A20716271180AA071D5
:10080000E371012322460B490C4800F0FDFB002850
:100810000FD0022322460749084800F0F5FB0028C4
:1008200007D02246BDE8704004230249034800F087
:10083000EBBB70BD900F00202C000020AC0A002004
:1008400070B5154C4FF4A46525600025A560E560E2
:1008500006252561114C20706170100AA070E270AD
:10086000180A20716371012322460B490C4800F0DD
:10087000CBFB00280FD0022322460749084800F08E
:10088000C3FB002807D02246BDE87040042302497C
:10089000034800F0B9BB70BD900F00202C00002071
:1008A000AC0A002008B50B4A40F2FF131360002386
:1008B0009360D36008231361074A030A9370D070D2
:1008C000080A107151716B460249044800F09CFB04
:1008D00008BD0000600F00201C000020840A0020DA
:1008E000134910B54FF4FF720A6000228A60CA6093
:1008F00008220A610F49020A01230A7048700A4659
:100900000B490D4800F080FB00280FD00223094A54
:100910000749094800F078FB002807D0BDE81040DF
:100920000423044A0249044800F06EBB10BD0000D5
:10093000600F00201C000020AC0A0020144A10B5F3
:100940004FF40073136000239360D3600823136196
:10095000104A030A13705070080A9070D170012376
:100960000B490D4800F050FB00280FD00223094A24
:100970000749094800F048FB002807D0BDE81040AF
:100980000423044A0249044800F03EBB10BD0000A5
:10099000780F002024000020840A002000207047E7
:1009A0000020704710B500220449054805F028FED4
:1009B0000449034805F017FE002010BDA45F002085
:1009C000C8520020A457002010B50146034805F086
:1009D0000AFE024805F0E0FD002010BDC8520020CC
:1009E00000207047094A10B5D2F8BC22D2F8142270
:1009F0000AB1012010BD0A460146044805F000FE78
:100A0000BDE81040014805F075BE0000C852002046
:100A1000014800F05FBF0000F80D0020014800F021
:100A200059BF0000980D0020014800F053BF00009E
:100A3000380D0020014800F04DBF0000B80E002026
:100A4000014800F047BF0000700B0020014800F093
:100A500041BF0000580E002001681823CAB2103AA6
:100A6000B2FBF3F2054B6FF30901032A9B5CC365EC
:100A700000D9091D816508467047000094B8000838
:100A800010B5014600208B698A6A4FF0C07453B1DB
:100A9000B3F5005F15D072B1012A0CD0022A0AD03A
:100AA000032A09D104E01AB1012A06D0022A03D18F
:100AB000C96AC90100D5012010BDC96AA142FAD096
:100AC00010BD002AF7D0012AF2D0022AF3D0032A5F
:100AD000F3D010BD30B50468256825F48025256065
:100AE000046863608368402B036803D099600068E2
:100AF000C26030BD9A600068C16030BD70470000C0
:100B0000F0B5404890F83C100A2945D20122A0F8DF
:100B10008A200222A0F88C200322A0F88E20042232
:100B2000A0F890200522A0F8922040F2011706229A
:100B3000A0F894207E1C0722A0F89620751C6C1C3F
:100B4000A0F89870A0F89A60631CA0F89C50A0F8D8
:100B50009E405A1CA0F8A030A0F8A22001290CD079
:100B600002290DD003290ED004290FD0052910D059
:100B7000062901D1A0F8A420F0BDA0F8A470F0BD12
:100B8000A0F8A460F0BDA0F8A450F0BDA0F8A44067
:100B9000F0BDA0F8A430F0BD6522A0F88A2066223E
:100BA000A0F88C206722A0F88E206822A0F8902060
:100BB0006922A0F8922040F265176A22A0F89420DA
:100BC0007E1C6B22A0F89620751C6C1CA0F89870F7
:100BD000A0F89A60631CA0F89C50A0F89E405A1C94
:100BE000A0F8A030A0F8A2206529C6D06629C7D0F9
:100BF0006729C8D06829C9D06929CAD06A29B9D05B
:100C0000F0BD00003015002010B5FFF785FDFFF79F
:100C10009FFDBDE8104005F0DDBA72B6FEE70000AA
:100C2000074800B50421017180F8CC10283003F08A
:100C3000C1FD03485DF804EBF03003F0BBBD0000DC
:100C40007C0200202DE9084009F0F4FC009000F03F
:100C5000A5F90321684609F03FFBF5E7DFED150A2A
:100C60009FED151AC0ED130A80ED1B1AC0ED1C0A8A
:100C70009FED120A80ED1A1ADFED111A80ED190AA4
:100C8000C0ED271AC0ED300ADFED0E0A00F1B40105
:100C900081EC030ADFED0C0A80ED320AC0ED330A65
:100CA00080ED340A80ED350AC0ED360A80ED370A52
:100CB00070470000005043470050C346000000004A
:100CC00000803B4600204B466F12833ADFED150A49
:100CD0009FED151AC0ED130A80ED1B1AC0ED1C0A1A
:100CE0009FED120A80ED1A1ADFED111A80ED190A34
:100CF000C0ED271AC0ED300ADFED0E0A00F1B40195
:100D000081EC030ADFED0C0A80ED320AC0ED330AF4
:100D100080ED340A80ED350AC0ED360A80ED370AE1
:100D200070470000005043470050C34600000000D9
:100D300000803B4600204B466F12833A074800B5BF
:100D4000012100F8041F022180F8E010FFF7BEFF28
:100D500002485DF804EBE430FFF780BFA0000020FC
:100D600010B558B1084C491E0BD310F8013B534045
:100D7000DBB234F8133083EA1222F4E74FF6FF7047
:100D800010BD104610BD000094B6000810B5054C0B
:100D900004E000BF10F8013B5340E25C491EF9D269
:100DA000104610BD94B5000810B5104800F036F894
:100DB000BDEEC00A0D4C10EE100A0C3C208004F170
:100DC000EC0000F02BF8BDEEC00A10EE100A6080B7
:100DD000B4F90000FFF784FD0549B4F90200B1F948
:100DE0000010BDE81040FFF75DBD0000A40000202A
:100DF0006A020020074810B5074982780A70C07857
:100E000081F8C40100F0AEF800F01EF8BDE8104013
:100E100003F082B86B000020A000002070B50446EB
:100E200000F12405061DD0ED070A90ED080A743084
:100E300003F039FE86ED050AD4ED050A2846BDE823
:100E4000704003F030BE000010B5044800F01EF8FA
:100E50000248BDE81040E03000F018B8A4000020BF
:100E600010B5084803F0B0F90648E03003F05AF92D
:100E70000448001F03F0CCF803494871BDE8104056
:100E8000FFF792BFA40000206B00002070B501782E
:100E90002A4C00F1240500F17406012902D0022930
:100EA0004BD123E0254995F8A0008A68012812D08B
:100EB00002282349284606D03031FFF7CCFA2149D1
:100EC0003046A26810E05031FFF7C5FA1D493046A0
:100ED0002031A26808E01A4928464031FFF7BBFAE2
:100EE000184930461031A268FFF7B5FA95F8A0000E
:100EF000012814D002281249A268284607D0603180
:100F0000FFF7A9FA0F4930463031A26811E080316D
:100F1000FFF7A1FA0B4930465031A26809E00849B1
:100F200028467031A268FFF796FA0649A268403158
:100F30003046BDE87040FFF78EBA70BD88000020D3
:100F4000E20400200206002010B5054803F066FF09
:100F50000348E03003F030FFBDE81040FFF724BF46
:100F6000A40000200448014690F8C42180F8C8205D
:100F700081F8A82170470000A000002010B5064CA1
:100F8000002020806080FFF7ABFCB4F90200BDE8D0
:100F900010400021FFF786BC9400002010B5FFF739
:100FA00029FF0E48007A01280FD0022811D003280B
:100FB00013D10B4890F8C41118384278914200D0F0
:100FC0004170BDE81040FFF7D9BFBDE81040FFF702
:100FD000BBBFBDE81040FFF743BF10BD7410002039
:100FE000A000002090F82020012A07D0022A05D076
:100FF000416A41F4802141620120704700684269E2
:101000000A43426100207047F0B590F82050046810
:10101000A468012D05D0022D03D0416A41F480213E
:1010200057E014F0406F01D1E5004FD5C4F30164DF
:101030000125A5401D608D684FF4C0739DB1CE6839
:1010400035434E6845EAC605066803EB0417F551BB
:101050004FF4C275076805EB04150E697E51097DD2
:10106000012905D009E00E88CD6845EA4655EBE731
:1010700001684E5946F480764E511179D5795679EA
:1010800041EA056195792D0445EA062529434FF487
:10109000C676056806EB0416A9511178D57841EAA1
:1010A0000561957852782D0445EA022211434FF4E8
:1010B000C475026805EB04155151006803EB041177
:1010C000425842F0010242500020F0BD416A41F412
:1010D000001141620120F0BD10B590F82020012AD6
:1010E00007D0022A05D0416A41F4802141620120E3
:1010F00010BD3B48D0F8002242F00102C0F80022A7
:10110000D0F8002222F47C52C0F80022D0F800224D
:101110004B6A42EA0322C0F800220A7D02F01F0354
:1011200001229A40D0F81C329343C0F81C32CB699C
:10113000B3B9D0F80C329343C0F80C328C894B68A9
:1011400064F31F434C6900EBC404C4F840320C89BB
:101150000B6864F31F434C6900EBC404C4F84432C9
:10116000CB69012B16D1D0F80C321343C0F80C32E6
:101170000C884B6864F31F434C6900EBC404C4F84B
:1011800040320C89CB6864F31F434C6900EBC40404
:10119000C4F844328B69002BD0F804320ED01343CC
:1011A000C0F804320B69002BD0F8143208D0134376
:1011B000C0F81432096A012904D008E09343EFE72C
:1011C0009343F5E7D0F81C121143C0F81C12D0F875
:1011D000001221F00101C0F80012002010BD000033
:1011E00000640040704770B590F82040012C05D095
:1011F000022C03D0416A41F4802128E0046809B33D
:101200002469A40720D04FF4D874056804EB0114B6
:101210002D5915F00405956005682D591AD0ED0873
:10122000556005682C5904F00204D4604FF4DA7458
:10123000056804EB01142E5906F00F06082E0CD396
:1012400008250DE0E468DCE7416A41F400114162E1
:10125000012070BD6D0D1560E3E72D5905F00F05F8
:10126000156105682D59C5F30725956105682C5949
:10127000240C54614FF4DC72046802EB0112A45890
:101280001C700468A458240A5C700468A458240CD8
:101290009C700468A258120EDA704FF4DE72046873
:1012A00002EB0112A4581C710468A458240A5C7152
:1012B0000468A458240C9C710468A258120EDA71B8
:1012C000006829B1016941F020010161002070BD71
:1012D000C16841F02001C160F8E72DE9F05F0546E3
:1012E000006800244669D0F804908768D0F80CB0F4
:1012F000D0F810A0D0F81880F10748D0F90714D022
:1013000001218160B80703D5284600F082FA0CE07D
:10131000780702D54FF4006407E0380702D54FF490
:10132000805402E0284600F073FAF80516D52968C3
:101330004FF480708860B80503D5284600F06BFA3A
:101340000CE0780502D544F4005407E0380502D5D6
:1013500044F4804402E0284600F05CFAF80316D515
:1013600029684FF480308860B80303D5284600F020
:1013700054FA0CE0780302D544F4004407E0380343
:1013800002D544F4803402E0284600F045FA3007E4
:1013900007D55FEACB6004D52968102044F40074B7
:1013A000C86070074FF0080707D55FEA0B7004D5D7
:1013B0002868C760284600F09BF9B00706D5286862
:1013C000C068800702D0284600F094F9700607D55F
:1013D0005FEACA6004D52968102044F4806408617B
:1013E000B00607D55FEA0A7004D528680761284669
:1013F00000F0DEF9F00606D528680069800702D003
:10140000284600F0D6F9B00308D55FEAC96005D5D3
:10141000296810204860284600F0CCF9F00307D571
:101420005FEA097004D528684760284600F0F6F99D
:10143000300446D55FEA497040D5F00504D55FEA2F
:10144000C87001D044F00104B00504D55FEA88708B
:1014500001D544F00204700504D55FEA487001D557
:1014600044F00404300529D518F0700F26D008F098
:101470007000402815D006DC102809D020280AD09A
:10148000302816D10AE050280ED0602811D10EE085
:1014900044F008040DE044F010040AE044F0200495
:1014A00007E044F0400404E044F0800401E044F428
:1014B00080742868816921F07001816129680420A5
:1014C0004860002C05D0686A204368622846FFF710
:1014D00089FEBDE8F09F70B5040003D094F82000A9
:1014E00010B104E0012070BD204600F081F82068B2
:1014F000016841F00101016000F06EFC054605261F
:1015000004E000F069FC401B0A2811D820684068FC
:10151000C007F6D02068016821F00201016000F0E8
:101520005BFC05460BE000F057FC401B0A2806D97F
:10153000606A40F40030606284F82060D2E720687E
:1015400040688007EFD4207E0128206801683DD0E4
:1015500021F080010160607E01282068016838D098
:1015600021F040010160A07E01282068016833D08D
:1015700021F020010160E07E0128206801682ED062
:1015800041F010010160207F01282068016829D006
:1015900021F008010160607F01282068016824D0E3
:1015A00021F004010160D4E902010843D4E90412E6
:1015B000114308436168491E08432168C86100203F
:1015C0006062012084F82000002070BD41F080019D
:1015D000C0E741F04001C5E741F02001CAE721F032
:1015E0001001CFE741F00801D4E741F00401D9E749
:1015F000F0B587B0044614216846FEF7C5FF374BA7
:101600003748DFF8D4E01968D4F800C0344A02251E
:101610000326092710300024491CF44524D1196001
:10162000012907D1016841F000710160006800F0F4
:1016300000700590106840F001001060106802AB67
:1016400000F0010005904FF4C050CDE9000583E89B
:10165000D0006946234800F0C1FA00220521142079
:1016600000F08CFC142033E0DFF87CE0F44531D14D
:10167000D0F800C04CF0806CC0F800C0D0F800C0BA
:1016800001290CF0806CCDF814C0196007D10168F5
:1016900041F000710160006800F000700590106872
:1016A00040F002001060106802AB00F002000590EC
:1016B0004FF44050CDE9000583E8D00069460B485F
:1016C00000F08CFA00220521402000F057FC402059
:1016D00000F046FC07B0F0BD006400401800002098
:1016E0003038024000000240006800400004024020
:1016F0007047000010B50446006825498AB088424A
:101700001FD16B4602AA00212248FFF76CFD029808
:10171000A0F50070013809D001280AD0052802D0B0
:1017200006280ED109E069461B4808E069461B48B7
:1017300005E01A486946C83001E069461848FFF7D5
:1017400023F818492068884219D16B4602AA002163
:101750001548FFF748FD0298A0F50070053810D035
:10176000A0F5806061380AD1BDF8000041BA0F4889
:10177000A0F84410BDF8021049BAA0F853100AB0FE
:1017800010BD05486946E038FEF7FEFFF7E70000A8
:1017900000640040840A00208801002084020020A8
:1017A0001404002000680040AC0A0020301500201E
:1017B000704770477047000070B5044690F82000ED
:1017C000012804D0606A40F40020606218E0022022
:1017D00084F820002068016821F00101016000F018
:1017E000FBFA05460EE000BF00F0F6FA401B0A289F
:1017F00008D9606A40F400306062052084F8200057
:10180000012070BD20684068C007EDD1606270BDE6
:1018100070477047704770477047704770472DE9B1
:10182000F0410446876D00F0D7FA064694F835007B
:101830000025022806D08020606584F834500120FD
:10184000BDE8F0812068016821F016010160206880
:10185000416921F080014161206C08B9A06C20B180
:101860002068016821F0080101602068016821F00A
:10187000010101600CE000F0AFFA801B052807D9D8
:1018800020206065032084F8350084F83450D7E7C1
:1018900020680068C007EED194F85C103F208840B3
:1018A000B860012084F8350084F834500020C7E780
:1018B00090F83510022903D080214165012070473E
:1018C000052180F835100068016821F001010160F0
:1018D000002070472DE9F84304464FF00009CDF889
:1018E000009063484FF41651A56D0068B0FBF1F706
:1018F0002E6894F85C10082000FA01F131420FD0F4
:1019000021680A6852070BD50A6822F004020A60AF
:1019100094F85C108840A860606D40F0010060653C
:1019200094F85C104FF0010808FA01F0304208D03A
:1019300021684969090604D5A860606D40F002007D
:10194000606594F85C1004208840304208D021681B
:101950000968890704D5A860606D40F004006065DF
:1019600094F85C1010208840304218D02168096833
:10197000090714D5A86020680168490304D50068E8
:10198000000308D5A16C07E00168C90503D401680C
:1019900021F008010160216C09B12046884794F8C4
:1019A0005C1020208840304231D021680968C90687
:1019B0002DD5A86094F8350005282068016806D068
:1019C000490347D5006800031DD4616C1CE021F079
:1019D000160101602068416921F080014161206C9D
:1019E00008B9A06C20B12068016821F008010160ED
:1019F00094F85C103F208840A86084F8358084F813
:101A00003490216D1FE0E16B09B120468847606D7D
:101A100000282BD0606DC00714D0052084F8350055
:101A20002068016821F0010101600098401C0090CD
:101A3000B84203D820680068C007F6D184F8358022
:101A400084F83490E16C002910D001B02046BDE844
:101A5000F04308470168C905D5D4016821F0100199
:101A6000016084F8358084F83490CCE7BDE8F883D1
:101A7000380700202DE9F041044600F0ADF9064694
:101A80005CB1022084F83500002584F834502068C9
:101A9000016821F0010101600DE00120BDE8F08145
:101AA00000F09AF9801B052805D9202060650320E5
:101AB00084F83500F2E720680068C007F0D122689A
:101AC000116820480140D4E901031843D4E90336E2
:101AD0003343184363691843A3691843E369184300
:101AE000236A18430843616A042903D1D4E90B131C
:101AF00019430843106020684069666A20F00701B6
:101B000030460E43012704280CD1A06A0643E06A40
:101B100040B12046FEF7B4FF20B14020606584F854
:101B20003570BAE7206846612046FEF795FF94F8C5
:101B30005C203F2191408160656584F8357000200C
:101B4000ACE700003F8010F02DE9F0410446866DBF
:101B500090F83400002501280DD0012084F83400CD
:101B600094F835700020012F07D084F83400022546
:101B70002846BDE8F0810220FBE7022784F8357093
:101B800060652046FEF7A6FF94F85C103F20884071
:101B9000B0602068016841F016010160206C20B13E
:101BA0002068016841F0080101602068016841F087
:101BB00001010160DCE7000070B5044600F00CF99B
:101BC0000546601C02D004480078044400F004F983
:101BD000401BA042FAD370BDC40600202DE9F84F87
:101BE000DFF8BCA10022012503264FF00F090AF1FE
:101BF000040BAAF1040E00BF0B6805FA02F423409F
:101C0000A34270D10F7907F00307012F01D0022FF3
:101C100016D187684FEA420806FA08FC27EA0C0743
:101C2000D1F80CC00CFA08FC4CEA070CC0F808C04C
:101C30004768A7430C79C4F3001494403C434460C4
:101C40000C79E443A4070AD0C4684FEA420C06FAB0
:101C50000CF7BC438F6807FA0CF72743C7600C7971
:101C600004F00304022C12D1D40800EB840CDCF83D
:101C700020405707FF0E09FA07F824EA0804D1F8B4
:101C8000108008FA07F848EA0408CCF820800468B5
:101C90004FEA420C06FA0CF7BC430F7907F0030732
:101CA00007FA0CF7274307604C6814F4403F70D0E4
:101CB0003C4C276847F480472760246822F00307DC
:101CC00004F480440094384C07EB040CDCF808481A
:101CD00097074FEA177809FA08F7BC43334FB84221
:101CE00002D1002724E054E0314FB84201D101274E
:101CF0001EE0304FB84201D1022719E02E4FB84202
:101D000001D1032714E02D4FB84201D104270FE081
:101D10002B4FB84201D105270AE02A4FB84201D122
:101D2000062705E0284FB84201D1072700E0082721
:101D300007FA08F72743CCF80878DAF80040574646
:101D4000D1F804C09C435FEACC2C00D51C433C6016
:101D5000DBF800405F46D1F804C09C435FEA8C2C5E
:101D600000D51C433C60DEF800407746D1F804C043
:101D70009C435FEA8C3C00D51C433C60084F083F05
:101D80003C68D1F804C09C435FEACC3C00D51C43BE
:101D90003C60521C102AFFF42FAFBDE8F88F000002
:101DA000083C01404438024000300140000002403D
:101DB0000004024000080240000C024000100240F3
:101DC0000014024000180240001C02400AB1816168
:101DD00070470904FBE70000014880687047000075
:101DE000C406002070B5040011D021684CF6CC4028
:101DF0000860216845F255500860D4E9000141604F
:101E00002168A0688860FFF7E7FF05460DE0012024
:101E100070BD00BFFFF7E0FF401B312805D92068E7
:101E2000C068800701D0032070BD2068C0688007AB
:101E3000F0D121684AF6AA200860002070BD006831
:101E40004AF6AA210160002070470000024881681C
:101E50000278114481607047C40600200B4810B519
:101E6000016841F400710160016841F48061016022
:101E7000016841F480710160032000F09FF80F2099
:101E800000F006F800F050F8002010BD003C0240C1
:101E900030B505461F4887B00024016841F48071C1
:101EA0000160006806A900F48070009001A800F0AD
:101EB00045FE0498A8B100F067FE40001649174A95
:101EC000B0FBF1F11648491E026040F2E732C0E96A
:101ED0000324C0E90114846101F0D2F8040003D0A6
:101EE00015E000F051FEE9E70D4801F0F7F80400B5
:101EF0000DD12D2000F034F8102D07D200222946F4
:101F00002D2000F03BF80748056000E0012407B0F1
:101F1000204630BD4038024040420F0000200040C3
:101F2000180F0020C80600200C4882B0016841F458
:101F300080410160006800F4804000900748001F65
:101F4000016841F0805101600068002200F080507B
:101F500000900F21901E02B000F010B844380240EB
:101F6000002809DB00F01F02012191404009800098
:101F700000F1E020C0F8001170470000F0B40E4BF3
:101F80001B680C46C3F30223C3F10705042D00D9D7
:101F90000425191D072901D2002300E0DB1E0126BC
:101FA00006FA05F1491E214099409E40761E1640D2
:101FB0003143F0BC06F000B80CED00E0064900F03B
:101FC000070208684FF6FF03184040EA0220034A60
:101FD00010430860704700000CED00E00000FA05B7
:101FE00070470068416200207047F0B50368586A86
:101FF00039B19C6A4FF4827600EB144400204D1EE8
:102000000AE040EA024098620FE006EB8007DF59E1
:10201000401C04EB1744C0B2A842F6D344EA024085
:102020004FF4807202EB810158500020F0BDD0F8CF
:10203000E00404F0DCBD01EBC10200EB8202D0F849
:10204000E004126A04F031BD01EBC10200EB820230
:10205000D0F8E004D2F8602204F082BDD0F8E004A9
:1020600004F0C7BD0A0601F00F0101EBC10100EB4E
:10207000810101D5143101E001F51571006805F009
:10208000A3BC70B504460B0601F00F0000EBC001C5
:1020900004EB81014FF001024FF0000502D54A75B3
:1020A000143103E081F8555201F51571087094F868
:1020B0009404012808D084F89424206805F0A2F93B
:1020C00084F89454002070BD022070BD70B50446A1
:1020D00001F00F002279904201D9012070BD0B065A
:1020E00001F00F0101EBC10104EB81014FF001028E
:1020F0004FF0000502D54A75143103E081F85552BE
:1021000001F515718D70087094F89404012808D0B9
:1021100084F89424206805F0E7FA84F894540020A9
:1021200070BD022070BD01F00F0101EBC10100EB99
:102130008100D0F8680270472DE9F04104460F068F
:1021400001F00F0000EBC00104EB81014FF001062C
:102150004FF0000502D54E75143103E081F8555259
:1021600001F5157108708A600B714A7802B14883D5
:10217000022B00D14D7194F89404012809D084F801
:102180009464206805F090F8284684F89454BDE8DB
:10219000F0810220FBE710B501F00F0404EBC4014D
:1021A00000EB8101C1E998230023C1F8683281F86E
:1021B000553281F85442837901F51571012B00D114
:1021C000CA618279006805F0E7FA002010BD70B599
:1021D00004460D4601F00F002179884201D9012003
:1021E00070BD29064FF000064FF0010206D500EB46
:1021F000C00104EB81014A75143107E005EBC5010C
:1022000004EB810181F8556201F515718A7008703F
:1022100094F89404012807D084F89424206805F0E9
:102220008FFA280702D007E0022070BDA17904F2DE
:102230009C42206805F02CFA84F89464002070BD5C
:1022400010B501F00F0404EBC40100EB8101C1E9FA
:10225000082300238B6201234B7501F8144F837907
:10226000012B00D1CA618279006805F095FA00203F
:1022700010BD00002DE9FC5F05680446284605F006
:102280003FFC00287DD1206805F066FC002878D04E
:10229000D5F80808C0F30D20C4F8D404206805F070
:1022A0005BFC800704D52068416901F002014161AF
:1022B000206805F051FCC10604F29C40009034D522
:1022C0002068816921F0100181612F6A07F00F00F9
:1022D00000EBC00004EB8006C7F3434006F515761B
:1022E000022802D0062811D01AE047F6F070074203
:1022F00016D0C7F30A1217462846F16805F030FCDD
:10230000F0683844F0607069384408E008222846D4
:10231000009905F025FC7069C7F30A110844706143
:102320002068816941F010018161206805F014FC8A
:1023300000034FF0080B4FF0000A4FF001097CD565
:102340000026206805F0E7FB074674E0F80770D028
:10235000F1B2206805F0F8FB8046C00707D005EB16
:102360004611C1F8089B3146204602F0E5FA5FEAC3
:10237000087024D505EB4611C1F808BB2068016C34
:1023800000E023E200EB46100191D0F8082BFB4B54
:10239000994205D9110403D54FF40041C0F8081B38
:1023A000204600F0F0FAF5490198884207D9A07953
:1023B000012804D120680121009A05F069F95FEA3B
:1023C000C86004D505EB46111020C1F8080B5FEA80
:1023D00088701DD56869000605D5D5F8040840F455
:1023E0008061C5F8041806EBC60004EB800090F885
:1023F000571200F51570012905D180F803A0F1B23C
:10240000204600F0E9F905EB46110220C1F8080B5F
:102410005FEA886004D505EB46102021C0F8081B50
:102420005FEA884005D505EB46104FF40051C0F82F
:10243000081B7F08761C002F88D1206805F08CFBD4
:1024400040036ED5206805F05FFB0746002666E076
:10245000F80762D0F1B2206805F064FB8046C0073F
:1024600023D006F00F01D5F8342809FA01F18A4388
:10247000C5F8342805EB4611C1F80899A079012860
:102480000FD106EBC60004EB8000D0E90721114410
:10249000016236B9606A20B920680121009A05F00E
:1024A000F7F8F1B22046FFF7C6FD5FEA087003D5E2
:1024B00005EB4611C1F808B95FEAC86004D505EB21
:1024C00046111020C1F808095FEA486004D505EB01
:1024D00046104021C0F808195FEA887016D53146C9
:1024E000284605F0E2FA06EBC60004EB8000C17D49
:1024F0001430012905D180F803A0F1B2204600F084
:1025000067F905EB46110220C1F808095FEA086087
:1025100003D53146204602F075FA7F08761C002F5D
:1025200096D1206805F018FB002811DAD5F80408C8
:1025300020F00101C5F8041894F8CC0401282BD030
:10254000204600F005FA2068416901F00041416130
:10255000206805F001FB00050BD5D5F80808C00779
:1025600002D0204600F038FA2068416901F4006189
:102570004161206805F0F0FAC00467D5D5F8040879
:1025800020F00100C5F804081021206805F08DFA3C
:1025900000214FF67F3220E084F8CCA400212046B1
:1025A000FFF71EFDCFE700BF05EB4110C0F808297B
:1025B000D0F8003923F40013C0F80039C0F8082B14
:1025C000D0F8003B23F40013C0F8003BD0F8003BE8
:1025D00043F00063C0F8003B491C20798842E3D8EF
:1025E000D5F81C0840F00111C5F81C18E07B002844
:1025F00028460DD0D0F8840840F00B01C5F88418A7
:10260000D5F8440840F00B012846C5F844180DE001
:10261000D0F8140842F22B010843C5F81408D5F885
:10262000100840F00B012846C5F81018D0F8000833
:1026300020F4FE61C5F80018A1792068009A05F021
:1026400027F82068416901F480514161206805F054
:1026500083FA800415D5206804F066FE206805F032
:1026600042FAE07100F08AFA0146E279206805F04A
:10267000D5FA204600F056F92068416901F400516E
:102680004161206805F068FA000707D5204600F090
:1026900063F92068416901F008014161206805F093
:1026A0005BFA000616D5A86920F08001A961012611
:1026B0000DE000BF06EBC60004EB800090F8570267
:1026C000012803D1F1B22046FFF7CCFC761C20791B
:1026D000B042EFD8206805F03FFAC0021FD50126AE
:1026E0004F4614E005EB4610D0F8001906EBC60083
:1026F00004EB8002107E012808D1002906DAF0B22E
:1027000040F08001D7752046FFF7ACFC761C20799D
:10271000B042E7D82068416901F480114161206826
:1027200005F01AFA800234D501204A4629E000BF9C
:1027300005EB4011D1F8001B00EBC00304EB830351
:1027400093F85862012E1BD1002919DA94F8D46449
:1027500001F4803106F00106B14211D183F857220D
:10276000A96941F08003AB616969090608D4D5F80D
:10277000040840F40070C5F8040805E00A30544F1E
:10278000401C21798142D3D82068416901F40011AD
:102790004161206805F0E0F9400007D52046FFF7C9
:1027A00046FC2068416901F080414161206805F0E4
:1027B000D3F940070AD520684568680702D5204646
:1027C000FFF74CFC2068416829434160BDE8FC9F4D
:1027D000D0F8E00404F063BAD0F8E00404F073BA6F
:1027E000F8B5040005D094F895042668002510B1CA
:1027F00006E00120F8BD84F89454204600F056F815
:10280000032084F89504B6F1A04F00D1A57120688B
:1028100004F038FF207C8DF8000094E80F0004F0ED
:1028200091FD0226B8BB0021206805F0B8F990BBE5
:10283000002001270DE000BF00EBC00104EB810187
:102840004F750875C8850D76CD610D62401CC0B20C
:102850004D6221798142EFD8002011E000EBC001E8
:1028600004EB810181F8555281F8540281F85852E5
:10287000C1F85C52C1F86052401CC0B2C1F8645249
:1028800021798142EAD8207C8DF8000094E80F007D
:1028900004F03AFE10B184F89564AAE7657484F8F0
:1028A0009574206804F022FE0020F8BD10B586B0B3
:1028B000044614216846FDF767FE174920688842E0
:1028C00027D1164C0020216841F0020121602168C7
:1028D00001F0020105914FF4404100910221CDE940
:1028E0000110032003900C20049069460C48FFF768
:1028F00075F9206840F0005020602068002200F048
:102900000050059005214D20FFF738FB4D20FFF7C3
:1029100027FB06B010BD0000000004403038024024
:102920000004024070B50446C079012570B1022848
:1029300001D0FEF772F92946D4F8E00404F031FA28
:10294000D4F8E004BDE8704004F0E6B90025F2E7F1
:10295000D0F8E00404F00EBAD0F8E00404F014BAA1
:1029600010B5044690F8940401280AD0012084F898
:1029700094046174206805F040F9002084F8940400
:1029800010BD022010BDD0F8E02400F29C4110469A
:1029900004F013BA10B50446006894F894140129A1
:1029A00009D0012184F89414C168490609D5617BD6
:1029B000012902D005E0022010BD816B41F4803175
:1029C0008163206805F04FF8206804F081FD002045
:1029D00084F8940410BD000010B50446D0F8E0045B
:1029E00004F02DFA2068D0F8001E41F00101C0F873
:1029F000001EE07A002804D00248016841F0060178
:102A0000016010BD10ED00E02DE9F0470E46050015
:102A100065D0DFF81481D8F80000F7B200F00700A5
:102A2000B04207D288F80070D8F8000000F0070024
:102A3000B04254D128683D4C810712D5400703D5D8
:102A4000206840F4E05020602878000703D5206813
:102A500040F4604020602068A96820F0F00008433E
:102A600020602878C0072DD03049686808390128CF
:102A700012D0022813D0032811D009688907002931
:102A80002DDA216821F0030101432160FFF7A4F949
:102A9000814641F2883A0EE009688903EFE7096848
:102AA0008901ECE7FFF798F9A0EB0901514502D93C
:102AB0000320BDE8F0872068696800F00C00B0EBE7
:102AC000810FEFD1D8F80010404601F00701B14264
:102AD00007D90770006800F00700B04201D001205C
:102AE000E7E72878400705D52068E96820F4E0503A
:102AF000084320602878000706D52068296920F45B
:102B0000604040EAC100206000F05EF82168084A99
:102B1000C1F30311515CC8400649086006480068CB
:102B2000FFF7B6F90020C4E7003C02400838024035
:102B30009CB8000838070020C80600200F22026059
:102B40000C4A136803F003034360136803F0F003B7
:102B50008360136803F4E053C36012684FF4E053DA
:102B600003EAD20202610448006800F0070008602E
:102B70007047000008380240003C024001480068ED
:102B800070470000380700200448054900680968BC
:102B9000044AC1F38221515CC840704738070020C5
:102BA00008380240ACB800080448054900680968C4
:102BB000044AC1F34231515CC840704738070020D5
:102BC00008380240ACB80008154810B5006810F08D
:102BD0000C02144813D01449042A0FD0082A0ED12D
:102BE0000F4C241F2268236802F03F025B0207D5C6
:102BF0002068C0F38810A0FB010106E0084610BD64
:102C00002168C1F38811A1FB00010023FDF7ACFB93
:102C10002168C1F30141491C4900B0FBF1F010BD2E
:102C2000083802400024F40040787D012DE9F84F77
:102C300004006ED02078DFF84C93C007A9F104059A
:102C40004AD009F104000168C1F38101012908D0CB
:102C50000068C0F3810002280AD1D9F800004002C0
:102C600006D52868800337D560680028E1D033E0B6
:102C70006068B0F5803F10D0B0F5A02F286810D064
:102C800020F480302860286820F480202860606864
:102C9000A8B1FFF7A1F806460DE0286840F480309F
:102CA000F4E740F480202860F7E700BFFFF794F8CE
:102CB000801B642873D828688003F7D50CE0FFF7E1
:102CC0008BF8064605E000BFFFF786F8801B6428F6
:102CD000F0D828688003F7D42078DFF8AC8280072A
:102CE0004FF0000A3ED5A748001D016811F00C0FF7
:102CF00008D00068C0F3810002280BD1D9F8000089
:102D0000400207D42868800716D5E068012800D162
:102D100012E033E1E068B8B10120C8F80000FFF725
:102D20005BF8064605E000BFFFF756F8801B022857
:102D3000C0D828688007F7D52868216920F0F800F6
:102D400040EAC10028600DE0C8F800A0FFF744F891
:102D5000064604E0FFF740F8801B02281FD82868C9
:102D60008007F7D42078000722D5864F874861690D
:102D7000703771B101210160FFF72EF8064604E0BB
:102D8000FFF72AF8801B022809D838688007F7D592
:102D90000EE0C0F800A0FFF71FF8064605E082E04D
:102DA000FFF71AF8801B02287DD838688007F7D40F
:102DB0002078400768D5DFF8CCB100270BF13C0B39
:102DC000DBF80000C0000BD4DBF8001041F08051AC
:102DD000CBF80010DBF80000012700F080500090D5
:102DE0006B4E3068C00510D4306840F4807030609D
:102DF000FEF7F2FF009005E0FEF7EEFF0099401AA3
:102E0000022850D83068C005F6D55E4EA0686C36F2
:102E100001280FD00528306810D020F00100306064
:102E2000306820F004003060A068B8B1FEF7D4FF2D
:102E300000900FE0306840F00100F4E740F004003B
:102E40003060F7E7FEF7C8FF0099411A41F2883079
:102E5000814266D830688007F4D50EE0FEF7BCFFEB
:102E6000009007E0FEF7B8FF0099411A41F2883060
:102E7000814256D830688007F4D42FB1DBF80010B7
:102E800021F08051CBF80010A069C8B33D49091D5D
:102E90000968C1F3810102294AD00228504607D0AF
:102EA000C8F8600000E03CE0FEF796FF04463BE017
:102EB0004746C8F86000FEF78FFF064605E000BFF2
:102EC000FEF78AFF801B02282BD828688001F7D4E0
:102ED000D4E907010843A16A2E4A490802EB0141DF
:102EE000626A41EA8211084394F82C1040EA0161B9
:102EF000C9F8001001203866FEF76EFF044606E0B0
:102F00003EE000BFFEF768FF001B022809D82868D2
:102F10008001F7D534E000BFFEF75EFF001B0228FA
:102F200002D90320BDE8F88F28688001F4D427E097
:102F30000128F7D0D9F80000E26900F4800191423D
:102F40001CD1226A00F03F01914217D147F6C071AF
:102F5000626A0140B1EB821F10D1A26A4FF0FF33C9
:102F600000F4403103EB5202B1EB024F06D194F86A
:102F70002C1000F07060B0EB016F01D00120D1E7A0
:102F80000020CFE70438024000004742800E47424D
:102F9000007000400000FFFF7047704710B590F8C8
:102FA0003C20012A22D0012280F83C20CA688C688B
:102FB00022F4407222434C6822F4806222430C685F
:102FC00022F4006222430C6922F4805222434C69AD
:102FD00022F400522243C969002322F480420A43AA
:102FE00001684A6480F83C30002010BD022010BD0A
:102FF00070B590F83C20012A32D0012480F83C4082
:10300000022280F83D2003685A689D6822F070060D
:103010000A6832435A60134B02689A4214D0B2F1E4
:10302000804F11D0104B9A420ED0104B9A420BD0C9
:103030000F4B9A4208D00F4B9A4205D00E4B9A4242
:1030400002D00E4B9A4204D1496825F080031943FF
:10305000916080F83D40002180F83C10084670BD2A
:10306000022070BD00000140000400400008004044
:10307000000C0040000401400040014000180040E6
:1030800010B5040003D094F83D0010B107E0012012
:1030900010BD002084F83C00204600F01EF80220FD
:1030A00084F83D00211D206802F0DCFB012084F83B
:1030B000460084F83E0084F83F0084F8400084F81D
:1030C000410084F8420084F8430084F8440084F806
:1030D000450084F83D00002010BD704790F83D1079
:1030E000012901D001207047022180F83D100168BC
:1030F000CA6842F00102CA6000681149884214D0CF
:10310000B0F1804F11D00F4988420ED00E4988424D
:103110000BD00E49884208D00D49884205D00D4990
:10312000884202D00C49884204D1816801F007012D
:10313000062903D0016841F00101016000207047B9
:10314000000001400004004000080040000C004066
:1031500000040140004001400018004070477047E3
:103160002DE9F04104460068C66805694FF0000784
:10317000A90713D5B10711D5F91E016101202077E8
:10318000206880698007204602D0FFF7E8FF04E04E
:1031900000F0C0F8204600F095F92777680716D5AB
:1031A000700714D521686FF00400086102202077B1
:1031B0002068806910F4407F204602D0FFF7CFFFDF
:1031C00004E000F0A7F8204600F07CF927772807F4
:1031D00015D5300713D521686FF008000861042069
:1031E00020772068C0698007204602D0FFF7B7FF2C
:1031F00004E000F08FF8204600F064F92777E80635
:1032000016D5F00614D521686FF01000086108206B
:1032100020772068C06910F4407F204602D0FFF775
:103220009EFF04E000F076F8204600F04BF9277787
:10323000E80708D0F00706D021686FF001000861A8
:10324000204600F0F1FA280608D5300606D5216898
:103250006FF0800008612046FFF79EFE680608D5E3
:10326000700606D521686FF040000861204600F026
:10327000E5FAA8060AD5B00608D521686FF0200047
:1032800008612046BDE8F041FFF787BEBDE8F08148
:1032900010B586B0044614216846FDF775F9236819
:1032A000174C002117480222A34211D1036843F0B2
:1032B00001030360006800F001000590D001009058
:1032C000CDE901210120CDE9031069460E4812E045
:1032D0000E4CA34211D1036843F00203036000685F
:1032E00000F00200059020200090CDE90121CDE9F9
:1032F000031269460648FEF771FC06B010BD0000D7
:10330000000001403038024000000240000400404C
:1033100000040240704770B5044690F83C00002657
:103320000D4601280FD0012084F83C006AB1042A20
:103330001DD0082A2FD00C2A3FD00126002084F867
:103340003C00304670BD022070BD206802F078FB62
:103350002068816941F0080181612068816921F05C
:1033600004018161206881692A69114311E02068A4
:1033700002F096FB2068816941F400618161206858
:10338000816921F480618161206881692A6941EA4B
:1033900002218161D2E7206802F0B8FB2068C16990
:1033A00041F00801C1612068C16921F00401C161D7
:1033B0002068C1692A69114311E0206802F0DAFB34
:1033C0002068C16941F40061C1612068C16921F4CC
:1033D0008061C1612068C1692A6941EA0221C16135
:1033E000ACE710B5040003D094F83D0010B107E03D
:1033F000012010BD002084F83C00204600F01EF89B
:10340000022084F83D00211D206802F02BFA0120E3
:1034100084F8460084F83E0084F83F0084F84000B9
:1034200084F8410084F8420084F8430084F84400A2
:1034300084F8450084F83D00002010BD38B50546ED
:103440001B4A01680020914224D11A490A6842F0BF
:1034500001020A600968194C01F001010091164946
:1034600021604FF0406161604021C4E90210090110
:103470002161490061618900A1614911C4E9071016
:1034800060622046FEF7F6FA08B1FDF7C6FB6C62F3
:10349000A56338BD0A488142FBD10648001F016878
:1034A00041F002010160006800F00200009038BDA8
:1034B000000001404438024028640240700B0020A4
:1034C000000400400021014800F048B9E00A002053
:1034D0007047000010B50446022249B104290ED0FD
:1034E000082913D094F84100012816D0012010BDFE
:1034F00094F83E000128F9D184F83E200FE094F8BA
:103500003F000128F2D184F83F2008E094F8400001
:103510000128EBD184F8402001E084F84120012209
:10352000206802F00BFA16492068164A884201D03A
:10353000904203D1436C43F40043436420688842C3
:1035400013D0B0F1804F10D00F4988420DD00F49F1
:1035500088420AD00E49884207D0904205D00D49D2
:10356000884202D00C49884204D1816801F00701E9
:10357000062903D0016841F001010160002010BD5F
:103580000000014000040140000400400008004029
:10359000000C004000400140001800402DE9F041BF
:1035A00017460D0004464FF000060CD0042D11D034
:1035B000082D16D094F84100022819D094F8410043
:1035C000012818D07CE094F83E00022810D094F82E
:1035D0003E00F5E794F83F00022809D094F83F0038
:1035E000EEE794F84000022802D094F84000E7E7A4
:1035F0000220BDE8F081002F62D0002B60D04D4941
:103600004D4ADFF838C102204DB1042D18D0082DE5
:1036100027D084F841000C2D44D0012687E084F89F
:103620003E00606AC163606A39460264606AC0F83D
:103630004CC02268606A3432FEF786FA88BB21E00B
:1036400084F83F00A06AC163A06A39460264A06A98
:10365000C0F84CC02268A06A3832FEF775FA00BB89
:1036600015E084F84000E06AC163E06A394602640C
:10367000E06AC0F84CC02268E06A3C32FEF764FAA7
:1036800078B909E02068C16841F400711EE0206843
:10369000C16841F4806119E02068C16841F40061AB
:1036A00014E00DE0206BC163206B39460264206B8F
:1036B000C0F84CC02268206B4032FEF745FA08B1D2
:1036C000012096E72068C16841F48051C160012261
:1036D0002946206802F032F919492068194A8842BF
:1036E00001D0904203D1436C43F40043436420680B
:1036F000884213D0B0F1804F10D0134988420DD0CA
:10370000124988420AD01249884207D0904205D017
:103710001049884202D01049884204D1816801F0E2
:103720000701062903D0016841F00101016030461C
:103730005FE7000057590008B5590008ED59000827
:103740000000014000040140000400400008004067
:10375000000C0040004001400018004070B50D0012
:1037600004464FF0000607D0042D0CD0082D11D0D0
:103770000C2D16D0012648E02068C16821F40071A4
:10378000C160606A13E02068C16821F48061C16093
:10379000A06A0CE02068C16821F40061C160E06AA1
:1037A00005E02068C16821F48051C160206BFEF7FC
:1037B0007FF800222946206802F0C0F8184B41F239
:1037C000111120688A10984202D0164B984209D1F4
:1037D000036A0B4206D1036A134203D1436C23F4FC
:1037E000004343642068036A0B4206D1016A114218
:1037F00003D1016821F00101016001203DB1042DD8
:1038000008D0082D09D084F84100304670BD84F8F6
:103810003E00FAE784F83F00F7E784F84000F4E759
:10382000000001400004014000680349884201D1C2
:10383000FEF70CBB70470000002000407047704747
:1038400010B504460068406994F84110C0F3C010F8
:10385000212911D180B12068143050E8001F21F0D7
:10386000800140E80012002AF5D1A06B08B1FDF7F5
:10387000D6FF204602F072FA2068406994F84210A0
:10388000C0F38010222911D180B12068143050E893
:10389000001F21F0400140E80012002AF5D1E06B42
:1038A00008B1FDF7BCFF204602F031FA002010BD40
:1038B00070470000F8B5016804460868CA684B699B
:1038C00010F00F0F4FF0000559D003F0010602F47D
:1038D0009077374365D0C10705D0D10503D5616C1A
:1038E00041F001016164410705D5D90703D0616C3E
:1038F00041F002016164810705D5D90703D0616CED
:1039000041F004016164010707D502F02001314351
:1039100003D0616C41F008016164616C00293AD008
:10392000800604D5900602D5204602F005FB2068EB
:103930004069616CC0F38010090700D460B3204671
:1039400002F0E5F920684069400621D5206814306E
:1039500050E8001F21F0400140E80012002AF5D194
:10396000E06BA8B16E490165E06BFDF7A1FF00288F
:1039700011D0E06B016D01B0BDE8F040084783064F
:103980000FD593060DD52046BDE8F84002F0D4BA15
:103990002046FFF78DFFF8BD2046FFF789FF6564DD
:1039A000F8BD266B2023012E7DD1C6067BD5D60619
:1039B00079D508684868009048694FF002064006CB
:1039C00041D5E16B086840680004000CE8D0A28D86
:1039D0008242E5D9E085C869B0F5807F2DD02068A6
:1039E0000C3050E8001F21F4807140E80012002ADA
:1039F000F5D12068143050E8001F21F0010140E8A3
:103A00000012002AF5D12068143050E8001F21F080
:103A1000400140E80012002AF5D184F842302563C5
:103A200020680C3050E8001F21F0100140E800121F
:103A3000002AF5D1E06BFDF7F2FE6663A08DE18D03
:103A4000401A81B22AE0A08DE18D401A81B2E08D4A
:103A50000028A5D00029A3D022680C3252E8000F1C
:103A600020F4907042E80007002FF5D12068143050
:103A700050E8002F22F0010240E80027002FF5D186
:103A800084F84230256320680C3050E8002F22F083
:103A9000100240E80023002BF5D166632046FFF7B3
:103AA000CEFEF8BDFFE705062BD5150629D594F8FF
:103AB00041002128F5D1A068B0F5805F01D12069CF
:103AC000B0B1206A411C2162216800784860E08C16
:103AD000401E0004000CE084E3D12068C16821F09E
:103AE0008001C1602068C16841F04001C160D8E731
:103AF000206A0088C0F308004860206A801C2062A9
:103B0000E5E74006CDD55006CBD5CA68204622F061
:103B10004002CA6084F8413000F0EEF9C1E70000CD
:103B2000115C000870B5040004D094F84100002531
:103B300010B106E0012070BD84F84050204600F02E
:103B400023F8242084F841002068C16821F4005142
:103B5000C160204602F052FA2068016921F49041C8
:103B600001612068416921F02A0141612068C16832
:103B700041F40051C1606564202084F8410084F85C
:103B800042006563002070BD2DE9F04F87B0054607
:103B900014216846FCF7F8FCC348DFF808831038A6
:103BA0000222D5F800C0C04B0321DFF800B3002487
:103BB000960607154FF008094FF4807AC44552D194
:103BC000D3F800C04CF4002CC3F800C01B6803F409
:103BD00000230593036843F001030360006800F0CD
:103BE000010005908DE81600CDE903196946584695
:103BF000FDF7F4FFDFF8BC82AD494046E0E802166D
:103C0000402192C04FF4403140F814498461C0E92A
:103C100007414046C8F82440FDF72CFF08B1FCF7E7
:103C2000FCFFA44CA248C5F8388060343038C8F88E
:103C30003850C4E900060020A060C4E903076061B1
:103C4000C4E9060A206260622046FDF713FF08B14E
:103C5000FCF7E3FFEC63002205213420A563FEF7A7
:103C60008DF934205AE0DFF85082C4455BD1D3F897
:103C700000C04CF4801CC3F800C01B6803F4801320
:103C80000593036843F004030360036803F004032F
:103C90000593036843F0080303600068884600F05A
:103CA000080005904FF48050CDE900020DF1080B9B
:103CB00092468BE8100369468048FDF78FFF042089
:103CC000CDE9000A8BE8100369467D48FDF786FFC1
:103CD000DFF8E081764908F1C00860394046C8F84D
:103CE0000010C0E90164C0E90347C8F814404FF46C
:103CF0000031C8F81840C8E90741C8F82440FDF76A
:103D0000B9FE08B1FCF789FFC5F83C800022052107
:103D10003520C8F83850FEF731F93520FEF720F984
:103D200007B0BDE8F08FDFF89C81DFF87CE1C44587
:103D30000EF1040E3FD1DEF800C04CF0100CCEF8AE
:103D400000C0DEF8003003F010030593036843F071
:103D500001030360006800F0010005904FF4C060AB
:103D60008DE815000720CDE9031069465846FDF798
:103D700035FFDFF8588154494046C8F80010C0E9C3
:103D80000164C0E90347C8F81440C0E9064AC8F80E
:103D90002040C8F82440FDF76DFE08B1FCF73DFF58
:103DA000C5F83C80002205212520C8F83850FEF7D0
:103DB000E5F82520B2E7DFF81881C44548D1D3F8EB
:103DC00000C04CF4003CC3F800C01B6803F400338F
:103DD0000593036843F001030360006800F00100ED
:103DE00005900C208DE815000720CDE903106946E9
:103DF0005846FDF7F3FEDFF8D4802D4908F160083E
:103E000018314046C8F80010C0E90164C0E9034712
:103E1000C8F814404FF44031C8F81840C0E907A171
:103E20000421C8F824100121C8E90A14C8F8304058
:103E3000FDF720FE08B1FCF7F0FEC5F83C8000223B
:103E400005212620C8F83850FEF798F8262065E7A7
:103E5000204B9C457FF464AFDEF8005045F0200510
:103E6000CEF80050DEF8003003F02003059303681D
:103E700043F0040303600068CDE9024100F0040050
:103E80000590C020CDE90002CDF8109069460B489E
:103E9000FDF7A4FE002205214720FEF76FF847201A
:103EA0003CE70000004C0040403802400000024067
:103EB00070600240380D00200050004000080240B1
:103EC000000C02400010014088640240580E00209F
:103ED000004400400014014090F84230202B01D0F3
:103EE0000220704721B11AB10023036302F00CB91C
:103EF00001207047704770477047FEE710B5054CCA
:103F00000120207000F0B6F808B10220207020785F
:103F100010BD00003400002000B5044800F03CF85B
:103F200002485DF804EBE03000F00EB8A800002075
:103F300010B50349034800F021FF002010BD000028
:103F400005480008B80F002008490A23B1F90E20DF
:103F500092FBF3F200EE102AB8EEC00A10EE102A1F
:103F600040F8072F0968416070470000601000208A
:103F700010B5FFF7C3FF0149487010BD6B0000206A
:103F80002DE9084006F056FB009000F019F80121D9
:103F9000684606F0A1F9F5E708490A23B1F91020AF
:103FA00092FBF3F200EE102AB8EEC00A10EE102ACF
:103FB00040F8072F896841607047000060100020BA
:103FC00000B5044805F0E6FB02485DF804EB0C3050
:103FD00005F0E8BB60100020F0B500230A2430256E
:103FE00037261F4611E000BFB4EB107F02D905EB66
:103FF000107C01E006EB107C01F813C001EB430CD0
:1040000000015B1C8CF80170DBB29342ECD3F0BD75
:1040100010B500242DED028B90ED400AD0ED410A41
:1040200030EE600AD0ED090AF0EEC08A90ED080A81
:1040300030EE600AB0EEC08AFDF7CEFE18EE901AA0
:104040000A4AB1F1804F07DA18EE101A084B99426C
:1040500002DA0124506005E05168401AB0F5FA7F99
:1040600000D20124BDEC028B204610BD8800002048
:104070009A99993E70B5074D00246C7005F04EFC7E
:104080000549D1E90021801A8C4101D301206870D3
:10409000687870BD340000208000002016490020A0
:1040A0000A7A012A03D0022A01D0032A06D14A7AC9
:1040B000012A05D0022A03D0032A01D0012070472B
:1040C000B1F900304FF4A56203F525739342F5D89A
:1040D000B1F9023003F525739342EFD8B1F90430FA
:1040E00003F525739342E9D8B1F9061001F525715E
:1040F0009142E3D8704700007410002070B5074D5E
:104100000024AC7005F00AFC0549D1E90021801AB1
:104110008C4101D30120A870A87870BD60000020F8
:10412000780000200346244900B52348183990F848
:10413000C4014A78904205D048701F48D0F8F31067
:10414000C0F804111D48C17C11B1017A02290CD0BC
:10415000B0F90E00D3ED330A00EE100AB8EEC00A33
:1041600020EE800A83ED320A21E0154991F82010F3
:10417000C90710D0134890ED150A00BF83ED080A57
:1041800003F1200000F06EFDD3F80B005861D3F866
:104190000F00D86100BDB0F90C00D3ED360A00EE77
:1041A000100AB8EEC00A20EE800A83ED350AD3ED7E
:1041B000080A30EEC00AE1E7A000002074100020D9
:1041C000281400209814002010B504461E48A0F1C1
:1041D000180190F8C4214B789A4207D04A70D0F861
:1041E00013104162D0F8F310C0F8041117490846C3
:1041F000CA7CB0F90C0012B1097A02290ED000EE87
:10420000100AD4ED360AB8EEC00A20EE800A84ED1A
:10421000350AD4ED080A30EEC00A07E00C4991F8DF
:104220002010C907EBD00B4890ED140A04F12000D0
:1042300084ED080A03F07EFED4F80B006061D4F828
:104240000F00E06110BD0000A000002074100020ED
:104250002814002098140020104810B50E49016061
:104260000321416000214FF410228160C0E9031254
:104270004FF4001242610176012242768276C276C4
:1042800001774177FDF727F9002803D0BDE81040FA
:10429000FCF7C3BC10BD000000640040840A00208D
:1042A000104810B50E4901600321416000214FF410
:1042B00010228160C0E903124FF4001242610176BE
:1042C000012242768276C27601774177FDF703F9C3
:1042D000002803D0BDE81040FCF79FBC10BD0000D3
:1042E00000680040AC0A0020214808B5016841F48C
:1042F00000110160016801F400110091016841F4AE
:10430000800101600068002200F480000090052117
:104310000B20FDF733FE0B20FDF722FE00220521C6
:104320000D20FDF72BFE0D20FDF71AFE00220521C2
:104330000F20FDF723FE0F20FDF712FE00220521BE
:104340001020FDF71BFE1020FDF70AFE00220521BC
:104350003920FDF713FE3920FDF702FE002205216A
:104360004420FDF70BFEBDE808404420FDF7F8BDF2
:104370003038024010B5AAB01C2221496846FCF72B
:10438000AFF80021684605F087FB1E4C1C491C2233
:1043900020601C3107A8FCF7A3F8002107A805F04E
:1043A0007BFB174960601C2238310EA8FCF798F897
:1043B00000210EA805F070FB1149A0601C225431A9
:1043C00015A8FCF78DF8002115A805F065FB0C4930
:1043D000E0601C2270311CA8FCF782F800211CA8A8
:1043E00005F05AFB064920611C228C3123A8FCF7FA
:1043F00077F8002123A805F04FFB60612AB010BDBB
:10440000ECB40008000000202DE9F04186B0142132
:104410006846FCF7B9F826480025016841F080019C
:104420000160016801F080010591016841F001011E
:104430000160016801F001010591016841F002018C
:104440000160016801F002010591016841F0040179
:104450000160016801F004010591016841F0080163
:1044600001600068134F00F008000590002204214D
:104470003846FDF7ABFCDFF840807E150022314660
:104480004046FDF7A3FC042001248DE83100694675
:1044900038460394FDF7A2FB0096CDE90145694635
:1044A00040460394FDF79AFB06B0BDE8F08100009A
:1044B000303802400004024000080240094810B5AC
:1044C00007490160032141604FF4FA718160FDF7F3
:1044D00089FC002803D0BDE81040FCF79EBB10BD4E
:1044E00000300040D40A002010B592B000240F9490
:1044F0001C2108A81094FCF747F820216846FCF717
:1045000043F81F481D49C0E90014D121C0E9024108
:10451000046144618461FEF764FF08B1FCF77DFB30
:104520000F940FA916481094FEF762FD08B1FCF72E
:1045300074FB6020CDE908040A940B940C940D944C
:10454000002208A90E480E94FEF7E5FE08B1FCF71C
:1045500064FB00944FF40050CDE9044002940194B0
:104560000394694606480794FEF718FD08B1FCF766
:1045700054FB0348FEF78CFE12B010BD0000014052
:10458000E00A002010B58AB0002407941C21684678
:104590000894FBF7F9FF1748154901605321C0E95A
:1045A000011444F61F61C0E9031480218161FEF704
:1045B00018FF08B1FCF731FB079407A90D480894D0
:1045C000FEF716FD08B1FCF728FB6020CDE90004DA
:1045D00002940422694607480494FEF79CFE08B141
:1045E000FCF71BFB0348FEF753FE0AB010BD0000AA
:1045F00000040040280B00200C4810B50A49016057
:104600004FF4E1314160002181600C22C160C0E9BA
:1046100004128161C161FFF785FA002803D0BDE86B
:104620001040FCF7FABA10BD004C0040D00B00203F
:104630000C4810B50A4901604FF461214160002126
:1046400081600C22C160C0E904128161C161FFF781
:1046500069FA002803D0BDE81040FCF7DEBA10BDAF
:1046600000500040180C00200C4810B50A490160A9
:104670004FF4E1314160002181600C22C160C0E94A
:1046800004128161C161FFF74DFA002803D0BDE833
:104690001040FCF7C2BA10BD00100140600C0020B1
:1046A0000E4810B50C4901600D4941604FF480512E
:1046B000816000214FF48062C0E903120C22C0E93E
:1046C0000521C161FFF72EFA002803D0BDE8104094
:1046D000FCF7A3BA10BD000000440040A80C002065
:1046E000A08601000C4810B50A4901604FF4E13181
:1046F0004160002181600C22C160C0E90412816127
:10470000C161FFF70FFA002803D0BDE81040FCF7A5
:1047100084BA10BD00140140F00C002010B5012235
:104720000F49104802F09CF908B1FCF776FA0E49DF
:104730000C4802F0B0FB08B1FCF76FFA0B490948CE
:1047400001F046FF08B1FCF768FA064802F026FCC3
:10475000002803D0BDE81040FCF75FBA10BD000090
:104760003C070020C8520020F80700208C070020DA
:104770000249032081F8940100F002B87C02002075
:104780000848094B0949C0E97F1300220849C0F8CD
:10479000F821C0F80412C0E99313C0F84822C0F809
:1047A000541270477C0200200050C34600401C4653
:1047B00000204B4604498162044A8264C164426419
:1047C00000210164704700000050434700401C4630
:1047D000FEE700B5FCF7B2FAFCF722FA5DF804EB4D
:1047E000FFF7C6BFFEE7000010B50448FDF742FD25
:1047F000BDE81040024803F09BBA0000C4690020E5
:10480000A45700202DE9F0410024051D474EB0F8C3
:10481000847027E0285DC0283BD012DCA52829D071
:1048200008DC902822D0A02824D0A12822D0A228B9
:1048300017D11FE0B02824D0B12822D0B22810D13F
:104840001FE0D12867D006DCC12822D0C22820D0A2
:10485000D02806D124E0D92851D0E02864D0F0280F
:1048600062D0641CA742D5DCBDE8F0816878B070E6
:10487000A41CF7E7281950F8011F71608088308167
:104880003BE0281950F8011FC6F80A108088F08113
:1048900033E0281950F8011F31618088B0822CE084
:1048A00028194178827801EB022109B200EE101A32
:1048B0002049F8EEC00A9FED1E0A80EE801A81EDB5
:1048C000001AC278037902EB032212B200EE902A9A
:1048D000F8EEE00A80EE801AF2EE040A81ED011A89
:1048E0004279807902EB002000B200EE100AB8EEA7
:1048F000C00A80EE201A81ED021AE41DB2E70D48CD
:1049000029190C3851F8012FC2604A680261896880
:104910000D344161A6E70748291910220C30491CC3
:10492000FBF799FD11349DE7641D9BE734000020DF
:104930000000C842441000202DE9F04103680D46F4
:1049400004461E6C03EB4511D1F8080B94F806E001
:104950004FF400474FF0200C04F29C42BEF1010FCF
:1049600009D0DFF898E0764539D1020432D500BF8E
:10497000C1F8087B3FE0224B5FEA007E04D59E42EF
:1049800039D90004F4D436E05FEA806E02D5C1F86C
:1049900008CB30E010F0280F2DD19E4201D9000441
:1049A000E6D405EBC50004EB8000D1F8101BD0F86D
:1049B0007432C1F31201591AC0F8681200F515706B
:1049C000ADB903691BB1C2681144C1600FE0012198
:1049D00020680AE080060AD5C1F808CB07E035B99F
:1049E000D4F8640218B90021184602F051FEE9B269
:1049F0002046FDF729FB0020BDE8F0810A31544F25
:104A00000A30544F2DE9F84F0E4601EBC60100EB7A
:104A1000810481460568D4E909101434884202D91A
:104A20000120BDE8F88F081AA168814200D208462B
:104A3000C01C870805EB46181BE000BFA0EB010A6D
:104A4000A068504500D282460AF10300870899F811
:104A5000060000901FFA8AF3F2B22846E16803F0DC
:104A600051F9E16801EB0A00E060616901EB0A00BD
:104A70006061D8F8180980B2B84205D3D4E90401BE
:104A8000814201D20028D9D1D4E90401884208D852
:104A900006F00F0101208840D5F834188143C5F88D
:104AA00034180020BDE7F0B510EE101A30EE600AA1
:104AB000016110EE901A816110EE101AC161026C52
:104AC00000EE102A00EE902AB1EE401A00EE101A05
:104AD00004F0CEFB10EE101AC161426A00EE101A0B
:104AE00000EE902A30EE800A10EE103A4362826A9D
:104AF00000EE103A00EE902AB4EEE00AF1EE10FA61
:104B000001DD426211E000EE902A00EE103AF1EE73
:104B1000600AB4EEE00AF1EE10FA06D200EE102AB6
:104B2000B1EE400A10EE102AEBE7026800EE101A10
:104B300000EE902A20EE800A10EE105AC5624268FC
:104B400000EE102A426A00EE902A20EE200A10EEB3
:104B5000103A00EE101A0363026A00EE902A82688F
:104B600070EE600A00EE102A20EE800A10EE107A35
:104B700047630469426900EE104A00EE902AC26859
:104B800070EE600A00EE102A20EE800A10EE106A25
:104B900000EE103A8663826C00EE902AB4EEE00AD2
:104BA000F1EE10FA01DD026311E000EE902A00EE52
:104BB000103AF1EE600AB4EEE00AF1EE10FA06D215
:104BC00000EE102AB1EE400A10EE102AEBE7026B5D
:104BD00000EE105A00EE902A70EE200A00EE107AD5
:104BE00070EE800A00EE106A30EE800A10EE102A95
:104BF000C26301624461416C00EE102A00EE901A1B
:104C0000B4EEE00AF1EE10FA01DDC16311E000EE4E
:104C1000901A00EE102AF1EE600AB4EEE00AF1EE0E
:104C200010FA06D200EE101AB1EE400A10EE101A79
:104C3000EBE7C06B00EE100AF0BD00000748017AF8
:104C40000748012906D0032906D0022901D10121F4
:104C5000C17070470221FBE70021F9E774100020C2
:104C60006B000020094A0168914203DDB2EE0E0A92
:104C700080ED000A016811F17B5F02D800EE101A86
:104C80007047BAEE080A80ED000A704700007041D4
:104C90002DE9F041384C014620462778D0E9032021
:104CA0000623A61D0025072F62D2DFE807F00408BF
:104CB0001A1F272A31005A295BD1012009E080F808
:104CC0008810A52904D0A62905D0A72951D105E02F
:104CD000022020704DE0EAB3904749E00560237060
:104CE00047E0A0F88410B1700320F2E730F8842F79
:104CF00042EA01220280F1700420EAE76180052087
:104D0000E7E7628842EA012161800560A580E6E765
:104D10000368061D5F1C0760995590F88810A72945
:104D200007D10168082904D30821A0F8841090470E
:104D300025702069B0F884200168914219D390F859
:104D40008800A52815D10C490422891D881E04F06D
:104D5000FDFC00E00CE02169074804C9001D04F0D7
:104D6000F5FCA0886188884202D1D4E90310884705
:104D700025700020BDE8F0814C00002070B5044D86
:104D80000446E9608C21FBF7FFFB2C6170BD00003D
:104D90004C00002010B5074C01202070FFF77EF971
:104DA00008B100202070FFF7A9F908B10220207097
:104DB000207810BD600000200346164900B5154854
:104DC000183990F8C4014A78904205D048701148CB
:104DD000D0F8F310C0F804110F48D3ED330AB0F93E
:104DE000020000EE100A03F12000B8EEC00A20EE27
:104DF000800A83ED320AD3ED080A30EE800A83ED93
:104E0000080AFFF72FFFD3F80B005861D3F80F0003
:104E1000D86100BDA00000207410002010B5044629
:104E20001748A0F1180290F8C4115378994207D09E
:104E30005170D0F813104162D0F8F310C0F804118B
:104E40001048D4ED330AB0F90000404200EE100AD9
:104E500004F12000B8EEC00A20EE800A84ED320A88
:104E6000D4ED080A30EE800A84ED080A03F062F8F7
:104E7000D4F80B006061D4F80F00E06110BD0000B1
:104E8000A00000207410002030B5144B1C68656928
:104E900045F0400565611B68DC6844F01004DC6087
:104EA0000F4B1C68256825F0010525601C682568E6
:104EB000ED07F7D11D680B4CAC601C68E06018680A
:104EC0000161186842601868016841F4802101603E
:104ED0001868016841F00101016030BDA80C002094
:104EE000B80E00200444004010B5FFF753FF0149FD
:104EF000087010BD6B00002011491148703051F846
:104F0000212F42614A6882618A68C2610A6902622D
:104F10004A6942628A698262CA690263CA68C26275
:104F20000A6A42634A6A82638A6AC26311F8011C90
:104F3000C1F3420200F84C2FC1F3021141707047D7
:104F40002814002070B50446694D20682860207937
:104F500028712078A52870D10521204602F044FF51
:104F6000012846D161782046093102F01FFFE8B3DD
:104F7000B4F8050040F20222A0F202214FF481733E
:104F8000904276D017DC984258D00ADC012838D0FD
:104F9000022845D0032846D0A0F58070013828D1DA
:104FA00046E0B0F5827F4ED0A0F5807005384FD036
:104FB000FC281ED150E005296FD006DC01295FD006
:104FC00002296DD0042914D174E0062967D007297D
:104FD0006FD099420DD1D4F80700C5F87E00D4F8FF
:104FE0000B00C5F88200D4F80F0000E001E0C5F81E
:104FF0008600B5F801000934015DA52977D1044484
:10500000A2E7D4F80700C5F80500D4F80B00C5F8EE
:105010000900B4F80F00A5F80D00607CE873E8E71C
:10502000E0792874E5E732482022E11D113024E0C0
:10503000D4F80700C5F83100DBE758E0D4F80700E2
:10504000C5F83500D5E7B4F80700A5F83900D0E772
:10505000E07985F83B00CCE7FBF752FDD4F8070078
:10506000E863D4F80B002864D4F80F006864C0E744
:10507000FFE71F481022E11D4930FBF7ECF9B8E7C4
:10508000D4F80700C5F85900D4F80B00C5F85D0046
:10509000D4F80F00C5F86100ABE70FE000E018E0BE
:1050A000D4F80700C5F86500B4F80B00A5F869004E
:1050B0009FE717E0E07985F86B009AE7D4F80700DE
:1050C000E866B4F80B00A5F87000607B85F8720004
:1050D0008FE7D4F80700C5F87300B4F80B00A5F803
:1050E000770086E7D4F80700C5F8790081E770BD3E
:1050F0003015002002492422A1F12400FFF7C4BE8C
:10510000441100202DE9084005F094FA009000F0C9
:105110006BFA0321684605F0DFF8F5E7017840787F
:1051200041EA0020704700002DE9084005F082FAAE
:10513000009000F07FFB0221684605F0CDF8F5E70E
:1051400010B50D4800F0B2F8BDEEC00A0A4C10EEE2
:10515000100A103C208004F1D80000F0A7F8BDEE42
:10516000C00A10EE100A01B26180B4F90000BDE877
:105170001040FBF7E3BB0000800200200949898A48
:10518000890402D59FED080A01E09FED080A80ED31
:10519000060AB0F9061000EE101AB8EEC00A80ED4B
:1051A000050A70477410002000409C4500A08CC583
:1051B00000EE101AB8EEC00A80ED060AB0F906102B
:1051C00000EE101AB8EEC00A80ED050A704700EE36
:1051D000101AB8EEC00A80ED060AB0F9061000EE0B
:1051E000101AB8EEC00A80ED050A704710B50F48D6
:1051F00004F0E2FA0E489FED0F0AD0ED030A0B48C7
:105200007030FFF750FC0C48B0F99A0100EE900A9C
:105210000648F8EEE00A2030FFF745FCBDEEC00A74
:10522000054910EE100A1439488010BD14040020FE
:10523000A80F00200080CAC47C02002010B50F48CF
:1052400004F0BAFA0E489FED0F0AD0ED030A0B489E
:105250007030FFF728FC0C48B0F99A0100EE900A74
:105260000648F8EEE00A2030FFF71DFCBDEEC00A4C
:10527000054910EE100A1439488010BD14040020AE
:10528000A80F0020000000007C020020054810B597
:1052900005498078087000F06DF9BDE8104000F015
:1052A0000FB800006B0000207C02002000F12401F8
:1052B000D0ED050A90ED060A0846FFF7F4BB0000A2
:1052C00010B5064800F0C8F80448C83000F0C4F82B
:1052D000BDE81040024800F0BFB800008002002086
:1052E0001004002010B500F019F841F6E841084814
:1052F000FFF75EFF06480749C830FFF768FF06481A
:10530000FFF73CFF00F036F8BDE81040FFF718BF8C
:105310008002002018E3FFFF1004002070B5134D39
:105320000126134C2878012817D1A08A800510D5B2
:105330001420FCF741FCA08A80050ED500202870BF
:1053400005F1140090F85D12022903D0022180F8C3
:105350005D1270BD80F85D6270BD28780028FBD1B9
:10536000A08A8005F8D42E7070BD0000680200206D
:105370007410002070B519481949002390F85D0297
:10538000897C02280CD001281BD1012921D0154885
:10539000036043608360C360BDE87040FFF74EBFA9
:1053A000114D1248AA79A0F5D47472B1012A09D01E
:1053B0000DE000BFFFF77AFFBDEEC00A10EE100A45
:1053C000608070BD6A79012A01D10129F2D0638021
:1053D00070BDBDE87040FFF709BF00007C020020EF
:1053E00074100020A80F00206B0000201004002083
:1053F0002DE9F041154C0127DFF854806078154EF7
:10540000E51C012810D1B08AC00513D50A20FCF78D
:10541000D3FBB08AC00507D500206070297909B197
:10542000287110E02F7107E0607818B9B08AC005C4
:1054300000D46770287930B140F2EE21D8F800002E
:105440008163BDE8F08140F26451F7E76800002015
:10545000280B0020741000202DE9F04701782C4C17
:1054600000F12405032902D004294ED135E0284A51
:1054700095F8A010274E526805F15007012914D065
:1054800002292549284606D09031FAF7E4FF314633
:105490003846626806E0B031FAF7DDFF1D4938464C
:1054A00020316268FAF7D7FF17E0DFF864801A4806
:1054B00008F11408A03098F85D128146022908D13D
:1054C00001462846FAF7C7FF314638466268FAF7C0
:1054D000C2FF98F85D02012808D095F8A0000E4997
:1054E0000028626828460BD0E0310AE04946284689
:1054F0006268FAF7B0FF0749384610316268D1E7B1
:10550000C031BDE8F047FAF7A6BFBDE8F08700005C
:105510006802002062060020E204002010B541F677
:10552000E8411048FFF744FE0E480F49C830FFF726
:105530004EFE0E480246FFF721FE0D49094C4989EF
:10554000183CB1F5257F05D000206080BDE81040F3
:10555000FFF7F6BD1046FFF7A9FEBDEEC00A10EE3C
:10556000100AF2E78002002018E3FFFF1004002079
:10557000741000200648014690F85C2280F8C8208C
:1055800081F8902190F85C0281F858027047000081
:105590007C02002070B5134A0021101DFFF708FEA1
:1055A00010480021CC300546FFF711FE101DFFF713
:1055B0007DFEBDEEC00A0B4C10EE100A083C2080A8
:1055C0002846FFF773FEBDEEC00A10EE100A01B2C6
:1055D00061800020A080B4F90000BDE87040FBF7B6
:1055E000ADB900007C02002010B5FFF74FFE0A485D
:1055F000007A012807D0022809D003280BD1BDE882
:105600001040FFF7C7BFBDE81040FFF787BFBDE8F8
:105610001040FFF767BE10BD74100020FFF77EF842
:10562000012004F02DFAFBE770B52F4D4FF0000379
:10563000EC1E2979207801291A463BD0014600202A
:1056400004F0FCFE29484FF001034FF0000290F8EF
:105650005D02022830D0002194F8000004F0EEFE34
:1056600023484FF0020390F82000C00727D0002104
:105670002278084604F0E2FE00210323227808463F
:1056800004F0DCFEA8794FF0040310B30021227867
:10569000084604F0D3FE0021052322784FEA0100DA
:1056A00004F0CCFEBDE87040E823124A0021124805
:1056B000FDF774BF0021C3E721780020CEE7002268
:1056C0001146207804F0BAFE032300221146207808
:1056D000D6E700221146207804F0B0FE0523002210
:1056E00011462078DCE700006B0000207C020020DF
:1056F0002814002068120020E00A002010B5502075
:1057000080F31188BFF34F8FBFF36F8F04F098FFC2
:1057100018B104494FF080500860002080F31188D0
:1057200010BD000004ED00E030B593B030216846B4
:10573000FAF72AFF14210CA8FAF726FF1F480025C4
:10574000016841F080510160006800F080501190C4
:105750001B48016841F4804101600068022400F4A4
:1057600080401190092000904FF48030019001207A
:10577000CDE9050480050790192008904FF4A87022
:10578000CDE9090407200B906846FDF74FFA08B1F0
:1057900072B6FEE70CA90F2081E831004FF4A0504B
:1057A0000F904FF48050109005210CA8FDF72CF9B4
:1057B000002801D072B6FEE713B030BD4038024079
:1057C000007000400248016841F4700101607047B8
:1057D00088ED00E010B5144CB4F90630B4F904209B
:1057E000B4F90210B4F90000FAF7F4FF0F48A38AE5
:1057F000617AB0F98620207AFBF722F80C4801780C
:1058000009B142780AB900228270012907D0022921
:1058100002D04178022901D10221817010BD417866
:105820000129FAD0F5E7000074100020301500209F
:105830006B00002010B5FFF7CDFFFFF755FBFEF71B
:1058400097FBFFF7FBF9FFF7D3FD02F0F1FABDE894
:105850001040FFF7E9BE00000148FDF781BC0000E1
:10586000180F0020F0B50268294C2A4D2A4E2B4F04
:105870002B4B4FF0804CA04209D0604507D0A84286
:1058800005D0B04203D0B84201D0984204D122F0F2
:10589000700E4A6842EA0E02A0421BD0604519D041
:1058A000A84217D0B04215D0B84213D0984211D0B8
:1058B0001C4DA8420ED01C4DA8420BD01B4DA84237
:1058C00008D01B4DA84205D01A4DA84202D01A4D4F
:1058D000A84203D122F44075CA682A434D6922F0D8
:1058E00080022A4302608A68C2620A688262A04219
:1058F00001D0984201D10969016301214161016927
:10590000C90703D0016921F001010161F0BD000068
:10591000000001400004004000080040000C00406E
:1059200000040140004001400044014000480140A3
:1059300000180040001C00400020004010B501F09D
:105940001F030121046A99408C430462016A9A4052
:105950001143016210BD10B5846B0121626A82425D
:1059600005D12177C069F8B984F83E101CE0A26A1D
:10597000824206D102222277C069A8B984F83F107A
:1059800012E0E26A824206D104222277C06958B945
:1059900084F8401008E0226B824205D10822227769
:1059A000C06908B984F841102046FDF78BFD00203E
:1059B000207710BD10B5846B616A814201D101204E
:1059C0000DE0A16A814201D1022008E0E16A814232
:1059D00001D1042003E0216B814201D1082020770E
:1059E0002046FDF775FD0020207710BD10B5846BB3
:1059F0000121626A824203D1217784F83E1019E0C6
:105A0000A26A824204D10220207784F83F1011E07C
:105A1000E26A824204D10420207784F8401009E031
:105A2000226B824204D10820207784F8411001E0E3
:105A300084F83D102046FDF791FB0020207710BD33
:105A4000F0B5036A026A22F00102026242688469C8
:105A5000124E24F073050C682C4323F002058B686A
:105A60002B430D4DA84201D0B04205D123F00807C9
:105A7000CB683B4323F00403A84201D0B04205D1D8
:105A80004D6922F4407215438A692A434260846159
:105A9000496841630362F0BD000001400004014019
:105AA000F0B5026A036A23F0100303624368846955
:105AB0000D6824F4E64444EA05248D6822F02002AF
:105AC00042EA05120F4D104EA84201D0B04206D155
:105AD000CF6822F0800242EA071222F04002A84278
