:020000040800F2
:10000000D853002029030008A1370008CD2F00088D
:100010008D3700084F060008894B000800000000DB
:10002000000000000000000000000000690200085D
:10003000C109000800000000C5020008994100083D
:100040004303000843030008430300084303000878
:100050004303000843030008430300084303000868
:10006000430300084303000843030008D5080008C1
:10007000E1080008ED0800084303000843030008F6
:10008000F90800084303000843030008430300087D
:100090007D060008430300084303000843030008EB
:1000A0004303000843030008430300084303000818
:1000B0004303000843030008430300084303000808
:1000C00043030008430300084303000843030008F8
:1000D0004303000843030008014B0008194B0008C4
:1000E00043030008430300084303000843030008D8
:1000F00043030008F14200084303000843030008DB
:1001000043030008430300084303000843030008B7
:10011000814500089945000843030008430300088F
:1001200043030008050900081109000843030008FB
:100130004303000800000000000000004303000823
:10014000B506000843030008430300084303000802
:10015000430300084303000843030008254B00083D
:100160004303000843030008430300084303000857
:1001700043030008430300080000000000000000E3
:10018000430300084303000800F002F800F05CF8A5
:100190000AA090E8000C82448344AAF10107DA45E2
:1001A00001D100F051F8AFF2090EBAE80F0013F0D8
:1001B000010F18BFFB1A43F0010318473C5A000017
:1001C0005C5A00000A444FF0000C10F8013B13F099
:1001D000070408BF10F8014B1D1108BF10F8015BA0
:1001E000641E05D010F8016B641E01F8016BF9D193
:1001F00013F0080F1EBF10F8014BAD1C0C1B09D1EA
:100200006D1E58BF01F801CBFAD505E014F8016B5B
:1002100001F8016B6D1EF9D59142D6D370470000ED
:100220000023002400250026103A28BF78C1FBD8FF
:10023000520728BF30C148BF0B6070471FB505F09B
:100240004BFC1FBD10B510BD00F0CCF91146FFF7F7
:10025000F5FF04F0CDFD00F0EAF903B4FFF7F2FF7B
:1002600003BC00F0EDF900002C4B19680868B0E8F9
:10027000F04F80F30988BFF36F8F4FF0000080F3D9
:10028000118870470000000008480068006880F38B
:1002900008884FF0000080F3148862B661B6BFF39F
:1002A0004F8FBFF36F8F00DF00BF00BF08ED00E08E
:1002B000DFF80C00016841F470010160704700BF75
:1002C00088ED00E0EFF30980BFF36F8F134B1A68DE
:1002D0001EF0100F08BF20ED108A20E9F04F1060CB
:1002E00009B44FF0500080F31188BFF34F8FBFF374
:1002F0006F8F05F023FA4FF0000080F3118809BCDE
:1003000019680868B0E8F04F1EF0100F08BFB0EC95
:10031000108A80F30988BFF36F8F704708070020A9
:10032000EFF30580704700000948804709480047FF
:10033000FEE7FEE7FEE7FEE7FEE7FEE7FEE7FEE795
:10034000FEE7FEE704480549054A064B70470000F2
:100350005D42000889010008D84D0020D8530020D4
:10036000D84F0020D84F002053EA020C00F06980DB
:100370002DE9F04B4FF00006002B1FBFB3FA83F5B9
:1003800003FA05F424FA05F65E4012BF1643B2FAEA
:1003900082F502FA05F4C5F120051EBF22FA05FC1C
:1003A00044EA0C04203556EA044C4FEA144418BFC2
:1003B000641C4FF000084FF00009904271EB030CF1
:1003C00039D3002919BFB1FA81F701FA07F6B0FA5B
:1003D00080F700FA07F6C7F120071EBF20FA07FCD6
:1003E00046EA0C062037B6FBF4FCA7EB0507103FE6
:1003F00007F01F0BCBF120060CFA0BFB2CFA06F6CC
:1004000044BFB3460026202FA4BF5E464FF0000B2A
:100410005BEA060C08BF4FF0010B19EB0B09ABFBB5
:10042000027C48EB0608C01B06FB02CC0BFB03CC8E
:1004300071EB0C01C1E70B46024641464846BDE858
:10044000F08B13B54FF000004FF00001AFF30080C8
:10045000BDE81C407047032A40F2308010F0030CC6
:1004600000F0158011F8013BBCF1020F624498BF07
:1004700011F801CB00F8013B38BF11F8013BA2F1A4
:10048000040298BF00F801CB38BF00F8013B11F01F
:10049000030300F02580083AC0F0088051F8043BBF
:1004A000083A51F804CBA0E80810F5E7121D5CBF2C
:1004B00051F8043B40F8043BAFF30080D20724BF5F
:1004C00011F8013B11F801CB48BF11F8012B24BFF3
:1004D00000F8013B00F801CB48BF00F8012B704742
:1004E00010B5203AC0F00B80B1E81850203AA0E8CF
:1004F0001850B1E81850A0E81850BFF4F5AF5FEA03
:10050000027C24BFB1E81850A0E8185044BF18C9B5
:1005100018C0BDE810405FEA827C24BF51F8043B5C
:1005200040F8043B08BF7047D20728BF31F8023BB0
:1005300048BF11F8012B28BF20F8023B48BF00F844
:10054000012B70474FF000020429C0F0128010F018
:10055000030C00F01B80CCF1040CBCF1020F18BF9F
:1005600000F8012BA8BF20F8022BA1EB0C0100F032
:100570000DB85FEAC17C24BF00F8012B00F8012B05
:1005800048BF00F8012B70474FF0000200B513463A
:1005900094469646203922BFA0E80C50A0E80C50A3
:1005A000B1F12001BFF4F7AF090728BFA0E80C5054
:1005B00048BF0CC05DF804EB890028BF40F8042B4D
:1005C00008BF704748BF20F8022B11F0804F18BFBA
:1005D00000F8012B7047704770477047004870471C
:1005E000744D00207546FFF7F9FFAE4605006946D9
:1005F000534620F00700854618B020B5FFF7A2FE4D
:10060000BDE820404FF000064FF000074FF0000813
:100610004FF0000B21F00701AC46ACE8C009ACE894
:10062000C009ACE8C009ACE8C0098D46704710B5F8
:100630000446AFF300802046BDE81040FFF70DBE32
:1006400001491820ABBEFEE7260002007047FEE716
:1006500000B58BB06946084800F03EF86946064888
:1006600000F0F0FB0221044800F06CFB024800F0AF
:1006700041FF0BB000BD0000C8090020014800F098
:10068000DCBC0000C809002000B58BB069460848F2
:1006900000F022F86946064800F0D4FB0221044825
:1006A00000F050FB024800F025FF0BB000BD000039
:1006B000F0090020014800F0C0BC0000F009002053
:1006C0000A8852BA02804A8852BA42808A8852BA4C
:1006D000828089798171704700220123C1E9062354
:1006E0000A604A608A60CA604A610A610E22C1E9F2
:1006F00008320068034B984203D0034B984200D164
:100700004A617047006400400068004070B5174CB3
:1007100040F2675525600025A560E5600825256144
:10072000134C050A25706070080AA070E170100A69
:1007300020716271180AA071E371012322460B49EE
:100740000C4800F011FB00280FD002232246074975
:10075000084800F009FB002807D02246BDE8704099
:1007600004230249034800F0FFBA70BDB40E002014
:100770002C000020F009002070B5154C4FF4A46542
:1007800025600025A560E56006252561114C2070D7
:100790006170100AA070E270180A20716371012361
:1007A00022460B490C4800F0DFFA00280FD0022344
:1007B00022460749084800F0D7FA002807D0224609
:1007C000BDE8704004230249034800F0CDBA70BD73
:1007D000B40E00202C000020F009002008B50B4AC0
:1007E00040F2FF13136000239360D360082313616A
:1007F000074A030A9370D070080A107151716B4652
:100800000249044800F0B0FA08BD0000840E002040
:100810001C000020C8090020134910B54FF4FF72D6
:100820000A6000228A60CA6008220A610F49020A2F
:1008300001230A7048700A460B490D4800F094FAEB
:1008400000280FD00223094A0749094800F08CFA12
:10085000002807D0BDE810400423044A0249044898
:1008600000F082BA10BD0000840E00201C000020A1
:10087000F0090020144A10B54FF4007313600023F0
:100880009360D36008231361104A030A13705070F9
:10089000080A9070D17001230B490D4800F064FAEA
:1008A00000280FD00223094A0749094800F05CFAE2
:1008B000002807D0BDE810400423044A0249044838
:1008C00000F052BA10BD00009C0E00202400002051
:1008D000C8090020014800F09BBE0000BC0C0020AD
:1008E000014800F095BE00007C0D0020014800F09A
:1008F0008FBE00005C0C0020014800F089BE0000A3
:100900001C0D0020014800F083BE0000A80A002052
:10091000014800F07DBE0000DC0D002001681823B6
:10092000CAB2103AB2FBF3F2054B6FF30901032A86
:100930009B5CC36500D9091D8165084670470000AE
:100940008C5B000810B5014600208B698A6A4FF065
:10095000C07453B1B3F5005F15D072B1012A0CD049
:10096000022A0AD0032A09D104E01AB1012A06D0CA
:10097000022A03D1C96AC90100D5012010BDC96A84
:10098000A142FAD010BD002AF7D0012AF2D0022AE3
:10099000F3D0032AF3D010BD30B50468256825F4E0
:1009A00080252560046863608368402B036803D05A
:1009B00099600068C26030BD9A600068C16030BD57
:1009C000704710B5FFF744FEFFF75EFEBDE810402C
:1009D00004F0B4B872B6FEE7074800B5042101710F
:1009E00080F8CC10283002F0C3FE03485DF804EB19
:1009F000F03002F0BDBE0000800200202DE908406A
:100A000004F09CFF009000F079F90321684604F09F
:100A100011FEF5E7DFED150A9FED151AC0ED130A7B
:100A200080ED1B1AC0ED1C0A9FED120A80ED1A1A08
:100A3000DFED111A80ED190AC0ED271AC0ED300A5A
:100A4000DFED0E0A00F1B40181EC030ADFED0C0AC0
:100A500080ED320AC0ED330A80ED340A80ED350AAC
:100A6000C0ED360A80ED370A70470000005043475A
:100A70000050C3460000000000803B4600204B466B
:100A80006F12833ADFED150A9FED151AC0ED130AB8
:100A900080ED1B1AC0ED1C0A9FED120A80ED1A1A98
:100AA000DFED111A80ED190AC0ED271AC0ED300AEA
:100AB000DFED0E0A00F1B40181EC030ADFED0C0A50
:100AC00080ED320AC0ED330A80ED340A80ED350A3C
:100AD000C0ED360A80ED370A7047000000504347EA
:100AE0000050C3460000000000803B4600204B46FB
:100AF0006F12833A074800B5012100F8041F022154
:100B000080F8E010FFF7BEFF02485DF804EBE43028
:100B1000FFF780BFA400002010B5104800F036F8A1
:100B2000BDEEC00A0D4C10EE100A0C3C208004F102
:100B3000EC0000F02BF8BDEEC00A10EE100A608049
:100B4000B4F90000FFF768FE0549B4F90200B1F9F5
:100B50000010BDE81040FFF741BE0000A8000020D3
:100B60006E020020074810B5074982780A70C078E5
:100B700081F8C40100F0A6F800F01EF8BDE81040AE
:100B800002F034BA76000020A400002070B50446BC
:100B900000F12405061DD0ED070A90ED080A743017
:100BA00002F09AFE86ED050AD4ED050A2846BDE856
:100BB000704002F091BE000010B5044800F016F835
:100BC0000248BDE81040E03000F010B8A800002056
:100BD00010B5054802F010FB0348E03002F0BEFA01
:100BE000BDE81040FFF798BFA800002070B501785D
:100BF0002A4C00F1240500F17406012902D00229D3
:100C00004BD123E095F8A000012813D002282449F5
:100C10006268284606D03031FFF71DFC2149304676
:100C2000626811E05031FFF716FC1E493046203152
:100C3000626809E01A49284640316268FFF70BFCF8
:100C40001849304610316268FFF705FC95F8A0009E
:100C5000012814D0022812496268284607D0603162
:100C6000FFF7F9FB0F4930463031626811E08031FF
:100C7000FFF7F1FB0B4930465031626809E0084943
:100C8000284670316268FFF7E6FB0649626840312A
:100C90003046BDE87040FFF7DEBB70BD900000201D
:100CA0001C0500203C06002010B5054802F0D0FFCE
:100CB0000348E03002F09AFFBDE81040FFF72CBF78
:100CC000A80000200448014690F8C42180F8C820FC
:100CD00081F8A82170470000A400002010B5064C40
:100CE000002020806080FFF797FDB4F90200BDE886
:100CF00010400021FFF772BD9800002010B5FFF7EB
:100D000031FF0E48007A01280FD0022811D00328A5
:100D100013D10B4890F8C41114380278914200D0D6
:100D20000170BDE81040FFF7D9BFBDE81040FFF7E4
:100D3000BBBFBDE81040FFF74BBF10BD980F0020B0
:100D4000A400002090F82020012A07D0022A05D014
:100D5000416A41F480214162012070470068426984
:100D60000A43426100207047F0B590F820500468B3
:100D7000A468012D05D0022D03D0416A41F48021E1
:100D80005DE014F0406F01D1E50055D5C4F3016476
:100D9000022C03D9416A41F4000150E00125A5402D
:100DA0001D608D684FF4C0739DB1CE6835434E68A9
:100DB00045EAC605066803EB0417F5514FF4C27502
:100DC000076805EB04150E697E51097D012905D0E0
:100DD00009E00E88CD6845EA4655EBE701684E59B3
:100DE00046F480764E511179D579567941EA0561FC
:100DF00095792D0445EA062529434FF4C676056802
:100E000006EB0416A9511178D57841EA0561957869
:100E100052782D0445EA022211434FF4C47502684A
:100E200005EB04155151006803EB0411425842F0E0
:100E3000010242500020F0BD416A41F400114162BC
:100E40000120F0BD10B590F82020012A07D0022A19
:100E500005D0416A41F480214162012010BD3B4828
:100E6000D0F8002242F00102C0F80022D0F800229F
:100E700022F47C52C0F80022D0F800224B6A42EAE9
:100E80000322C0F800220A7D02F01F0301229A40CB
:100E9000D0F81C329343C0F81C32CB69B3B9D0F8F8
:100EA0000C329343C0F80C328C894B6864F31F43B7
:100EB0004C6900EBC404C4F840320C890B6864F33D
:100EC0001F434C6900EBC404C4F84432CB69012BC6
:100ED00016D1D0F80C321343C0F80C320C884B6892
:100EE00064F31F434C6900EBC404C4F840320C891E
:100EF000CB6864F31F434C6900EBC404C4F844326C
:100F00008B69002BD0F804320ED01343C0F80432A2
:100F10000B69002BD0F8143208D01343C0F81432F8
:100F2000096A012904D008E09343EFE79343F5E70A
:100F3000D0F81C121143C0F81C12D0F8001221F096
:100F40000101C0F80012002010BD00000064004044
:100F5000704730B590F82040012C05D0022C03D00A
:100F6000416A41F480215DE00468002955D024697C
:100F7000A40754D04FF4D874056804EB01142D591C
:100F800015F00405956005682D594ED0ED085560A3
:100F900005682C5904F00204D4604FF4DA74056833
:100FA00004EB01142D5905F00F05156105682D5945
:100FB000C5F30725956105682C59240C54614FF43D
:100FC000DC72046802EB0112A4581C700468A45877
:100FD000240A5C700468A458240C9C700468A2580D
:100FE000120EDA704FF4DE72046802EB0112A4589C
:100FF0001C710468A458240A5C710468A458240C69
:101000009C710468A258120EDA71006881B10169FE
:1010100041F020010161002030BDE468A8E7416A89
:1010200041F400114162012030BD6D0D1560AFE744
:10103000C16841F02001C160EDE72DE9F05F054690
:10104000006800244669D0F804908768D0F80CB096
:10105000D0F810A0D0F81880F10748D0F90714D0C4
:1010600001218160B80703D5284600F070FA0CE032
:10107000780702D54FF4006407E0380702D54FF433
:10108000805402E0284600F061FAF80516D5296878
:101090004FF480708860B80503D5284600F059FAEF
:1010A0000CE0780502D544F4005407E0380502D579
:1010B00044F4804402E0284600F04AFAF80316D5CA
:1010C00029684FF480308860B80303D5284600F0C3
:1010D00042FA0CE0780302D544F4004407E03803F8
:1010E00002D544F4803402E0284600F033FA300799
:1010F00007D55FEACB6004D52968102044F400745A
:10110000C86070074FF0080707D55FEA0B7004D579
:101110002868C760284600F09BF9B00706D5286804
:10112000C068800702D0284600F094F9700607D501
:101130005FEACA6004D52968102044F4806408611D
:10114000B00607D55FEA0A7004D52868076128460B
:1011500000F0CCF9F00606D528680069800702D0B7
:10116000284600F0C4F9B00308D55FEAC96005D588
:10117000296810204860284600F0BAF9F00307D526
:101180005FEA097004D528684760284600F0E4F952
:10119000300446D55FEA497040D5F00504D55FEAD2
:1011A000C87001D044F00104B00504D55FEA88702E
:1011B00001D544F00204700504D55FEA487001D5FA
:1011C00044F00404300529D518F0700F26D008F03B
:1011D0007000402815D006DC102809D020280AD03D
:1011E000302816D10AE050280ED0602811D10EE028
:1011F00044F008040DE044F010040AE044F0200438
:1012000007E044F0400404E044F0800401E044F4CA
:1012100080742868816921F0700181612968042047
:101220004860002C05D0686A204368622846FFF7B2
:101230008FFEBDE8F09F70B5040003D094F8200045
:1012400010B104E0012070BD204600F081F8206854
:10125000016841F00101016000F064FC05460526CB
:1012600004E000F05FFC401B0A2811D820684068A9
:10127000C007F6D02068016821F00201016000F08B
:1012800051FC05460BE000F04DFC401B0A2806D936
:10129000606A40F40030606284F82060D2E7206821
:1012A00040688007EFD4207E0128206801683DD087
:1012B00021F080010160607E01282068016838D03B
:1012C00021F040010160A07E01282068016833D030
:1012D00021F020010160E07E0128206801682ED005
:1012E00041F010010160207F01282068016829D0A9
:1012F00021F008010160607F01282068016824D086
:1013000021F004010160D4E902010843D4E9041288
:10131000114308436168491E08432168C8610020E1
:101320006062012084F82000002070BD41F080013F
:10133000C0E741F04001C5E741F02001CAE721F0D4
:101340001001CFE741F00801D4E741F00401D9E7EB
:10135000F0B587B0044614216846FFF715F9374BFE
:101360003748DFF8D4E01968D4F800C0344A0225C1
:101370000326092710300024491CF44524D11960A4
:10138000012907D1016841F000710160006800F097
:1013900000700590106840F001001060106802AB0A
:1013A00000F0010005904FF4C050CDE9000583E83E
:1013B000D0006946234800F0AFFA0022052114202E
:1013C00000F04EFC142033E0DFF87CE0F44531D12E
:1013D000D0F800C04CF0806CC0F800C0D0F800C05D
:1013E00001290CF0806CCDF814C0196007D1016898
:1013F00041F000710160006800F000700590106815
:1014000040F002001060106802AB00F0020005908E
:101410004FF44050CDE9000583E8D00069460B4801
:1014200000F07AFA00220521402000F019FC40204B
:1014300000F008FC07B0F0BD006400401800002078
:1014400030380240000002400068004000040240C2
:101450007047000010B5044600681D498AB08842F4
:101460001FD16B4602AA00211A48FFF772FD0298AD
:10147000A0F50070013809D001280AD0052802D053
:1014800006280ED109E06946134808E0694613486A
:1014900005E012486946C83001E069461048FFF788
:1014A0000FF91049206888420FD16B4602AA00212B
:1014B0000D48FFF74EFD0298A0F50070053804D1E5
:1014C00005486946E038FFF7FBF80AB010BD000098
:1014D00000640040C80900208C0100208802002020
:1014E0001804002000680040F00900207047704791
:1014F0007047000070B5044690F82000012804D021
:10150000606A40F40020606218E0022084F8200045
:101510002068016821F00101016000F003FB05462D
:101520000EE000BF00F0FEFA401B0A2808D9606AEE
:1015300040F400306062052084F82000012070BD76
:1015400020684068C007EDD1606270BD7047704789
:10155000704770477047704770472DE9F041044667
:10156000876D00F0DFFA064694F835000025022862
:1015700006D08020606584F834500120BDE8F081F9
:101580002068016821F0160101602068416921F09E
:1015900080014161206C08B9A06C20B1206801680D
:1015A00021F0080101602068016821F0010101605B
:1015B0000CE000F0B7FA801B052807D920206065F1
:1015C000032084F8350084F83450D7E72068006899
:1015D000C007EED194F85C103F208840B86001202D
:1015E00084F8350084F834500020C7E790F83510AF
:1015F000022903D08021416501207047052180F830
:1016000035100068016821F0010101600020704779
:101610002DE9F84304464FF00009CDF800906348E7
:101620004FF41651A56D0068B0FBF1F72E6894F8E1
:101630005C10082000FA01F131420FD021680A68DD
:1016400052070BD50A6822F004020A6094F85C1075
:101650008840A860606D40F00100606594F85C10FF
:101660004FF0010808FA01F0304208D021684969BA
:10167000090604D5A860606D40F00200606594F82A
:101680005C1004208840304208D02168096889072E
:1016900004D5A860606D40F00400606594F85C10AB
:1016A00010208840304218D021680968090714D5F5
:1016B000A86020680168490304D50068000308D5C4
:1016C000A16C07E00168C90503D4016821F0080195
:1016D0000160216C09B12046884794F85C102020F5
:1016E0008840304231D021680968C9062DD5A860EC
:1016F00094F8350005282068016806D0490347D5CD
:10170000006800031DD4616C1CE021F0160101602B
:101710002068416921F080014161206C08B9A06C0A
:1017200020B12068016821F00801016094F85C1084
:101730003F208840A86084F8358084F83490216D7B
:101740001FE0E16B09B120468847606D00282BD06F
:10175000606DC00714D0052084F83500206801684A
:1017600021F0010101600098401C0090B84203D8AC
:1017700020680068C007F6D184F8358084F834907A
:10178000E16C002910D001B02046BDE8F0430847C5
:101790000168C905D5D4016821F01001016084F801
:1017A000358084F83490CCE7BDE8F88370070020DA
:1017B0002DE9F041044600F0B5F906465CB102207F
:1017C00084F83500002584F834502068016821F041
:1017D000010101600DE00120BDE8F08100F0A2F9F7
:1017E000801B052805D920206065032084F835007A
:1017F000F2E720680068C007F0D12268116820482D
:101800000140D4E901031843D4E9033633431843B4
:1018100063691843A3691843E3691843236A1843AB
:101820000843616A042903D1D4E90B13194308431F
:10183000106020684069666A20F0070130460E4358
:10184000012704280CD1A06A0643E06A40B1204673
:10185000FFF778F820B14020606584F83570BAE76A
:10186000206846612046FFF759F894F85C203F2134
:1018700091408160656584F835700020ACE7000018
:101880003F8010F02DE9F0410446866D90F8340059
:10189000002501280DD0012084F8340094F835701B
:1018A0000020012F07D084F8340002252846BDE827
:1018B000F0810220FBE7022784F83570606520463E
:1018C000FFF76AF894F85C103F208840B060206809
:1018D000016841F016010160206C20B120680168A8
:1018E00041F0080101602068016841F001010160D8
:1018F000DCE7000070B5044600F014F90546601CF2
:1019000002D004480078044400F00CF9401BA042C7
:10191000FAD370BDFC0600202DE9F84FDFF8BCA11A
:101920000022012503264FF00F090AF1040BAAF14A
:10193000040E00BF0B6805FA02F42340A34270D1E5
:101940000F7907F00307012F01D0022F16D1876806
:101950004FEA420806FA08FC27EA0C07D1F80CC047
:101960000CFA08FC4CEA070CC0F808C04768A7430B
:101970000C79C4F3001494403C4344600C79E44374
:10198000A4070AD0C4684FEA420C06FA0CF7BC431D
:101990008F6807FA0CF72743C7600C7904F003043B
:1019A000022C12D1D40800EB840CDCF8204057073D
:1019B000FF0E09FA07F824EA0804D1F8108008FAA3
:1019C00007F848EA0408CCF8208004684FEA420C83
:1019D00006FA0CF7BC430F7907F0030707FA0CF778
:1019E000274307604C6814F4403F70D03C4C276894
:1019F00047F480472760246822F0030704F48044FA
:101A00000094384C07EB040CDCF8084897074FEAC1
:101A1000177809FA08F7BC43334FB84202D10027C0
:101A200024E054E0314FB84201D101271EE0304F8D
:101A3000B84201D1022719E02E4FB84201D1032745
:101A400014E02D4FB84201D104270FE02B4FB842CC
:101A500001D105270AE02A4FB84201D1062705E047
:101A6000284FB84201D1072700E0082707FA08F7F6
:101A70002743CCF80878DAF800405746D1F804C07C
:101A80009C435FEACC2C00D51C433C60DBF8004053
:101A90005F46D1F804C09C435FEA8C2C00D51C4300
:101AA0003C60DEF800407746D1F804C09C435FEA12
:101AB0008C3C00D51C433C60084F083F3C68D1F883
:101AC00004C09C435FEACC3C00D51C433C60521CE4
:101AD000102AFFF42FAFBDE8F88F0000083C01404A
:101AE000443802400030014000000240000402403F
:101AF00000080240000C02400010024000140240A6
:101B000000180240001C0240426921EA02030A4018
:101B100043EA0241816170470AB18161704709045B
:101B2000FBE700000148806870470000FC060020C9
:101B3000024881680278114481607047FC060020E9
:101B40000B4810B5016841F400710160016841F46F
:101B500080610160016841F480710160032000F040
:101B60009FF80F2000F006F800F050F8002010BD9C
:101B7000003C024030B505461F4887B0002401688C
:101B800041F480710160006806A900F48070009043
:101B900001A800F031F90498A8B100F04DF9400017
:101BA0001649174AB0FBF1F11648491E026040F28F
:101BB000E732C0E90324C0E90114846100F0B8FBF6
:101BC000040003D015E000F037F9E9E70D4800F014
:101BD000DDFB04000DD12D2000F034F8102D07D2CC
:101BE000002229462D2000F03BF80748056000E060
:101BF000012407B0204630BD4038024040420F006B
:101C0000002000403C0E0020000700200C4882B05D
:101C1000016841F480410160006800F48040009058
:101C20000748001F016841F08051016000680022F0
:101C300000F0805000900F21901E02B000F010B80C
:101C400044380240002809DB00F01F0201219140C6
:101C50004009800000F1E020C0F80011704700004A
:101C6000F0B40E4B1B680C46C3F30223C3F1070507
:101C7000042D00D90425191D072901D2002300E0F5
:101C8000DB1E012606FA05F1491E214099409E40BF
:101C9000761E16403143F0BC03F00EB80CED00E0A8
:101CA000064900F0070208684FF6FF03184040EAB3
:101CB0000220034A10430860704700000CED00E06A
:101CC0000000FA052DE9F0470E46050065D0DFF863
:101CD0001481D8F80000F7B200F00700B04207D234
:101CE00088F80070D8F8000000F00700B04254D126
:101CF00028683D4C810712D5400703D5206840F481
:101D0000E05020602878000703D5206840F4604048
:101D100020602068A96820F0F0000843206028783F
:101D2000C0072DD0304968680839012812D0022830
:101D300013D0032811D00968890700292DDA2168FA
:101D400021F0030101432160FFF7ECFE814641F2DF
:101D5000883A0EE009688903EFE709688901ECE732
:101D6000FFF7E0FEA0EB0901514502D90320BDE8D1
:101D7000F0872068696800F00C00B0EB810FEFD1AC
:101D8000D8F80010404601F00701B14207D90770AA
:101D9000006800F00700B04201D00120E7E7287892
:101DA000400705D52068E96820F4E050084320602A
:101DB0002878000706D52068296920F4604040EAA9
:101DC000C100206000F058F82168084AC1F30311EF
:101DD000515CC8400649086006480068FFF7CAFE23
:101DE0000020C4E7003C024008380240945B000831
:101DF00070070020000700200F2202600C4A1368C1
:101E000003F003034360136803F0F0038360136877
:101E100003F4E053C36012684FF4E05303EAD202C4
:101E200002610448006800F0070008607047000085
:101E300008380240003C024004480549006809682F
:101E4000044AC1F38221515CC840704770070020EA
:101E500008380240A45B0008044805490068096886
:101E6000044AC1F34231515CC840704770070020FA
:101E700008380240A45B0008154810B5006810F04F
:101E80000C02144813D01449042A0FD0082A0ED18A
:101E90000F4C241F2268236802F03F025B0207D523
:101EA0002068C0F38810A0FB010106E0084610BDC1
:101EB0002168C1F38811A1FB00010023FEF754FA49
:101EC0002168C1F30141491C4900B0FBF1F010BD8C
:101ED000083802400024F40040787D012DE9F84FD5
:101EE00004006ED02078DFF84C93C007A9F10405F8
:101EF0004AD009F104000168C1F38101012908D029
:101F00000068C0F3810002280AD1D9F8000040021D
:101F100006D52868800337D560680028E1D033E013
:101F20006068B0F5803F10D0B0F5A02F286810D0C1
:101F300020F480302860286820F4802028606068C1
:101F4000A8B1FFF7EFFD06460DE0286840F48030A9
:101F5000F4E740F480202860F7E700BFFFF7E2FDD8
:101F6000801B642873D828688003F7D50CE0FFF73E
:101F7000D9FD064605E000BFFFF7D4FD801B6428AD
:101F8000F0D828688003F7D42078DFF8AC82800787
:101F90004FF0000A3ED5A748001D016811F00C0F54
:101FA00008D00068C0F3810002280BD1D9F80000E6
:101FB000400207D42868800716D5E068012800D1C0
:101FC00012E033E1E068B8B10120C8F80000FFF783
:101FD000A9FD064605E000BFFFF7A4FD801B02280F
:101FE000C0D828688007F7D52868216920F0F80054
:101FF00040EAC10028600DE0C8F800A0FFF792FD9C
:10200000064604E0FFF78EFD801B02281FD82868D3
:102010008007F7D42078000722D5864F874861696A
:10202000703771B101210160FFF77CFD064604E0C5
:10203000FFF778FD801B022809D838688007F7D59C
:102040000EE0C0F800A0FFF76DFD064605E082E057
:10205000FFF768FD801B02287DD838688007F7D419
:102060002078400768D5DFF8CCB100270BF13C0B96
:10207000DBF80000C0000BD4DBF8001041F0805109
:10208000CBF80010DBF80000012700F08050009032
:102090006B4E3068C00510D4306840F480703060FA
:1020A000FFF740FD009005E0FFF73CFD0099401A66
:1020B000022850D83068C005F6D55E4EA0686C3650
:1020C00001280FD00528306810D020F001003060C2
:1020D000306820F004003060A068B8B1FFF722FD3E
:1020E00000900FE0306840F00100F4E740F0040099
:1020F0003060F7E7FFF716FD0099411A41F288308A
:10210000814266D830688007F4D50EE0FFF70AFDFB
:10211000009007E0FFF706FD0099411A41F2883070
:10212000814256D830688007F4D42FB1DBF8001014
:1021300021F08051CBF80010A069C8B33D49091DBA
:102140000968C1F3810102294AD00228504607D00C
:10215000C8F8600000E03CE0FFF7E4FC04463BE028
:102160004746C8F86000FFF7DDFC064605E000BF03
:10217000FFF7D8FC801B02282BD828688001F7D4F1
:10218000D4E907010843A16A2E4A490802EB01413C
:10219000626A41EA8211084394F82C1040EA016116
:1021A000C9F8001001203866FFF7BCFC044606E0C1
:1021B0003EE000BFFFF7B6FC001B022809D82868E4
:1021C0008001F7D534E000BFFFF7ACFC001B02280C
:1021D00002D90320BDE8F88F28688001F4D427E0F5
:1021E0000128F7D0D9F80000E26900F4800191429B
:1021F0001CD1226A00F03F01914217D147F6C0710D
:10220000626A0140B1EB821F10D1A26A4FF0FF3326
:1022100000F4403103EB5202B1EB024F06D194F8C7
:102220002C1000F07060B0EB016F01D00120D1E7FD
:102230000020CFE70438024000004742800E4742AA
:10224000007000400000FFFF7047704710B590F825
:102250003C20012A22D0012280F83C20CA688C68E8
:1022600022F4407222434C6822F4806222430C68BC
:1022700022F4006222430C6922F4805222434C690A
:1022800022F400522243C969002322F480420A4307
:1022900001684A6480F83C30002010BD022010BD67
:1022A00070B590F83C20012A32D0012480F83C40DF
:1022B000022280F83D2003685A689D6822F070066B
:1022C0000A6832435A60134B02689A4214D0B2F142
:1022D000804F11D0104B9A420ED0104B9A420BD027
:1022E0000F4B9A4208D00F4B9A4205D00E4B9A42A0
:1022F00002D00E4B9A4204D1496825F0800319435D
:10230000916080F83D40002180F83C10084670BD87
:10231000022070BD000001400004004000080040A1
:10232000000C004000040140004001400018004043
:1023300010B5040003D094F83D0010B107E001206F
:1023400010BD002084F83C00204600F01EF802205A
:1023500084F83D00211D206801F0D0FF012084F8A1
:10236000460084F83E0084F83F0084F8400084F87A
:10237000410084F8420084F8430084F8440084F863
:10238000450084F83D00002010BD704790F83D10D6
:10239000012901D001207047022180F83D10016819
:1023A000CA6842F00102CA6000681149884214D02C
:1023B000B0F1804F11D00F4988420ED00E498842AB
:1023C0000BD00E49884208D00D49884205D00D49EE
:1023D000884202D00C49884204D1816801F007018B
:1023E000062903D0016841F0010101600020704717
:1023F000000001400004004000080040000C0040C4
:10240000000401400040014000180040704770B5D2
:102410000446006801694FF00005C943890715D4D7
:10242000C168C943890711D4E91E016101202077E1
:10243000206880698007204602D0FFF7E7FF04E0AC
:1024400000F0DAF8204600F0AFF92577206801693E
:10245000C943490717D4C168C943490713D46FF06A
:1024600004010161022020772068806910F4407F18
:10247000204602D0FFF7CAFF04E000F0BDF8204676
:1024800000F092F9257720680169C943090716D43D
:10249000C168C943090712D46FF008010161042023
:1024A00020772068C0698007204602D0FFF7AEFF82
:1024B00004E000F0A1F8204600F076F925772068C6
:1024C0000169C943C90617D4C168C943C90613D4F1
:1024D0006FF010010161082020772068C06910F4B6
:1024E000407F204602D0FFF791FF04E000F084F81F
:1024F000204600F059F9257720680169C943C907CA
:1025000008D1C168C943C90704D1891E01612046A9
:1025100000F01AFA20680169C943090609D4C168A4
:10252000C943090605D46FF0800101612046FFF719
:102530008BFE20680169C943490609D4C168C943B3
:10254000490605D46FF040010161204600F006FA0B
:1025500020680169C94389060BD4C168C94389064B
:1025600007D46FF0200101612046BDE87040FFF7FD
:102570006CBE70BD10B586B0044614216846FEF7E7
:1025800003F82368174C002117480222A34211D1F7
:10259000036843F001030360006800F00100059048
:1025A000D0010090CDE901210120CDE90310694659
:1025B0000E4812E00E4CA34211D1036843F002030F
:1025C0000360006800F00200059020200090CDE933
:1025D0000121CDE9031269460648FFF79DF906B0CF
:1025E00010BD0000000001403038024000000240F1
:1025F0000004004000040240704770B5044690F8A3
:102600003C0000260D4601280FD0012084F83C0034
:102610006AB1042A1DD0082A2FD00C2A3FD00126E7
:10262000002084F83C00304670BD022070BD206858
:1026300001F0D6FE2068816941F0080181612068BF
:10264000816921F004018161206881692A6911434F
:1026500011E0206801F0F4FE2068816941F4006116
:1026600081612068816921F48061816120688169CC
:102670002A6941EA02218161D2E7206801F016FF50
:102680002068C16941F00801C1612068C16921F079
:102690000401C1612068C1692A69114311E0206801
:1026A00001F038FF2068C16941F40061C161206810
:1026B000C16921F48061C1612068C1692A6941EA68
:1026C0000221C161ACE710B5040003D094F83D00CD
:1026D00010B107E0012010BD002084F83C00204626
:1026E00000F01EF8022084F83D00211D206801F052
:1026F00005FE012084F8460084F83E0084F83F007F
:1027000084F8400084F8410084F8420084F84300D3
:1027100084F8440084F8450084F83D00002010BD92
:1027200038B5054600681B4A0021904223D11A485B
:10273000026842F0010202600068194C00F00100DA
:102740000090164820604FF0406060604020C4E96F
:10275000020100012061400060618000C4E90601BF
:10276000216220466162FFF723F808B1FEF732F9D3
:102770006C62A56338BD0B498842FBD10648001F37
:10278000016841F002010160006800F00200009061
:1027900038BD000000000140443802402864024077
:1027A000A80A0020000400400021014800F066B89B
:1027B000180A002010B50446022249B104290ED09F
:1027C000082913D094F84100012816D0012010BD2B
:1027D00094F83E000128F9D184F83E200FE094F8E7
:1027E0003F000128F2D184F83F2008E094F840002F
:1027F0000128EBD184F8402001E084F84120012237
:10280000206801F0DFFD16492068164A884201D091
:10281000904203D1436C43F40043436420688842F0
:1028200013D0B0F1804F10D00F4988420DD00F491E
:1028300088420AD00E49884207D0904205D00D49FF
:10284000884202D00C49884204D1816801F0070116
:10285000062903D0016841F001010160002010BD8C
:102860000000014000040140000400400008004056
:10287000000C0040004001400018004070B50D0001
:1028800004464FF0000607D0042D0CD0082D11D0BF
:102890000C2D16D0012648E02068C16821F4007193
:1028A000C160606A13E02068C16821F48061C16082
:1028B000A06A0CE02068C16821F40061C160E06A90
:1028C00005E02068C16821F48051C160206BFEF7EB
:1028D0008DFE00222946206801F074FD184B41F25C
:1028E000111120688A10984202D0164B984209D1E3
:1028F000036A0B4206D1036A134203D1436C23F4EB
:10290000004343642068036A0B4206D1016A114206
:1029100003D1016821F00101016001203DB1042DC6
:1029200008D0082D09D084F84100304670BD84F8E5
:102930003E00FAE784F83F00F7E784F84000F4E748
:10294000000001400004014000680349884201D1B1
:10295000FFF7EEB870470000002000407047704756
:1029600010B504460068406994F83D10C0F3C010EB
:10297000212911D180B12068143050E8001F21F0C6
:10298000800140E80012002AF5D1606B08B1FEF723
:10299000E4FD204601F0AEFE2068406994F83E1048
:1029A000C0F38010222911D180B12068143050E882
:1029B000001F21F0400140E80012002AF5D1A06B71
:1029C00008B1FEF7CAFD204601F06DFE002010BDE3
:1029D00070470000F8B5016804460868CA684B698A
:1029E00010F00F0F4FF0000559D003F0010602F46C
:1029F0009077374365D0C10705D0D10503D5216C49
:102A000041F001012164410705D5D90703D0216CAC
:102A100041F002012164810705D5D90703D0216C5B
:102A200041F004012164010707D502F02001314380
:102A300003D0216C41F008012164216C00293AD0B7
:102A4000800604D5900602D5204601F029FF2068B3
:102A50004069216CC0F38010090700D460B32046A0
:102A600001F021FE20684069400621D5206814301D
:102A700050E8001F21F0400140E80012002AF5D183
:102A8000A06BA8B16C490165A06BFEF7AFFD0028F3
:102A900011D0A06B016D01B0BDE8F040084783067E
:102AA0000FD593060DD52046BDE8F84001F0F8BEDD
:102AB0002046FFF78DFFF8BD2046FFF789FF25640C
:102AC000F8BD266B2023012E79D1C60677D5D60610
:102AD00075D50868486800904869400640D5A16BE4
:102AE000086840680004000CEAD0A28D8242E7D951
:102AF000E085C869B0F5807F2DD020680C3050E8A3
:102B0000001F21F4807140E80012002AF5D12068EE
:102B1000143050E8001F21F0010140E80012002AA3
:102B2000F5D12068143050E8001F21F0400140E842
:102B30000012002AF5D184F83E30256320680C305D
:102B400050E8001F21F0100140E80012002AF5D1E2
:102B5000A06BFEF702FDA08DE18D401A81B229E045
:102B6000A08DE18D401A81B2E08D0028A8D0002907
:102B7000A6D020680C3050E8002F22F4907240E874
:102B80000026002EF5D12068143050E8002F22F0E6
:102B9000010240E80026002EF5D184F83E3025637E
:102BA00020680C3050E8002F22F0100240E800238B
:102BB000002BF5D12046FFF7D2FEF8BDFFE7050652
:102BC0002BD5150629D594F83D002128F5D1A0680C
:102BD000B0F5805F01D12069B0B1206A411C21624B
:102BE000216800784860E08C401E0004000CE084FE
:102BF000E3D12068C16821F08001C1602068C1680C
:102C000041F04001C160D8E7206A0088C0F30800A5
:102C10004860206A801C2062E5E74006CDD550065A
:102C2000CBD5CA68204622F04002CA6084F83D3005
:102C300000F0CBF9C1E70000B145000870B5040011
:102C400004D094F83D00002510B106E0012070BDCD
:102C500084F83C50204600F023F8242084F83D00FE
:102C60002068C16821F40051C160204601F078FE5F
:102C70002068016921F4904101612068416921F0D7
:102C80002A0141612068C16841F40051C160256496
:102C9000202084F83D0084F83E00002070BD000034
:102CA0002DE9F04F87B0054614216846FDF76CFC0E
:102CB000AD48DFF8B0821038D5F800C00024AA4A29
:102CC000032602210823DFF8A4E207154FF000696C
:102CD000C44535D1D2F800C04CF4002CC2F800C075
:102CE000126802F400220592026842F001020260BA
:102CF0000068CDE9006100F00100CDE90430CDE9C4
:102D0000024669467046FEF707FE9A4E98483060C4
:102D1000C6E90194C6E903477461B461F4613462A1
:102D200030467462FEF744FD08B1FDF753FEAE6312
:102D3000002205213420B563FEF792FF342055E0D0
:102D4000DFF834824FF0040BC44554D1D2F800C0F0
:102D50004CF4801CC2F800C0126802F48012059284
:102D6000026842F004020260026802F00402059266
:102D7000026842F0080202600068884600F008001D
:102D800005904FF48050CDE900080DF1080C9A46EB
:102D90008CE8500469467948FEF7BEFD0DF1080C39
:102DA00069468CE85004CDE900B87548FEF7B4FDDB
:102DB000704E6F48603630383060C6E90194C6E91D
:102DC000034774614FF40030B461C6E907403046F0
:102DD0007462FEF7EDFC08B1FDF7FCFDAE63002266
:102DE00005213520B563FEF73BFF3520FEF72AFFAE
:102DF00007B0BDE8F08FDFF88C814FF0070AC445BB
:102E00003AD1136843F400331360126802F40032BD
:102E10000592026842F001020260006800F00100C1
:102E200005900C208DE8530469467046FEF774FD4A
:102E3000504E4F48C03648303060C6E90194C6E96C
:102E4000034780157461C6E906404FF44030C6E977
:102E5000080B0120C6E90A0430463463FEF7A8FCDB
:102E600008B1FDF7B7FDAE63002205212620B5634A
:102E7000FEF7F6FE2620B9E7DFF80C81C44533D112
:102E8000136843F480231360126802F480220592D1
:102E9000026842F002020260006800F00200059041
:102EA0004FF440608DE8530469463848FEF734FD1E
:102EB0002F48374E18383060C6E90194C6E90347F9
:102EC0007461B461F461346230467462FEF770FC80
:102ED00008B1FDF77FFDAE63002205212720B56311
:102EE000FEF7BEFE272081E72A4A944580D11E4A7C
:102EF000121DD2F800C04CF0200CC2F800C01268BD
:102F000002F020020592026842F0040202600068AA
:102F1000049300F004000590C0208DE8530069463A
:102F20001648FEF7F9FC1A4E1B48603630604FF029
:102F30002060C6E90104C6E903477461B461F46125
:102F4000346230467462FEF733FC08B1FDF742FD8F
:102F5000AE63002205214720B563FEF781FE4720BE
:102F600044E70000004C00404038024000000240AE
:102F7000406002405C0C002000500040000802400D
:102F8000000C0240004400400048004000040240A1
:102F90007C0D0020001401404064024090F83E3057
:102FA000202B0ED159B152B190F83C30012B08D0F2
:102FB000012380F83C300023036301F057BD01205A
:102FC000704702207047704770477047FEE7000067
:102FD00010B5054C0120207000F068F808B10220FF
:102FE0002070207810BD00003400002000B5044897
:102FF00000F03CF802485DF804EBE03000F00EB859
:10300000AC00002010B50349034800F0D1FD0020BA
:1030100010BD0000A5370008DC0E002008490A2377
:10302000B1F90E2092FBF3F200EE102AB8EEC00ABE
:1030300010EE102A40F8072F096841607047000021
:10304000840F002010B5FFF7C3FF0149487010BD81
:10305000760000202DE9084002F070FC009000F09E
:1030600019F80121684602F0E5FAF5E708490A2354
:10307000B1F9102092FBF3F200EE102AB8EEC00A6C
:1030800010EE102A40F8072F896841607047000051
:10309000840F002000B5044801F046FE02485DF8A8
:1030A00004EB0C3001F048BE840F002070B5074DD2
:1030B00000246C7001F0CEFE0549D1E90021801A90
:1030C0008C4101D301206870687870BD3400002005
:1030D00088000020164900200A7A012A03D0022A1B
:1030E00001D0032A06D14A7A012A05D0022A03D048
:1030F000032A01D001207047B1F900304FF4A562D6
:1031000003F525739342F5D8B1F9023003F5257321
:103110009342EFD8B1F9043003F525739342E9D80F
:10312000B1F9061001F525719142E3D8704700000E
:10313000980F002070B5074D0024AC7001F08AFE96
:103140000549D1E90021801A8C4101D30120A870E2
:10315000A87870BD6000002080000020034622494E
:1031600010B52148143990F8C4010A78904205D06E
:1031700008701D48D0F8F310C0F804111B48C17C3A
:10318000B0F90E0061B11A491A4C91ED0C0A10EE1B
:10319000102AA24204D0B5EEC00AF1EE10FA0ED108
:1031A00000EE100AD3ED330AB8EEC00A20EE800A12
:1031B00083ED320AD3ED080A30EEC00A07E0D3F8F7
:1031C0000F00D1ED050A00EE100A30EE200A03F1DF
:1031D000200083ED080A00F05DFCD3F80B00586175
:1031E000D3F80F00D86110BDA4000020980F002074
:1031F000E4040020002EC24610B504462048A0F189
:10320000140290F8C4111378994203D01170D0F8C9
:10321000131041621B48C17CB0F90C0061B11A4A1D
:103220001A4B92ED0C0A10EE101A994204D0B5EE2A
:10323000C00AF1EE10FA0ED100EE100AD4ED360AF3
:10324000B8EEC00A20EE800A84ED350AD4ED080AF3
:1032500030EEC00A07E0D4F80F00D2ED060A00EE07
:10326000100A30EE600A04F1200084ED080A01F033
:10327000F9FCD4F80B006061D4F80F00E06110BDD8
:10328000A4000020980F0020E4040020002EC24675
:10329000104810B50E4901600321416000214FF430
:1032A00010228160C0E903124FF4001242610176DE
:1032B000012242768276C27601774177FDF7BBFF25
:1032C000002803D0BDE81040FDF784BB10BD00000E
:1032D00000640040C8090020104810B50E49016084
:1032E0000321416000214FF410228160C0E90312E4
:1032F0004FF4001242610176012242768276C27654
:1033000001774177FDF797FF002803D0BDE8104013
:10331000FDF760BB10BD000000680040F009002010
:10332000214808B5016841F480010160016801F499
:1033300080010091016841F40011016000680022E1
:1033400000F40010009005210B20FEF789FC0B20F3
:10335000FEF778FC002205210C20FEF781FC0C20F2
:10336000FEF770FC002205210D20FEF779FC0D20F0
:10337000FEF768FC002205211020FEF771FC1020EA
:10338000FEF760FC002205213920FEF769FC392098
:10339000FEF758FC002205213A20FEF761FCBDE84B
:1033A00008403A20FEF74EBC3038024010B5AAB0B3
:1033B0001C2221496846FDF793F80021684601F078
:1033C00077FD1E4C1C491C2220601C3107A8FDF70C
:1033D00087F8002107A801F06BFD174960601C22E7
:1033E00038310EA8FDF77CF800210EA801F060FD31
:1033F0001149A0601C22543115A8FDF771F8002175
:1034000015A801F055FD0C49E0601C2270311CA884
:10341000FDF766F800211CA801F04AFD064920616D
:103420001C228C3123A8FDF75BF8002123A801F0B2
:103430003FFD60612AB010BDE45A00080000002082
:103440002DE9F04186B014216846FDF79DF8264825
:103450000025016841F080010160016801F08001F0
:103460000591016841F001010160016801F001016D
:103470000591016841F002010160016801F002015B
:103480000591016841F004010160016801F0040147
:103490000591016841F0080101600068134F00F0D8
:1034A00008000590002204213846FEF735FBDFF8BE
:1034B00040807E15002231464046FEF72DFB042059
:1034C00001248DE83100694638460394FEF724FA5A
:1034D0000096CDE90145694640460394FEF71CFA83
:1034E00006B0BDE8F0810000303802400004024020
:1034F0000008024010B592B000240F941C2108A8C7
:103500001094FDF741F820216846FDF73DF820486A
:103510001E4901600121C0E901146821C0E90314BA
:1035200044618461FFF7CFF808B1FDF753FA0F94B7
:103530000FA917481094FEF7B3FE08B1FDF74AFA39
:103540006020CDE908040A940B940C940D94002299
:1035500008A90F480E94FFF750F808B1FDF73AFAA2
:1035600000944FF40050CDE9044002940194039478
:10357000694607480794FEF769FE08B1FDF72AFA85
:103580000348FEF7F7FF12B010BD00000000014035
:10359000180A002010B58AB0002407941C21684640
:1035A0000894FCF7F1FF1748154901605321C0E961
:1035B000011444F61F61C0E9031480218161FFF703
:1035C00082F808B1FDF706FA079407A90D48089498
:1035D000FEF766FE08B1FDF7FDF96020CDE90004B5
:1035E00002940422694607480494FFF706F808B1DC
:1035F000FDF7F0F90348FEF7BDFF0AB010BD00006B
:1036000000040040600A00200C4810B50A4901601F
:103610004FF4E1314160002181600C22C160C0E9BA
:1036200004128161C161FFF709FB002803D0BDE8E6
:103630001040FDF7CFB910BD004C0040080B002032
:103640000C4810B50A4901604FF461214160002126
:1036500081600C22C160C0E904128161C161FFF781
:10366000EDFA002803D0BDE81040FDF7B3B910BD56
:10367000005000404C0B00200E4810B50C49016072
:103680000D4941604FF48051816000214FF4806208
:10369000C0E903120C22C0E90521C161FFF7CEFA8F
:1036A000002803D0BDE81040FDF794B910BD00001C
:1036B00000440040900B0020A08601000C4810B58B
:1036C0000A4901604FF4E1314160002181600C2220
:1036D000C160C0E904128161C161FFF7AFFA00283F
:1036E00003D0BDE81040FDF775B910BD004800409B
:1036F000D40B00200C4810B50A4901604FF4E131A9
:103700004160002181600C22C160C0E90412816126
:10371000C161FFF793FA002803D0BDE81040FDF720
:1037200059B910BD00140140180C002002490320B3
:1037300081F8940100F002B8800200200848094B8B
:103740000949C0E97F1300220849C0F8F821C0F8F0
:103750000412C0E99313C0F84822C0F8541270470D
:10376000800200200050C34600401C4600204B460B
:1037700004498162044A8264C16442640021016494
:10378000704700000050434700401C46FEE700B56C
:10379000FDF7B0F9FDF720F95DF804EBFFF7C6BFC0
:1037A000FEE700002DE9F0410024051D474EB0F86A
:1037B000847027E0285DC0283BD012DCA52829D0E2
:1037C00008DC902822D0A02824D0A12822D0A2282A
:1037D00017D11FE0B02824D0B12822D0B22810D1B0
:1037E0001FE0D12867D006DCC12822D0C22820D013
:1037F000D02806D124E0D92851D0E02864D0F02880
:1038000062D0641CA742D5DCBDE8F0816878B07056
:10381000A41CF7E7281950F8011F716080883081D7
:103820003BE0281950F8011FC6F80A108088F08183
:1038300033E0281950F8011F31618088B0822CE0F4
:1038400028194178827801EB022109B200EE101AA2
:103850002049F8EEC00A9FED1E0A80EE801A81ED25
:10386000001AC278037902EB032212B200EE902A0A
:10387000F8EEE00A80EE801AF2EE040A81ED011AF9
:103880004279807902EB002000B200EE100AB8EE17
:10389000C00A80EE201A81ED021AE41DB2E70D483D
:1038A00029190C3851F8012FC2604A6802618968F1
:1038B0000D344161A6E70748291910220C30491C34
:1038C000FCF7C9FD11349DE7641D9BE7340000201F
:1038D0000000C842680F0020F0B510EE101A30EE5C
:1038E000600A016110EE901A816110EE101AC16138
:1038F000026C00EE102A00EE902AB1EE401A00EEA3
:10390000101A01F0E9F910EE101AC161426A00EED6
:10391000101A00EE902A30EE800A10EE103A436240
:10392000826A00EE103A00EE902AB4EEE00AF1EE60
:1039300010FA01DD426211E000EE902A00EE103A2A
:10394000F1EE600AB4EEE00AF1EE10FA06D200EEF3
:10395000102AB1EE400A10EE102AEBE7026800EEE2
:10396000101A00EE902A20EE800A10EE105AC5625E
:10397000426800EE102A426A00EE902A20EE200AE9
:1039800010EE103A00EE101A0363026A00EE902A5D
:10399000826870EE600A00EE102A20EE800A10EEB7
:1039A000107A47630469426900EE104A00EE902ADB
:1039B000C26870EE600A00EE102A20EE800A10EE57
:1039C000106A00EE103A8663826C00EE902AB4EE24
:1039D000E00AF1EE10FA01DD026311E000EE902A38
:1039E00000EE103AF1EE600AB4EEE00AF1EE10FAE1
:1039F00006D200EE102AB1EE400A10EE102AEBE7D4
:103A0000026B00EE105A00EE902A70EE200A00EED3
:103A1000107A70EE800A00EE106A30EE800A10EE26
:103A2000102AC26301624461416C00EE102A00EE6C
:103A3000901AB4EEE00AF1EE10FA01DDC16311E074
:103A400000EE901A00EE102AF1EE600AB4EEE00AE1
:103A5000F1EE10FA06D200EE101AB1EE400A10EEA6
:103A6000101AEBE7C06B00EE100AF0BD0748017AB0
:103A70000748012906D0032906D0022901D10121D6
:103A8000C17070470221FBE70021F9E7980F002081
:103A900076000020094A0168914203DDB3EE070A6F
:103AA00080ED000A064A0168914202D800EE101A21
:103AB0007047BBEE060A80ED000A70470000B8416F
:103AC0000000B0C12DE9F041384C0146204627786E
:103AD000D0E903200623A61D0025072F62D2DFE8C8
:103AE00007F004081A1F272A31005A295BD1012048
:103AF00009E080F88810A52904D0A62905D0A729B7
:103B000051D105E0022020704DE0EAB3904749E032
:103B10000560237047E0A0F88410B1700320F2E73D
:103B200030F8842F42EA01220280F1700420EAE793
:103B300061800520E7E7628842EA01216180056033
:103B4000A580E6E70368061D5F1C0760995590F89D
:103B50008810A72907D10168082904D30821A0F8F3
:103B60008410904725702069B0F884200168914244
:103B700019D390F88800A52815D10C490422891D75
:103B8000881E01F0B9F800E00CE02169074804C97B
:103B9000001D01F0B1F8A0886188884202D1D4E903
:103BA0000310884725700020BDE8F0814C000020FC
:103BB00070B5044D0446E9608C21FCF7E5FC2C61EE
:103BC00070BD00004C00002010B5074C0120207093
:103BD000FFF780FA08B100202070FFF7ABFA08B1B8
:103BE00002202070207810BD600000200346164996
:103BF00000B51548143990F8C4010A78904205D0F0
:103C000008701148D0F8F310C0F804110F48D3ED34
:103C1000330AB0F9020000EE100A03F12000B8EEFA
:103C2000C00A20EE800A83ED320AD3ED080A30EE96
:103C3000800A83ED080AFFF72DFFD3F80B005861C7
:103C4000D3F80F00D86100BDA4000020980F002019
:103C500010B504461548A0F1140290F8C411137869
:103C6000994203D01170D0F8131041621048D4ED7E
:103C7000330AB0F90000404200EE100A04F12000BF
:103C8000B8EEC00A20EE800A84ED320AD4ED080AAC
:103C900030EE800A84ED080A00F0E4FFD4F80B004F
:103CA0006061D4F80F00E06110BD0000A4000020A6
:103CB000980F002030B5144B1C68656945F040052D
:103CC00065611B68DC6844F01004DC600F4B1C6805
:103CD000256825F0010525601C682568ED07F7D1EA
:103CE0001D680B4CAC601C68E060186801611868C6
:103CF00042601868016841F4802101601868016819
:103D000041F00101016030BD900B00201C0D00202E
:103D10000444004010B5FFF757FF0149087010BD7B
:103D20007600002002492422A1F12400FFF7C2BF3F
:103D3000D20F00202DE9084001F000FE009000F0B5
:103D4000FFF90321684601F075FCF5E72DE908400D
:103D500001F0F4FD009000F0BFFA0221684601F086
:103D600069FCF5E710B50D4800F0B4F8BDEEC00AE7
:103D70000A4C10EE100A103C208004F1D80000F02C
:103D8000A9F8BDEEC00A10EE100A01B26180B4F9C4
:103D90000000BDE81040FCF76DBD0000840200206B
:103DA0000949898A890402D59FED080A01E09FED3F
:103DB000080A80ED060AB0F9061000EE101AB8EEF7
:103DC000C00A80ED050A7047980F002000409C450E
:103DD00000409CC59FED060A80ED060AB0F906106A
:103DE00000EE101AB8EEC00A80ED050A7047000018
:103DF0000060EA459FED060A80ED060AB0F906105C
:103E000000EE101AB8EEC00A80ED050A70470000F7
:103E10000060EAC510B50F4800F098FF0E489FED0E
:103E20000F0AD0ED030A0B487030FFF755FD0C4820
:103E3000B0F99A0100EE900A0648F8EEE00A203048
:103E4000FFF74AFDBDEEC00A054910EE100A14390D
:103E5000488010BD18040020CC0E00200080CAC489
:103E60008002002010B50F4800F070FF0E489FED53
:103E70000F0AD0ED030A0B487030FFF72DFD0C48F8
:103E8000B0F99A0100EE900A0648F8EEE00A2030F8
:103E9000FFF722FDBDEEC00A054910EE100A1439E5
:103EA000488010BD18040020CC0E00200000000047
:103EB00080020020054810B505498078087000F0A0
:103EC00025F9BDE8104000F00FB800007600002092
:103ED0008002002000F12401D0ED050A90ED060AD1
:103EE0000846FFF7F9BC000010B5064800F084F85A
:103EF0000448C83000F080F8BDE81040024800F0E7
:103F00007BB80000840200201404002010B500F0EB
:103F100015F80848FFF75EFF0648C830FFF76AFF4C
:103F20000548FFF73DFF00F035F8BDE81040FFF70A
:103F300019BF0000840200201404002070B5134D46
:103F40000126134C2878012817D1A08A800510D5A6
:103F50001420FDF7CFFCA08A80050ED50020287024
:103F600005F1140090F85D12022903D0022180F8B7
:103F70005D1270BD80F85D6270BD28780028FBD1AD
:103F8000A08A8005F8D42E7070BD00006C0200205D
:103F9000980F0020144810B590F85D2213480021B6
:103FA000022A807C0CD0012A0FD1012817D010489A
:103FB000016041608160C160BDE81040FFF752BF01
:103FC000094C143C012801D0618010BD0948FFF75D
:103FD00081FFBDEEC00A10EE100A608010BDBDE882
:103FE0001040FFF717BF000080020020980F00204C
:103FF000CC0E0020140400202DE9F04701782C4C51
:1040000000F12405032902D004294ED135E0284AC5
:1040100095F8A010274E526805F15007012914D0D9
:1040200002292549284606D09031FCF714FA31467A
:104030003846626806E0B031FCF70DFA1D49384693
:1040400020316268FCF707FA17E0DFF864801A484D
:1040500008F11408A03098F85D128146022908D1B1
:1040600001462846FCF7F7F9314638466268FCF706
:10407000F2F998F85D02012808D095F8A0000E49E1
:104080000028626828460BD0E0310AE049462846FD
:104090006268FCF7E0F90749384610316268D1E7F9
:1040A000C031BDE8F047FCF7D6B9BDE8F0870000A5
:1040B0006C0200209C0600201C05002010B5104852
:1040C000FFF788FE0E48C830FFF794FE0D48024601
:1040D000FFF766FE0C490A4C4989183CB1F5257F6B
:1040E00005D000206080BDE81040FFF73BBE1046C1
:1040F000FFF7F0FEBDEEC00A10EE100AF2E7000076
:104100008402002014040020980F00200648014675
:1041100090F85C2280F8C82081F8902190F85C0229
:1041200081F85802704700008002002003490020F7
:104130000880488088800146FCF79CBB78020020FC
:1041400010B5FFF7B7FE0A48007A012807D0022809
:1041500009D003280BD1BDE81040FFF7E7BFBDE849
:104160001040FFF7ABBFBDE81040FFF7CFBE10BD5A
:10417000980F0020074E4FF4FA744FF40075204654
:10418000FDF7B8FB29463046FDF7BEFC012000F0E4
:1041900083FEF4E70008024010B5502080F3118838
:1041A000BFF34F8FBFF36F8F01F0CEFB18B10449FF
:1041B0004FF080500860002080F3118810BD00008F
:1041C00004ED00E030B593B030216846FCF7DCF92F
:1041D00014210CA8FCF7D8F91E480025016841F00D
:1041E00080510160006800F0805011901A48016809
:1041F00041F4804101600068022400F48040119085
:1042000001200090000401908001CDE906401920B2
:1042100008904FF4A870CDE9090404200B9068467B
:10422000FDF75CFE08B172B6FEE70CA90F2081E82D
:1042300031004FF4A0500F904FF4805010900521A2
:104240000CA8FDF73FFD002801D072B6FEE713B0C1
:1042500030BD000040380240007000400248016854
:1042600041F470010160704788ED00E010B5174C13
:10427000B4F90630B4F90420B4F90210B4F900001E
:10428000FCF744FAA38AB4F90A20617A207AFCF791
:1042900073FA0F48017809B142780AB90022827096
:1042A000012905D0022907D04178022904D005E070
:1042B0004178012901D0F7E70221817005490448BE
:1042C000801F09688088886310BD0000980F002057
:1042D00076000020600A002010B5FFF7C7FFFFF747
:1042E00019FDFEF7AFFEBDE81040FFF7BFBB0000B1
:1042F0000148FEF78CB800003C0E0020F0B50268C3
:10430000254C264D264E274F274B4FF0804CA04280
:1043100009D0604507D0A84205D0B04203D0B842CA
:1043200001D0984204D122F0700E4A6842EA0E028F
:10433000A0421BD0604519D0A84217D0B04215D07A
:10434000B84213D0984211D0184DA8420ED0184D43
:10435000A8420BD0174DA84208D0174DA84205D04F
:10436000164DA84202D0164DA84203D122F4407542
:10437000CA682A434D6922F080022A4302608A6893
:10438000C2620A688262A04201D0984201D10969E2
:10439000016301214161F0BD0000014000040040C3
:1043A00000080040000C00400004014000400140B3
:1043B000004401400048014000180040001C00403B
:1043C0000020004010B501F01F030121046A99404C
:1043D0008C430462016A9A401143016210BD0000DF
:1043E000F0B5026A22F001020262036A426884693F
:1043F000124E24F073050C682C4323F002058B68E1
:104400002B430D4DA84201D0B04205D123F008073F
:10441000CB683B4323F00403A84201D0B04205D14E
:104420004D6922F4407215438A692A4342608461CF
:10443000496841630362F0BD00000140000401408F
:10444000F0B5026A22F010020262026A43688469CF
:104450000D6824F4E64444EA05248D6822F0200225
:1044600042EA05120F4D104EA84201D0B04206D1CB
:10447000CF6822F0800242EA071222F04002A842EE
:1044800001D0B04207D14D6923F4406343EA85036C
:104490008D6943EA850343608461496881630262F0
:1044A000F0BD00000000014000040140F0B5026AC8
:1044B00022F480720262026A4368C46922F40072C4
:1044C00024F073050C68124E2C438D6842EA0522D5
:1044D0000E4DA84201D0B04206D1CF6822F400624E
:1044E00042EA072222F48062A84201D0B04207D1FA
:1044F0004D6923F4405343EA05138D6943EA0513DC
:104500004360C4614968C1630262F0BD00000140BC
:104510000004014030B5026A22F480520262046A4B
:104520004268C3690D6823F4E64343EA05238D68B6
:1045300024F4005444EA0534084DA84202D0084D42
:10454000A84204D14D6922F4804242EA85124260B9
:10455000C36149680164046230BD0000000001408D
:104560000004014070B500F075FC044D0024C5E95D
:10457000040400F06FFCC5E9060470BD7000002063
:1045800010B50448FEF726FABDE81040014800F0D7
:10459000BFB80000080B002010B50448FEF71AFA57
:1045A000BDE81040014800F0B3B800004C0B0020FB
:1045B00010B5806B0021C185C184FEF709FA10BDDA
:1045C00070B5846B2068406994F83D10C0F3C0104A
:1045D0000025212904D118B1E584204600F08AF88D
:1045E0002068406994F83E10C0F38010222904D15D
:1045F00018B1E585204600F056F8206C40F0100018
:1046000020642046FEF7E4F970BD10B50146806BCA
:1046100009680968C9052FD40021C18501680C31DA
:1046200051E8002F22F4807241E80023002BF5D1DD
:104630000168143151E8002F22F0010241E8002303
:10464000002BF5D10168143151E8002F22F040020F
:1046500041E80023002BF5D1202180F83E10016BAA
:10466000012909D101680C3151E8002F22F0100214
:1046700041E80023002BF5D1016B012902D0FEF7A0
:10468000A2FC10BD818DFEF76AF910BD10B5806BDC
:10469000016B012902D0FEF797FC10BD818D4908FE
:1046A000FEF75DF910BD01680C3151E8002F22F4CE
:1046B000907241E80023002BF5D10168143151E8D4
:1046C000002F22F0010241E80023002BF5D1016BFD
:1046D000012909D101680C3151E8002F22F01002A4
:1046E00041E80023002BF5D1202180F83E10002165
:1046F0000163704701680C3151E8002F22F0C002BD
:1047000041E80023002BF5D1202180F83D107047AF
:104710002DE9F84359490024064647F230558842AE
:1047200054D108680268920604D501684068009078
:10473000BDE8F8830268D206FAD5026840680090A6
:10474000886B006802684FF0240316034C4A066821
:1047500026F001060660886B17D406687068C0F101
:10476000240080B2108073608A6B1268136843F46F
:1047700000231360896B09680A6842F001020A602D
:1047800012281CD13F49404817E000684668C6F12E
:104790002406B6B216804360886B0068026822F473
:1047A00000220260886B0068016841F0010101602D
:1047B000122E04D134483349243000F0CDFD00F0EE
:1047C00049FB32492844C1E90004B1E73048864238
:1047D00013D100680168C943C906A9D401684068BB
:1047E00000902B48FEF7BCF82748483000F0D8F975
:1047F00025490D22483126483BE02648864226D1ED
:1048000000680168C943C90692D40168A04640689F
:1048100000902048FEF7A4F81B4F00245537385D60
:10482000FFF750F9641C802CF9D3174980225531C9
:104830003046FEF7B3FB144880215530FBF782FE6B
:1048400000F008FB144A2844C2E9000870E7134846
:104850008642BAD100680168C943C906B5D4016867
:10486000406800900D48FEF77BF8054904220B488C
:10487000891CBDE8F843FEF791BB0000900B0020B7
:1048800064000020980F0020AE0F00208000002060
:10489000080B00204C0B002088000020180C002082
:1048A00008B590F83E10222901D0022008BD826888
:1048B0004FF480539A4201D1016921B1816A9A4231
:1048C0001BD04AB10AE00268816A5268C2F308024A
:1048D0000A80816A891C08E0026972B10268526824
:1048E00002F07F020A70816A491C8162C18D491EF3
:1048F0000904090CC18503D019E002685268F1E788
:104900000168CA6822F02002CA600168CA6822F4FD
:104910008072CA6001684A6922F001024A6120215E
:1049200080F83E10016B012903D0FEF74CFB0020FC
:1049300008BD0021016301680C3151E8002F22F00D
:10494000100241E80023002BF5D101680A68D20665
:1049500002D50A6849680091818DFEF700F8E6E704
:1049600070B5044600680169E26821F440511143C2
:1049700001612169A068E269084361691143084344
:104980002168CA6849F20C639A430243CA602068EE
:104990004169A26921F440711143416131492068A4
:1049A000884202D03049884202D1FDF755FA01E031
:1049B000FDF742FAE2690023192164253226B2F597
:1049C000004F626828D0A0FB0101930F9200FBF713
:1049D000CBFC0146B0FBF5F06FF01802504301EB41
:1049E000800006EB0010B0FBF5F000F0F002B1FB28
:1049F000F5F002EB0012B1FBF5F06FF0180358432D
:104A000001EB800006EB0010B0FBF5F000F00F00AA
:104A100021681044886070BDA0FB010192185B41C1
:104A2000FBF7A2FC0146B0FBF5F00201B1FBF5F08B
:104A30006FF01803584301EB800006EBC000B0FB99
:104A4000F5F000F0F80002EB4002B1FBF5F058433E
:104A500001EB800006EBC000B0FBF5F000F00700B2
:104A6000D6E70000001001400014014038B5816213
:104A700082850025134604460564222084F83E0002
:104A8000A26B1C48D063A26B1B481064A26B1B482E
:104A9000D064A06B0A4605652168A06B091DFCF770
:104AA000F1FE206801684068009084F83C5020695D
:104AB00048B120680C3050E8001F41F4807140E894
:104AC0000012002AF5D12068143050E8001F41F090
:104AD000010140E80012002AF5D12068143050E8A6
:104AE000001F41F0400140E80012002AF5D10020EB
:104AF00038BD00000B4600088D460008C14500087F
:104B000010B50448FDF766FFBDE810400148FFF707
:104B1000FFBD0000900B00200148FDF75BBF0000C7
:104B2000D40B002010B50448FDF754FFBDE8104039
:104B30000148FFF7EDBD0000180C002010B5FFF78D
:104B4000F1F8FEF75FFA0C480068C16841F0100107
:104B5000C1600A480068C16841F01001C16008489E
:104B60000068C16841F01001C16006480068C16872
:104B700041F01001C16010BD900B0020080B002017
:104B80004C0B0020180C0020FEE700002DE9084027
:104B900000F0D4FE00900321684600F04BFDF7E7DB
:104BA00010B502782D49702A32D1027B6F2A2FD19D
:104BB000002283188C18521C5B78D2B22372042A0C
:104BC000F7D3002283188C185B79521C2371042AB6
:104BD000F8DB427A9FED221A00EE102AF8EE400A26
:104BE000C1ED0A0A827A00EE102AB8EE400A81ED81
:104BF0000B0A00EE810A81ED0C0AC07A81F83400BC
:104C000091ED010A81ED050A91ED020A81ED060A96
:104C100091ED061A91ED080AB4EEC01AF1EE10FA01
:104C200002DD81ED060A08E0D1ED090AB4EEE01AD2
:104C3000F1EE10FA01D2C1ED060AD1ED050AF4EE4B
:104C4000C00AF1EE10FA06DC91ED090AF4EEC00A92
:104C5000F1EE10FA01D281ED050A10BDE404002046
:104C60000000C842104990ED000A104BD1F8131013
:104C70009FED0F1A00EE901A70EE600A10EE902A67
:104C80009A4202DD30EE410A0AE000EE901A094A2B
:104C900070EE600A10EE901A914203D930EE010ACC
:104CA00080ED000A70470000A4000020000034439B
:104CB0000000B443000034C30907090E002804DBD8
:104CC00000F1E02080F80014704700F00F0000F1C0
:104CD000E02080F8141D7047B4EEC10AF1EE10FA1E
:104CE00006DDB4EEE00AF1EE10FA01D29FED010A02
:104CF0007047000000000000F0B50388002541F275
:104D000021070CE04C5D002683EA04235C001B04B1
:104D100000D57C40761C2346082EF7D36D1C9542A7
:104D2000F0D30380F0BD0000024B0ECB80E80E00F4
:104D300000207047680F00200349D1F80A20026064
:104D4000C98981800020704734000020B0F900003C
:104D5000DFED240A00EE100A2148B8EEC01A80EDFB
:104D6000001A90ED010AB4EEC01AF1EE10FA02D268
:104D700071EE200A01E071EE600A70EEC00A31EEB9
:104D8000400AF5EEC00AF1EE10FA02DDF0EE601A0C
:104D900001E0F1EE601AB5EEC00AF1EE10FA02DDA4
:104DA000B0EE402A01E0B1EE402AF4EEC21AF1EE74
:104DB00010FA01D2B0EE600AD0ED020ADFED0A1A55
:104DC00030EE800A80ED020AC0EE210A9FED070A4C
:104DD00020EE800A80ED030A80ED011A7047000082
:104DE000CC0E00200000004600F8FF450000B44350
:104DF000FCF7A6FEFFF7E6F9FEF722FBFEF790FAB6
:104E0000FEF778FBFEF744FAFEF766FAFEF734FC8D
:104E1000FEF716FCFEF76EFCFEF7F6FBFEF74EFC07
:104E2000FEF7B8FBFBF7CDFDFEF7B1FCFFF79AFBF1
:104E300004210448FDF7BEFCFEF7B8FA00F033F891
:104E4000FEE70000600A002001460020842900D00F
:104E5000C81C704738B54FF0E0242069FCF762FEAB
:104E60006569A1696D1C691A00912169C1F300414E
:104E700081B1FCF757FEA169691A00914FF47A726B
:104E80005143B1FBF5F100EB4002C2EBC01001EB66
:104E9000C00038BD0099F1E710B500B9012000F05D
:104EA000A3FB002010BD10B500F00AFC002010BDCF
:104EB0007FB50D4604464169B0F9080081B1A1698A
:104EC00071B1FFF7C1FFD4E905128DE80700D4E9FD
:104ED00000102B46226900F006FD039004B070BD5F
:104EE000FFF7B2FF03A9CDE90001208A2B4682B269
:104EF000D4E9001000F0CAFC012801D00020EDE741
:104F00000398EBE72DE9F041184C0F460546E6689B
:104F10002068001D00F0A1FA38B9206890F82C1024
:104F200001208840216981432161681C07D137B184
:104F30002168BDE8F0410E48091D00F0D1BA206893
:104F40003544B5424560216805D2A06BBDE8F0410B
:104F5000091D00F0ADBA606B091D00F0A9FAA06A46
:104F6000854200D2A562BDE8F0810000080700205C
:104F7000601100202DE9F041054600F0BDFA2E4CED
:104F8000A068401CA06020682C4F10B1606940B33D
:104F90002DE02560A068012829D1002606EB8600B7
:104FA00007EB800000F076FA761C072EF6D3234834
:104FB0008C3000F06FFA2148A03000F06BFA1F48E7
:104FC000B43000F067FA1D48C83000F063FA1B489F
:104FD000DC3000F05FFA19488C3060631430A06355
:104FE00005E02068E96AC06A884200D82560606AE6
:104FF000401C6062E96A01202269884010432061F8
:1050000001EB810007EB8000291D00F069FA00F038
:1050100093FA606900280CD02068E96AC06A884267
:1050200007D207494FF080500860BFF34F8FBFF39E
:105030006F8FBDE8F0810000080700208410002079
:1050400004ED00E010B5044690F8510058B1012875
:105050000CD002280FD0502080F31188BFF34F8F5F
:10506000BFF36F8FFEE7206B00F07AFA2046BDE8B1
:10507000104000F075BA10BD10484FF4705142074F
:1050800006D0C01D0D4920F00700411AC1F570512E
:105090000B4A00230144C2E900030839183A21F001
:1050A000070111604B600B600B1AC0E9001393609D
:1050B0004FF00040536050617047000074110020B1
:1050C0005C070020144E154CA6F1C8074FF080581D
:1050D000DFF84C9012E000BF00F00EFAF068C568EF
:1050E000281D00F0BAF9A068401EA0606068401E4C
:1050F000606000F021FA2846FFF7A4FF60680028EE
:10510000EAD138680128F9D9C9F80080BFF34F8F78
:10511000BFF36F8FF2E700004C110020080700205A
:1051200004ED00E02DE9F0479A46DDE90984814667
:105130006FF00303206B03EB82021044089E20F003
:105140000707780707D0502080F31188BFF34F8FEF
:10515000BFF36F8FFEE7002561B1002023180A5CC2
:1051600083F834200A5C12B1401C1028F6D384F86E
:10517000435001E084F83450072E00D30626E6623F
:10518000C4E91165201D00F090F904F1180000F049
:105190008CF92461C6F107006462A061E56484F8BB
:1051A000505052464946384600F0C0F82060B8F1E9
:1051B000000F01D0C8F80040BDE8F08730B51149B4
:1051C00000E011460A688242FBD34B685C188442B7
:1051D00003D1406818444860084643681C1894424C
:1051E00009D1084C183C2468A24209D052681A44DC
:1051F00042600A6812680260814200D0086030BDD7
:105200000460F9E75C0700200648416B096829B192
:10521000416BC968C9684968816270474FF0FF31C6
:10522000FAE700000807002008484068401C4FF0DB
:10523000500080F3118804D0BFF34F8FBFF36F8FFE
:10524000FEE7BFF34F8FBFF36F8FFEE764070020C9
:105250002DE9F0410546002700F068FA324E30682B
:1052600008B9FFF709FF706905424ED1C5B308358B
:1052700068070ED005F00700C0F108000544680774
:1052800007D0502080F31188BFF34F8FBFF36F8F8B
:10529000FEE72DB37068854237D8234818300146A1
:1052A0000C6801E020460C466168A94202D22168E0
:1052B0000029F7D131688C4227D007682168016046
:1052C00060680837411B10290FD96019420708D0C0
:1052D000502080F31188BFF34F8FBFF36F8FFEE72D
:1052E00013E041606560FFF769FF61687068401A0C
:1052F0007060B268904200D2B060706901430020D3
:10530000C4E90001F068401CF06000F083FB7807FE
:1053100007D0502080F31188BFF34F8FBFF36F8FFA
:10532000FEE73846BDE8F0814407002010B5031FB2
:105330004FF080741C601B1F21F001011960191FC0
:10534000044B0B6014390A60091F6FF002024438E5
:105350000A6010BD29520008F0B500287CD0002951
:105360007AD00278437842EA0322C2F30A050D801C
:1053700042788378D20842EA4312C2F30A034B8090
:105380008278C478920942EA8402047942EA84224B
:10539000C2F30A028A8004794679640844EAC61492
:1053A000C4F30A04CC804679C6F301160E7246791E
:1053B000B6094E728679C77946EA072637B28F81D9
:1053C000067A90F809C046EA0C2636B2CE8190F8EB
:1053D0000AC090F80BE04CEA0E2CA1F810C090F82F
:1053E0000CC081F812C090F80DC081F813C090F87D
:1053F0000EC090F80FE04CEA0E2CA1F814C090F803
:1054000010C0407CA5F580650D80A3F580634B80BE
:10541000A2F580624CEA00208A80A4F58064CC80EA
:10542000A0F58060488100200835102D00D8088044
:105430000833102B00D848800832102A00D8888002
:105440000834102C00D8C8800837102F00D8888165
:105450000836102E00D8C881F0BDD0E901320169AC
:105460009A60D0E901235A604A68824201D1826879
:105470004A60002202610868401E086008687047A0
:10548000034B036003F154000860802010607047F4
:105490007407002000F108014FF0FF32C0E901124B
:1054A000C160016100210160704700210161704706
:1054B00030B50B685A1C02D000F1080202E0026904
:1054C00004E02246546825689D42FAD953684B602F
:1054D00099608A60516008610168491C016030BDB3
:1054E00042684A6093688B60936859609160086174
:1054F0000168491C01607047502080F31188BFF398
:105500004F8FBFF36F8F0A494868401C48600128DD
:105510000CD10848006810F0FF0F07D0502080F32E
:105520001188BFF34F8FBFF36F8FFEE77047000006
:105530006407002004ED00E00849486828B1401ED7
:10554000486001D180F311887047502080F31188A2
:10555000BFF34F8FBFF36F8FFEE70000640700209B
:1055600070B500282AD0164DA0F10804606869695A
:10557000084207D1502080F31188BFF34F8FBFF34B
:105580006F8FFEE722683AB1502080F31188BFF395
:105590004F8FBFF36F8FFEE78843606000F0C6F85F
:1055A00060686968084468602046FFF707FE28695C
:1055B000401C2861BDE8704000F02CBA70BD0000AE
:1055C000440700204FF0E02000210161816105497E
:1055D0004FF47A720968B1FBF2F1491E416107216B
:1055E000016170477007002010B5020014D00F4809
:1055F000006B38B1502080F31188BFF34F8FBFF399
:105600006F8FFEE700F092F800211046FFF77AFC5A
:1056100000F000FA002807D105494FF080500860DB
:10562000BFF34F8FBFF36F8F10BD0000080700203E
:1056300004ED00E070B50D4604000BD095B11E4A94
:10564000106BB8B1502080F31188BFF34F8FBFF3B8
:105650006F8FFEE7502080F31188BFF34F8FBFF3A9
:105660006F8FFEE7502080F31188BFF34F8FBFF399
:105670006F8FFEE700F05AF8D268236859199342F9
:1056800004D98B420AD9914202D807E08B42FAD959
:10569000881A21600021FFF735FC00E0216000F04E
:1056A000B9F9002807D105494FF080500860BFF3D1
:1056B0004F8FBFF36F8F70BD0807002004ED00E02F
:1056C00010B586B00024039405AA04A903A8049485
:1056D000FFF7D6FEDDE903010094CDE901100023B8
:1056E0000EA11048059A00F0FEF80F490028C86284
:1056F00011D0502080F31188BFF34F8FBFF36F8F0D
:105700004FF0FF30886201204861CC6006B0BDE8F0
:10571000104000F041B806B010BD000049444C45AF
:1057200000000000C5500008080700200248016B77
:10573000491C016370470000080700201448016BF2
:1057400011B10121C16170470021C1610169B1FA44
:1057500081F1C1F11F0101EB81020E4951F82230A4
:105760006BB101EB820101F108034A6852684A609B
:105770009A4201D152684A60D16801607047502056
:1057800080F31188BFF34F8FBFF36F8FFEE70000E8
:1057900008070020841000201CB537480168374AEC
:1057A000914207D1502080F31188BFF34F8FBFF390
:1057B0006F8FFEE700683149491E884207D15020AB
:1057C00080F31188BFF34F8FBFF36F8FFEE72C4933
:1057D00008780190FF20087008788DF800009DF887
:1057E00000009DF8002000F0F000904207D050200B
:1057F00080F31188BFF34F8FBFF36F8FFEE79DF8E3
:105800000000204C00F0500020700720A06005E050
:105810009DF8002052008DF80020401E9DF80020C9
:105820001206F5D4A060032807D0502080F3118819
:10583000BFF34F8FBFF36F8FFEE74FF44070A06050
:10584000019808700C482030016841F47001016033
:10585000016841F070410160FFF7B4FE0020606014
:10586000FAF726FD0848016841F040410160FAF767
:105870000BFD00201CBD000000ED00E071C20F41D7
:1058800000E400E06407002034EF00E02DE9FF5F52
:105890008346DDE90E87994616468A469000FFF753
:1058A000D7FC05001CD05420FFF7D2FC040014D014
:1058B0000020256384F85100CDE90240CDE900873E
:1058C0004B46324651465846FFF72CFC2046FFF720
:1058D00051FB012004B0BDE8F09F2846FFF740FED1
:1058E0004FF0FF30F6E7F0B585B0DDE90B640A9DB7
:1058F000A6B1DCB1542700972663022684F85160D4
:10590000002604AFCDE90246CDE90057FFF70AFCB7
:105910002046FFF72FFB049805B0F0BD502080F320
:105920001188BFF34F8FBFF36F8FFEE7502080F3D6
:105930001188BFF34F8FBFF36F8FFEE70148C06838
:1059400070470000080700202DE9F0412F4C002689
:10595000206B28B1A069401CA0613046BDE8F081F1
:10596000E5686D1CE56013D1606B006838B15020AC
:1059700080F31188BFF34F8FBFF36F8FFEE7606B2B
:10598000A16B6163A063206A401C2062FFF73CFCAE
:10599000A06ADFF87C80854209D3606B0068A0B103
:1059A000606BC068C7687868854211D2A0622068C1
:1059B000C06A00EB800158F82100012800D90126B7
:1059C000E0690028C9D00126C7E74FF0FF30EDE7B6
:1059D000381DFFF742FDB86A18B107F11800FFF74C
:1059E0003CFDF96A0120226988401043206101EBE7
:1059F000810108EB8100391DFFF772FDF86A21680B
:105A0000C96A8842C9D30126C7E7000008070020F9
:105A1000841000202DE9F0472C4D00242746286BE8
:105A200038B1FFF769FD286B401E2863286B40B131
:105A300046E0502080F31188BFF34F8FBFF36F8F84
:105A4000FEE7A968224E0120D1B3A6F1B409804631
:105A50003068E8B1F068C46804F11800FFF7FDFC95
:105A6000201DFFF7FAFCE06A2A6908FA00F11143E9
:105A7000296100EB800109EB8100211DFFF730FD5A
:105A8000E06A2968C96A8842E2D3C5F81C80DFE76A
:105A90000CB1FFF7B9FBAC6944B14646FFF754FFC0
:105AA00000B1EE61641EF9D10020A861E86938B147
:105AB0000849012738070860BFF34F8FBFF36F8F86
:105AC000FFF73AFD3846BDE8F087000008070020E0
:105AD0003811002004ED00E04FF04070E1EE100AB4
