:020000040800F2
:100000004872002029030008D1430008613B000822
:10001000BD43000805070008457000080000000007
:10002000000000000000000000000000690200085D
:100030006D0A000800000000C5020008614B0008BE
:100040004303000843030008430300084303000878
:100050004303000843030008430300084303000868
:100060004303000843030008430300087509000820
:10007000810900088D090008430300089909000858
:10008000A5090008430300084303000843030008D0
:100090003507000843030008430300084303000832
:1000A0004303000843030008430300084303000818
:1000B0004303000843030008430300084303000808
:1000C00043030008430300084303000843030008F8
:1000D0004303000843030008115500082955000890
:1000E00043030008430300084303000843030008D8
:1000F00043030008A94C0008430300084303000819
:1001000043030008430300084303000843030008B7
:10011000494F0008614F00084303000843030008EB
:1001200043030008B1090008BD09000843030008A3
:100130004303000800000000000000004303000823
:100140006D07000843030008430300084303000849
:100150004303000843030008430300083555000823
:100160004303000843030008430300084303000857
:1001700043030008D5430008000000000000000011
:10018000430300084303000800F002F800F05CF8A5
:100190000AA090E8000C82448344AAF10107DA45E2
:1001A00001D100F051F8AFF2090EBAE80F0013F0D8
:1001B000010F18BFFB1A43F00103184780AA000083
:1001C000A0AA00000A444FF0000C10F8013B13F005
:1001D000070408BF10F8014B1D1108BF10F8015BA0
:1001E000641E05D010F8016B641E01F8016BF9D193
:1001F00013F0080F1EBF10F8014BAD1C0C1B09D1EA
:100200006D1E58BF01F801CBFAD505E014F8016B5B
:1002100001F8016B6D1EF9D59142D6D370470000ED
:100220000023002400250026103A28BF78C1FBD8FF
:10023000520728BF30C148BF0B6070471FB50AF096
:10024000DCF91FBD10B510BD00F0DCF91146FFF759
:10025000F5FF08F08BFB00F0FAF903B4FFF7F2FFAB
:1002600003BC00F0FDF900002C4B19680868B0E8E9
:10027000F04F80F30988BFF36F8F4FF0000080F3D9
:10028000118870470000000008480068006880F38B
:1002900008884FF0000080F3148862B661B6BFF39F
:1002A0004F8FBFF36F8F00DF00BF00BF08ED00E08E
:1002B000DFF80C00016841F470010160704700BF75
:1002C00088ED00E0EFF30980BFF36F8F134B1A68DE
:1002D0001EF0100F08BF20ED108A20E9F04F1060CB
:1002E00009B44FF0500080F31188BFF34F8FBFF374
:1002F0006F8F09F031F94FF0000080F3118809BCCD
:1003000019680868B0E8F04F1EF0100F08BFB0EC95
:10031000108A80F30988BFF36F8F70470C070020A5
:10032000EFF30580704700000948804709480047FF
:10033000FEE7FEE7FEE7FEE7FEE7FEE7FEE7FEE795
:10034000FEE7FEE704480549054A064B70470000F2
:10035000254C000889010008486C002048720020E4
:10036000486E0020486E002053EA020C00F06980BD
:100370002DE9F04B4FF00006002B1FBFB3FA83F5B9
:1003800003FA05F424FA05F65E4012BF1643B2FAEA
:1003900082F502FA05F4C5F120051EBF22FA05FC1C
:1003A00044EA0C04203556EA044C4FEA144418BFC2
:1003B000641C4FF000084FF00009904271EB030CF1
:1003C00039D3002919BFB1FA81F701FA07F6B0FA5B
:1003D00080F700FA07F6C7F120071EBF20FA07FCD6
:1003E00046EA0C062037B6FBF4FCA7EB0507103FE6
:1003F00007F01F0BCBF120060CFA0BFB2CFA06F6CC
:1004000044BFB3460026202FA4BF5E464FF0000B2A
:100410005BEA060C08BF4FF0010B19EB0B09ABFBB5
:10042000027C48EB0608C01B06FB02CC0BFB03CC8E
:1004300071EB0C01C1E70B46024641464846BDE858
:10044000F08B13B54FF000004FF00001AFF30080C8
:10045000BDE81C407047032A40F2308010F0030CC6
:1004600000F0158011F8013BBCF1020F624498BF07
:1004700011F801CB00F8013B38BF11F8013BA2F1A4
:10048000040298BF00F801CB38BF00F8013B11F01F
:10049000030300F02580083AC0F0088051F8043BBF
:1004A000083A51F804CBA0E80810F5E7121D5CBF2C
:1004B00051F8043B40F8043BAFF30080D20724BF5F
:1004C00011F8013B11F801CB48BF11F8012B24BFF3
:1004D00000F8013B00F801CB48BF00F8012B704742
:1004E00010B5203AC0F00B80B1E81850203AA0E8CF
:1004F0001850B1E81850A0E81850BFF4F5AF5FEA03
:10050000027C24BFB1E81850A0E8185044BF18C9B5
:1005100018C0BDE810405FEA827C24BF51F8043B5C
:1005200040F8043B08BF7047D20728BF31F8023BB0
:1005300048BF11F8012B28BF20F8023B48BF00F844
:10054000012B70474FF000020429C0F0128010F018
:10055000030C00F01B80CCF1040CBCF1020F18BF9F
:1005600000F8012BA8BF20F8022BA1EB0C0100F032
:100570000DB85FEAC17C24BF00F8012B00F8012B05
:1005800048BF00F8012B70474FF0000200B513463A
:1005900094469646203922BFA0E80C50A0E80C50A3
:1005A000B1F12001BFF4F7AF090728BFA0E80C5054
:1005B00048BF0CC05DF804EB890028BF40F8042B4D
:1005C00008BF704748BF20F8022B11F0804F18BFBA
:1005D00000F8012B704770477047704710B500F066
:1005E00009F8006810BD10B5044600F003F8046077
:1005F00010BD000000487047E46B002000487047C1
:10060000E46B00207546FFF7F9FFAE46050069462A
:10061000534620F00700854618B020B5FFF792FE3C
:10062000BDE820404FF000064FF000074FF00008F3
:100630004FF0000B21F00701AC46ACE8C009ACE874
:10064000C009ACE8C009ACE8C0098D46704710B5D8
:100650000446AFF300802046BDE81040FFF7FDBD23
:1006600001491820ABBEFEE72600020070470000DB
:10067000164801219FED170A41701549D1ED010A75
:1006800060EE801ADFED140A81EEA01A11EE102A36
:1006900040F8022F91ED001A61EE001A81EEA01AC7
:1006A00011EE102A426091ED021A21EE001A81EE3D
:1006B000200A10EE101A8160D0F81F10C160D0F827
:1006C00023100161D0F827104161704714120020F7
:1006D000F0100020DB0F49400000344330B50C46D9
:1006E00005000CD0022C0AD90548A11E0288284614
:1006F00000F068FA291901F8020D000A487030BDAF
:100700001C050020FEE7000000B58BB069460848D4
:1007100000F03EF86946064800F0FAFB0221044862
:1007200000F07CFB024800F051FF0BB000BD000060
:10073000C00A0020014800F0ECBC0000C00A002004
:1007400000B58BB06946084800F022F869460648B3
:1007500000F0DEFB0221044800F060FB024800F0DC
:1007600035FF0BB000BD0000E80A0020014800F092
:10077000D0BC0000E80A00200A8852BA02804A88E9
:1007800052BA42808A8852BA8280897981717047D0
:1007900000220123C1E906230A604A608A60CA6018
:1007A0004A610A610E22C1E908320068034B98428F
:1007B00003D0034B984200D14A6170470064004067
:1007C0000068004070B5174C40F267552560002561
:1007D000A560E56008252561134C050A2570607049
:1007E000080AA070E170100A20716271180AA071E5
:1007F000E371012322460B490C4800F021FB00283D
:100800000FD0022322460749084800F019FB0028B0
:1008100007D02246BDE8704004230249034800F097
:100820000FBB70BD201000202C000020E80A002023
:1008300070B5154C4FF4A46525600025A560E560F2
:1008400006252561114C20706170100AA070E270BD
:10085000180A20716371012322460B490C4800F0ED
:10086000EFFA00280FD0022322460749084800F07B
:10087000E7FA002807D02246BDE870400423024969
:10088000034800F0DDBA70BD201000202C000020CD
:10089000E80A002008B50B4A40F2FF13136000235A
:1008A0009360D36008231361074A030A9370D070E2
:1008B000080A107151716B460249044800F0C0FAF1
:1008C00008BD0000F00F00201C000020C00A00201E
:1008D000134910B54FF4FF720A6000228A60CA60A3
:1008E00008220A610F49020A01230A7048700A4669
:1008F0000B490D4800F0A4FA00280FD00223094A42
:100900000749094800F09CFA002807D0BDE81040CC
:100910000423044A0249044800F092BA10BD0000C2
:10092000F00F00201C000020E80A00200020704783
:100930000020704710B500220449054805F014F85E
:100940000449034805F003F8002010BDE05C0020D6
:1009500004500020E054002010B50146034804F084
:10096000F6FF024804F0CCFF002010BD0450002028
:1009700000207047014800F0B7BE0000280E00209C
:10098000014800F0B1BE0000E80E0020014800F070
:10099000ABBE0000C80D0020014800F0A5BE00005D
:1009A000680D0020014800F09FBE0000880E002066
:1009B000014800F099BE0000A00B0020014800F0A3
:1009C00093BE0000480F002001681823CAB2103AF5
:1009D000B2FBF3F2054B6FF30901032A9B5CC3657D
:1009E00000D9091D8165084670470000B8A90008B4
:1009F00010B5014600208B698A6A4FF0C07453B16C
:100A0000B3F5005F15D072B1012A0CD0022A0AD0CA
:100A1000032A09D104E01AB1012A06D0022A03D11F
:100A2000C96AC90100D5012010BDC96AA142FAD026
:100A300010BD002AF7D0012AF2D0022AF3D0032AEF
:100A4000F3D010BD30B50468256825F480252560F5
:100A5000046863608368402B036803D09960006872
:100A6000C26030BD9A600068C16030BD704710B58B
:100A7000FFF74AFEFFF764FEBDE8104004F066BDD4
:100A800072B6FEE7074800B50421017180F8CC106A
:100A9000283003F085FC03485DF804EBF03003F0E8
:100AA0007FBC0000800200202DE9084008F054FEC1
:100AB000009000F08FF90321684608F0C9FCF5E7C3
:100AC000DFED150A9FED151AC0ED130A80ED1B1A14
:100AD000C0ED1C0A9FED120A80ED1A1ADFED111A03
:100AE00080ED190AC0ED271AC0ED300ADFED0E0ABD
:100AF00000F1B40181EC030ADFED0C0A80ED320A4B
:100B0000C0ED330A80ED340A80ED350AC0ED360AB7
:100B100080ED370A70470000005043470050C3463D
:100B20000000000000803B4600204B466F12833AD5
:100B3000DFED150A9FED151AC0ED130A80ED1B1AA3
:100B4000C0ED1C0A9FED120A80ED1A1ADFED111A92
:100B500080ED190AC0ED271AC0ED300ADFED0E0A4C
:100B600000F1B40181EC030ADFED0C0A80ED320ADA
:100B7000C0ED330A80ED340A80ED350AC0ED360A47
:100B800080ED370A70470000005043470050C346CD
:100B90000000000000803B4600204B466F12833A65
:100BA000074800B5012100F8041F022180F8E01079
:100BB000FFF7BEFF02485DF804EBE430FFF780BFAB
:100BC000A400002010B558B1084C491E0BD310F8F2
:100BD000013B5340DBB234F8133083EA1222F4E7CE
:100BE0004FF6FF7010BD104610BD0000B8A70008FA
:100BF00010B5104800F036F8BDEEC00A0D4C10EEEE
:100C0000100A0C3C208004F1EC0000F02BF8BDEE43
:100C1000C00A10EE100A6080B4F90000FFF758FE19
:100C20000549B4F90200B1F90010BDE81040FFF722
:100C300031BE0000A80000206E020020074810B559
:100C4000074982780A70C07881F8C40100F0A6F8DC
:100C500000F01EF8BDE8104002F092BF78000020BE
:100C6000A400002070B5044600F12405061DD0ED57
:100C7000070A90ED080A743003F003FD86ED050ABB
:100C8000D4ED050A2846BDE8704003F0FABC000028
:100C900010B5044800F016F80248BDE81040E030F6
:100CA00000F010B8A800002010B5054803F08AF83D
:100CB0000348E03003F038F8BDE81040FFF798BF74
:100CC000A800002070B501782A4C00F1240500F13D
:100CD0007406012902D002294BD123E095F8A00027
:100CE000012813D0022824496268284606D03031F2
:100CF000FFF7B1FB21493046626811E05031FFF740
:100D0000AAFB1E4930462031626809E01A4928468C
:100D100040316268FFF79FFB184930461031626826
:100D2000FFF799FB95F8A000012814D0022812497A
:100D30006268284607D06031FFF78DFB0F493046C7
:100D40003031626811E08031FFF785FB0B49304696
:100D50005031626809E00849284670316268FFF73F
:100D60007AFB0649626840313046BDE87040FFF7C3
:100D700072BB70BD900000201E0500203E060020C2
:100D800010B5054803F03AFE0348E03003F004FED6
:100D9000BDE81040FFF72CBFA80000200448014622
:100DA00090F8C42180F8C82081F8A821704700007D
:100DB000A400002010B5064C002020806080FFF7C2
:100DC00087FDB4F90200BDE810400021FFF762BDC5
:100DD0009800002010B5FFF731FF0E48007A012877
:100DE0000FD0022811D0032813D10B4890F8C4115A
:100DF00014380278914200D00170BDE81040FFF72E
:100E0000D9BFBDE81040FFF7BBBFBDE81040FFF7FA
:100E10004BBF10BD04110020A400002090F820203A
:100E2000012A07D0022A05D0416A41F4802141629B
:100E300001207047006842690A4342610020704700
:100E4000F0B590F820500468A468012D05D0022D5B
:100E500003D0416A41F4802157E014F0406F01D182
:100E6000E5004FD5C4F301640125A5401D608D68E0
:100E70004FF4C0739DB1CE6835434E6845EAC60550
:100E8000066803EB0417F5514FF4C275076805EBCC
:100E900004150E697E51097D012905D009E00E88EF
:100EA000CD6845EA4655EBE701684E5946F4807631
:100EB0004E511179D579567941EA056195792D041C
:100EC00045EA062529434FF4C676056806EB041665
:100ED000A9511178D57841EA0561957852782D04A9
:100EE00045EA022211434FF4C475026805EB04156C
:100EF0005151006803EB0411425842F00102425084
:100F00000020F0BD416A41F4001141620120F0BDB2
:100F100010B590F82020012A07D0022A05D0416A96
:100F200041F480214162012010BD3B48D0F80022ED
:100F300042F00102C0F80022D0F8002222F47C52D4
:100F4000C0F80022D0F800224B6A42EA0322C0F81F
:100F500000220A7D02F01F0301229A40D0F81C32C1
:100F60009343C0F81C32CB69B3B9D0F80C32934329
:100F7000C0F80C328C894B6864F31F434C6900EB5A
:100F8000C404C4F840320C890B6864F31F434C69F5
:100F900000EBC404C4F84432CB69012B16D1D0F85D
:100FA0000C321343C0F80C320C884B6864F31F43B7
:100FB0004C6900EBC404C4F840320C89CB6864F37C
:100FC0001F434C6900EBC404C4F844328B69002B06
:100FD000D0F804320ED01343C0F804320B69002B52
:100FE000D0F8143208D01343C0F81432096A01292A
:100FF00004D008E09343EFE79343F5E7D0F81C12E1
:101000001143C0F81C12D0F8001221F00101C0F801
:101010000012002010BD000000640040704770B551
:1010200090F82040012C05D0022C03D0416A41F4F5
:10103000802128E0046809B32469A40720D04FF474
:10104000D874056804EB01142D5915F0040595605A
:1010500005682D591AD0ED08556005682C5904F023
:101060000204D4604FF4DA74056804EB01142E59BD
:1010700006F00F06082E0CD308250DE0E468DCE727
:10108000416A41F400114162012070BD6D0D15608F
:10109000E3E72D5905F00F05156105682D59C5F3D6
:1010A0000725956105682C59240C54614FF4DC72B6
:1010B000046802EB0112A4581C700468A458240AA6
:1010C0005C700468A458240C9C700468A258120E2A
:1010D000DA704FF4DE72046802EB0112A4581C713E
:1010E0000468A458240A5C710468A458240C9C71F8
:1010F0000468A258120EDA71006829B1016941F042
:1011000020010161002070BDC16841F02001C16073
:10111000F8E72DE9F05F0546006800244669D0F83D
:1011200004908768D0F80CB0D0F810A0D0F81880E0
:10113000F10748D0F90714D001218160B80703D521
:10114000284600F070FA0CE0780702D54FF40064EE
:1011500007E0380702D54FF4805402E0284600F03B
:1011600061FAF80516D529684FF480708860B805D3
:1011700003D5284600F059FA0CE0780502D544F46E
:10118000005407E0380502D544F4804402E02846C4
:1011900000F04AFAF80316D529684FF480308860C9
:1011A000B80303D5284600F042FA0CE0780302D5D4
:1011B00044F4004407E0380302D544F4803402E0EC
:1011C000284600F033FA300707D55FEACB6004D534
:1011D0002968102044F40074C86070074FF00807B5
:1011E00007D55FEA0B7004D52868C760284600F071
:1011F0009BF9B00706D52868C068800702D028464A
:1012000000F094F9700607D55FEACA6004D5296832
:10121000102044F480640861B00607D55FEA0A70C4
:1012200004D528680761284600F0CCF9F00606D5F9
:1012300028680069800702D0284600F0C4F9B0038E
:1012400008D55FEAC96005D529681020486028469E
:1012500000F0BAF9F00307D55FEA097004D52868F1
:101260004760284600F0E4F9300446D55FEA49704B
:1012700040D5F00504D55FEAC87001D044F0010400
:10128000B00504D55FEA887001D544F0020470050A
:1012900004D55FEA487001D544F00404300529D52F
:1012A00018F0700F26D008F07000402815D006DC2A
:1012B000102809D020280AD0302816D10AE050285A
:1012C0000ED0602811D10EE044F008040DE044F087
:1012D00010040AE044F0200407E044F0400404E075
:1012E00044F0800401E044F480742868816921F0AE
:1012F00070018161296804204860002C05D0686A6B
:10130000204368622846FFF789FEBDE8F09F70B56C
:10131000040003D094F8200010B104E0012070BD57
:10132000204600F081F82068016841F00101016069
:1013300000F05CFC0546052604E000F057FC401B6D
:101340000A2811D820684068C007F6D020680168D4
:1013500021F00201016000F049FC05460BE000F0BD
:1013600045FC401B0A2806D9606A40F400306062E0
:1013700084F82060D2E7206840688007EFD4207EA0
:101380000128206801683DD021F080010160607E65
:1013900001282068016838D021F040010160A07E5A
:1013A00001282068016833D021F020010160E07E2F
:1013B0000128206801682ED041F010010160207FD3
:1013C00001282068016829D021F008010160607FB0
:1013D00001282068016824D021F004010160D4E9CB
:1013E00002010843D4E90412114308436168491E0D
:1013F00008432168C86100206062012084F8200051
:10140000002070BD41F08001C0E741F04001C5E718
:1014100041F02001CAE721F01001CFE741F00801B7
:10142000D4E741F00401D9E7F0B587B004461421B0
:101430006846FFF7A9F8374B3748DFF8D4E019685A
:10144000D4F800C0344A02250326092710300024AE
:10145000491CF44524D11960012907D1016841F0E4
:1014600000710160006800F000700590106840F0A5
:1014700001001060106802AB00F0010005904FF40D
:10148000C050CDE9000583E8D0006946234800F04C
:10149000AFFA00220521142000F046FC142033E0AE
:1014A000DFF87CE0F44531D1D0F800C04CF0806C1E
:1014B000C0F800C0D0F800C001290CF0806CCDF855
:1014C00014C0196007D1016841F000710160006823
:1014D00000F000700590106840F002001060106885
:1014E00002AB00F0020005904FF44050CDE900053A
:1014F00083E8D00069460B4800F07AFA0022052103
:10150000402000F011FC402000F000FC07B0F0BDCE
:101510000064004018000020303802400000024003
:1015200000680040000402407047000010B5044607
:1015300000681D498AB088421FD16B4602AA00216B
:101540001A48FFF76CFD0298A0F50070013809D029
:1015500001280AD0052802D006280ED109E06946E4
:10156000134808E06946134805E012486946C83048
:1015700001E069461048FFF7FFF8104920688842EB
:101580000FD16B4602AA00210D48FFF748FD0298D3
:10159000A0F50070053804D105486946E038FFF72A
:1015A000EBF80AB010BD000000640040C00A002043
:1015B0008C010020880200201804002000680040F0
:1015C000E80A0020704770477047000070B5044675
:1015D00090F82000012804D0606A40F40020606286
:1015E00018E0022084F820002068016821F0010141
:1015F000016000F0FBFA05460EE000BF00F0F6FACD
:10160000401B0A2808D9606A40F400306062052057
:1016100084F82000012070BD20684068C007EDD12B
:10162000606270BD70477047704770477047704781
:1016300070472DE9F0410446876D00F0D7FA064661
:1016400094F835000025022806D08020606584F8D3
:1016500034500120BDE8F0812068016821F01601B6
:1016600001602068416921F080014161206C08B966
:10167000A06C20B12068016821F008010160206899
:10168000016821F0010101600CE000F0AFFA801B5D
:10169000052807D920206065032084F8350084F8E8
:1016A0003450D7E720680068C007EED194F85C108A
:1016B0003F208840B860012084F8350084F8345019
:1016C0000020C7E790F83510022903D0802141653A
:1016D00001207047052180F835100068016821F06D
:1016E00001010160002070472DE9F84304464FF0E6
:1016F0000009CDF8009063484FF41651A56D0068BD
:10170000B0FBF1F72E6894F85C10082000FA01F1A4
:1017100031420FD021680A6852070BD50A6822F0BF
:1017200004020A6094F85C108840A860606D40F084
:101730000100606594F85C104FF0010808FA01F0B0
:10174000304208D021684969090604D5A860606D57
:1017500040F00200606594F85C100420884030423C
:1017600008D021680968890704D5A860606D40F039
:101770000400606594F85C1010208840304218D056
:1017800021680968090714D5A86020680168490321
:1017900004D50068000308D5A16C07E00168C905FD
:1017A00003D4016821F008010160216C09B12046D1
:1017B000884794F85C1020208840304231D021685E
:1017C0000968C9062DD5A86094F835000528206859
:1017D000016806D0490347D5006800031DD4616C39
:1017E0001CE021F0160101602068416921F08001B0
:1017F0004161206C08B9A06C20B12068016821F01B
:101800000801016094F85C103F208840A86084F8CB
:10181000358084F83490216D1FE0E16B09B12046DA
:101820008847606D00282BD0606DC00714D005205C
:1018300084F835002068016821F0010101600098FA
:10184000401C0090B84203D820680068C007F6D159
:1018500084F8358084F83490E16C002910D001B010
:101860002046BDE8F04308470168C905D5D40168A2
:1018700021F01001016084F8358084F83490CCE7C1
:10188000BDE8F883740700202DE9F041044600F01C
:10189000ADF906465CB1022084F83500002584F8D5
:1018A00034502068016821F0010101600DE0012041
:1018B000BDE8F08100F09AF9801B052805D92020A9
:1018C0006065032084F83500F2E720680068C007EF
:1018D000F0D12268116820480140D4E9010318437F
:1018E000D4E903363343184363691843A3691843A3
:1018F000E3691843236A18430843616A042903D142
:10190000D4E90B1319430843106020684069666AE4
:1019100020F0070130460E43012704280CD1A06AAD
:101920000643E06A40B12046FFF762F820B140204C
:10193000606584F83570BAE7206846612046FFF795
:1019400043F894F85C203F2191408160656584F8FC
:1019500035700020ACE700003F8010F02DE9F04129
:101960000446866D90F83400002501280DD0012032
:1019700084F8340094F835700020012F07D084F8E3
:10198000340002252846BDE8F0810220FBE702274B
:1019900084F8357060652046FFF754F894F85C10C1
:1019A0003F208840B0602068016841F01601016066
:1019B000206C20B12068016841F0080101602068B6
:1019C000016841F001010160DCE7000070B50446E8
:1019D00000F00CF90546601C02D00448007804446D
:1019E00000F004F9401BA042FAD370BD00070020AC
:1019F0002DE9F84FDFF8BCA10022012503264FF0A6
:101A00000F090AF1040BAAF1040E00BF0B6805FAD6
:101A100002F42340A34270D10F7907F00307012F8E
:101A200001D0022F16D187684FEA420806FA08FC57
:101A300027EA0C07D1F80CC00CFA08FC4CEA070C9A
:101A4000C0F808C04768A7430C79C4F30014944059
:101A50003C4344600C79E443A4070AD0C4684FEACD
:101A6000420C06FA0CF7BC438F6807FA0CF72743C1
:101A7000C7600C7904F00304022C12D1D40800EBE7
:101A8000840CDCF820405707FF0E09FA07F824EA17
:101A90000804D1F8108008FA07F848EA0408CCF8DE
:101AA000208004684FEA420C06FA0CF7BC430F7919
:101AB00007F0030707FA0CF7274307604C6814F494
:101AC000403F70D03C4C276847F48047276024682B
:101AD00022F0030704F480440094384C07EB040C14
:101AE000DCF8084897074FEA177809FA08F7BC436B
:101AF000334FB84202D1002724E054E0314FB842BE
:101B000001D101271EE0304FB84201D1022719E070
:101B10002E4FB84201D1032714E02D4FB84201D116
:101B200004270FE02B4FB84201D105270AE02A4FC6
:101B3000B84201D1062705E0284FB84201D1072756
:101B400000E0082707FA08F72743CCF80878DAF806
:101B500000405746D1F804C09C435FEACC2C00D526
:101B60001C433C60DBF800405F46D1F804C09C4356
:101B70005FEA8C2C00D51C433C60DEF800407746C1
:101B8000D1F804C09C435FEA8C3C00D51C433C6008
:101B9000084F083F3C68D1F804C09C435FEACC3C46
:101BA00000D51C433C60521C102AFFF42FAFBDE847
:101BB000F88F0000083C01404438024000300140EA
:101BC000000002400004024000080240000C0240F5
:101BD000001002400014024000180240001C0240A5
:101BE0000AB1816170470904FBE700000148806881
:101BF0007047000000070020024881680278114405
:101C000081607047000700200B4810B5016841F45F
:101C100000710160016841F480610160016841F474
:101C200080710160032000F09FF80F2000F006F89B
:101C300000F050F8002010BD003C024030B50546D1
:101C40001F4887B00024016841F48071016000687A
:101C500006A900F48070009001A800F045FE0498E9
:101C6000A8B100F067FE40001649174AB0FBF1F139
:101C70001648491E026040F2E732C0E90324C0E979
:101C80000114846101F0D2F8040003D015E000F0E3
:101C900051FEE9E70D4801F0F7F804000DD12D20C1
:101CA00000F034F8102D07D2002229462D2000F034
:101CB0003BF80748056000E0012407B0204630BD2E
:101CC0004038024040420F0000200040A80F002092
:101CD000040700200C4882B0016841F48041016093
:101CE000006800F4804000900748001F016841F040
:101CF000805101600068002200F0805000900F21A8
:101D0000901E02B000F010B844380240002809DBF1
:101D100000F01F02012191404009800000F1E02005
:101D2000C0F8001170470000F0B40E4B1B680C4661
:101D3000C3F30223C3F10705042D00D90425191D9F
:101D4000072901D2002300E0DB1E012606FA05F177
:101D5000491E214099409E40761E16403143F0BCFA
:101D600005F036BA0CED00E0064900F007020868FD
:101D70004FF6FF03184040EA0220034A1043086070
:101D8000704700000CED00E00000FA0570470068A5
:101D9000416200207047F0B50368586A39B19C6A07
:101DA0004FF4827600EB144400204D1E0AE040EA16
:101DB000024098620FE006EB8007DF59401C04EBFD
:101DC0001744C0B2A842F6D344EA02404FF48072EE
:101DD00002EB810158500020F0BDD0F8E00404F07F
:101DE00092B801EBC10200EB8202D0F8E004126A63
:101DF00003F0E7BF01EBC10200EB8202D0F8E00480
:101E0000D2F8602204F038B8D0F8E00404F07DB8CD
:101E10000A0601F00F0101EBC10100EB810101D5C0
:101E2000143101E001F51571006804F059BF70B577
:101E300004460B0601F00F0000EBC00104EB81012A
:101E40004FF001024FF0000502D54A75143103E04E
:101E500081F8555201F51571087094F89404012821
:101E600008D084F89424206804F058FC84F8945432
:101E7000002070BD022070BD70B5044601F00F0057
:101E80002279904201D9012070BD0B0601F00F01AB
:101E900001EBC10104EB81014FF001024FF000059D
:101EA00002D54A75143103E081F8555201F51571D8
:101EB0008D70087094F89404012808D084F8942454
:101EC000206804F09DFD84F89454002070BD022029
:101ED00070BD01F00F0101EBC10100EB8100D0F8F2
:101EE000680270472DE9F04104460F0601F00F002B
:101EF00000EBC00104EB81014FF001064FF000053B
:101F000002D54E75143103E081F8555201F5157173
:101F100008708A600B714A7802B14883022B00D1A5
:101F20004D7194F89404012809D084F894642068D1
:101F300004F046FB284684F89454BDE8F081022062
:101F4000FBE710B501F00F0404EBC40100EB8101C5
:101F5000C1E998230023C1F8683281F8553281F82D
:101F60005442837901F51571012B00D1CA61827940
:101F7000006804F09DFD002010BD70B504460D46BC
:101F800001F00F002179884201D9012070BD290696
:101F90004FF000064FF0010206D500EBC00104EB44
:101FA00081014A75143107E005EBC50104EB81019D
:101FB00081F8556201F515718A70087094F89404DF
:101FC000012807D084F89424206804F045FD2807F0
:101FD00002D007E0022070BDA17904F29C42206883
:101FE00004F0E2FC84F89464002070BD10B501F0A8
:101FF0000F0404EBC40100EB8101C1E908230023B5
:102000008B6201234B7501F8144F8379012B00D1AA
:10201000CA618279006804F04BFD002010BD000009
:102020002DE9FC5F05680446284604F0F5FE00280B
:102030007DD1206804F01CFF002878D0D5F808086E
:10204000C0F30D20C4F8D404206804F011FF800709
:1020500004D52068416901F002014161206804F063
:1020600007FFC10604F29C40009034D520688169C6
:1020700021F0100181612F6A07F00F0000EBC00012
:1020800004EB8006C7F3434006F51576022802D01C
:10209000062811D01AE047F6F070074216D0C7F3B1
:1020A0000A1217462846F16804F0E6FEF068384444
:1020B000F0607069384408E008222846009904F06E
:1020C000DBFE7069C7F30A110844706120688169FA
:1020D00041F010018161206804F0CAFE00034FF056
:1020E000080B4FF0000A4FF001097CD5002620684C
:1020F00004F09DFE074674E0F80770D0F1B2206846
:1021000004F0AEFE8046C00707D005EB4611C1F8CB
:10211000089B3146204602F0FDF95FEA087024D59D
:1021200005EB4611C1F808BB2068016C00E023E212
:1021300000EB46100191D0F8082BFB4B994205D9D2
:10214000110403D54FF40041C0F8081B204600F0ED
:10215000F0FAF5490198884207D9A079012804D1FD
:1021600020680121009A04F01FFC5FEAC86004D5D2
:1021700005EB46111020C1F8080B5FEA88701DD5E9
:102180006869000605D5D5F8040840F48061C5F8F3
:10219000041806EBC60004EB800090F8571200F517
:1021A0001570012905D180F803A0F1B2204600F096
:1021B000E9F905EB46110220C1F8080B5FEA8860D7
:1021C00004D505EB46102021C0F8081B5FEA8840C3
:1021D00005D505EB46104FF40051C0F8081B7F08E9
:1021E000761C002F88D1206804F042FE40036ED593
:1021F000206804F015FE0746002666E0F80762D066
:10220000F1B2206804F01AFE8046C00723D006F021
:102210000F01D5F8342809FA01F18A43C5F83428AA
:1022200005EB4611C1F80899A07901280FD106EBFA
:10223000C60004EB8000D0E907211144016236B9E1
:10224000606A20B920680121009A04F0ADFBF1B268
:102250002046FFF7C6FD5FEA087003D505EB46117F
:10226000C1F808B95FEAC86004D505EB4611102033
:10227000C1F808095FEA486004D505EB4610402123
:10228000C0F808195FEA887016D53146284604F070
:1022900098FD06EBC60004EB8000C17D14300129D7
:1022A00005D180F803A0F1B2204600F067F905EBF4
:1022B00046110220C1F808095FEA086003D53146DB
:1022C000204602F08DF97F08761C002F96D12068F9
:1022D00004F0CEFD002811DAD5F8040820F0010141
:1022E000C5F8041894F8CC0401282BD0204600F03F
:1022F00005FA2068416901F000414161206804F05D
:10230000B7FD00050BD5D5F80808C00702D0204658
:1023100000F038FA2068416901F4006141612068E9
:1023200004F0A6FDC00467D5D5F8040820F001002C
:10233000C5F804081021206804F043FD00214FF681
:102340007F3220E084F8CCA400212046FFF71EFD58
:10235000CFE700BF05EB4110C0F80829D0F80039DD
:1023600023F40013C0F80039C0F8082BD0F8003B64
:1023700023F40013C0F8003BD0F8003B43F00063A7
:10238000C0F8003B491C20798842E3D8D5F81C08E6
:1023900040F00111C5F81C18E07B002828460DD03C
:1023A000D0F8840840F00B01C5F88418D5F844082B
:1023B00040F00B012846C5F844180DE0D0F8140889
:1023C00042F22B010843C5F81408D5F8100840F074
:1023D0000B012846C5F81018D0F8000820F4FE615B
:1023E000C5F80018A1792068009A04F0DDFA206889
:1023F000416901F480514161206804F039FD800495
:1024000015D5206804F01CF9206804F0F8FCE07190
:1024100000F08AFA0146E279206804F08BFD20463C
:1024200000F056F92068416901F4005141612068CB
:1024300004F01EFD000707D5204600F063F9206870
:10244000416901F008014161206804F011FD0006B6
:1024500016D5A86920F08001A96101260DE000BF12
:1024600006EBC60004EB800090F85702012803D168
:10247000F1B22046FFF7CCFC761C2079B042EFD8B1
:10248000206804F0F5FCC0021FD501264F4614E079
:1024900005EB4610D0F8001906EBC60004EB8002ED
:1024A000107E012808D1002906DAF0B240F0800140
:1024B000D7752046FFF7ACFC761C2079B042E7D8F0
:1024C0002068416901F480114161206804F0D0FC6A
:1024D000800234D501204A4629E000BF05EB4011B7
:1024E000D1F8001B00EBC00304EB830393F85862A0
:1024F000012E1BD1002919DA94F8D46401F480313B
:1025000006F00106B14211D183F85722A96941F0C2
:102510008003AB616969090608D4D5F8040840F462
:102520000070C5F8040805E00A30544F401C2179BA
:102530008142D3D82068416901F4001141612068CB
:1025400004F096FC400007D52046FFF746FC2068C3
:10255000416901F080414161206804F089FC400735
:102560000AD520684568680702D52046FFF74CFC6D
:102570002068416829434160BDE8FC9FD0F8E00431
:1025800003F019BDD0F8E00403F029BDF8B504004C
:1025900005D094F895042668002510B106E00120C6
:1025A000F8BD84F89454204600F056F8032084F8CF
:1025B0009504B6F1A04F00D1A571206804F0EEF9A2
:1025C000207C8DF8000094E80F0004F047F8022604
:1025D000B8BB0021206804F06EFC90BB00200127EE
:1025E0000DE000BF00EBC00104EB81014F750875E1
:1025F000C8850D76CD610D62401CC0B24D62217957
:102600008142EFD8002011E000EBC00104EB810112
:1026100081F8555281F8540281F85852C1F85C5241
:10262000C1F86052401CC0B2C1F8645221798142A5
:10263000EAD8207C8DF8000094E80F0004F0F0F850
:1026400010B184F89564AAE7657484F895742068DD
:1026500004F0D8F80020F8BD10B586B00446142167
:102660006846FDF791FF17492068884227D1164C2C
:102670000020216841F002012160216801F002017F
:1026800005914FF4404100910221CDE90110032052
:1026900003900C20049069460C48FFF7A9F92068C4
:1026A00040F0005020602068002200F000500590AB
:1026B00005214D20FFF738FB4D20FFF727FB06B023
:1026C00010BD000000000440303802400004024009
:1026D00070B50446C079012570B1022801D0FEF71B
:1026E000CFF92946D4F8E00403F0E7FCD4F8E0047D
:1026F000BDE8704003F09CBC0025F2E7D0F8E00490
:1027000003F0C4BCD0F8E00403F0CABC10B5044622
:1027100090F8940401280AD0012084F8940461748C
:10272000206804F0F6FB002084F8940410BD022019
:1027300010BDD0F8E02400F29C41104603F0C9BC63
:1027400010B50446006894F89414012909D00121B9
:1027500084F89414C168490609D5617B012902D027
:1027600005E0022010BD816B41F480318163206857
:1027700004F005FB206804F037F8002084F8940486
:1027800010BD000010B50446D0F8E00403F0E3FCEF
:102790002068D0F8001E41F00101C0F8001EE07A68
:1027A000002804D00248016841F00601016010BD14
:1027B00010ED00E02DE9F0470E46050065D0DFF88A
:1027C0001481D8F80000F7B200F00700B04207D239
:1027D00088F80070D8F8000000F00700B04254D12B
:1027E00028683D4C810712D5400703D5206840F486
:1027F000E05020602878000703D5206840F460404E
:1028000020602068A96820F0F00008432060287844
:10281000C0072DD0304968680839012812D0022835
:1028200013D0032811D00968890700292DDA2168FF
:1028300021F0030101432160FFF7D8F9814641F2FD
:10284000883A0EE009688903EFE709688901ECE737
:10285000FFF7CCF9A0EB0901514502D90320BDE8EF
:10286000F0872068696800F00C00B0EB810FEFD1B1
:10287000D8F80010404601F00701B14207D90770AF
:10288000006800F00700B04201D00120E7E7287897
:10289000400705D52068E96820F4E050084320602F
:1028A0002878000706D52068296920F4604040EAAE
:1028B000C100206000F05EF82168084AC1F30311EE
:1028C000515CC8400649086006480068FFF7B6F941
:1028D0000020C4E7003C024008380240C0A90008BC
:1028E00074070020040700200F2202600C4A1368BE
:1028F00003F003034360136803F0F003836013687D
:1029000003F4E053C36012684FF4E05303EAD202C9
:1029100002610448006800F007000860704700008A
:1029200008380240003C024001480068704700003F
:10293000740700200448054900680968044AC1F387
:102940008221515CC840704774070020083802405B
:10295000D0A900080448054900680968044AC1F381
:102960004231515CC840704774070020083802406B
:10297000D0A90008154810B5006810F00C021448E2
:1029800013D01449042A0FD0082A0ED10F4C241F4B
:102990002268236802F03F025B0207D52068C0F37B
:1029A0008810A0FB010106E0084610BD2168C1F3B4
:1029B0008811A1FB00010023FDF7D6FC2168C1F3BB
:1029C0000141491C4900B0FBF1F010BD083802403C
:1029D0000024F40040787D012DE9F84F04006ED00A
:1029E0002078DFF84C93C007A9F104054AD009F11B
:1029F00004000168C1F38101012908D00068C0F317
:102A0000810002280AD1D9F80000400206D52868C2
:102A1000800337D560680028E1D033E06068B0F506
:102A2000803F10D0B0F5A02F286810D020F480305F
:102A30002860286820F4802028606068A8B1FFF72B
:102A4000D5F806460DE0286840F48030F4E740F4FD
:102A500080202860F7E700BFFFF7C8F8801B6428D4
:102A600073D828688003F7D50CE0FFF7BFF8064657
:102A700005E000BFFFF7BAF8801B6428F0D828688B
:102A80008003F7D42078DFF8AC8280074FF0000A8B
:102A90003ED5A748001D016811F00C0F08D0006852
:102AA000C0F3810002280BD1D9F80000400207D4FE
:102AB0002868800716D5E068012800D112E033E1CC
:102AC000E068B8B10120C8F80000FFF78FF80646AB
:102AD00005E000BFFFF78AF8801B0228C0D82868ED
:102AE0008007F7D52868216920F0F80040EAC10086
:102AF00028600DE0C8F800A0FFF778F8064604E06B
:102B0000FFF774F8801B02281FD828688007F7D4C5
:102B10002078000722D5864F87486169703771B1E8
:102B200001210160FFF762F8064604E0FFF75EF856
:102B3000801B022809D838688007F7D50EE0C0F856
:102B400000A0FFF753F8064605E082E0FFF74EF8D5
:102B5000801B02287DD838688007F7D4207840078A
:102B600068D5DFF8CCB100270BF13C0BDBF8000097
:102B7000C0000BD4DBF8001041F08051CBF80010FE
:102B8000DBF80000012700F0805000906B4E3068A9
:102B9000C00510D4306840F480703060FFF726F82C
:102BA000009005E0FFF722F80099401A022850D85B
:102BB0003068C005F6D55E4EA0686C3601280FD08F
:102BC0000528306810D020F001003060306820F017
:102BD00004003060A068B8B1FFF708F800900FE07B
:102BE000306840F00100F4E740F004003060F7E79F
:102BF000FEF7FCFF0099411A41F28830814266D805
:102C000030688007F4D50EE0FEF7F0FF009007E093
:102C1000FEF7ECFF0099411A41F28830814256D804
:102C200030688007F4D42FB1DBF8001021F0805118
:102C3000CBF80010A069C8B33D49091D0968C1F36C
:102C4000810102294AD00228504607D0C8F8600006
:102C500000E03CE0FEF7CAFF04463BE04746C8F808
:102C60006000FEF7C3FF064605E000BFFEF7BEFFAB
:102C7000801B02282BD828688001F7D4D4E90701EB
:102C80000843A16A2E4A490802EB0141626A41EAFF
:102C90008211084394F82C1040EA0161C9F8001031
:102CA00001203866FEF7A2FF044606E03EE000BFC2
:102CB000FEF79CFF001B022809D828688001F7D581
:102CC00034E000BFFEF792FF001B022802D9032068
:102CD000BDE8F88F28688001F4D427E00128F7D0F8
:102CE000D9F80000E26900F4800191421CD1226A07
:102CF00000F03F01914217D147F6C071626A01406E
:102D0000B1EB821F10D1A26A4FF0FF3300F44031C3
:102D100003EB5202B1EB024F06D194F82C1000F0F5
:102D20007060B0EB016F01D00120D1E70020CFE748
:102D30000438024000004742800E474200700040C5
:102D40000000FFFF7047704710B590F83C20012A43
:102D500022D0012280F83C20CA688C6822F440729C
:102D600022434C6822F4806222430C6822F4006201
:102D700022430C6922F4805222434C6922F400520F
:102D80002243C969002322F480420A4301684A644D
:102D900080F83C30002010BD022010BD70B590F8C6
:102DA0003C20012A32D0012480F83C40022280F8E5
:102DB0003D2003685A689D6822F070060A68324315
:102DC0005A60134B02689A4214D0B2F1804F11D06E
:102DD000104B9A420ED0104B9A420BD00F4B9A4296
:102DE00008D00F4B9A4205D00E4B9A4202D00E4BA0
:102DF0009A4204D1496825F080031943916080F814
:102E00003D40002180F83C10084670BD022070BD96
:102E1000000001400004004000080040000C004099
:102E200000040140004001400018004010B50400BB
:102E300003D094F83D0010B107E0012010BD002040
:102E400084F83C00204600F01EF8022084F83D0083
:102E5000211D206801F02EFF012084F8460084F82F
:102E60003E0084F83F0084F8400084F8410084F874
:102E7000420084F8430084F8440084F8450084F854
:102E80003D00002010BD704790F83D10012901D091
:102E900001207047022180F83D100168CA6842F0A5
:102EA0000102CA6000681149884214D0B0F1804F15
:102EB00011D00F4988420ED00E4988420BD00E49DE
:102EC000884208D00D49884205D00D49884202D079
:102ED0000C49884204D1816801F00701062903D01A
:102EE000016841F0010101600020704700000140CD
:102EF0000004004000080040000C004000040140B5
:102F0000004001400018004070472DE9F0410446A0
:102F10000068C66805694FF00007A90713D5B10717
:102F200011D5F91E01610120207720688069800792
:102F3000204602D0FFF7E8FF04E000F0C1F8204689
:102F400000F096F92777680716D5700714D5216821
:102F50006FF004000861022020772068806910F477
:102F6000407F204602D0FFF7CFFF04E000F0A8F832
:102F7000204600F07DF92777280715D5300713D5AF
:102F800021686FF008000861042020772068C0697C
:102F90008007204602D0FFF7B7FF04E000F090F86A
:102FA000204600F065F92777E80616D5F00614D517
:102FB00021686FF010000861082020772068C06940
:102FC00010F4407F204602D0FFF79EFF04E000F09F
:102FD00077F8204600F04CF92777E80708D0F0078B
:102FE00006D021686FF001000861204600F010FA59
:102FF000280608D5300606D521686FF080000861E4
:103000002046FFF79FFE680608D5700606D52168A2
:103010006FF040000861204600F004FAA8060AD5C7
:10302000B00608D521686FF0200008612046BDE891
:10303000F041FFF788BEBDE8F081000010B586B012
:10304000044614216846FDF79FFA2368174C0021B7
:1030500017480222A34211D1036843F00103036021
:10306000006800F001000590D0010090CDE9012139
:103070000120CDE9031069460E4812E00E4CA34230
:1030800011D1036843F002030360006800F00200FE
:10309000059020200090CDE90121CDE90312694679
:1030A0000648FEF7A5FC06B010BD00000000014078
:1030B000303802400000024000040040000402409A
:1030C000704770B5044690F83C0000260D46012874
:1030D0000FD0012084F83C006AB1042A1DD0082AD0
:1030E0002FD00C2A3FD00126002084F83C00304627
:1030F00070BD022070BD206801F056FE2068816915
:1031000041F0080181612068816921F00401816139
:10311000206881692A69114311E0206801F074FE7A
:103120002068816941F4006181612068816921F42E
:1031300080618161206881692A6941EA0221816197
:10314000D2E7206801F096FE2068C16941F00801CD
:10315000C1612068C16921F00401C1612068C169B1
:103160002A69114311E0206801F0B8FE2068C169A6
:1031700041F40061C1612068C16921F48061C161CD
:103180002068C1692A6941EA0221C161ACE710B532
:10319000040003D094F83D0010B107E0012010BDF9
:1031A000002084F83C00204600F01EF8022084F83D
:1031B0003D00211D206801F07DFD012084F84600BE
:1031C00084F83E0084F83F0084F8400084F8410011
:1031D00084F8420084F8430084F8440084F84500F1
:1031E00084F83D00002010BD38B5054600681B4A34
:1031F0000021904223D11A48026842F00102026085
:103200000068194C00F001000090164820604FF053
:10321000406060604020C4E902010001206140007C
:1032200060618000C4E90601216220466162FEF708
:103230002BFB08B1FDF724FC6C62A56338BD0B497C
:103240008842FBD10648001F016841F0020101607D
:10325000006800F00200009038BD0000000001404E
:103260004438024028640240A00B002000040040C3
:103270000021014800F066B8100B002010B504468C
:10328000022249B104290ED0082913D094F8410034
:10329000012816D0012010BD94F83E000128F9D174
:1032A00084F83E200FE094F83F000128F2D184F822
:1032B0003F2008E094F840000128EBD184F840203A
:1032C00001E084F841200122206801F05FFD1649E9
:1032D0002068164A884201D0904203D1436C43F4DF
:1032E000004343642068884213D0B0F1804F10D06F
:1032F0000F4988420DD00F4988420AD00E498842B2
:1033000007D0904205D00D49884202D00C4988422E
:1033100004D1816801F00701062903D0016841F05A
:1033200001010160002010BD0000014000040140C7
:103330000004004000080040000C00400040014034
:103340000018004070B50D0004464FF0000607D08D
:10335000042D0CD0082D11D00C2D16D0012648E0DC
:103360002068C16821F40071C160606A13E02068C0
:10337000C16821F48061C160A06A0CE02068C16866
:1033800021F40061C160E06A05E02068C16821F4B1
:103390008051C160206BFEF795F900222946206814
:1033A00001F0F4FC184B41F2111120688A10984288
:1033B00002D0164B984209D1036A0B4206D1036A28
:1033C000134203D1436C23F4004343642068036A2F
:1033D0000B4206D1016A114203D1016821F00101BB
:1033E000016001203DB1042D08D0082D09D084F8DA
:1033F0004100304670BD84F83E00FAE784F83F0093
:10340000F7E784F84000F4E70000014000040140C1
:1034100000680349884201D1FEF7EEBB7047000007
:10342000002000407047704710B5044600684069AE
:1034300094F84110C0F3C010212911D180B1206847
:10344000143050E8001F21F0800140E80012002AEB
:10345000F5D1A06B08B1FEF7ECF8204601F058FE5C
:103460002068406994F84210C0F38010222911D1DD
:1034700080B12068143050E8001F21F0400140E87E
:103480000012002AF5D1E06B08B1FEF7D2F8204611
:1034900001F017FE002010BD70470000F8B501686C
:1034A00004460868CA684B6910F00F0F4FF000051A
:1034B00059D003F0010602F49077374365D0C10775
:1034C00005D0D10503D5616C41F00101616441076C
:1034D00005D5D90703D0616C41F002016164810711
:1034E00005D5D90703D0616C41F00401616401077F
:1034F00007D502F02001314303D0616C41F008018F
:103500006164616C00293AD0800604D5900602D52A
:10351000204601F0CDFE20684069616CC0F3801048
:10352000090700D460B3204601F0CBFD2068406954
:10353000400621D52068143050E8001F21F04001DA
:1035400040E80012002AF5D1E06BA8B16E49016590
:10355000E06BFEF7B7F8002811D0E06B016D01B009
:10356000BDE8F040084783060FD593060DD52046E9
:10357000BDE8F84001F09CBE2046FFF78DFFF8BD86
:103580002046FFF789FF6564F8BD266B2023012ED6
:103590007DD1C6067BD5D60679D5086848680090E7
:1035A00048694FF00206400641D5E16B0868406863
:1035B0000004000CE8D0A28D8242E5D9E085C869FC
:1035C000B0F5807F2DD020680C3050E8001F21F42A
:1035D000807140E80012002AF5D12068143050E8CC
:1035E000001F21F0010140E80012002AF5D12068F7
:1035F000143050E8001F21F0400140E80012002A7A
:10360000F5D184F84230256320680C3050E8001F63
:1036100021F0100140E80012002AF5D1E06BFEF71E
:1036200008F86663A08DE18D401A81B22AE0A08D72
:10363000E18D401A81B2E08D0028A5D00029A3D0E9
:1036400022680C3252E8000F20F4907042E8000724
:10365000002FF5D12068143050E8002F22F001022D
:1036600040E80027002FF5D184F842302563206818
:103670000C3050E8002F22F0100240E80023002B0D
:10368000F5D166632046FFF7CEFEF8BDFFE70506DD
:103690002BD5150629D594F841002128F5D1A0682D
:1036A000B0F5805F01D12069B0B1206A411C216270
:1036B000216800784860E08C401E0004000CE08423
:1036C000E3D12068C16821F08001C1602068C16831
:1036D00041F04001C160D8E7206A0088C0F30800CB
:1036E0004860206A801C2062E5E74006CDD5500680
:1036F000CBD5CA68204622F04002CA6084F8413027
:1037000000F02CFAC1E70000794F000870B5040002
:1037100004D094F84100002510B106E0012070BDEE
:1037200084F84050204600F023F8242084F841001B
:103730002068C16821F40051C160204601F01AFEE2
:103740002068016921F4904101612068416921F0FC
:103750002A0141612068C16841F40051C16065647B
:10376000202084F8410084F842006563002070BD89
:103770002DE9F04F87B0054614216846FCF704FF99
:10378000C348DFF808831038D5F800C0C04B0321C8
:1037900002220827DFF8FCE2002406154FF000693A
:1037A000C44558D1D3F800C0A2464CF4002CC3F84D
:1037B00000C01B6803F400230593036843F0010372
:1037C0000360006800F0010005908DE81600CDE967
:1037D000031769467046FEF70BF9DFF8C082AE4961
:1037E00040464F46E0E80219402152C04FF44031B4
:1037F00040F814498461C0E907414046C8F82440B4
:10380000FEF742F808B1FDF73BF9A348A34CC5F811
:10381000388030386034C8F83850C4E90007C4F83C
:1038200008A0C4E903A68115C4F814A0C4E906A140
:10383000C4F820A02046C4F824A0FEF725F808B15B
:10384000FDF71EF9EC63002205213420A563FEF785
:103850006BFA342053E0DFF848824FF0040BC44584
:1038600052D1D3F800C04CF4801CC3F800C01B68D0
:1038700003F480130593036843F0040303600368B3
:1038800003F004030593036843F008030360006832
:10389000884600F0080005904FF48050CDE9000202
:1038A000CDE902489246694604977E48FEF7A0F8A3
:1038B000CDE90248CDE900BA69467B480497FEF796
:1038C00097F8764F7448C03760383860C7E901947C
:1038D000C7E903467C614FF40030BC61C7E907408B
:1038E00038467C62FDF7D0FF08B1FDF7C9F8EF63F9
:1038F000002205213520BD63FEF716FA3520FEF7BC
:1039000005FA07B0BDE8F08FDFF8A0814FF0070A95
:10391000C4453DD11F6847F400371F601B6803F49E
:1039200000330593036843F0010303600068CDE9A9
:10393000024100F0010005900C20CDE90002CDF815
:1039400010A069467046FEF753F85348584F183098
:103950003860C7E90194C7E9034680157C61C7E96F
:1039600006404FF44030C7E9080B0120C7E90A04BC
:1039700038463C63FDF788FF08B1FDF781F8EF6337
:10398000002205212620BD63FEF7CEF92620B6E7EA
:10399000DFF82081C44538D11F6847F480271F60B5
:1039A0001B6803F480230593036843F0020303605C
:1039B0000068CDE9024100F0020005904FF440603C
:1039C000CDE90002CDF810A069463B48FEF710F89B
:1039D000374F3148603748383860C7E90194C7E944
:1039E00003467C61BC61FC613C6238467C62FDF749
:1039F0004BFF08B1FDF744F8EF63002205212720B3
:103A0000BD63FEF791F9272079E72C4B9C457FF4A5
:103A100078AF1F4B1B1DD3F800C04CF0200CC3F82F
:103A200000C01B6803F020030593036843F0040300
:103A300003600068CDE9024100F004000590C02059
:103A4000CDE90002049769461648FDF7D1FF184FEB
:103A50001B48C03738604FF02060C7E90104C7E950
:103A600003467C61BC61FC613C6238467C62FDF7C8
:103A70000BFF08B1FDF704F8EF6300220521472092
:103A8000BD63FEF751F9472039E70000004C0040C4
:103A9000403802400000024070600240680D002083
:103AA0000050004000080240000C0240004400406A
:103AB000880E00200048004000040240001401402D
:103AC0004064024090F84230202B01D00220704721
:103AD00021B11AB10023036301F0D2BC0120704769
:103AE0007047704770B5044690F84100202801D017
:103AF000022070BD49B342B32162A284E284002057
:103B00006064212384F84130A56B114BEB63A56BF6
:103B1000104B2B64A56B104BEB64A36B18652568E9
:103B200013462A1DA06BFDF719FF21686FF04000B6
:103B300008602068143050E8001F41F0800140E820
:103B40000012002AF5D1002070BD012070BD0000D8
:103B500077500008B9500008894F00087047704737
:103B6000FEE7000010B5054C0120207000F084F83D
:103B700008B102202070207810BD00003400002021
:103B800000B5044800F03CF802485DF804EBE03072
:103B900000F00EB8AC00002010B50349034800F057
:103BA000DDFE002010BD0000E143000848100020A9
:103BB00008490A23B1F90E2092FBF3F200EE102A15
:103BC000B8EEC00A10EE102A40F8072F09684160CD
:103BD00070470000F010002010B5FFF7C3FF014947
:103BE000487010BD780000202DE9084005F0B4FDB4
:103BF000009000F019F80121684605F029FCF5E76E
:103C000008490A23B1F9102092FBF3F200EE102AC2
:103C1000B8EEC00A10EE102A40F8072F89684160FC
:103C200070470000F010002000B5044804F08CFE3E
:103C300002485DF804EB0C3004F08EBEF01000205A
:103C4000F0B500230A24302537261F4611E000BFB7
:103C5000B4EB107F02D905EB107C01E006EB107C81
:103C600001F813C001EB430C00015B1C8CF80170E0
:103C7000DBB29342ECD3F0BD70B5074D00246C70FD
:103C800004F0F6FE0549D1E90021801A8C4101D3E8
:103C900001206870687870BD340000208800002022
:103CA000164900200A7A012A03D0022A01D0032AE9
:103CB00006D14A7A012A05D0022A03D0032A01D06C
:103CC00001207047B1F900304FF4A56203F5257368
:103CD0009342F5D8B1F9023003F525739342EFD83A
:103CE000B1F9043003F525739342E9D8B1F9061010
:103CF00001F525719142E3D87047000004110020BE
:103D000070B5074D0024AC7004F0B2FE0549D1E94E
:103D10000021801A8C4101D30120A870A87870BDC1
:103D200060000020800000200346224910B5214891
:103D3000143990F8C4010A78904205D008701D48E3
:103D4000D0F8F310C0F804111B48C17CB0F90E0084
:103D500061B11A491A4C91ED0C0A10EE102AA242D8
:103D600004D0B5EEC00AF1EE10FA0ED100EE100A42
:103D7000D3ED330AB8EEC00A20EE800A83ED320A92
:103D8000D3ED080A30EEC00A07E0D3F80F00D1EDFA
:103D9000050A00EE100A30EE200A03F1200083ED40
:103DA000080A00F04DFDD3F80B005861D3F80F005E
:103DB000D86110BDA400002004110020E4040020FC
:103DC000002EC24610B504462048A0F1140290F817
:103DD000C4111378994203D01170D0F813104162C6
:103DE0001B48C17CB0F90C0061B11A4A1A4B92ED24
:103DF0000C0A10EE101A994204D0B5EEC00AF1EE8A
:103E000010FA0ED100EE100AD4ED360AB8EEC00A50
:103E100020EE800A84ED350AD4ED080A30EEC00A9F
:103E200007E0D4F80F00D2ED060A00EE100A30EEDB
:103E3000600A04F1200084ED080A03F087F9D4F841
:103E40000B006061D4F80F00E06110BDA4000020F9
:103E500004110020E4040020002EC246104810B5D2
:103E60000E4901600321416000214FF4102281605E
:103E7000C0E903124FF4001242610176012242763A
:103E80008276C27601774177FDF741FA002803D0A8
:103E9000BDE81040FCF7F4BD10BD00000064004018
:103EA000C00A0020104810B50E490160032141608E
:103EB00000214FF410228160C0E903124FF4001278
:103EC00042610176012242768276C276017741779D
:103ED000FDF71DFA002803D0BDE81040FCF7D0BD67
:103EE00010BD000000680040E80A0020254808B521
:103EF000016841F480010160016801F480010091D2
:103F0000016841F4001101600068002200F4001013
:103F1000009005210B20FDF707FF0B20FDF7F6FEB3
:103F2000002205210C20FDF7FFFE0C20FDF7EEFE20
:103F3000002205210D20FDF7F7FE0D20FDF7E6FE1E
:103F4000002205210F20FDF7EFFE0F20FDF7DEFE1A
:103F5000002205211020FDF7E7FE1020FDF7D6FE18
:103F6000002205213920FDF7DFFE3920FDF7CEFEC6
:103F7000002205213A20FDF7D7FEBDE808403A208F
:103F8000FDF7C4BE3038024010B5AAB01C2221494A
:103F90006846FCF7A5FA0021684604F01BFE1E4C9B
:103FA0001C491C2220601C3107A8FCF799FA00214B
:103FB00007A804F00FFE174960601C2238310EA8D4
:103FC000FCF78EFA00210EA804F004FE1149A0604F
:103FD0001C22543115A8FCF783FA002115A804F01F
:103FE000F9FD0C49E0601C2270311CA8FCF778FA3E
:103FF00000211CA804F0EEFD064920611C228C3132
:1040000023A8FCF76DFA002123A804F0E3FD60610A
:104010002AB010BD10A60008000000202DE9F041D4
:1040200086B014216846FCF7AFFA264800250168DF
:1040300041F080010160016801F080010591016893
:1040400041F001010160016801F001010591016881
:1040500041F002010160016801F00201059101686F
:1040600041F004010160016801F00401059101685B
:1040700041F0080101600068134F00F0080005904E
:10408000002204213846FDF7ABFDDFF840807E15A5
:10409000002231464046FDF7A3FD042001248DE8AF
:1040A0003100694638460394FDF7A2FC0096CDE93D
:1040B0000145694640460394FDF79AFC06B0BDE809
:1040C000F081000030380240000402400008024045
:1040D00010B592B000240F941C2108A81094FCF78E
:1040E00053FA20216846FCF74FFA20481E49016028
:1040F0000121C0E901146821C0E90314446184610D
:10410000FFF745F808B1FCF7BBFC0F940FA917485F
:104110001094FEF743FE08B1FCF7B2FC6020CDE935
:1041200008040A940B940C940D94002208A90F48DB
:104130000E94FEF7C6FF08B1FCF7A2FC00944FF402
:104140000050CDE904400294019403946946074865
:104150000794FEF7F9FD08B1FCF792FC0348FEF75F
:104160006DFF12B010BD000000000140100B0020D8
:1041700010B58AB0002407941C2168460894FCF707
:1041800003FA1748154901605321C0E9011444F6A8
:104190001F61C0E9031480218161FEF7F8FF08B1B7
:1041A000FCF76EFC079407A90D480894FEF7F6FD8E
:1041B00008B1FCF765FC6020CDE9000402940422FC
:1041C000694607480494FEF77CFF08B1FCF758FCE9
:1041D0000348FEF733FF0AB010BD000000040040A2
:1041E000580B00200C4810B50A4901604FF4E1312A
:1041F0004160002181600C22C160C0E9041281612C
:10420000C161FFF783FA002803D0BDE81040FCF736
:1042100037BC10BD004C0040000C00200C4810B50D
:104220000A4901604FF461214160002181600C2244
:10423000C160C0E904128161C161FFF767FA00281B
:1042400003D0BDE81040FCF71BBC10BD005000407F
:10425000480C00200E4810B50C4901600D49416022
:104260004FF48051816000214FF48062C0E9031255
:104270000C22C0E90521C161FFF748FA002803D0EC
:10428000BDE81040FCF7FCBB10BD0000004400403E
:10429000900C0020A08601000C4810B50A4901606E
:1042A0004FF4E1314160002181600C22C160C0E91E
:1042B00004128161C161FFF729FA002803D0BDE82B
:1042C0001040FCF7DDBB10BD00480040D80C0020BA
:1042D0000C4810B50A4901604FF4E13141600021FA
:1042E00081600C22C160C0E904128161C161FFF7E5
:1042F0000DFA002803D0BDE81040FCF7C1BB10BD8B
:1043000000140140200D002010B501220F49104873
:1043100001F032FD08B1FCF7B3FB0E490C4801F087
:1043200046FF08B1FCF7ACFB0B49094801F004FB60
:1043300008B1FCF7A5FB064801F0BCFF002803D03C
:10434000BDE81040FCF79CBB10BD000078070020C2
:104350000450002034080020C80700200249032030
:1043600081F8940100F002B8800200200848094B4F
:104370000949C0E97F1300220849C0F8F821C0F8B4
:104380000412C0E99313C0F84822C0F854127047D1
:10439000800200200050C34600401C4600204B46CF
:1043A00004498162044A8264C16442640021016458
:1043B000704700000050434700401C46FEE700B530
:1043C000FCF7EEFBFCF75EFB5DF804EBFFF7C6BF06
:1043D000FEE700000148FDF723BE00000067002053
:1043E0002DE9F0410024051D474EB0F8847027E008
:1043F000285DC0283BD012DCA52829D008DC9028F5
:1044000022D0A02824D0A12822D0A22817D11FE092
:10441000B02824D0B12822D0B22810D11FE0D12852
:1044200067D006DCC12822D0C22820D0D02806D1EF
:1044300024E0D92851D0E02864D0F02862D0641C50
:10444000A742D5DCBDE8F0816878B070A41CF7E71E
:10445000281950F8011F7160808830813BE02819CD
:1044600050F8011FC6F80A108088F08133E028193F
:1044700050F8011F31618088B0822CE02819417802
:10448000827801EB022109B200EE101A2049F8EE01
:10449000C00A9FED1E0A80EE801A81ED001AC278D4
:1044A000037902EB032212B200EE902AF8EEE00A42
:1044B00080EE801AF2EE040A81ED011A42798079C9
:1044C00002EB002000B200EE100AB8EEC00A80EE47
:1044D000201A81ED021AE41DB2E70D4829190C38A3
:1044E00051F8012FC2604A68026189680D34416148
:1044F000A6E70748291910220C30491CFBF7ABFF2F
:1045000011349DE7641D9BE7340000200000C84281
:10451000D41000202DE9F04103680D4604461E6CBE
:1045200003EB4511D1F8080B94F806E04FF400476F
:104530004FF0200C04F29C42BEF1010F09D0DFF8CD
:1045400098E0764539D1020432D500BFC1F8087B26
:104550003FE0224B5FEA007E04D59E4239D9000439
:10456000F4D436E05FEA806E02D5C1F808CB30E0C3
:1045700010F0280F2DD19E4201D90004E6D405EB9E
:10458000C50004EB8000D1F8101BD0F87432C1F3E1
:104590001201591AC0F8681200F51570ADB9036917
:1045A0001BB1C2681144C1600FE0012120680AE01C
:1045B00080060AD5C1F808CB07E035B9D4F8640203
:1045C00018B90021184602F0EFF9E9B22046FDF7CC
:1045D00011FC0020BDE8F0810A31544F0A30544FDD
:1045E0002DE9F84F0E4601EBC60100EB8104814630
:1045F0000568D4E909101434884202D90120BDE8C5
:10460000F88F081AA168814200D20846C01C8708AA
:1046100005EB46181BE000BFA0EB010AA06850455F
:1046200000D282460AF10300870899F8060000903C
:104630001FFA8AF3F2B22846E16802F0EFFCE16863
:1046400001EB0A00E060616901EB0A006061D8F8E3
:10465000180980B2B84205D3D4E90401814201D2DD
:104660000028D9D1D4E90401884208D806F00F0106
:1046700001208840D5F834188143C5F8341800204B
:10468000BDE7F0B510EE101A30EE600A016110EED1
:10469000901A816110EE101AC161026C00EE102AAE
:1046A00000EE902AB1EE401A00EE101A03F0ECFE74
:1046B00010EE101AC161426A00EE101A00EE902A44
:1046C00030EE800A10EE103A4362826A00EE103A31
:1046D00000EE902AB4EEE00AF1EE10FA01DD42623B
:1046E00011E000EE902A00EE103AF1EE600AB4EE0E
:1046F000E00AF1EE10FA06D200EE102AB1EE400AFE
:1047000010EE102AEBE7026800EE101A00EE902A75
:1047100020EE800A10EE105AC562426800EE102AA0
:10472000426A00EE902A20EE200A10EE103A00EEC7
:10473000101A0363026A00EE902A826870EE600A23
:1047400000EE102A20EE800A10EE107A476304690A
:10475000426900EE104A00EE902AC26870EE600ACC
:1047600000EE102A20EE800A10EE106A00EE103AD9
:104770008663826C00EE902AB4EEE00AF1EE10FA45
:1047800001DD026311E000EE902A00EE103AF1EE36
:10479000600AB4EEE00AF1EE10FA06D200EE102A3A
:1047A000B1EE400A10EE102AEBE7026B00EE105A51
:1047B00000EE902A70EE200A00EE107A70EE800A69
:1047C00000EE106A30EE800A10EE102AC263016219
:1047D0004461416C00EE102A00EE901AB4EEE00A3B
:1047E000F1EE10FA01DDC16311E000EE901A00EE67
:1047F000102AF1EE600AB4EEE00AF1EE10FA06D2E9
:1048000000EE101AB1EE400A10EE101AEBE7C06B82
:1048100000EE100AF0BD00000748017A07480129A0
:1048200006D0032906D0022901D10121C1707047A9
:104830000221FBE70021F9E70411002078000020A5
:10484000094A0168914203DDB3EE070A80ED000AD0
:10485000064A0168914202D800EE101A7047BBEE7A
:10486000060A80ED000A70470000B8410000B0C1A0
:104870002DE9F041384C014620462778D0E9032045
:104880000623A61D0025072F62D2DFE807F00408E3
:104890001A1F272A31005A295BD1012009E080F82C
:1048A0008810A52904D0A62905D0A72951D105E053
:1048B000022020704DE0EAB3904749E00560237084
:1048C00047E0A0F88410B1700320F2E730F8842F9D
:1048D00042EA01220280F1700420EAE761800520AB
:1048E000E7E7628842EA012161800560A580E6E78A
:1048F0000368061D5F1C0760995590F88810A7296A
:1049000007D10168082904D30821A0F88410904732
:1049100025702069B0F884200168914219D390F87D
:104920008800A52815D10C490422891D881E03F092
:10493000E7FF00E00CE02169074804C9001D03F00F
:10494000DFFFA0886188884202D1D4E9031088473C
:1049500025700020BDE8F0814C00002070B5044DAA
:104960000446E9608C21FBF70FFE2C6170BD00004E
:104970004C00002010B5074C01202070FFF790F983
:1049800008B100202070FFF7BBF908B102202070A9
:10499000207810BD600000200346164900B5154878
:1049A000143990F8C4010A78904205D00870114873
:1049B000D0F8F310C0F804110F48D3ED330AB0F962
:1049C000020000EE100A03F12000B8EEC00A20EE4B
:1049D000800A83ED320AD3ED080A30EE800A83EDB7
:1049E000080AFFF72DFFD3F80B005861D3F80F002A
:1049F000D86100BDA40000200411002010B50446B9
:104A00001548A0F1140290F8C4111378994203D00C
:104A10001170D0F8131041621048D4ED330AB0F988
:104A20000000404200EE100A04F12000B8EEC00A77
:104A300020EE800A84ED320AD4ED080A30EE800AB6
:104A400084ED080A02F082FBD4F80B006061D4F810
:104A50000F00E06110BD0000A40000200411002040
:104A600030B5144B1C68656945F0400565611B68ED
:104A7000DC6844F01004DC600F4B1C68256825F0EE
:104A8000010525601C682568ED07F7D11D680B4CF2
:104A9000AC601C68E06018680161186842601868C2
:104AA000016841F4802101601868016841F001014A
:104AB000016030BD900C0020880E002004440040AE
:104AC00010B5FFF757FF0149087010BD78000020AE
:104AD0000D480D49703150F8212F4A6142688A61B2
:104AE0008268CA6102690A6242694A6282698A62AC
:104AF000C2690A63C268CA62026A4A63426A8A6316
:104B0000806AC86370470000141200200249242202
:104B1000A1F12400FFF7A4BF701100202DE9084087
:104B200004F01AFE00900321684604F091FCF7E7B8
:104B30000178407841EA0020704700002DE90840E4
:104B400004F00AFE009000F0A1F80221684604F08B
:104B50007FFCF5E7FFF7D8FB012004F02FF8FBE717
:104B600010B5502080F31188BFF34F8FBFF36F8FC4
:104B700004F0F8FD18B104494FF08050086000209F
:104B800080F3118810BD000004ED00E030B593B053
:104B900030216846FBF7F8FC14210CA8FBF7F4FC65
:104BA0001E480025016841F080510160006800F056
:104BB000805011901A48016841F4804101600068FA
:104BC000022400F480401190012000900004019024
:104BD0008001CDE90640192008904FF4A870CDE976
:104BE000090407200B906846FDF7F6FE08B172B67F
:104BF000FEE70CA90F2081E831004FF4A0500F9080
:104C00004FF48050109005210CA8FDF7D3FD00282B
:104C100001D072B6FEE713B030BD0000403802404C
:104C2000007000400248016841F470010160704763
:104C300088ED00E010B5134CB4F90630B4F9042047
:104C4000B4F90210B4F90000FBF7BCFDA38AB4F973
:104C50000A20617A207AFBF7EBFD0B48017809B155
:104C600042780AB900228270012907D0022902D0B5
:104C70004178022901D10221817010BD41780129BA
:104C8000FAD0F5E7041100207800002010B5FFF7F6
:104C9000D1FFFFF715FFFEF79FFFFFF7BDFDBDE852
:104CA000104004F0B5BA00000148FEF72EB900002C
:104CB000A80F0020F0B50268294C2A4D2A4E2B4F30
:104CC0002B4B4FF0804CA04209D0604507D0A84242
:104CD00005D0B04203D0B84201D0984204D122F0AE
:104CE000700E4A6842EA0E02A0421BD0604519D0FD
:104CF000A84217D0B04215D0B84213D0984211D074
:104D00001C4DA8420ED01C4DA8420BD01B4DA842F2
:104D100008D01B4DA84205D01A4DA84202D01A4D0A
:104D2000A84203D122F44075CA682A434D6922F093
:104D300080022A4302608A68C2620A688262A042D4
:104D400001D0984201D109690163012141610169E2
:104D5000C90703D0016921F001010161F0BD000024
:104D6000000001400004004000080040000C00402A
:104D7000000401400040014000440140004801405F
:104D800000180040001C00400020004010B501F059
:104D90001F030121046A99408C430462016A9A400E
:104DA0001143016210BD0000F0B5036A026A22F0EF
:104DB0000102026242688469124E24F073050C6895
:104DC0002C4323F002058B682B430D4DA84201D0E4
:104DD000B04205D123F00807CB683B4323F004031E
:104DE000A84201D0B04205D14D6922F4407215436A
:104DF0008A692A4342608461496841630362F0BD65
:104E00000000014000040140F0B5026A036A23F08B
:104E100010030362436884690D6824F4E64444EA9D
:104E200005248D6822F0200242EA05120F4D104E33
:104E3000A84201D0B04206D1CF6822F0800242EAF7
:104E4000071222F04002A84201D0B04207D14D69BA
:104E500023F4406343EA85038D6943EA8503436095
:104E60008461496881630262F0BD00000000014076
:104E700000040140F0B5026A036A23F48073036200
:104E80004368C46922F4007224F073050C68124E62
:104E90002C438D6842EA05220E4DA84201D0B04253
:104EA00006D1CF6822F4006242EA072222F480622F
:104EB000A84201D0B04207D14D6923F4405343EAE0
:104EC00005138D6943EA05134360C4614968C163F2
:104ED0000262F0BD000001400004014030B5046AE8
:104EE000026A22F4805202624268C3690D6823F4A8
:104EF000E64343EA05238D6824F4005444EA05346C
:104F0000084DA84202D0084DA84204D14D6922F4B0
:104F1000804242EA85124260C361496801640462CA
:104F200030BD0000000001400004014070B503F0F6
:104F30009FFD044D0024C5E9040403F099FDC5E973
:104F4000060470BD7000002010B50448FEF7A6FAF4
:104F5000BDE81040014800F0E9B80000000C002056
:104F600010B50448FEF79AFABDE81040014800F079
:104F7000DDB80000480C002010B5806B0021C18511
:104F8000C184FEF789FA10BD70B5846B2068406952
:104F900094F84110C0F3C0100025212904D118B1A4
:104FA000E584204600F0B4F82068406994F8421087
:104FB000C0F38010222904D118B1E585204600F005
:104FC00080F8606C40F0100060642046FEF764FAE0
:104FD00070BD10B50146806B096809684FF000028A
:104FE000C9052ED4C28501680C3151E8003F23F475
:104FF000807341E80034002CF5D10168143151E888
:10500000003F23F0010341E80034002CF5D1016892
:10501000143151E8003F23F0400341E80034002CF4
:10502000F5D1202180F84210016B012909D10168D6
:105030000C3151E8003F23F0100341E80034002C0C
:10504000F5D14263016B012902D0FEF749FD10BD85
:10505000818DFEF7E8F910BD10B5806B0121416329
:10506000016B012902D0FEF73CFD10BD818D49087E
:10507000FEF7D9F910BD10B50146806B09680968C3
:10508000C90516D40021C1840168143151E8002FEC
:1050900022F0800241E80023002BF5D101680C3199
:1050A00051E8002F42F0400241E80023002BF5D1E7
:1050B00010BDFEF753FD10BD10B5806BFEF74FFD20
:1050C00010BD01680C3151E8002F22F4907241E8C4
:1050D0000023002BF5D10168143151E8002F22F094
:1050E000010241E80023002BF5D1016B012909D110
:1050F00001680C3151E8002F22F0100241E8002332
:10510000002BF5D1202180F8421000210163704767
:1051100001680C3151E8002F22F0C00241E8002361
:10512000002BF5D1202180F8411070472DE9F8437C
:1051300056490024064647F2305588424AD108684D
:105140000268920604D5016840680090BDE8F883C3
:105150000268D206FAD5026840680090C86B006801
:1051600002684FF024031603494A066826F0010638
:105170000660C86B00684668C6F12406B6B21680A1
:105180004360C86B006802680DD442F400220260DC
:10519000C86B0068016841F001010160122E12D154
:1051A0003C493D480DE022F400220260C86B0068D3
:1051B000016841F001010160122E04D136483549E1
:1051C000243003F0A3FF03F053FC34492844C1E921
:1051D0000004BBE73248864217D100680168C94322
:1051E000C906B3D40168C943C906AFD40168406891
:1051F00000902B48FEF718F92748323801F024FFB9
:1052000025493222323926483BE02648864226D1BB
:1052100000680168C943C90698D40168A04640687F
:1052200000902048FEF700F91B4F00244837385DF6
:10523000FFF71EFB641C802CF9D3174980224831EC
:105240003046FEF73FFC144880214830FBF77AF9DE
:1052500003F00EFC144A2844C2E9000876E713481C
:105260008642B6D100680168C943C906B1D4016855
:10527000406800900D48FEF7D7F8054904220B4816
:10528000891CBDE8F843FEF71DBC0000900C00200F
:1052900064000020041100204C1100208000002038
:1052A000000C0020480C002088000020200D002069
:1052B00008B590F84210222901D0022008BD82686A
:1052C0004FF480539A4201D1016921B1816A9A4217
:1052D0001BD04AB10AE00268816A5268C2F3080230
:1052E0000A80816A891C08E0026972B1026852680A
:1052F00002F07F020A70816A491C8162C18D491ED9
:105300000904090CC18503D01BE002685268F1E76B
:105310000168CA6822F02002CA600168CA6822F4E3
:105320008072CA6001684A6922F001024A61202144
:1053300080F8421000214163026B012A03D0FEF77E
:10534000CFFB002008BD016301680C3151E8002F3C
:1053500022F0100241E80023002BF5D101680A6811
:10536000D20602D50A6849680091818DFEF75BF884
:10537000E7E7000070B5044600680169E26821F4BF
:105380004051114301612169A068E26908436169E4
:10539000114308432168CA6849F20C639A430243E7
:1053A000CA6020684169A26921F4407111434161DA
:1053B00031492068884202D03049884202D1FDF745
:1053C000C9FA01E0FDF7B6FAE26900231921642564
:1053D0003226B2F5004F626828D0A0FB0101930F7E
:1053E0009200FAF7C1FF0146B0FBF5F06FF018022A
:1053F000504301EB800006EB0010B0FBF5F000F02D
:10540000F002B1FBF5F002EB0012B1FBF5F06FF02A
:105410001803584301EB800006EB0010B0FBF5F0D9
:1054200000F00F0021681044886070BDA0FB0101EE
:1054300092185B41FAF798FF0146B0FBF5F00201C4
:10544000B1FBF5F06FF01803584301EB800006EB59
:10545000C000B0FBF5F000F0F80002EB4002B1FB39
:10546000F5F0584301EB800006EBC000B0FBF5F00F
:1054700000F00700D6E700000010014000140140D2
:1054800038B581620446828500201346606422227A
:1054900084F84220E56B1B4AEA63E56B1A4A2A64EA
:1054A000E56B1A4AEA64E26B10650A462168E06B14
:1054B000091DFCF753FA20680168406800902069D4
:1054C00048B120680C3050E8001F41F4807140E87A
:1054D0000012002AF5D12068143050E8001F41F076
:1054E000010140E80012002AF5D12068143050E88C
:1054F000001F41F0400140E80012002AF5D10020D1
:1055000038BD0000D34F000859500008894F0008EB
:1055100010B50448FDF7C2FFBDE810400148FFF791
:1055200005BE0000900C00200148FDF7B7BF000049
:10553000D80C002010B50448FDF7B0FFBDE81040BE
:105540000148FFF7F3BD0000200D002010B5FFF764
:10555000DDFAFEF721FB0F480068C16841F0100139
:10556000C1600D480068C16841F01001C1600B487E
:105570000068C16841F01001C16009480068C16855
:1055800041F01001C160BDE81040322205490248D7
:10559000FEF798BA900C0020000C0020480C002068
:1055A000200D00201A1100202DE9F0410C46D0F802
:1055B000D412D0F8C82200EB8101D1F8C01229B36F
:1055C00004F00F0606EB860300EB83050027AB69AA
:1055D0004BB106EBC60602EB8602D269B3FBF2F6CC
:1055E00002FB1632A2B1C1F81472D0F8D42200EB3B
:1055F0008200D0F8C40203692BB1D1F80802224618
:1056000001F5047198470020BDE8F0810320FBE715
:1056100000231A462146AF6100F0AAFDF3E770B5FA
:105620000546D0F8D40205EB8000D0F8C04294B112
:10563000284600F079FCC4F80C02D5F8D412D4F84E
:10564000040205EB8101D1F8C412CA6804F50371A4
:105650009047002070BD032070BD000070B5224D42
:105660000446297800F0A4FB2878002600F00F00FB
:1056700000EB800004EB800086846978204600F00F
:1056800097FB687800F00F0000EB800004EB8000CF
:10569000A0F86461A978204600F08AFBA87800F0A1
:1056A0000F0000EB800004EB80008684C684D4F8F1
:1056B000D40204EB8000D0F8C01299B1D0F8C40233
:1056C00040688047D4F8D40204EB8000D0F8C002D0
:1056D00000F071FFD4F8D40204EB8000C0F8C0627F
:1056E000C4F8BC62002070BDE007002010B5D0F8FF
:1056F000D41200EB8100D0F8C04284B1D0F8C412BB
:1057000059B194F80002FF2807D08B6894F8012261
:1057100021469847FF2084F80002002010BD032096
:1057200010BD00000A21018000487047E4070020F6
:1057300070B5064682210C4800F05DFA054601214D
:10574000094800F058FA04468121074800F053FA4E
:105750000DB11021A971402104B1A18000B1818057
:1057600043203080004870BDF007002070B5064629
:1057700082210D4800F03FFA054601210A4800F059
:105780003AFA04468121084800F035FA0DB110219B
:10579000A9714FF4007104B1A18000B18180432050
:1057A0003080014870BD0000F007002070B506464B
:1057B00082210C4800F01FFA05460121094800F03B
:1057C0001AFA04468121074800F015FA0DB110219C
:1057D000A971402104B1A18000B1818043203080B3
:1057E000004870BDF00700202DE9F04704464FF453
:1057F0000775284600F0E0FE06004FF0000863D071
:105800002946FAF7C1FED4F8D4023C4D04EB8000DF
:105810004FF01009C0F8C062C4F8BC62207C4FF49D
:10582000007A0127F0B3402302222978204600F0B5
:10583000EAFB2878402300F00F0000EB800004EB27
:105840008000878402226978204600F0DCFB6878BB
:10585000082300F00F0000EB800004EB800003221F
:10586000A0F86471A978204601F00F0101EB8101D5
:1058700004EB8101A1F82690A97800F0C4FBA87878
:1058800000F00F0000EB800004EB80008784C6F876
:105890000482D4F8D402474604EB8000D0F8C40256
:1058A000006800E018E006F501768047376177610F
:1058B00032687AB1207CF8B140236978204600F044
:1058C000AEFB0020BDE8F087D4F8D41204EB8101D0
:1058D000C1F8C0820220F5E753460222297820460B
:1058E00000F091FB2878534600F00F0000EB800099
:1058F00004EB80008784A5E75346DEE7E00700203D
:1059000010B5D0F8D41200EB8101D1F8C01259B112
:10591000027C084C002AD1F8042207D04023617889
:1059200000F07DFB002010BD032010BD4FF400737C
:10593000F5E70000E007002039B1D0F8D42200EBF1
:105940008200C0F8C4120020704703207047D0F8CE
:10595000D42200EB8200D0F8C00218B1C0F80412C3
:105960000020704703207047D0F8D43200EB83004A
:10597000D0F8C00228B1C0F81022C0F808120020E8
:105980007047032070472DE9FC410646D0F8D40249
:105990000C4606EB80000021D0F8C0728DF8001094
:1059A000ADF804100D4637B1217811F060022FD008
:1059B000202A4BD102E00320BDE8FC81E288F2B14D
:1059C00009060DD5D0F8C40263783946D0F808C06E
:1059D0001846E047E288072A00D9072239462DE019
:1059E000607887F80002E088402800D34020C2B2E7
:1059F00087F801223946304600F058F82BE0D0F8FD
:105A0000C40263780022866821461846B04722E027
:105A1000607830B101281ED00A2809D00B2815D192
:105A200010E096F89C02032810D1022201A905E09B
:105A300096F89C02032809D101226946304600F0FD
:105A40004FF808E096F89C02032804D0214630461F
:105A500000F021F803252846AEE710B5D0F8B822AB
:105A600000245268904700B10324204610BD002056
:105A7000704700207047134610B50A46002100F019
:105A8000CEFA002010BD134610B50A46002100F0E2
:105A90006FFB002010BD10B50446802100F049FBCB
:105AA0002046BDE81040002100F043BB10B50323A1
:105AB000C0F89432C0F858211346C0F85C210A4659
:105AC000002100F0ACFA002010BD10B50521C0F88F
:105AD000941200231A46194600F0A1FA002010BDC6
