:020000040800F2
:1000000090510020290300085B3C0008F5330008EC
:10001000553C00086F060008D14A000800000000A7
:10002000000000000000000000000000690200085D
:100030003914000800000000C5020008C54100088E
:100040004303000843030008430300084303000878
:100050004303000843030008430300084303000868
:100060004303000843030008430300086513000826
:100070004303000843030008430300084303000848
:1000800071130008430300084303000843030008FA
:100090009D060008430300084303000843030008CB
:1000A0004303000843030008430300084303000818
:1000B0004303000843030008430300084303000808
:1000C00043030008430300084303000843030008F8
:1000D00043030008494A0008614A00084303000836
:1000E00043030008430300084303000843030008D8
:1000F000430300089D42000843030008430300082F
:1001000043030008430300084303000843030008B7
:100110004303000881430008430300084303000829
:1001200043030008430300087D130008430300084D
:100130004303000800000000000000004303000823
:10014000D5060008430300084303000843030008E2
:10015000430300084303000889130008794A000894
:100160004303000843030008430300084303000857
:1001700043030008430300080000000000000000E3
:10018000430300084303000800F002F800F05CF8A5
:100190000AA090E8000C82448344AAF10107DA45E2
:1001A00001D100F051F8AFF2090EBAE80F0013F0D8
:1001B000010F18BFFB1A43F001031847507C0000E1
:1001C000707C00000A444FF0000C10F8013B13F063
:1001D000070408BF10F8014B1D1108BF10F8015BA0
:1001E000641E05D010F8016B641E01F8016BF9D193
:1001F00013F0080F1EBF10F8014BAD1C0C1B09D1EA
:100200006D1E58BF01F801CBFAD505E014F8016B5B
:1002100001F8016B6D1EF9D59142D6D370470000ED
:100220000023002400250026103A28BF78C1FBD8FF
:10023000520728BF30C148BF0B6070471FB507F099
:10024000BAF91FBD10B510BD00F0DCF91146FFF77B
:10025000F5FF05F04BFC00F0FAF903B4FFF7F2FFED
:1002600003BC00F0FDF900002C4B19680868B0E8E9
:10027000F04F80F30988BFF36F8F4FF0000080F3D9
:10028000118870470000000008480068006880F38B
:1002900008884FF0000080F3148862B661B6BFF39F
:1002A0004F8FBFF36F8F00DF00BF00BF08ED00E08E
:1002B000DFF80C00016841F470010160704700BF75
:1002C00088ED00E0EFF30980BFF36F8F134B1A68DE
:1002D0001EF0100F08BF20ED108A20E9F04F1060CB
:1002E00009B44FF0500080F31188BFF34F8FBFF374
:1002F0006F8F06F0A1F94FF0000080F3118809BC60
:1003000019680868B0E8F04F1EF0100F08BFB0EC95
:10031000108A80F30988BFF36F8F7047CC030020E9
:10032000EFF30580704700000948804709480047FF
:10033000FEE7FEE7FEE7FEE7FEE7FEE7FEE7FEE795
:10034000FEE7FEE704480549054A064B70470000F2
:100350008D42000889010008904B00209051002038
:10036000904D0020904D002053EA020C00F069806F
:100370002DE9F04B4FF00006002B1FBFB3FA83F5B9
:1003800003FA05F424FA05F65E4012BF1643B2FAEA
:1003900082F502FA05F4C5F120051EBF22FA05FC1C
:1003A00044EA0C04203556EA044C4FEA144418BFC2
:1003B000641C4FF000084FF00009904271EB030CF1
:1003C00039D3002919BFB1FA81F701FA07F6B0FA5B
:1003D00080F700FA07F6C7F120071EBF20FA07FCD6
:1003E00046EA0C062037B6FBF4FCA7EB0507103FE6
:1003F00007F01F0BCBF120060CFA0BFB2CFA06F6CC
:1004000044BFB3460026202FA4BF5E464FF0000B2A
:100410005BEA060C08BF4FF0010B19EB0B09ABFBB5
:10042000027C48EB0608C01B06FB02CC0BFB03CC8E
:1004300071EB0C01C1E70B46024641464846BDE858
:10044000F08B13B54FF000004FF00001AFF30080C8
:10045000BDE81C407047032A40F2308010F0030CC6
:1004600000F0158011F8013BBCF1020F624498BF07
:1004700011F801CB00F8013B38BF11F8013BA2F1A4
:10048000040298BF00F801CB38BF00F8013B11F01F
:10049000030300F02580083AC0F0088051F8043BBF
:1004A000083A51F804CBA0E80810F5E7121D5CBF2C
:1004B00051F8043B40F8043BAFF30080D20724BF5F
:1004C00011F8013B11F801CB48BF11F8012B24BFF3
:1004D00000F8013B00F801CB48BF00F8012B704742
:1004E00010B5203AC0F00B80B1E81850203AA0E8CF
:1004F0001850B1E81850A0E81850BFF4F5AF5FEA03
:10050000027C24BFB1E81850A0E8185044BF18C9B5
:1005100018C0BDE810405FEA827C24BF51F8043B5C
:1005200040F8043B08BF7047D20728BF31F8023BB0
:1005300048BF11F8012B28BF20F8023B48BF00F844
:10054000012B70474FF000020429C0F0128010F018
:10055000030C00F01B80CCF1040CBCF1020F18BF9F
:1005600000F8012BA8BF20F8022BA1EB0C0100F032
:100570000DB85FEAC17C24BF00F8012B00F8012B05
:1005800048BF00F8012B70474FF0000200B513463A
:1005900094469646203922BFA0E80C50A0E80C50A3
:1005A000B1F12001BFF4F7AF090728BFA0E80C5054
:1005B00048BF0CC05DF804EB890028BF40F8042B4D
:1005C00008BF704748BF20F8022B11F0804F18BFBA
:1005D00000F8012B704770477047704710B500F066
:1005E00009F8006810BD10B5044600F003F8046077
:1005F00010BD0000004870472C4B00200048704799
:100600002C4B00207546FFF7F9FFAE460500694602
:10061000534620F00700854618B020B5FFF792FE3C
:10062000BDE820404FF000064FF000074FF00008F3
:100630004FF0000B21F00701AC46ACE8C009ACE874
:10064000C009ACE8C009ACE8C0098D46704710B5D8
:100650000446AFF300802046BDE81040FFF7FDBD23
:1006600001491820ABBEFEE7260002007047FEE7F6
:1006700000B58BB06946084800F03EF86946064868
:1006800001F00AF80221044800F08CFF024801F052
:1006900087FB0BB000BD000088060020014801F078
:1006A000FCB800008806002000B58BB069460848F9
:1006B00000F022F86946064800F0EEFF02210448E7
:1006C00000F070FF024801F06BFB0BB000BD0000B2
:1006D000B0060020014801F0E0B80000B00600209C
:1006E0000A8852BA02804A8852BA42808A8852BA2C
:1006F000828089798171704700220123C1E9062334
:100700000A604A608A60CA604A610A610E22C1E9D1
:1007100008320068034B984203D0034B984200D143
:100720004A6170470064004000680040C28802814E
:100730000A7802704A7842704A8882808A884280A9
:10074000C988C1807047000008B50B4A4FF4207378
:10075000136000239360D36008231361074A6B463C
:100760001070000A50709170080AD0700249044855
:1007700000F02AFF08BD0000CC0900202F00002057
:100780008806002010B50246FF20054B04E000BF9C
:1007900012F8014B4440185D491EF9D210BD00000B
:1007A0007479000810B502004FF6FF700BD0064BAD
:1007B000491E08D312F8014B4440E4B233F8144008
:1007C00084EA1020F4E710BD747A00084FF4FA6050
:1007D00005F0CEFE124C00BF00F032F994F858023A
:1007E00008B900F0B3FB94F85802012801D100F0D9
:1007F00053FA94F85802032801D100F079FD94F8D7
:100800005802042801D100F087F894F8580205280E
:1008100001D100F0FFFA012005F0AAFEDCE700009C
:10082000FC0000202DED028B4FF47A7005F0A0FE45
:10083000032005F0A5F99FED338A334D334C4FF477
:10084000FA764FF49677032005F092FE207A01287D
:1008500004D0022834D00328F5D106E0607A0328BA
:1008600005D0012828D00228EDD1032025E095ED00
:10087000940AB5EEC00AF1EE10FA1BD195F85802B1
:10088000032801D00228DED195ED850A2049B0EE7B
:10089000C00A10EE100A8842D5DB042005F070F97A
:1008A000304605F065FE012005F06AF9384605F08E
:1008B0005FFEC8E7012000E0002005F061F9C2E713
:1008C000A08A000504D5052005F05AF985ED928A25
:1008D000A08A80040DD585ED928A042005F050F998
:1008E000304605F045FE012005F04AF9384605F08E
:1008F0003FFEA08AC004A6D59FED060A85ED920AA8
:10090000DAE7000000000000FC000020E40A0020FC
:1009100064B5323E00007A4410B52DED028B9FED98
:10092000438A434C002084ED838A84ED848A84F8D2
:10093000700204F1180003F099FA04F15C0003F06E
:1009400095FA3C489FED3C1AB0F9000000EE100A01
:10095000F8EEC00A80EE810A04F0A6FFF1EE040A68
:1009600005F064F884ED870AD4ED850AB0EE480AF4
:1009700004F1A00003F00CFAD4ED880AB0EE480AA6
:1009800004F1E40003F004FAD4ED870AB0EE480A5B
:1009900004F5947003F0FCF9D4ED890A94ED560A3D
:1009A00004F5B67003F0F4F994ED230AD4ED120ABD
:1009B000224870EE600A94ED7F0A60EE800AC4ED72
:1009C000970AD4ED340A94ED451AF1EE600A70EE00
:1009D000C10A60EE800AC4ED980AD4ED670A20EEE1
:1009E000C00A84ED990A00F003FC94ED980AF0EE39
:1009F000480A04F5D87003F0CBF994ED780AF1EECB
:100A0000400AC4ED9A0A84ED9B0ABDEEC00ABDEC13
:100A1000028B10EE100ABDEEE00ABDE8104001B2F4
:100A200010EE100A00B2FFF78FBE000000000000B9
:100A3000FC00002020000020630BB641C400002011
:100A400010B54D4C4D48B7EE000A84ED7F0A807812
:100A500020704B480A2190ED000A84ED850A90ED44
:100A6000020A84ED860AB0F90E2092FBF1F200EE44
:100A7000102AB8EEC00A84ED880AB0F9100090FB85
:100A8000F1F000EE100AB8EEC00A84ED890AB4F95C
:100A90001000B4F90610421A00EE102AB8EEC01A7F
:100AA000DFED380A084402EE100A81EE200AB8EEA3
:100AB000C22A9FED351A3648C2EE202A60EE011A8E
:100AC000B6EE000A61EE801A61EE801AC4ED811A5A
:100AD00062EE810A60EE800A20EE800ADFED2B0ACA
:100AE00084ED8C0A94ED830A01EEA00A84ED830A5A
:100AF000007A012802D0022803D004E000F040FB75
:100B000001E000F04FF894ED900AD4ED910A20EE48
:100B1000000A00EEA00A10EE100A06F0DBFC41EC21
:100B2000100B04F061FA51EC100B05F059FF00EEC8
:100B3000100A84ED940A94F84C02012803D1B1EE16
:100B4000400A84ED940AD4ED900A94ED910A04F0E1
:100B50002DF8104884ED950A4FF4B471008810FB0D
:100B600001F0C11700EBD140401300EE100AB8EEBF
:100B7000C00A84ED8B0A10BDFC0000209800002004
:100B8000D00A0020E12E65425C8F423E6F12833A0C
:100B9000E40A002020000020014800F0B3BA000061
:100BA0001401002070B537499FED341ADFED340A87
:100BB000B1F9000000EE100AB8EEC00A04F060FFC0
:100BC000BDEEC00A304ADFED313A10EE100A0023C4
:100BD0009FED2F3A00B2088092F84C522D4C012D17
:100BE00022D1A58AEE0701D0401C02E0AD0710D546
:100BF000401E088005F0DAFBB1F90000B0EE631A80
:100C000000EE900AF8EEE00A60EE200A92ED810A0A
:100C100006E00B8092ED810AB7EE001AF0EE430A6F
:100C200005F01AFA82ED900A92F84C02002824D1BD
:100C3000A08AC40702D00888401E03E0800711D5AF
:100C40000888401C088005F0B1FBB1F90000B0EE47
:100C5000631A00EE900AF8EEE00A60EE200A92EDC8
:100C6000810A06E00B8092ED810AB7EE001AF0EEE1
:100C7000430A05F0F1F982ED900A70BD00002544A9
:100C8000000025C4EC000020FC0000206F12833A15
:100C900000000000E40A002010B55448544C2DED2B
:100CA000028B007D400702D59FED520A01E09FEDC7
:100CB000520A002084ED800A94ED830A84ED840AB0
:100CC00084F87002D4ED950A94ED940A05F01AFBAD
:100CD00084ED820A4648D4ED830A94ED840A1830E4
:100CE00003F056F84248D4ED810A94ED900A5C3046
:100CF00003F04EF84148B0F9000000EE100AF8EE9B
:100D0000C00A9FED3F1A80EE810A04F0CDFDF0EE9F
:100D1000000A04F08BFE84ED870A3548D4ED850A7D
:100D2000B7EE000AA03003F033F89FED368A304862
:100D3000D4ED880AB0EE480AE43003F029F8D4ED87
:100D4000870AB0EE480A304803F022F82E48D4ED66
:100D5000890A94ED560A443003F01AF894ED230AF8
:100D600094ED7F1A294820EE410A84ED970A94ED0C
:100D7000340AD4ED450AB1EE400A30EE600A20EEA6
:100D8000010A84ED980A94ED670A20EE410A84ED89
:100D9000990A00F02DFA1E4800F02AFA94ED970AFD
:100DA000D4ED980A184830EE200AF0EE480A883050
:100DB00002F0EEFFD4ED990A94ED781A30EEC10AF4
:100DC00071EE200A84ED9A0AC4ED9B0AFDEEE00A5A
:100DD000BDEEC00ABDEC028B10EE900ABDE81040DB
:100DE00001B210EE100A00B2FFF7AEBCE40A002018
:100DF000FC00002000E064450070B24520000020A7
:100E0000630BB6410000000024020020B000002067
:100E1000D800002070B52DED028B9FED478A474C1E
:100E2000002084ED838A84ED848A84F8700204F1C2
:100E30001800064603F01AF804F15C00054603F0BA
:100E400015F83F489FED3F1AB0F9000000EE100A78
:100E5000F8EEC00A80EE810A04F026FDF1EE040AE5
:100E600004F0E4FD84ED870AD4ED950A94ED940A2C
:100E700005F048FA84ED820AD4ED830A94ED840AE1
:100E8000304602F085FFD4ED810A94ED900A2846A1
:100E900002F07EFFD4ED870AB0EE480A04F59470A4
:100EA00002F076FFD4ED890A94ED560A04F5B67087
:100EB00002F06EFF94ED230AD4ED120A224870EE80
:100EC000600A94ED7F0A60EE800AC4ED970AD4EDC3
:100ED000340A94ED451AF1EE600A70EEC10A60EE34
:100EE000800AC4ED980AD4ED670A20EEC00A84EDAA
:100EF000990A00F07DF994ED970AF0EE480A04F59E
:100F0000D87002F045FF94ED780AF1EE400AC4ED86
:100F10009A0A84ED9B0ABDEEC00ABDEC028B10EE6E
:100F2000100ABDEEE00ABDE8704001B210EE100AF2
:100F300000B2FFF709BC000000000000FC00002028
:100F400020000020630BB641C40000202DE9F041D1
:100F500065482DED028B064602F088FF624C0020AA
:100F60005C3C94ED830A84ED840A84F87002D4ED2D
:100F7000950A94ED940A05F0C5F984ED820A04F10E
:100F80001800D4ED830A94ED840A054602F000FFB0
:100F9000D4ED810A94ED900A304602F0F9FE5348F0
:100FA000B0F9000000EE100AF8EEC00A9FED501AEA
:100FB00080EE810A04F0AEFCF0EE000A04F036FD8B
:100FC00084ED870AD4ED850A9FED4A8A04F1A000DA
:100FD000B0EE480A02F0DCFED4ED880AB0EE480A12
:100FE00004F1E40002F0D4FE04F59470D4ED870A15
:100FF000B0EE480A074602F0CBFE3F48017A0229CC
:1010000007D1407A012804D1384602F02FFF84ED41
:10101000568A94ED920AB5EEC00AF1EE10FA14D099
:10102000284602F023FF304602F020FF384602F047
:101030001DFF94ED920AB5EE001AF1EE400A94ED10
:10104000890A05F009F884ED560A2C4800F0D0F81A
:10105000D4ED890A94ED560A294802F099FE94EDE0
:10106000120AD4ED230A2648B1EE400A443070EE4D
:10107000600A94ED7F0A60EE800AC4ED970A94ED51
:10108000341AD4ED451AB1EE411A31EE611A21EE4F
:10109000001A84ED981AD4ED671A21EEC00A84ED87
:1010A000990A30EE810AF0EE480A02F071FE94EDE2
:1010B000990A94ED781A70EE410A31EE000AC4EDF7
:1010C0009A0A84ED9B0ABDEEC00ABDEC028B10EEBD
:1010D000100ABDEEE00ABDE8F04101B210EE100AC0
:1010E00000B2FFF731BB00005801002020000020B3
:1010F000630BB64100000000E40A0020D800002085
:101100006802002070B5164C054616496268FFF764
:10111000A2F9154905F144006268FFF79CF91349EB
:1011200005F188006268FFF796F9114905F1CC00D6
:101130006268FFF790F90F4905F588706268FFF75C
:101140008AF90D4905F5AA706268FFF784F905F57B
:10115000CC706268BDE870400849FFF77CB90000B8
:10116000F00000202F0E0020720300207E030020DC
:101170008A03002096030020A2030020AE03002073
:10118000194810B5194990F84C424FF42573B1F93C
:101190000620012C01D014B10BE0D20001E0D200F6
:1011A000524292FBF3F200EE102AB8EEC00A80ED34
:1011B000900AB1F90420C2EB021292FBF3F200EEA6
:1011C000102A4FF47A72B8EEC00A80ED910A0988AD
:1011D00011FB02F191FBF3F100EE101AB8EEC00A18
:1011E00080ED920A10BD0000FC000020E40A0020FF
:1011F0003E4A9FED3D1AB2F84610B0EE410AB9B131
:10120000A1F57F43FF3B13D0B2F8513000EE903A86
:10121000F8EE601AD0ED040AF4EEE01AF1EE10FADE
:1012200012D2052B07D900EE103AF8EE401A04E06E
:10123000D0ED010A45E0F1EE041A81EEA00AD0EDEE
:10124000020A60EE800A3CE000EE901AD2F84D20CF
:10125000B8EE602AF6EE080A01EE902A22EE202A65
:10126000F4EEC21AF1EE10FA25DD02EE101A01EECC
:10127000902AB8EE422AF4EEC21AF1EE10FA13D216
:1012800000EE101AF8EE401A00EE102A31EEC02AD5
:1012900000EE101AF8EE401A00EE101AB8EE400AEE
:1012A00040EE601A82EE210AD0ED020AD0ED031A58
:1012B00041EE800A05E090ED020AD0ED030A70EEDF
:1012C000200A0068D0ED001AB0EEE10A30EE010A03
:1012D000B4EEE00AF1EE10FA05DD80EE801A21EEA0
:1012E000810A80ED000A7047000000008A0C00208F
:1012F000064900209FED060A08804880091D81EDFF
:101300009A0A81ED9B0A0146FFF71EBAF8000020F9
:101310000000000010B51048DFED100A2DED028B23
:1013200090ED8B0A30EE608A18EE100A06F0D2F8C3
:101330000B4C41EC100BE06804F0DCFE606118EE31
:10134000100A06F0C7F841EC100B206904F0D2FE39
:10135000A061BDEC028B10BDFC00002000008C429F
:1013600076000020014800F0A9BD0000040800201C
:10137000014800F0A3BD000024090020014800F04E
:101380009DBD000064080020014800F097BD0000EA
:10139000C408002001681823CAB2103AB2FBF3F265
:1013A000054B6FF30901032A9B5CC36500D9091D36
:1013B0008165084670470000747C000810B501463E
:1013C00000208B698A6A4FF0C07453B1B3F5005F97
:1013D00015D072B1012A0CD0022A0AD0032A09D1F1
:1013E00004E01AB1012A06D0022A03D1C96AC90150
:1013F00000D5012010BDC96AA142FAD010BD002A53
:10140000F7D0012AF2D0022AF3D0032AF3D010BD7C
:1014100030B50468256825F480252560046863607C
:101420008368402B036803D099600068C26030BDB8
:101430009A600068C16030BD70470000F0B5404858
:1014400090F83C100A2945D20122A0F88A200222F5
:10145000A0F88C200322A0F88E200422A0F890206F
:101460000522A0F8922040F201170622A0F894204D
:101470007E1C0722A0F89620751C6C1CA0F89870A2
:10148000A0F89A60631CA0F89C50A0F89E405A1CDB
:10149000A0F8A030A0F8A22001290CD002290DD07C
:1014A00003290ED004290FD0052910D0062901D117
:1014B000A0F8A420F0BDA0F8A470F0BDA0F8A4602E
:1014C000F0BDA0F8A450F0BDA0F8A440F0BDA0F875
:1014D000A430F0BD6522A0F88A206622A0F88C20F6
:1014E0006722A0F88E206822A0F890206922A0F838
:1014F000922040F265176A22A0F894207E1C6B228D
:10150000A0F89620751C6C1CA0F89870A0F89A6042
:10151000631CA0F89C50A0F89E405A1CA0F8A03074
:10152000A0F8A2206529C6D06629C7D06729C8D0EF
:101530006829C9D06929CAD06A29B9D0F0BD00008C
:101540008A0C002010B5FFF793F8FFF7ADF8BDE85F
:10155000104003F097BA72B6FEE7000010B558B11C
:10156000084C491E0BD310F8013B5340DBB234F852
:10157000133083EA1222F4E74FF6FF7010BD1046D5
:1015800010BD00007477000810B5054C04E000BFE2
:1015900010F8013B5340E25C491EF9D2104610BDE1
:1015A0007476000890F82020012A07D0022A05D07E
:1015B000416A41F48021416201207047006842691C
:1015C0000A43426100207047F0B590F8205004684B
:1015D000A468012D05D0022D03D0416A41F4802179
:1015E00057E014F0406F01D1E5004FD5C4F301641A
:1015F0000125A5401D608D684FF4C0739DB1CE6874
:1016000035434E6845EAC605066803EB0417F551F5
:101610004FF4C275076805EB04150E697E51097D0C
:10162000012905D009E00E88CD6845EA4655EBE76B
:1016300001684E5946F480764E511179D579567924
:1016400041EA056195792D0445EA062529434FF4C1
:10165000C676056806EB0416A9511178D57841EADB
:101660000561957852782D0445EA022211434FF422
:10167000C475026805EB04155151006803EB0411B1
:10168000425842F0010242500020F0BD416A41F44C
:10169000001141620120F0BD10B590F82020012A10
:1016A00007D0022A05D0416A41F48021416201201D
:1016B00010BD3B48D0F8002242F00102C0F80022E1
:1016C000D0F8002222F47C52C0F80022D0F8002288
:1016D0004B6A42EA0322C0F800220A7D02F01F038F
:1016E00001229A40D0F81C329343C0F81C32CB69D7
:1016F000B3B9D0F80C329343C0F80C328C894B68E4
:1017000064F31F434C6900EBC404C4F840320C89F5
:101710000B6864F31F434C6900EBC404C4F8443203
:10172000CB69012B16D1D0F80C321343C0F80C3220
:101730000C884B6864F31F434C6900EBC404C4F885
:1017400040320C89CB6864F31F434C6900EBC4043E
:10175000C4F844328B69002BD0F804320ED0134306
:10176000C0F804320B69002BD0F8143208D01343B0
:10177000C0F81432096A012904D008E09343EFE766
:101780009343F5E7D0F81C121143C0F81C12D0F8AF
:10179000001221F00101C0F80012002010BD00006D
:1017A00000640040704770B590F82040012C05D0CF
:1017B000022C03D0416A41F4802128E0046809B377
:1017C0002469A40720D04FF4D874056804EB0114F1
:1017D0002D5915F00405956005682D591AD0ED08AE
:1017E000556005682C5904F00204D4604FF4DA7493
:1017F000056804EB01142E5906F00F06082E0CD3D1
:1018000008250DE0E468DCE7416A41F4001141621B
:10181000012070BD6D0D1560E3E72D5905F00F0532
:10182000156105682D59C5F30725956105682C5983
:10183000240C54614FF4DC72046802EB0112A458CA
:101840001C700468A458240A5C700468A458240C12
:101850009C700468A258120EDA704FF4DE720468AD
:1018600002EB0112A4581C710468A458240A5C718C
:101870000468A458240C9C710468A258120EDA71F2
:10188000006829B1016941F020010161002070BDAB
:10189000C16841F02001C160F8E72DE9F05F05461D
:1018A000006800244669D0F804908768D0F80CB02E
:1018B000D0F810A0D0F81880F10748D0F90714D05C
:1018C00001218160B80703D5284600F096FA0CE0A4
:1018D000780702D54FF4006407E0380702D54FF4CB
:1018E000805402E0284600F087FAF80516D52968EA
:1018F0004FF480708860B80503D5284600F07FFA61
:101900000CE0780502D544F4005407E0380502D510
:1019100044F4804402E0284600F070FAF80316D53B
:1019200029684FF480308860B80303D5284600F05A
:1019300068FA0CE0780302D544F4004407E0380369
:1019400002D544F4803402E0284600F059FA30070A
:1019500007D55FEACB6004D52968102044F40074F1
:10196000C86070074FF0080707D55FEA0B7004D511
:101970002868C760284600F09BF9B00706D528689C
:10198000C068800702D0284600F094F9700607D599
:101990005FEACA6004D52968102044F480640861B5
:1019A000B00607D55FEA0A7004D5286807612846A3
:1019B00000F0F2F9F00606D528680069800702D029
:1019C000284600F0EAF9B00308D55FEAC96005D5FA
:1019D000296810204860284600F0E0F9F00307D598
:1019E0005FEA097004D528684760284600F00AFAC3
:1019F000300446D55FEA497040D5F00504D55FEA6A
:101A0000C87001D044F00104B00504D55FEA8870C5
:101A100001D544F00204700504D55FEA487001D591
:101A200044F00404300529D518F0700F26D008F0D2
:101A30007000402815D006DC102809D020280AD0D4
:101A4000302816D10AE050280ED0602811D10EE0BF
:101A500044F008040DE044F010040AE044F02004CF
:101A600007E044F0400404E044F0800401E044F462
:101A700080742868816921F07001816129680420DF
:101A80004860002C05D0686A204368622846FFF74A
:101A900089FEBDE8F09F70B5040003D094F82000E3
:101AA00010B104E0012070BD204600F081F82068EC
:101AB000016841F00101016000F06AFC054605265D
:101AC00004E000F065FC401B0A2811D8206840683B
:101AD000C007F6D02068016821F00201016000F023
:101AE00057FC05460BE000F053FC401B0A2806D9C2
:101AF000606A40F40030606284F82060D2E72068B9
:101B000040688007EFD4207E0128206801683DD01E
:101B100021F080010160607E01282068016838D0D2
:101B200021F040010160A07E01282068016833D0C7
:101B300021F020010160E07E0128206801682ED09C
:101B400041F010010160207F01282068016829D040
:101B500021F008010160607F01282068016824D01D
:101B600021F004010160D4E902010843D4E9041220
:101B7000114308436168491E08432168C861002079
:101B80006062012084F82000002070BD41F08001D7
:101B9000C0E741F04001C5E741F02001CAE721F06C
:101BA0001001CFE741F00801D4E741F00401D9E783
:101BB000F0B587B0044614216846FEF7E5FC374BC4
:101BC0003748DFF8D4E01968D4F800C0344A022559
:101BD0000326092710300024491CF44524D119603C
:101BE000012907D1016841F000710160006800F02F
:101BF00000700590106840F001001060106802ABA2
:101C000000F0010005904FF4C050CDE9000583E8D5
:101C1000D0006946234800F0C3FA002205211420B1
:101C200000F088FC142033E0DFF87CE0F44531D18B
:101C3000D0F800C04CF0806CC0F800C0D0F800C0F4
:101C400001290CF0806CCDF814C0196007D101682F
:101C500041F000710160006800F0007005901068AC
:101C600040F002001060106802AB00F00200059026
:101C70004FF44050CDE9000583E8D00069460B4899
:101C800000F08EFA00220521402000F053FC402095
:101C900000F042FC07B0F0BD0064004018000020D6
:101CA000303802400000024000680040000402405A
:101CB0007047000030B5054600682F492F4C87B0AB
:101CC000884222D123466A4600212D48FFF76BFD4A
:101CD0000098A0F58070413806D0012807D0A0F503
:101CE000A060253811D108E02449264802E02548A3
:101CF00022490A30FEF71AFD07E0208841BA1F4842
:101D00000B380180618849BA41801F4928688842A0
:101D10001DD11A4B6A4600211C48FFF744FD00996B
:101D2000A1F50071053914D01948A1F540711B398E
:101D300014D047290BD1218849BA0180618849BA5A
:101D40004180A18849BA8180E18849BAC18007B041
:101D500030BD0A49C81FFEF7C3FCF8E721780172BD
:101D60006178417261880B4A49BAA2F88610A1884D
:101D700049BA8182EBE700000064004027000020A0
:101D8000880600200001002000680040B006002006
:101D9000E40A00208A0C002070477047704700005A
:101DA00070B5044690F82000012804D0606A40F421
:101DB0000020606218E0022084F82000206801689A
:101DC00021F00101016000F0E3FA05460EE000BFDA
:101DD00000F0DEFA401B0A2808D9606A40F400309F
:101DE0006062052084F82000012070BD20684068F2
:101DF000C007EDD1606270BD704770477047704793
:101E00007047704770472DE9F0410446876D00F038
:101E1000BFFA064694F835000025022806D0802037
:101E2000606584F834500120BDE8F08120680168C5
:101E300021F0160101602068416921F080014161B3
:101E4000206C08B9A06C20B12068016821F008015D
:101E500001602068016821F0010101600CE000F0E0
:101E600097FA801B052807D920206065032084F895
:101E7000350084F83450D7E720680068C007EED1F9
:101E800094F85C103F208840B860012084F8350049
:101E900084F834500020C7E790F83510022903D0A9
:101EA0008021416501207047052180F835100068C8
:101EB000016821F001010160002070472DE9F8431D
:101EC00004464FF00009CDF8009063484FF41651D6
:101ED000A56D0068B0FBF1F72E6894F85C1008203F
:101EE00000FA01F131420FD021680A6852070BD580
:101EF0000A6822F004020A6094F85C108840A86026
:101F0000606D40F00100606594F85C104FF00108CE
:101F100008FA01F0304208D021684969090604D561
:101F2000A860606D40F00200606594F85C100420C9
:101F30008840304208D021680968890704D5A86024
:101F4000606D40F00400606594F85C1010208840DB
:101F5000304218D021680968090714D5A8602068A4
:101F60000168490304D50068000308D5A16C07E0A7
:101F70000168C90503D4016821F008010160216CE2
:101F800009B12046884794F85C10202088403042F0
:101F900031D021680968C9062DD5A86094F83500AC
:101FA00005282068016806D0490347D5006800036A
:101FB0001DD4616C1CE021F01601016020684169AC
:101FC00021F080014161206C08B9A06C20B120682B
:101FD000016821F00801016094F85C103F208840FE
:101FE000A86084F8358084F83490216D1FE0E16B9F
:101FF00009B120468847606D00282BD0606DC0076E
:1020000014D0052084F835002068016821F0010112
:1020100001600098401C0090B84203D82068006816
:10202000C007F6D184F8358084F83490E16C00293B
:1020300010D001B02046BDE8F04308470168C9054B
:10204000D5D4016821F01001016084F8358084F84E
:102050003490CCE7BDE8F883C80300202DE9F041B7
:10206000044600F095F906465CB1022084F835007C
:10207000002584F834502068016821F001010160D6
:102080000DE00120BDE8F08100F082F9801B0528F9
:1020900005D920206065032084F83500F2E7206828
:1020A0000068C007F0D12268116820480140D4E9D7
:1020B00001031843D4E903363343184363691843D3
:1020C000A3691843E3691843236A18430843616A04
:1020D000042903D1D4E90B13194308431060206885
:1020E0004069666A20F0070130460E430127042844
:1020F0000CD1A06A0643E06A40B12046FFF75EF9C2
:1021000020B14020606584F83570BAE720684661E8
:102110002046FFF73FF994F85C203F219140816011
:10212000656584F835700020ACE700003F8010F052
:102130002DE9F0410446866D90F834000025012811
:102140000DD0012084F8340094F835700020012F60
:1021500007D084F8340002252846BDE8F08102202B
:10216000FBE7022784F8357060652046FFF750F9D9
:1021700094F85C103F208840B0602068016841F00E
:1021800016010160206C20B12068016841F008014F
:1021900001602068016841F001010160DCE7000096
:1021A0002DE9F84FDFF8BCA10022012503264FF0EE
:1021B0000F090AF1040BAAF1040E00BF0B6805FA1F
:1021C00002F42340A34270D10F7907F00307012FD7
:1021D00001D0022F16D187684FEA420806FA08FCA0
:1021E00027EA0C07D1F80CC00CFA08FC4CEA070CE3
:1021F000C0F808C04768A7430C79C4F300149440A2
:102200003C4344600C79E443A4070AD0C4684FEA15
:10221000420C06FA0CF7BC438F6807FA0CF7274309
:10222000C7600C7904F00304022C12D1D40800EB2F
:10223000840CDCF820405707FF0E09FA07F824EA5F
:102240000804D1F8108008FA07F848EA0408CCF826
:10225000208004684FEA420C06FA0CF7BC430F7961
:1022600007F0030707FA0CF7274307604C6814F4DC
:10227000403F70D03C4C276847F480472760246873
:1022800022F0030704F480440094384C07EB040C5C
:10229000DCF8084897074FEA177809FA08F7BC43B3
:1022A000334FB84202D1002724E054E0314FB84206
:1022B00001D101271EE0304FB84201D1022719E0B9
:1022C0002E4FB84201D1032714E02D4FB84201D15F
:1022D00004270FE02B4FB84201D105270AE02A4F0F
:1022E000B84201D1062705E0284FB84201D107279F
:1022F00000E0082707FA08F72743CCF80878DAF84F
:1023000000405746D1F804C09C435FEACC2C00D56E
:102310001C433C60DBF800405F46D1F804C09C439E
:102320005FEA8C2C00D51C433C60DEF80040774609
:10233000D1F804C09C435FEA8C3C00D51C433C6050
:10234000084F083F3C68D1F804C09C435FEACC3C8E
:1023500000D51C433C60521C102AFFF42FAFBDE88F
:10236000F88F0000083C0140443802400030014032
:10237000000002400004024000080240000C02403D
:10238000001002400014024000180240001C0240ED
:102390000148806870470000BC03002070B504004D
:1023A00011D021684CF6CC400860216845F25550A8
:1023B0000860D4E9000141602168A0688860FFF7E7
:1023C000E7FF05460DE0012070BD00BFFFF7E0FF0D
:1023D000401B312805D92068C068800701D0032040
:1023E00070BD2068C0688007F0D121684AF6AA2035
:1023F0000860002070BD00684AF6AA210160002034
:10240000704700000248816802781144816070477B
:10241000BC0300200B4810B5016841F40071016055
:10242000016841F480610160016841F480710160DC
:10243000032000F09FF80F2000F006F800F050F89D
:10244000002010BD003C024030B505461F4887B053
:102450000024016841F480710160006806A900F45D
:102460008070009001A800F031F90498A8B100F044
:102470004DF940001649174AB0FBF1F11648491EC4
:10248000026040F2E732C0E90324C0E9011484612C
:1024900000F046FB040003D015E000F037F9E9E74F
:1024A0000D4800F06BFB04000DD12D2000F034F836
:1024B000102D07D2002229462D2000F03BF80748B6
:1024C000056000E0012407B0204630BD40380240DE
:1024D00040420F000020004084090020C00300207B
:1024E0000C4882B0016841F480410160006800F44A
:1024F000804000900748001F016841F08051016052
:102500000068002200F0805000900F21901E02B061
:1025100000F010B844380240002809DB00F01F0228
:10252000012191404009800000F1E020C0F8001135
:1025300070470000F0B40E4B1B680C46C3F3022337
:10254000C3F10705042D00D90425191D072901D25F
:10255000002300E0DB1E012606FA05F1491E21409A
:1025600099409E40761E16403143F0BC02F00EBBEF
:102570000CED00E0064900F0070208684FF6FF0383
:10258000184040EA0220034A1043086070470000E8
:102590000CED00E00000FA052DE9F0470E460500BD
:1025A00065D0DFF81481D8F80000F7B200F007001A
:1025B000B04207D288F80070D8F8000000F0070099
:1025C000B04254D128683D4C810712D5400703D54D
:1025D000206840F4E05020602878000703D5206888
:1025E00040F4604020602068A96820F0F0000843B3
:1025F00020602878C0072DD0304968680839012844
:1026000012D0022813D0032811D0096889070029A5
:102610002DDA216821F0030101432160FFF7B8FEA4
:10262000814641F2883A0EE009688903EFE70968BC
:102630008901ECE7FFF7ACFEA0EB0901514502D997
:102640000320BDE8F0872068696800F00C00B0EB5B
:10265000810FEFD1D8F80010404601F00701B142D8
:1026600007D90770006800F00700B04201D00120D0
:10267000E7E72878400705D52068E96820F4E050AE
:10268000084320602878000706D52068296920F4CF
:10269000604040EAC100206000F058F82168084A14
:1026A000C1F30311515CC840064908600648006840
:1026B000FFF7CAFE0020C4E7003C02400838024091
:1026C0007C7C0008C8030020C00300200F220260A9
:1026D0000C4A136803F003034360136803F0F0032C
:1026E0008360136803F4E053C36012684FF4E0534F
:1026F00003EAD20202610448006800F007000860A3
:102700007047000008380240003C02400448054978
:1027100000680968044AC1F38221515CC8407047CF
:10272000C8030020083802408C7C00080448054992
:1027300000680968044AC1F34231515CC8407047DF
:10274000C8030020083802408C7C0008154810B5EA
:10275000006810F00C02144813D01449042A0FD05A
:10276000082A0ED10F4C241F2268236802F03F0272
:102770005B0207D52068C0F38810A0FB010106E0CA
:10278000084610BD2168C1F38811A1FB0001002398
:10279000FDF7EAFD2168C1F30141491C4900B0FB86
:1027A000F1F010BD083802400024F40040787D01AB
:1027B0002DE9F84F04006ED02078DFF84C93C00765
:1027C000A9F104054AD009F104000168C1F38101AF
:1027D000012908D00068C0F3810002280AD1D9F885
:1027E0000000400206D52868800337D560680028BD
:1027F000E1D033E06068B0F5803F10D0B0F5A02F95
:10280000286810D020F480302860286820F48020C8
:1028100028606068A8B1FFF7BBFD06460DE0286898
:1028200040F48030F4E740F480202860F7E700BFF0
:10283000FFF7AEFD801B642873D828688003F7D5A6
:102840000CE0FFF7A5FD064605E000BFFFF7A0FD81
:10285000801B6428F0D828688003F7D42078DFF83C
:10286000AC8280074FF0000A3ED5A748001D0168E2
:1028700011F00C0F08D00068C0F3810002280BD1C2
:10288000D9F80000400207D42868800716D5E06810
:10289000012800D112E033E1E068B8B10120C8F8A6
:1028A0000000FFF775FD064605E000BFFFF770FD6D
:1028B000801B0228C0D828688007F7D528682169BE
:1028C00020F0F80040EAC10028600DE0C8F800A040
:1028D000FFF75EFD064604E0FFF75AFD801B022865
:1028E0001FD828688007F7D42078000722D5864FA4
:1028F00087486169703771B101210160FFF748FDB8
:10290000064604E0FFF744FD801B022809D838681A
:102910008007F7D50EE0C0F800A0FFF739FD0646A6
:1029200005E082E0FFF734FD801B02287DD838687F
:102930008007F7D42078400768D5DFF8CCB10027AE
:102940000BF13C0BDBF80000C0000BD4DBF80010EF
:1029500041F08051CBF80010DBF80000012700F0B7
:10296000805000906B4E3068C00510D4306840F441
:1029700080703060FFF70CFD009005E0FFF708FD68
:102980000099401A022850D83068C005F6D55E4E2E
:10299000A0686C3601280FD00528306810D020F0D0
:1029A00001003060306820F004003060A068B8B1E9
:1029B000FFF7EEFC00900FE0306840F00100F4E714
:1029C00040F004003060F7E7FFF7E2FC0099411A9D
:1029D00041F28830814266D830688007F4D50EE035
:1029E000FFF7D6FC009007E0FFF7D2FC0099411AF0
:1029F00041F28830814256D830688007F4D42FB134
:102A0000DBF8001021F08051CBF80010A069C8B3AA
:102A10003D49091D0968C1F3810102294AD00228F4
:102A2000504607D0C8F8600000E03CE0FFF7B0FC7B
:102A300004463BE04746C8F86000FFF7A9FC06469D
:102A400005E000BFFFF7A4FC801B02282BD82868F4
:102A50008001F7D4D4E907010843A16A2E4A490846
:102A600002EB0141626A41EA8211084394F82C109A
:102A700040EA0161C9F8001001203866FFF788FCC0
:102A8000044606E03EE000BFFFF782FC001B022880
:102A900009D828688001F7D534E000BFFFF778FC3B
:102AA000001B022802D90320BDE8F88F28688001A6
:102AB000F4D427E00128F7D0D9F80000E26900F447
:102AC000800191421CD1226A00F03F01914217D14E
:102AD00047F6C071626A0140B1EB821F10D1A26A51
:102AE0004FF0FF3300F4403103EB5202B1EB024FE1
:102AF00006D194F82C1000F07060B0EB016F01D09B
:102B00000120D1E70020CFE704380240000047420F
:102B1000800E4742007000400000FFFF7047704782
:102B200010B5040003D094F83D0010B107E0012077
:102B300010BD002084F83C00204600F01EF8022062
:102B400084F83D00211D206801F0AEFB012084F8CF
:102B5000460084F83E0084F83F0084F8400084F882
:102B6000410084F8420084F8430084F8440084F86B
:102B7000450084F83D00002010BD704790F83D10DE
:102B8000012901D001207047022180F83D10016821
:102B9000CA6842F00102CA6000681149884214D034
:102BA000B0F1804F11D00F4988420ED00E498842B3
:102BB0000BD00E49884208D00D49884205D00D49F6
:102BC000884202D00C49884204D1816801F0070193
:102BD000062903D0016841F001010160002070471F
:102BE000000001400004004000080040000C0040CC
:102BF00000040140004001400018004070472DE9EA
:102C0000F04104460068C66805694FF00007A9074F
:102C100013D5B10711D5F91E016101202077206875
:102C200080698007204602D0FFF7E8FF04E000F04B
:102C30007EF8204600F07CF82777680716D57007E5
:102C400014D521686FF00400086102202077206805
:102C5000806910F4407F204602D0FFF7CFFF04E0E8
:102C600000F065F8204600F063F82777280715D5AF
:102C7000300713D521686FF0080008610420207721
:102C80002068C0698007204602D0FFF7B7FF04E044
:102C900000F04DF8204600F04BF82777E80616D5EF
:102CA000F00614D521686FF0100008610820207725
:102CB0002068C06910F4407F204602D0FFF79EFFD5
:102CC00004E000F034F8204600F032F82777E807F7
:102CD00008D0F00706D021686FF001000861204697
:102CE00000F028F8280608D5300606D521686FF0D0
:102CF000800008612046FFF711FF680608D57006BE
:102D000006D521686FF040000861204600F01CF8ED
:102D1000A8060AD5B00608D521686FF02000086122
:102D20002046BDE8F041FFF7FABEBDE8F0817047EC
:102D30007047000000680349884201D1FFF762BB79
:102D400070470000002000407047704710B50446EF
:102D50000068406994F84110C0F3C010212911D1D6
:102D600080B12068143050E8001F21F0800140E855
:102D70000012002AF5D1A06B08B1FFF744F82046F5
:102D800001F0D6FB2068406994F84210C0F380102F
:102D9000222911D180B12068143050E8001F21F0A1
:102DA000400140E80012002AF5D1E06B08B1FFF7BE
:102DB0002AF8204601F095FB002010BD7047000066
:102DC000F8B5016804460868CA684B6910F00F0F2F
:102DD0004FF0000559D003F0010602F49077374315
:102DE00065D0C10705D0D10503D5616C41F0010163
:102DF0006164410705D5D90703D0616C41F0020138
:102E00006164810705D5D90703D0616C41F00401E5
:102E10006164010707D502F02001314303D0616CE2
:102E200041F008016164616C00293AD0800604D544
:102E3000900602D5204601F02BFC20684069616CA9
:102E4000C0F38010090700D460B3204601F049FBAD
:102E500020684069400621D52068143050E8001FE2
:102E600021F0400140E80012002AF5D1E06BA8B142
:102E70006E490165E06BFFF70FF8002811D0E06B99
:102E8000016D01B0BDE8F040084783060FD59306F9
:102E90000DD52046BDE8F84001F0FABB2046FFF70B
:102EA0008DFFF8BD2046FFF789FF6564F8BD266BEE
:102EB0002023012E7DD1C6067BD5D60679D508689C
:102EC0004868009048694FF00206400641D5E16B22
:102ED000086840680004000CE8D0A28D8242E5D961
:102EE000E085C869B0F5807F2DD020680C3050E8AF
:102EF000001F21F4807140E80012002AF5D12068FB
:102F0000143050E8001F21F0010140E80012002AAF
:102F1000F5D12068143050E8001F21F0400140E84E
:102F20000012002AF5D184F84230256320680C3065
:102F300050E8001F21F0100140E80012002AF5D1EE
:102F4000E06BFEF760FF6663A08DE18D401A81B2F1
:102F50002AE0A08DE18D401A81B2E08D0028A5D035
:102F60000029A3D022680C3252E8000F20F49070A0
:102F700042E80007002FF5D12068143050E8002FF8
:102F800022F0010240E80027002FF5D184F84230FA
:102F9000256320680C3050E8002F22F0100240E832
:102FA0000023002BF5D166632046FFF7CEFEF8BD67
:102FB000FFE705062BD5150629D594F841002128F1
:102FC000F5D1A068B0F5805F01D12069B0B1206A69
:102FD000411C2162216800784860E08C401E00049A
:102FE000000CE084E3D12068C16821F08001C16059
:102FF0002068C16841F04001C160D8E7206A0088BC
:10300000C0F308004860206A801C2062E5E74006A3
:10301000CDD55006CBD5CA68204622F04002CA6002
:1030200084F8413000F0E4F9C1E70000994300085A
:1030300070B5040004D094F84100002510B106E0FA
:10304000012070BD84F84050204600F023F8242071
:1030500084F841002068C16821F40051C160204615
:1030600001F078FB2068016921F49041016120683A
:10307000416921F02A0141612068C16841F4005191
:10308000C1606564202084F8410084F842006563D3
:10309000002070BD2DE9F04F87B005461421684629
:1030A000FDF772FAA148DFF8808210380221D5F8C6
:1030B00000C09E4B032200248F0606154FF0080B1C
:1030C000C44555D1D3F800C04CF4801CC3F800C0EF
:1030D0001B6803F480130593036843F00403036043
:1030E000036803F004030593036843F008030360D7
:1030F00000688A4600F008000590C802CDE9000A81
:10310000CDE902429146D8466946CDF810B08848CC
:10311000FFF746F80420CDE9000ACDE902496946E7
:10312000CDF810808348FFF73BF8DFF81082824922
:103130004046C8F80010C0E90174C0E90346C8F869
:103140001440F101C8F81840C8E90741C8F8244004
:10315000FEF784FF08B1FEF7FEF9C5F83C800022B7
:1031600005213520C8F83850FFF7E4F9352065E02F
:10317000DFF8CC81DFF8B491DFF8C8E109F1040988
:103180004FF0070AC4455ED1D9F800C04CF0100CCE
:10319000C9F800C0D9F8003003F0100305930368A4
:1031A00043F001030360006800F0010005904FF454
:1031B000C0608DE81300CDE9032A69467046FEF72A
:1031C000EFFFDFF87881604908F160084046C8F8F1
:1031D0000010C0E90174C0E903468915C8F814401D
:1031E000C0E906414902C8E90814B946FEF736FFAE
:1031F00008B1FEF7B0F9514F5348C5F83C80C037CD
:103200007830C8F83850E7E80209402051C74FF439
:10321000403047F81449BC61C7E9074047487C6221
:10322000C030FEF71BFF08B1FEF795F9AF6300222F
:1032300005212520BD63FFF77DF92520FFF76CF9F7
:1032400007B0BDE8F08FDFF80481C44546D1D3F85C
:1032500000C04CF4003CC3F800C01B6803F400330A
:103260000593036843F001030360006800F0010068
:1032700005900C208DE81300CDE9032A69467046BD
:10328000FEF78EFF2C49DFF8C88078314046C8F839
:103290000010C0E90174C0E903468915C8F814405C
:1032A000C0E906414FF44031C8F820100421C8F8A5
:1032B00024100121C8E90A14C8F83040FEF7CEFEF8
:1032C00008B1FEF748F9C5F83C8000220521262008
:1032D000C8F83850FFF72EF92620AFE71D4B9C4564
:1032E000AED1D9F8005045F02005C9F80050D9F802
:1032F000003003F020030593036843F004030360E8
:10330000006800F004000590C0208DE81300CDE9AE
:10331000032B69460648FEF743FF0022052147209C
:10332000FFF708F9472089E7005000404038024085
:1033300000080240000C0240106002400408002017
:103340000010014000000240406402400044004080
:10335000240900200014014090F84230202B01D0B5
:103360000220704721B11AB10023036301F078BA3B
:10337000012070477047704770B5044690F84100CF
:10338000202801D0022070BD49B342B32162A2843B
:10339000E28400206064212384F84130A56B114B46
:1033A000EB63A56B104B2B64A56B104BEB64A36B0D
:1033B0001865256813462A1DA06BFEF7B9FE216823
:1033C0006FF0400008602068143050E8001F41F0A2
:1033D000800140E80012002AF5D1002070BD0120D4
:1033E00070BD000097440008D9440008A9430008B4
:1033F00070477047FEE7000010B50349034800F02E
:10340000BFFD002010BD00005D3C0008280A002020
:1034100000F004F8012002F0BFFBF9E700B5044812
:1034200002F01CFB02485DF804EB0C3002F01EBBFE
:10343000D00A00208CB040F205144FF4967003F0CF
:1034400097F8CB48022700F10D010A911E3109912E
:103450000F3149300125CDE90701C44E693840F2EA
:103460002D1A4FF0050B06900A2003F081F8641C1A
:10347000A4B2B4FBFAF00AFB1040D0B340F237100C
:10348000B4FBF0F100FB114000287DD040F2411068
:10349000B4FBF0F100FB1140002876D040F24B1055
:1034A000B4FBF0F100FB114000286FD00A20B4FB00
:1034B000F0F100FB11400028D6D1FDF72BFFAB4AFD
:1034C000AA48183214305388418800880DF1080C3E
:1034D00012888CE80F00232002231A46CDE9005001
:1034E000A4A1069801F004FAA14903222D39022073
:1034F000D1E0FFE730884FF434794FF49668CDF887
:103500000890CDE903080590CDE90075002301225C
:1035100099A10A9801F0ECF971883288CDE904810B
:10352000CDE90282CDE900750023012293A109981B
:1035300001F0DEF971883288CDE90491CDE902927B
:10354000CDE90075002301228DA1089801F0D0F982
:103550007088CDF80890CDE903080590CDE9007595
:103560000023012287A1079801F0C2F94FF470717E
:103570007088CDE903014A1E00970590CDE901B29C
:103580000023012280A102E004E087E0DFE0784828
:103590005830D6E0B0884FF46B71CDE90301009745
:1035A00005904FF46172CDE9015271480023012268
:1035B00076A1673001F09CF9B08840F2BF394FF432
:1035C0007078CDF80890CDE9030805906848CDE9FA
:1035D000007B002301226EA1763001F089F9B088CA
:1035E0004FF47F71CDE90301009705904FF4757298
:1035F000CDE901525E480023012266A1853001F029
:1036000077F9F08840F2B632CDE9042040F2A231D9
:10361000CDE902105648CDE90075002301225EA1D4
:10362000943001F065F9F088CDF80890CDE90308F1
:1036300005904F48CDE9007B0023012257A1A3301C
:1036400001F056F9F08840F2DE31CDE90301009730
:10365000059040F2CA32CDE90152454800230122CB
:103660004FA1B23001F044F9F0880023A0F11E010F
:103670008AB20A3880B2CDE90482CDE902803C48A2
:10368000CDE90075012247A1C13001F031F9384977
:1036900003225A31072001F063F9E5E64FF4FA7985
:1036A00032210295CDE90319CDF81490CDE9005BE4
:1036B00001231A463CA10A9801F01AF94FF0640858
:1036C00040F2A231CDE90381CDF814804FF443726A
:1036D0000095CDE90172264801231A4633A11C301A
:1036E00001F006F940F27442CDE9042840F2DE31DF
:1036F000CDE90218CDE9005701231A462CA10998FB
:1037000001F0F6F81E214FF4E162CDE904214FF4F7
:10371000AF63CDE90239CDE9005B01231A4625A14B
:10372000089801F0E5F84FF47071CDE903814A1E65
:10373000CDF814800095CDE901B201231A461EA1EF
:10374000079801F0D5F8032209490520A3E70748A7
:10375000103043880188001F42880088CDE90202AA
:10376000CDE90413162002230122B7E676000020DB
:103770005D0D002032303100303031003030320009
:1037800030303300303034003030350030303800E5
:1037900030303900303130003031310030313200DA
:1037A00030313300303134003130310031303200CB
:1037B000313033003130340031303500104900B53C
:1037C0000020887001F1180000F01EF80C485C30F1
:1037D00000F032F80A48A03000F062F80848E430FF
:1037E00000F046F8074800F095F80648443000F02D
:1037F00091F804485DF804EB883000F06DB80000E3
:10380000FC000020240200209FED080ADFED080ADA
:1038100080ED080AC0ED0F0ADFED060AC0ED100AC0
:10382000C0ED0E0A80ED0D0A704700000000000098
:103830000000FA4500007A469FED090A80ED080A6B
:103840009FED080A80ED0F0A9FED070A80ED100A30
:1038500080ED0E0A9FED050A80ED0D0A704700000D
:103860000000704200401C4500007A460000000045
:103870009FED080ADFED090A80ED080A9FED060AB0
:1038800080ED0F0AC0ED100AC0ED0E0A80ED0D0AA2
:103890007047000000401C460000000000007A460F
:1038A0009FED090A80ED080A9FED080A80ED0F0AD6
:1038B0009FED070A80ED100A80ED0E0A9FED050AC4
:1038C00080ED0D0A7047000000401C4600606A460B
:1038D00000007A46000000009FED0A0A80ED080A09
:1038E000B3EE0E0A80ED0F0A9FED070A80ED100A75
:1038F0009FED060A80ED0E0A9FED050A80ED0D0A88
:103900007047000000401C46005043470000FA4446
:10391000000000009FED0A0A80ED080A9FED090AE9
:1039200080ED0F0A9FED080A80ED100A9FED070A4F
:1039300080ED0E0AB1EE040A80ED0D0A704700001A
:103940000000FA440000000000007A4600409C4558
:10395000104810B50E4901600321416000214FF469
:1039600010228160C0E903124FF400124261017617
:10397000012242768276C27601774177FEF78BF894
:10398000002803D0BDE81040FDF7E5BD10BD0000E4
:103990000064004088060020104810B50E49016000
:1039A0000321416000214FF410228160C0E903121D
:1039B0004FF4001242610176012242768276C2768D
:1039C00001774177FEF767F8002803D0BDE8104083
:1039D000FDF7C1BD10BD000000680040B00600202A
:1039E000194808B5016841F480010160016801F4DB
:1039F00080010091016841F400110160006800221B
:103A000000F40010009005210B20FEF793FD0B2021
:103A1000FEF782FD002205211020FEF78BFD10200D
:103A2000FEF77AFD002205213A20FEF783FD3A20B9
:103A3000FEF772FD002205214620FEF77BFDBDE862
:103A400008404620FEF768BD3038024010B5AAB0E5
:103A50001C2221496846FCF743FD0021684602F01C
:103A6000A7F81E4C1C491C2220601C3107A8FCF73B
:103A700037FD002107A802F09BF8174960601C225F
:103A800038310EA8FCF72CFD00210EA802F090F8AA
:103A90001149A0601C22543115A8FCF721FD00211A
:103AA00015A802F085F80C49E0601C2270311CA8B2
:103AB000FCF716FD00211CA802F07AF806492061E7
:103AC0001C228C3123A8FCF70BFD002123A802F057
:103AD0006FF860612AB010BDCC75000800000020AE
:103AE000154808B5016841F080010160016801F0E6
:103AF00080010091016841F001010160016801F05D
:103B000001010091016841F002010160016801F0CA
:103B100002010091016841F004010160016801F0B7
:103B200004010091016841F008010160006800F0A3
:103B30000800009008BD000030380240094810B568
:103B4000074901600321416064218160FEF726FC82
:103B5000002803D0BDE81040FDF7FDBC10BD0000FB
:103B600000300040D80600200C4810B50A4901601A
:103B70004FF461214160002181600C22C160C0E9E5
:103B800004128161C161FFF753FA002803D0BDE838
:103B90001040FDF7E0BC10BD00500040E4060020DE
:103BA0000C4810B50A4901604FF4E1314160002131
:103BB00081600C22C160C0E904128161C161FFF71C
:103BC00037FA002803D0BDE81040FDF7C4BC10BD93
:103BD000001001402C0700200E4810B50C49016070
:103BE0000D4941604FF48051816000214FF48062A3
:103BF000C0E903120C22C0E90521C161FFF718FAE0
:103C0000002803D0BDE81040FDF7A5BC10BD0000A2
:103C10000044004074070020A08601000C4810B545
:103C20000A4901604FF4E1314160002181600C22BA
:103C3000C160C0E904128161C161FFF7F9F9002890
:103C400003D0BDE81040FDF786BC10BD0014014054
:103C5000BC070020FEE7FFF7B1BDFEE72DE9F0410C
:103C60000024051D474EB0F8847027E0285DC02869
:103C70003BD012DCA52829D008DC902822D0A0282F
:103C800024D0A12822D0A22817D11FE0B02824D008
:103C9000B12822D0B22810D11FE0D12867D006DC8D
:103CA000C12822D0C22820D0D02806D124E0D9288B
:103CB00051D0E02864D0F02862D0641CA742D5DC43
:103CC000BDE8F0816878B070A41CF7E7281950F8B7
:103CD000011F7160808830813BE0281950F8011F76
:103CE000C6F80A108088F08133E0281950F8011FC7
:103CF00031618088B0822CE028194178827801EB0C
:103D0000022109B200EE101A2049F8EEC00A9FED18
:103D10001E0A80EE801A81ED001AC278037902EB48
:103D2000032212B200EE902AF8EEE00A80EE801A2A
:103D3000F2EE040A81ED011A4279807902EB00204B
:103D400000B200EE100AB8EEC00A80EE201A81ED33
:103D5000021AE41DB2E70D4829190C3851F8012F59
:103D6000C2604A68026189680D344161A6E707486C
:103D7000291910220C30491CFCF76DFB11349DE70A
:103D8000641D9BE7480000200000C842B40A0020E0
:103D900000B580ED030A30EE600AC0ED040A80ED44
:103DA000050AD0ED0D0AB1EE601A01F017FE80EDA4
:103DB000050AD0ED070A70EE800AC0ED070A90ED03
:103DC000081AF4EEC10AF1EE10FA06DCB1EE411A5F
:103DD000F4EEC10AF1EE10FA01D280ED071AD0ED2F
:103DE000000A60EE801AC0ED091AD0ED010A90EDCC
:103DF000071A60EE810AC0ED0A0A90ED061A90EDEE
:103E0000022A30EE411A21EE022A80ED0B2A90EDB3
:103E10000F1AF4EEC10AF1EE10FA06DCB1EE411A07
:103E2000F4EEC10AF1EE10FA01D280ED0A1AD0EDDB
:103E30000A0A71EEA00A70EE820AC0ED0C0A80ED4B
:103E4000060A90ED0E0AF4EEC00AF1EE10FA09DC53
:103E5000B1EE400AF4EEC00AF1EE10FA02D390ED92
:103E60000C0A00BD80ED0C0A00BD00009FED080AA1
:103E700080ED050A80ED0B0A80ED0A0A80ED090A43
:103E800080ED0C0A80ED040A80ED030A7047000003
:103E9000000000002DE9F041384C0146204627780B
:103EA000D0E903200623A61D0025072F62D2DFE8F4
:103EB00007F004081A1F272A31005A295BD1012074
:103EC00009E080F88810A52904D0A62905D0A729E3
:103ED00051D105E0022020704DE0EAB3904749E05F
:103EE0000560237047E0A0F88410B1700320F2E76A
:103EF00030F8842F42EA01220280F1700420EAE7C0
:103F000061800520E7E7628842EA0121618005605F
:103F1000A580E6E70368061D5F1C0760995590F8C9
:103F20008810A72907D10168082904D30821A0F81F
:103F30008410904725702069B0F884200168914270
:103F400019D390F88800A52815D10C490422891DA1
:103F5000881E01F053FD00E00CE02169074804C908
:103F6000001D01F04BFDA0886188884202D1D4E990
:103F70000310884725700020BDE8F0816000002014
:103F800070B5044D0446E9608C21FCF7FDFA2C6104
:103F900070BD00006000002030B5144B1C686569DE
:103FA00045F0400565611B68DC6844F01004DC6086
:103FB0000F4B1C68256825F0010525601C682568E5
:103FC000ED07F7D11D680B4CAC601C68E060186809
:103FD0000161186842601868016841F4802101603D
:103FE0001868016841F00101016030BD74070020CC
:103FF000240900200444004070B504465A4D20684E
:104000002860207928712078A52870D105212046C4
:1040100000F07EFD01283BD161782046093100F097
:1040200059FD002834D0B4F8050040F20122A0F276
:104030000121904248D014DC40F20112A0F201119B
:1040400090422ED006DC012814D0022821D003286B
:104050001ED121E0012929D003292CD0042979D1AE
:104060002EE0092976D2DFE801F0753B43507559FF
:104070005D687100D4F80700C5F80500D4F80B009E
:10408000C5F80900B4F80F00A5F80D00607CE873CE
:1040900060E0E07928745DE033482022E11D1130B2
:1040A00022E0D4F80700C5F8310053E0D4F8070047
:1040B000C5F835004EE0B4F80700A5F8390049E02E
:1040C000E07985F83B0045E0FDF7B8F9D4F8070042
:1040D000E863D4F80B002864D4F80F00686439E072
:1040E00021481022E11D4930FCF7B5F932E039E0F2
:1040F000D4F80700C5F85900D4F80B00C5F85D00E6
:10410000D4F80F00C5F8610024E0D4F80700C5F822
:104110006500B4F80B00A5F869001BE0E07985F8AC
:104120006B0017E0D4F80700E866B4F80B00A5F8B8
:104130007000607B85F872000CE0D4F80700C5F8C9
:104140007300B4F80B00A5F8770003E0D4F807007B
:10415000C5F87900B5F801000934015DA52901D140
:1041600004444BE770BD00008A0C00200249242261
:10417000A1F12400FFF710BFE60B0020642002F03D
:10418000F7F900240C4D14264FF47A7794FBF6F0DF
:1041900006FB104038B90023B5F95310B5F94400B7
:1041A0001A4601F071FF012002F0E2F9641CBC42E2
:1041B000ECDB0024EAE700008A0C0020012001F07B
:1041C000EBFCFBE710B5502080F31188BFF34F8F55
:1041D000BFF36F8F02F030FB18B104494FF08050ED
:1041E0000860002080F3118810BD000004ED00E09D
:1041F00030B593B030216846FCF7C6F914210CA8FD
:10420000FCF7C2F91F480025016841F080510160A8
:10421000006800F0805011901B48016841F4804113
:1042200001600068022400F4804011900920009091
:104230004FF4803001900120CDE9050480050790FE
:10424000192008904FF4A870CDE9090404200B90C0
:104250006846FEF7ADFA08B172B6FEE70CA90F206A
:1042600081E831004FF4A0500F904FF4805010902F
:1042700005210CA8FEF790F9002801D072B6FEE7E0
:1042800013B030BD40380240007000400248016861
:1042900041F470010160704788ED00E00148FEF7CD
:1042A000AEBC000084090020F0B50268294C2A4DFC
:1042B0002A4E2B4F2B4B4FF0804CA04209D060452B
:1042C00007D0A84205D0B04203D0B84201D09842EE
:1042D00004D122F0700E4A6842EA0E02A0421BD0BE
:1042E000604519D0A84217D0B04215D0B84213D0BB
:1042F000984211D01C4DA8420ED01C4DA8420BD0A4
:104300001B4DA84208D01B4DA84205D01A4DA8420B
:1043100002D01A4DA84203D122F44075CA682A433C
:104320004D6922F080022A4302608A68C2620A68EC
:104330008262A04201D0984201D109690163012142
:1043400041610169C90703D0016921F001010161DF
:10435000F0BD0000000001400004004000080040E3
:10436000000C0040000401400040014000440140B6
:104370000048014000180040001C004000200040A0
:1043800010B50448FEF71CFDBDE81040014800F0E0
:10439000DDB80000E406002010B5806B0021C18567
:1043A000C184FEF70BFD10BD70B5846B20684069B9
:1043B00094F84110C0F3C0100025212904D118B190
:1043C000E584204600F0B4F82068406994F8421073
:1043D000C0F38010222904D118B1E585204600F0F1
:1043E00080F8606C40F0100060642046FEF7E6FC48
:1043F00070BD10B50146806B096809684FF0000276
:10440000C9052ED4C28501680C3151E8003F23F460
:10441000807341E80034002CF5D10168143151E873
:10442000003F23F0010341E80034002CF5D101687E
:10443000143151E8003F23F0400341E80034002CE0
:10444000F5D1202180F84210016B012909D10168C2
:104450000C3151E8003F23F0100341E80034002CF8
:10446000F5D14263016B012902D0FEF783FF10BD35
:10447000818DFEF76AFC10BD10B5806B0121416390
:10448000016B012902D0FEF776FF10BD818D49082E
:10449000FEF75BFC10BD10B50146806B096809682A
:1044A000C90516D40021C1840168143151E8002FD8
:1044B00022F0800241E80023002BF5D101680C3185
:1044C00051E8002F42F0400241E80023002BF5D1D3
:1044D00010BDFEF78DFF10BD10B5806BFEF789FF94
:1044E00010BD01680C3151E8002F22F4907241E8B0
:1044F0000023002BF5D10168143151E8002F22F080
:10450000010241E80023002BF5D1016B012909D1FB
:1045100001680C3151E8002F22F0100241E800231D
:10452000002BF5D1202180F8421000210163704753
:1045300001680C3151E8002F22F0C00241E800234D
:10454000002BF5D1202180F841107047F8B50546C1
:1045500046480024854214D100680168C943C90651
:1045600019D40168406800904048FEF7EFFB8022B4
:104570003F493E48FEF7F0FEBDE8F8403C48FFF7F3
:104580003BBD3C498D424CD108680268920603D578
:10459000016840680090F8BD0268D206FBD5026849
:1045A00040680090C86B006802684FF02403150350
:1045B000314A056825F001050560C86B0568686823
:1045C000C0F1240080B210806B60CA6B126813685F
:1045D0000ED443F400231360C96B09680A6842F0E3
:1045E00001020A60122813D121482449C8300DE085
:1045F00023F400231360C96B09680A6842F00102C2
:104600000A60122804D11A481C49EC3001F010FE4F
:1046100001F093FA47F2305108441949C1E9000406
:10462000F8BD18488542FBD100680168C943C90636
:10463000F6D40168406800901248FEF787FB124EDE
:104640000024305DFFF726FC641C802CF9D3802207
:104650000D492846FEF780FE80210B48FBF772FFCC
:10466000BDE8F8400948FDF7C6BE00002C07002051
:10467000FA0A00207407002074000020E40A0020D9
:10468000A0000020E40600200A0C0020D80600202C
:1046900008B590F84210222901D0022008BD826896
:1046A0004FF480539A4201D1016921B1816A9A4243
:1046B0001BD04AB10AE00268816A5268C2F308025C
:1046C0000A80816A891C08E0026972B10268526836
:1046D00002F07F020A70816A491C8162C18D491E05
:1046E0000904090CC18503D01BE002685268F1E798
:1046F0000168CA6822F02002CA600168CA6822F410
:104700008072CA6001684A6922F001024A61202170
:1047100080F8421000214163026B012A03D0FEF7AA
:1047200029FE002008BD016301680C3151E8002F0B
:1047300022F0100241E80023002BF5D101680A683D
:10474000D20602D50A6849680091818DFEF7FDFA0C
:10475000E7E7000070B5044600680169E26821F4EB
:104760004051114301612169A068E2690843616910
:10477000114308432168CA6849F20C639A43024313
:10478000CA6020684169A26921F440711143416106
:1047900031492068884202D03049884202D1FDF771
:1047A000C5FF01E0FDF7B2FFE2690023192164258E
:1047B0003226B2F5004F626828D0A0FB0101930FAA
:1047C0009200FBF7D1FD0146B0FBF5F06FF0180247
:1047D000504301EB800006EB0010B0FBF5F000F059
:1047E000F002B1FBF5F002EB0012B1FBF5F06FF057
:1047F0001803584301EB800006EB0010B0FBF5F006
:1048000000F00F0021681044886070BDA0FB01011A
:1048100092185B41FBF7A8FD0146B0FBF5F00201E1
:10482000B1FBF5F06FF01803584301EB800006EB85
:10483000C000B0FBF5F000F0F80002EB4002B1FB65
:10484000F5F0584301EB800006EBC000B0FBF5F03B
:1048500000F00700D6E700000010014000140140FE
:1048600038B58162044682850020134660642222A6
:1048700084F84220E56B1B4AEA63E56B1A4A2A6416
:10488000E56B1A4AEA64E26B10650A462168E06B40
:10489000091DFDF74DFC2068016840680090206903
:1048A00048B120680C3050E8001F41F4807140E8A6
:1048B0000012002AF5D12068143050E8001F41F0A2
:1048C000010140E80012002AF5D12068143050E8B8
:1048D000001F41F0400140E80012002AF5D10020FD
:1048E00038BD0000F343000879440008A9430008DC
:1048F0002DE9F0430DF11C0898E8F01291F80080C2
:1049000000F8018B91F8018080F80080897841706F
:10491000817862F3020121F038018170418863F3EC
:1049200089114180C17864F38501C170C18865F344
:104930000901C180B0F8071066F38C01A0F80710D8
:10494000018967F34F110181B0F80B1069F38C01F5
:10495000A0F80B1082896CF34F128281BDE8F083BE
:1049600070B50546A52016460C460870012D06D0E8
:10497000022D06D0052D06D0072D06D008E0152102
:1049800004E0242102E0512100E06F21A4F801108D
:10499000E0780421401CE0702046FBF7F3FE207114
:1049A00040F20131A4F80510012D06D0022D07D0E8
:1049B000052D08D0072D09D00CE040F2011107E0C9
:1049C0004FF4817104E040F2031101E04FF4827171
:1049D000A4F80710A4F8096006F58076A4F80B6027
:1049E000012D13D0022D19D0052D20D0072D27D150
:1049F000254676212046FBF7D5FEA5F876007822DD
:104A00002146BDE870400F48FEF7B6BC25461C2184
:104A10002046FBF7C7FEA8831E22F1E725462B217F
:104A20002046FBF7BFFEA5F82B002D22E8E7254620
:104A300058212046FBF7B6FEA5F858005A22DFE7BA
:104A400070BD00002C07002010B50448FEF7B8F92F
:104A5000BDE810400148FFF779BD00002C07002099
:104A600010B50448FEF7ACF9BDE810400148FFF767
:104A70006DBD0000740700200148FEF7A1B90000D9
:104A8000BC07002010B5FFF771FBFEF7B5FC0C4822
:104A90000068C16841F01001C1600A480068C1683F
:104AA00041F01001C16008480068C16841F0100180
:104AB000C16006480068C16841F02001C16010BDB6
:104AC0002C07002074070020E4060020BC0700200B
:104AD000FEE7000030B50C46050014D0022C12D9B8
:104AE0000A48A11E02882846FCF738FD2919C2B2DF
:104AF00011F8023C9A4206D111F8011CB1EB102FBB
:104B000001D1012030BD002030BD00007003002025
:104B100030B50C4605000AD0022C08D9FF22611ED0
:104B2000FCF732FD291911F8011C814201D1012045
:104B300030BD002030BD03B401984100009850EA18
:104B4000C12018BF04204A0D18BF40F0010040F2F8
:104B5000FF72B2EB515F08BF40F00200012808BFAE
:104B6000052002B070474100080218BF04200A0E59
:104B700018BF40F001004FF07F4232EA010108BF48
:104B800040F00200012808BF052070470907090E00
:104B9000002804DB00F1E02080F80014704700F0EA
:104BA0000F0000F1E02080F8141D704770B54FF041
:104BB00068422DED048BF0EE408A18EE900AB0EEBC
:104BC000608A18EE101A02EB4003B3F1654F3CBF48
:104BD00002EB4102B2F1654F7DD200BFC0F3C75373
:104BE000C1F3C7529A1A1B2A09DD10F0004F14BFF7
:104BF0009FED830A9FED830ABDEC048B70BD12F11B
:104C00001A0F36DA11F0004F09D010F0004F0CBF28
:104C10009FED7D0A9FED7D0ABDEC048B70BD88EE93
:104C2000889A19EE100AFFF79EFF042808BF00F0CB
:104C300033FE18EE900AFFF796FF054618EE100AAD
:104C4000FFF791FF044619EE100AFFF78CFF042DC1
:104C500018BF052D08D1042C18BF052C04D100283D
:104C600004BF0220FBF7BFFCB0EE490ABDEC048B89
:104C700070BD4200B2EB410F3AD910F0004F19BF9E
:104C8000DFED630A9FED630ADFED630A9FED630AC0
:104C9000B0EE481A0A46B1EE688A80F00041F0EEA4
:104CA000418A10460A1A5200B2F1807F34D248403D
:104CB00010F0004FDFED5A1A9FED5A2A1DBFBEEECD
:104CC000001A70EEE10A30EE420AB6EE001A08BF92
:104CD00070EEA10A00E040E008BF30EE020AB0EE3C
:104CE000682A01EE482A08EE818AC2EE081A15E009
:104CF00011F0004F04BF9FED4C0AF0EE400AD1D0F6
:104D000010F0004F19BFDFED490A9FED490ADFEDB2
:104D1000490A9FED490AC5E7C8EE881A21EEA11A93
:104D20009FED462ADFED462A41EE022A9FED452AF5
:104D300001EE222ADFED442A41EE022A9FED432AAA
:104D4000BDEC048B01EE222A21EE811A01EE020A4B
:104D500030EE210A30EE200A70BD4FF07F42B2EBF8
:104D6000400F28BFB2EB410F09D2F0EE480AB0EE77
:104D7000680ABDEC048BBDE8704000F089BD40EAD4
:104D800001035B0008BF41F0FF410BD0B2EB400FC5
:104D900008BFB2EB410F08D120F0804008EE900A26
:104DA00021F0804108EE101A18E7B2EB400F12BF55
:104DB0005FEA410340F0FF4001F000413FF40EAFD5
:104DC000B2EB410F12BF5FEA400200F0004041F039
:104DD000FF413FF403AF4A0092EA40033FF5FEAEC5
:104DE000002AACBF9FED1A0A9FED1A0A68EE808A6E
:104DF00028EE008A18EE900A18EE101AEEE600006F
:104E0000DB0FC9BFDB0FC93FDB0F4940DB0F49C0D8
:104E10000000C9BF22AAFDB90000C93F22AAFD397E
:104E20000060ED3EC30ACE3700000000000049C01C
:104E300022AA7DBA0000494022AA7D3A2DAD65BD67
:104E40008FB8D53D0FB511BE61C84C3EA8AAAABE09
:104E50000000804F0000802F10B52F499FED2C1BC4
:104E60002DED020B84B0059820F000408842D8BF99
:104E70009DED040B2DDD2949884209D1049840B9E4
:104E80004FF00100FBF7AFFB00F0E2FC06B010BDF5
:104E900005DB9DED040B00F0CFFC06B010BD6846AD
:104EA0009DED040B00F0E0F810F0030004BF9DED51
:104EB000021B9DED000B0CD001280ED09DED021BB6
:104EC0009DED000B022817D0012000F01DFC06B05C
:104ED00010BD00F0E5FA06B010BD9DED021B9DED82
:104EE000000B012000F010FC51EC100B01F06CFDE8
:104EF00006B041EC100B10BD00F0D2FA51EC100BD3
:104F000001F062FD06B041EC100B10BD0000000086
:104F10000000000000000000FB21E93F0000F07FDE
:104F200010B52F499FED2C1B2DED020B84B0059879
:104F300020F000408842DCBF00209DED040B32DDF4
:104F40002849884209D1049840B94FF00100FBF785
:104F50004AFB00F07DFC06B010BD05DB9DED040BA7
:104F600000F06AFC06B010BD68469DED040B00F031
:104F70007BF810F0030011D0012818D09DED021B22
:104F80009DED000B02281AD000F08AFA51EC100BAC
:104F900001F01AFD06B041EC100B10BD9DED021B97
:104FA0009DED000B012000F0AFFB06B010BD9DEDA4
:104FB000021B9DED000B00F073FA06B010BD01203E
:104FC00000F0A2FB51EC100B01F0FEFC06B041EC2E
:104FD000100B10BD000000000000000000000000E9
:104FE000FB21E93F0000F07F00B52DED048BB0EE12
:104FF000409AF0EE609A83B051EC190B02F0B4F8CD
:1050000041EC180B18EE100A18EE901A8DED008B7B
:10501000002818BF0120084320F00040C0F17F6045
:1050200000F1E040C00F14D019EE101A19EE900AEA
:105030008DED009B002918BF0121084320F000409E
:10504000C0F17F6000F1E040C00F04BF0120FBF71A
:10505000CAFAB0EE480A03B0F0EE680ABDEC048B61
:1050600000BD0000000000002DE9F14F04462DEDC9
:10507000020B2DED088B8AB09FEDE70B80ED020B44
:10508000139EE74826F0004585420ADC9DED120B91
:10509000002084ED000B0AB0BDEC088B03B0BDE826
:1050A000F08FE0489FEDE0AB9FEDE1BBA84247DD0C
:1050B000E14F9FEDE39B9FEDE48B9DED120B53ECD5
:1050C0001A2B51EC100B002E1CDD02F019F941ECEB
:1050D000100BBD4208D053EC1B2B51EC100B02F00F
:1050E0000FF9C4E900010BE053EC192B51EC100B44
:1050F00002F006F953EC182B02F002F9C4E90001A2
:105100000120C8E701F09EFC41EC100BBD4208D025
:1051100053EC1B2B51EC100B01F094FCC4E9000183
:105120000BE053EC192B51EC100B01F08BFC53EC02
:10513000182B01F087FCC4E900014FF0FF30AAE70B
:10514000C348A84279DB9DED120B51EC100B00F027
:1051500079FC41EC180B9FEDC00B53EC102B01F0C8
:10516000F9FE9FEDBF1B53EC112B01F06BFC01F01E
:1051700069FE074601F0C3FE41EC190B53EC1A2BF4
:1051800001F0E8FE53EC182B01F0E2FF41EC180BA4
:1051900053EC1B2B51EC190B01F0DCFEDFF8C8A21D
:1051A00041EC100B4FEA15580125FA4453EC102B33
:1051B00051EC180B02F0A4F8032DC4E900013DD016
:1051C000C1F30A5005EB4511A8EB000011398142EB
:1051D00034DA0AEB051BB0EE48AA9BED000BF0EEAB
:1051E00068AA53EC102B51EC190B01F0B3FE41EC03
:1051F0001B0B51EC1A0B53EC1B2B02F081F841EC0A
:10520000180B51EC1A0B53EC182B02F079F853ECF5
:105210001B2B02F075F89BED020B41EC1A0B53ECC3
:10522000102B51EC190B01F095FE53EC1A2B02F0E8
:1052300067F841EC100B6D1CB8E70EE0002EA8BF1C
:105240003846BFF628AF94ED000B51EC100B01F07F
:10525000BBFBC4E9000178421DE7C6F3130040F42C
:10526000801EC6F30A50A0F2F530471100F01F056A
:10527000C5F12000DDF848B00890002006900790A6
:105280000520EC467949002D07EB0002794408BF60
:1052900051F8221009D051F8223001EB8201AB40C5
:1052A0004A68089922FA01F11943A1FB0E26A1FBD5
:1052B0000B131A449A4234BF0123002303EB060860
:1052C0000CEB8003D3E901A60E448E4234BF0121CA
:1052D000002192448A4411B1924502D903E09245DB
:1052E00001D2012100E00021C3E901A641444CF8AC
:1052F0002010011EA0F10100C4DC029800F1005052
:10530000850F0298DDE903678000DDF8148001F065
:10531000F6FD41EC1A0B304601F008FE9FED541BE0
:1053200053EC112B01F016FE41EC1B0B384601F03B
:10533000FDFD9FED511B53EC112B01F00BFE41ECD9
:10534000180B404601F0F2FD9FED4D1B53EC112B65
:1053500001F000FE41EC190B51EC180B53EC192B2A
:1053600001F070FB53EC1B2B01F06CFB53EC1A2B80
:1053700001F068FBCDE90801002008909DED080BC5
:1053800053EC1A2B51EC100B01F0BAFF53EC1B2B12
:1053900001F0B6FF53EC182B01F0B2FF53EC192BC0
:1053A00001F0D6FE9FED381B53EC112B01F0D2FD1E
:1053B0009FED370B41EC180B53EC102B9DED080BB8
:1053C00051EC100B01F0C6FD53EC182B01F03AFB29
:1053D0009FED310B41EC180B53EC102B9DED080B9E
:1053E00051EC100B01F0B6FD53EC182B01F02AFB29
:1053F00041EC100B139810F0004F06D06D4251ECA9
:10540000100B01F0E1FA41EC100B284684ED000B83
:1054100041E6000000000000000000000000000065
:10542000FB21E93F7CD9024000004054FB21F93FB9
:105430003163621A61B4D03DFB21F93F00000000E6
:105440000000601A61B4D03D7370032E8A19A33B2B
:10545000FB2139410000000083C8C96D305FE43F83
:10546000000000000000E03F1A2B0000682A000046
:10547000000000000000103E000000000000103C92
:10548000000000000000103A182D4454FB21F93DA3
:105490003326A611460B113C00000054FB21F93DB8
:1054A00010B52DED040B2DED088B82B0B0EE419AB6
:1054B000F0EE619A0B9820F000449FED4BABB4F1F5
:1054C000795F11DA9DED0A0B51EC100B01F0BAFC7B
:1054D000002801BFB0EE4A0AF0EE6A0A02B0BDEC45
:1054E000088B04BF04B010BD9DED0A0B53EC102BCC
:1054F00051EC100B01F02EFD41EC180B3C4806213D
:10550000B0EE480AF0EE680A784400F081F853ECF7
:10551000182B51EC100B01F01DFD9DED0A0B41EC19
:105520001B0B53EC192B51EC100B01F013FD41EC4C
:10553000190B53EC1B2B51EC180B01F00BFD53EC2A
:10554000192B01F0DDFE9FED2C0B41EC190B53ECF8
:10555000102B51EC180B01F0FDFC41EC100B28480E
:10556000844210DA53EC192B51EC100B01F0C8FEF9
:1055700053EC1A2B01F0ECFD41EC100B02B0BDEC2A
:10558000088B04B010BD1F48A042BCBF9FED1E1B7E
:105590008DED001B06DBA4F50010019000200090AB
:1055A0009DED001B51EC100B53EC112B01F0A8FEEC
:1055B0009DED000B41EC180B53EC102B51EC1A0B2A
:1055C00001F09EFE41EC1A0B53EC192B51EC180B19
:1055D00001F096FE53EC1A2B01F0BAFD41EC100BD2
:1055E000CCE7000000000000000000000000F03FD9
:1055F0008C27000000000000000000000000E03FD9
:105600003333D33F0000E93F000000000000D23FE9
:1056100070B504462DED028B4D1E00EBC500B0EEBB
:10562000408AF0EE608A90ED000B35F0060017D04E
:1056300053EC182B51EC100B01F08CFC41EC100BCF
:105640006D1E04EBC50090ED001B51EC100B53ECEC
:10565000112B01F0F7F941EC100B35F00600E7D102
:10566000022D36D0042D1CD0062D1CBFBDEC028BA4
:1056700070BD53EC182B51EC100B01F06BFC94ED4A
:105680000A1B53EC112B01F0DDF953EC182B01F040
:1056900061FC94ED081B53EC112B01F0D3F941ECA4
:1056A000100B53EC182B51EC100B01F053FC94ED44
:1056B000061B53EC112B01F0C5F953EC182B01F02C
:1056C00049FC94ED040B53EC102B01F0BBF941ECB9
:1056D000100B53EC182B51EC100B01F03BFC94ED2C
:1056E000021B53EC112B01F0ADF953EC182B01F018
:1056F00031FC94ED001B53EC112B01F0A3F9BDEC30
:10570000028B41EC100B70BD31B504462DED040B3E
:105710002DED0A8BB0EE41BAF0EE61BA0B989DED1B
:105720000A0B20F00040B0F1795F0DDA51EC100B5C
:10573000FFF701FA042808BF00F09AF89DED0A0B64
:10574000BDEC0A8B05B030BD53EC102B51EC100BA7
:1057500001F000FC41EC180B9DED0A0B53EC182BEB
:1057600051EC100B01F0F6FB41EC190B2C48B0EE9C
:10577000480AF0EE680A05217844FFF749FF9FEDDB
:105780002ACBB0EE40AAF0EE60AA9CB353EC1C2BDF
:1057900051EC190B01F0DEFB41EC1C0B53EC1A2B06
:1057A00051EC190B01F0D6FB9FED210B41EC190BCD
:1057B00053EC102B51EC1B0B01F0CCFB53EC192BD1
:1057C00001F09EFD53EC182B01F0C4FB53EC1B2B96
:1057D00001F096FD53EC1C2B01F092FD9DED0A1B90
:1057E00053EC112B01F0B4FCBDEC0A8B05B041EC7D
:1057F000100B30BDFFE753EC1A2B51EC180B01F0E6
:10580000A9FB53EC1C2B01F01DF953EC192B01F0F3
:10581000A1FB9DED0A1B53EC112B01F013F9E3E7FB
:105820001426000000000000495555555555C5BFC8
:10583000000000000000E03F10B553EC102B51ECCD
:10584000100B01F0FFF841EC100B10BD0000000040
:105850009FED050B10B553EC102B51EC100B01F024
:1058600099F941EC100B10BD000000000000000091
:105870009FED050B10B553EC102B51EC100B01F004
:1058800069FB41EC100B10BD00000000000000108F
:1058900030EE200A704700009FED020A20EE000A59
:1058A0007047000000000010174B00B5D3ED800AD0
:1058B0009FED162AF0EE401A80EE820A30EE610A61
:1058C00000F0EEF8B0EE401A93ED800ADFED100A1A
:1058D00030EE200AC0EE020A30EEE10A00F0E0F8F5
:1058E000F0EEC10AF0EEC01AF4EEE10AF1EE10FAA1
:1058F00003DD012083F84C0200BD002083F84C0238
:10590000B0EE410A00BD0000FC000020630BB64170
:10591000000080452D4B00B5D3ED800ADFED2C2A29
:10592000B0EE402A80EEA20A30EE420A00F0B8F84B
:10593000B0EE403A93ED800ADFED260A70EE200AC1
:1059400080EEA20A30EE420A00F0AAF8F0EE401A09
:1059500093ED800ADFED203A70EE230A80EEA20A72
:1059600030EE420A00F09CF8B0EE401A93ED800A47
:1059700030EE630AC0EE220A30EEC20A00F090F860
:10598000F0EE400AB0EE430AF0EEE12AB0EEC02A93
:10599000B4EEE22AF1EE10FA01DDB0EE610AB0EEEB
:1059A000C12AF0EEC01AF4EEC21AF1EE10FA01DDCF
:1059B000B0EE410AF0EEE01AB0EEC01AB4EEE11A11
:1059C000F1EE10FA01DDB0EE600A00BDFC0000202F
:1059D000630BB6410000804500000045B4EEC10AEB
:1059E000F1EE10FA06DDB4EEE00AF1EE10FA01D2A3
:1059F0009FED010A7047000000000000F0B5038829
:105A0000002541F221070CE04C5D002683EA0423C7
:105A10005C001B0400D57C40761C2346082EF7D37F
:105A20006D1C9542F0D30380F0BD0000B0EEC01AAB
:105A3000B4EEE01AF1EE10FA01D29FED010A7047C0
:105A40000000000082B0CDE9000121F0004001908B
:105A50009DED000B02B051EC100B7047024B0ECBCA
:105A600080E80E0000207047B40A00200349D1F8F6
:105A70000A200260C9898180002070474800002008
:105A8000B4EEC10AF1EE10FA02DBB0EE410A704743
:105A9000B4EEE00AF1EE10FAF9D8B0EE600A704701
:105AA000DFED0F0A0F48104910E000BF10EE102A7A
:105AB000824203D930EE200A30EE200A10EE102A7E
:105AC0008A4203DD30EE600A30EE600A10EE102AE2
:105AD0008242EBD810EE102A8A42E7DC70470000C1
