:020000040800F2
:100000006050002009030008C73200086D2E000868
:10001000C13200084F0600085D41000800000000E2
:10002000000000000000000000000000490200087D
:10003000690E000800000000A502000861380008F1
:1000400023030008230300082303000823030008F8
:1000500023030008230300082303000823030008E8
:10006000230300082303000823030008950D00085C
:1000700023030008230300082303000823030008C8
:10008000A10D000823030008230300082303000830
:100090007D0600082303000823030008230300084B
:1000A0002303000823030008230300082303000898
:1000B0002303000823030008230300082303000888
:1000C0002303000823030008230300082303000878
:1000D00023030008D5400008ED4000082303000872
:1000E0002303000823030008230300082303000858
:1000F00023030008393900082303000823030008FC
:100100002303000823030008230300082303000837
:10011000230300080D3A0008230300082303000806
:100120002303000823030008AD0D00082303000883
:100130002303000800000000000000002303000863
:10014000B506000823030008230300082303000862
:100150002303000823030008B90D00080541000827
:1001600023030008230300082303000823030008D7
:100170002303000823030008000000000000000023
:10018000230300082303000800F002F800F04CF8F5
:100190000AA090E8000C82448344AAF10107DA45E2
:1001A00001D100F041F8AFF2090EBAE80F0013F0E8
:1001B000010F18BFFB1A43F0010318470462000047
:1001C000246200000A4410F8014B14F00F0508BF28
:1001D00010F8015B240908BF10F8014B6D1E05D013
:1001E00010F8013B6D1E01F8013BF9D1641E03D0EC
:1001F000641E01F8015BFBD19142E4D3704700001B
:100200000023002400250026103A28BF78C1FBD81F
:10021000520728BF30C148BF0B6070471FB505F0BB
:100220004CFD1FBD10B510BD00F0DCF91146FFF705
:10023000F5FF04F05BFA00F0FAF903B4FFF7F2FF00
:1002400003BC00F0FDF900002C4B19680868B0E809
:10025000F04F80F30988BFF36F8F4FF0000080F3F9
:10026000118870470000000008480068006880F3AB
:1002700008884FF0000080F3148862B661B6BFF3BF
:100280004F8FBFF36F8F00DF00BF00BF08ED00E0AE
:10029000DFF80C00016841F470010160704700BF95
:1002A00088ED00E0EFF30980BFF36F8F134B1A68FE
:1002B0001EF0100F08BF20ED108A20E9F04F1060EB
:1002C00009B44FF0500080F31188BFF34F8FBFF394
:1002D0006F8F04F04DFF4FF0000080F3118809BCD0
:1002E00019680868B0E8F04F1EF0100F08BFB0ECB6
:1002F000108A80F30988BFF36F8F7047580300207E
:10030000EFF305807047000009488047094800471F
:10031000FEE7FEE7FEE7FEE7FEE7FEE7FEE7FEE7B5
:10032000FEE7FEE704480549054A064B7047000012
:100330002939000889010008604A00206050002027
:10034000604C0020604C002053EA020C00F06980F1
:100350002DE9F04B4FF00006002B1FBFB3FA83F5D9
:1003600003FA05F424FA05F65E4012BF1643B2FA0A
:1003700082F502FA05F4C5F120051EBF22FA05FC3C
:1003800044EA0C04203556EA044C4FEA144418BFE2
:10039000641C4FF000084FF00009904271EB030C11
:1003A00039D3002919BFB1FA81F701FA07F6B0FA7B
:1003B00080F700FA07F6C7F120071EBF20FA07FCF6
:1003C00046EA0C062037B6FBF4FCA7EB0507103F06
:1003D00007F01F0BCBF120060CFA0BFB2CFA06F6EC
:1003E00044BFB3460026202FA4BF5E464FF0000B4B
:1003F0005BEA060C08BF4FF0010B19EB0B09ABFBD6
:10040000027C48EB0608C01B06FB02CC0BFB03CCAE
:1004100071EB0C01C1E70B46024641464846BDE878
:10042000F08B13B54FF000004FF00001AFF30080E8
:10043000BDE81C407047032A40F2308010F0030CE6
:1004400000F0158011F8013BBCF1020F624498BF27
:1004500011F801CB00F8013B38BF11F8013BA2F1C4
:10046000040298BF00F801CB38BF00F8013B11F03F
:10047000030300F02580083AC0F0088051F8043BDF
:10048000083A51F804CBA0E80810F5E7121D5CBF4C
:1004900051F8043B40F8043BAFF30080D20724BF7F
:1004A00011F8013B11F801CB48BF11F8012B24BF13
:1004B00000F8013B00F801CB48BF00F8012B704762
:1004C00010B5203AC0F00B80B1E81850203AA0E8EF
:1004D0001850B1E81850A0E81850BFF4F5AF5FEA23
:1004E000027C24BFB1E81850A0E8185044BF18C9D6
:1004F00018C0BDE810405FEA827C24BF51F8043B7D
:1005000040F8043B08BF7047D20728BF31F8023BD0
:1005100048BF11F8012B28BF20F8023B48BF00F864
:10052000012B70474FF000020429C0F0128010F038
:10053000030C00F01B80CCF1040CBCF1020F18BFBF
:1005400000F8012BA8BF20F8022BA1EB0C0100F052
:100550000DB85FEAC17C24BF00F8012B00F8012B25
:1005600048BF00F8012B70474FF0000200B513465A
:1005700094469646203922BFA0E80C50A0E80C50C3
:10058000B1F12001BFF4F7AF090728BFA0E80C5074
:1005900048BF0CC05DF804EB890028BF40F8042B6D
:1005A00008BF704748BF20F8022B11F0804F18BFDA
:1005B00000F8012B704770477047704710B500F086
:1005C00009F8006810BD10B5044600F003F8046097
:1005D00010BD000000487047FC49002000487047EB
:1005E000FC4900207546FFF7F9FFAE460500694655
:1005F000534620F00700854618B020B5FFF792FE5D
:10060000BDE820404FF000064FF000074FF0000813
:100610004FF0000B21F00701AC46ACE8C009ACE894
:10062000C009ACE8C009ACE8C0098D46704710B5F8
:100630000446AFF300802046BDE81040FFF7FDBD43
:1006400001491820ABBEFEE7260002007047FEE716
:1006500000B58BB06946084800F03EF86946064888
:1006600000F038FD0221044800F0B4FC024801F01B
:10067000ABF80BB000BD000014060020014800F0EC
:1006800024BE00001406002000B58BB0694608485F
:1006900000F022F86946064800F01CFD02210448DB
:1006A00000F098FC024801F08FF80BB000BD00008C
:1006B0003C060020014800F008BE00003C06002077
:1006C0000A8852BA02804A8852BA42808A8852BA4C
:1006D000828089798171704700220123C1E9062354
:1006E0000A604A608A60CA604A610A610E22C1E9F2
:1006F00008320068034B984203D0034B984200D164
:100700004A6170470064004000680040C28802816E
:100710000A7802704A7842704A8882808A884280C9
:10072000C988C1807047000008B50B4A4FF4207398
:10073000136000239360D36008231361074A6B465C
:100740001070000A50709170080AD0700249044875
:1007500000F052FC08BD0000480900202B000020DA
:100760001406002000F0ECFA012004F011F8F9E77B
:1007700010B50246FF20054B04E000BF12F8014B04
:100780004440185D491EF9D210BD00005C600008AD
:1007900010B502004FF6FF700BD0064B491E08D370
:1007A00012F8014B4440E4B233F8144084EA1020BC
:1007B000F4E710BD5C61000810B5504C5048B7EE2E
:1007C000000A84ED7E0A807820704E480A2190ED60
:1007D000000A84ED840A90ED020A84ED850AB0F9DE
:1007E0000E2092FBF1F200EE102AB8EEC00A84ED62
:1007F000870AB0F9100090FBF1F000EE100AB8EE95
:10080000C00A84ED880AB4F91000B4F90610421A3F
:1008100000EE102AB8EEC01ADFED3B0A084402EEE3
:10082000100A81EE200AB8EEC22A9FED381A394824
:10083000C2EE202A60EE011AB6EE000A61EE801ABE
:1008400061EE801AC4ED801A62EE810A60EE800AC1
:1008500020EE800ADFED2E0A84ED8B0A94ED820AE9
:1008600001EEA00A84ED820A007A012802D0022853
:1008700003D004E000F00CFA01E000F057F894ED2A
:100880008F0AD4ED900A20EE000A00EEA00A10EEC6
:10089000100A05F0A1F941EC100B03F03DFE51ECFC
:1008A000100B04F02DFE00EE100A84ED930A94F86C
:1008B0004802012803D1B1EE400A84ED930AD4ED39
:1008C0008F0A94ED900A03F0D1FC134884ED940A4A
:1008D0004FF4B471008810FB01F0C11700EBD14058
:1008E000401300EE100A0D48B8EEC00A84ED8A0AE3
:1008F00003F07CFC84ED890A10BD0000900000200C
:1009000070000020340A0020E12E65425C8F423ED8
:100910000AD7233C480A00201C000020B80200200F
:10092000014800F077B90000A8000020244900B574
:10093000214ADFED220A91ED8F0A908A30EE201ACB
:10094000C30715D10B46DFED1D0AD3ED8F1A8007C3
:1009500071EEE00A04D4B5EEC00AF1EE10FA02DD41
:10096000C1ED8F0A10E0B5EEC00AF1EE10FA02D226
:1009700081ED8F1A08E0B5EEC00AF1EE10FA03D14E
:100980009FED100A81ED8F0AF9EE020AB1EE020A1C
:100990000D4803F016FC908A420702D5BBEE040A0C
:1009A00006E0000702D59FED090A01E09FED080A65
:1009B00081ED7F0A00BD0000480A00200AD7233CD1
:1009C0009000002000000000CC0200200000204326
:1009D00000008C4210B5494C00202DED028B94EDA7
:1009E000820A84ED830A84F86802D4ED940A94EDB7
:1009F000930A04F03DFA424884ED810AB0F9000000
:100A000000EE100AF8EEC00A9FED3E1A80EE810A51
:100A1000D4ED940A30EE600A03F0C6FDDFED3A0A29
:100A200003F020FE84ED860AD4ED820A94ED830A59
:100A300004F1180002F0E2FCD4ED800A94ED8F0A74
:100A400004F15C0002F0DAFC9FED308AD4ED840AF8
:100A500004F1A000B0EE480A02F0D0FCD4ED870A01
:100A6000B0EE480A04F1E40002F0C8FCD4ED7F0ABD
:100A700094ED890A04F5947002F0C0FCD4ED880A64
:100A800094ED560A04F5B67002F0B8FC94ED120A23
:100A9000D4ED230A94ED7E1AB1EE400A04F5D87025
:100AA00030EE600A20EE010A84ED950AD4ED340A96
:100AB000D4ED451AF1EE600A70EEE10A60EE810AAB
:100AC000C4ED960AD4ED671A30EE200AF0EE480A1B
:100AD00021EEC11A84ED971A02F090FC94ED970A6A
:100AE000D4ED780A30EE601A30EE800A84ED981A60
:100AF00084ED990ABDEC028B10BD0000900000202F
:100B00001C00002083F9A2440AD7A33C0000000087
:100B100010B53D4C00202DED028B94ED820A84ED42
:100B2000830A84F86802D4ED940A94ED930A04F0E1
:100B30009FF984ED810AD4ED820A94ED830A04F1D1
:100B4000180002F05BFCD4ED800A94ED8F0A04F1EA
:100B50005C0002F053FC9FED2D8AD4ED840A04F171
:100B6000A000B0EE480A02F049FCD4ED870AB0EECE
:100B7000480A04F1E40002F041FCDFED250AB0EE82
:100B8000480A04F5947002F039FCD4ED880A94ED1B
:100B9000560A04F5B67002F031FC94ED120AD4ED59
:100BA000230A94ED7E1AB1EE400A04F5D87030EEB7
:100BB000600A20EE010A84ED950AD4ED340AD4EDE2
:100BC000451AF1EE600A70EEE10A60EE810AC4EDAA
:100BD000960AD4ED671A30EE200AF0EE480A21EEAC
:100BE000C11A84ED971A02F009FC94ED970AD4ED2E
:100BF000780A30EE601A30EE800A84ED981A84ED9F
:100C0000990ABDEC028B10BD90000020000000008E
:100C10000000204270B5164C054616492268FFF7C1
:100C20000AFC154905F144002268FFF704FC13494A
:100C300005F188002268FFF7FEFB114905F1CC00A1
:100C40002268FFF7F8FB0F4905F588702268FFF767
:100C5000F2FB0D4905F5AA702268FFF7ECFB05F5DC
:100C6000CC702268BDE870400849FFF7E4BB000083
:100C700088000020000D0020FE0200200A03002052
:100C800016030020220300202E0300203A03002038
:100C900070B51E4C2DED048BB4F9060004F0BAFDBE
:100CA0009FED1B1B53EC112B04F0CCFD9FED1A8B19
:100CB00053EC182B04F056FC04F022FC184DC5F838
:100CC0003C02B4F9040005F50F7504F0A3FD9FED97
:100CD000159B53EC192B04F0B5FD53EC182B04F0C5
:100CE00041FC04F00DFC6860B4F9000004F092FDD2
:100CF00053EC192B04F0A6FD53EC182B04F032FC36
:100D000004F0FEFBA860BDEC048B70BD480A002017
:100D100000000000000020400000000000A084400F
:100D20009000002000000000000004400349002063
:100D3000088048800146FFF7F7BC00008C000020C7
:100D400010B5FFF739FD1148114C407A012805D044
:100D5000022806D0BDE81040FFF7E8BFFFF7D8FE35
:100D600001E0FFF737FE94ED990ABDEEC00A10EEE0
:100D7000100A94ED980ABDE81040BDEEC00A01B219
:100D800010EE100A00B2FFF7CFBC0000480A0020A6
:100D900090000020014800F0A5BD00008007002061
:100DA000014800F09FBD0000A0080020014800F0AD
:100DB00099BD0000E0070020014800F093BD00004D
:100DC0004008002001681823CAB2103AB2FBF3F2BF
:100DD000054B6FF30901032A9B5CC36500D9091D0C
:100DE00081650846704700005C63000810B5014645
:100DF00000208B698A6A4FF0C07453B1B3F5005F6D
:100E000015D072B1012A0CD0022A0AD0032A09D1C6
:100E100004E01AB1012A06D0022A03D1C96AC90125
:100E200000D5012010BDC96AA142FAD010BD002A28
:100E3000F7D0012AF2D0022AF3D0032AF3D010BD52
:100E400030B50468256825F4802525600468636052
:100E50008368402B036803D099600068C26030BD8E
:100E60009A600068C16030BD70470000F0B540482E
:100E700090F83C100A2945D20122A0F87E200222D7
:100E8000A0F880200322A0F882200422A0F8842069
:100E90000522A0F8862040F201170622A0F888203B
:100EA0007E1C0722A0F88A20751C6C1CA0F88C7090
:100EB000A0F88E60631CA0F89050A0F892405A1CD5
:100EC000A0F89430A0F8962001290CD002290DD06A
:100ED00003290ED004290FD0052910D0062901D1ED
:100EE000A0F89820F0BDA0F89870F0BDA0F8986028
:100EF000F0BDA0F89850F0BDA0F89840F0BDA0F863
:100F00009830F0BD6522A0F87E206622A0F88020EF
:100F10006722A0F882206822A0F884206922A0F825
:100F2000862040F265176A22A0F888207E1C6B227A
:100F3000A0F88A20751C6C1CA0F88C70A0F88E603C
:100F4000631CA0F89050A0F892405A1CA0F894306E
:100F5000A0F896206529C6D06629C7D06729C8D0D1
:100F60006829C9D06929CAD06A29B9D0F0BD000062
:100F7000EE0B002010B5FFF76BFBFFF785FBBDE81C
:100F8000104003F0C5B872B6FEE7000010B558B1C6
:100F9000084C491E0BD310F8013B5340DBB234F828
:100FA000133083EA1222F4E74FF6FF7010BD1046AB
:100FB00010BD00005C5E000810B5054C04E000BFE9
:100FC00010F8013B5340E25C491EF9D2104610BDB7
:100FD0005C5D000890F82020012A07D0022A05D085
:100FE000416A41F4802141620120704700684269F2
:100FF0000A43426100207047F0B590F82050046821
:10100000A468012D05D0022D03D0416A41F480214E
:101010005DE014F0406F01D1E50055D5C4F30164E3
:10102000022C03D9416A41F4000150E00125A5409A
:101030001D608D684FF4C0739DB1CE6835434E6816
:1010400045EAC605066803EB0417F5514FF4C2756F
:10105000076805EB04150E697E51097D012905D04D
:1010600009E00E88CD6845EA4655EBE701684E5920
:1010700046F480764E511179D579567941EA056169
:1010800095792D0445EA062529434FF4C67605686F
:1010900006EB0416A9511178D57841EA05619578D7
:1010A00052782D0445EA022211434FF4C4750268B8
:1010B00005EB04155151006803EB0411425842F04E
:1010C000010242500020F0BD416A41F4001141622A
:1010D0000120F0BD10B590F82020012A07D0022A87
:1010E00005D0416A41F480214162012010BD3B4896
:1010F000D0F8002242F00102C0F80022D0F800220D
:1011000022F47C52C0F80022D0F800224B6A42EA56
:101110000322C0F800220A7D02F01F0301229A4038
:10112000D0F81C329343C0F81C32CB69B3B9D0F865
:101130000C329343C0F80C328C894B6864F31F4324
:101140004C6900EBC404C4F840320C890B6864F3AA
:101150001F434C6900EBC404C4F84432CB69012B33
:1011600016D1D0F80C321343C0F80C320C884B68FF
:1011700064F31F434C6900EBC404C4F840320C898B
:10118000CB6864F31F434C6900EBC404C4F84432D9
:101190008B69002BD0F804320ED01343C0F8043210
:1011A0000B69002BD0F8143208D01343C0F8143266
:1011B000096A012904D008E09343EFE79343F5E778
:1011C000D0F81C121143C0F81C12D0F8001221F004
:1011D0000101C0F80012002010BD000000640040B2
:1011E000704730B590F82040012C05D0022C03D078
:1011F000416A41F480215DE00468002955D02469EA
:10120000A40754D04FF4D874056804EB01142D5989
:1012100015F00405956005682D594ED0ED08556010
:1012200005682C5904F00204D4604FF4DA740568A0
:1012300004EB01142D5905F00F05156105682D59B2
:10124000C5F30725956105682C59240C54614FF4AA
:10125000DC72046802EB0112A4581C700468A458E4
:10126000240A5C700468A458240C9C700468A2587A
:10127000120EDA704FF4DE72046802EB0112A45809
:101280001C710468A458240A5C710468A458240CD6
:101290009C710468A258120EDA71006881B101696C
:1012A00041F020010161002030BDE468A8E7416AF7
:1012B00041F400114162012030BD6D0D1560AFE7B2
:1012C000C16841F02001C160EDE72DE9F05F0546FE
:1012D000006800244669D0F804908768D0F80CB004
:1012E000D0F810A0D0F81880F10748D0F90714D032
:1012F00001218160B80703D5284600F092FA0CE07E
:10130000780702D54FF4006407E0380702D54FF4A0
:10131000805402E0284600F083FAF80516D52968C3
:101320004FF480708860B80503D5284600F07BFA3A
:101330000CE0780502D544F4005407E0380502D5E6
:1013400044F4804402E0284600F06CFAF80316D515
:1013500029684FF480308860B80303D5284600F030
:1013600064FA0CE0780302D544F4004407E0380343
:1013700002D544F4803402E0284600F055FA3007E4
:1013800007D55FEACB6004D52968102044F40074C7
:10139000C86070074FF0080707D55FEA0B7004D5E7
:1013A0002868C760284600F09BF9B00706D5286872
:1013B000C068800702D0284600F094F9700607D56F
:1013C0005FEACA6004D52968102044F4806408618B
:1013D000B00607D55FEA0A7004D528680761284679
:1013E00000F0EEF9F00606D528680069800702D003
:1013F000284600F0E6F9B00308D55FEAC96005D5D4
:10140000296810204860284600F0DCF9F00307D571
:101410005FEA097004D528684760284600F006FA9C
:10142000300446D55FEA497040D5F00504D55FEA3F
:10143000C87001D044F00104B00504D55FEA88709B
:1014400001D544F00204700504D55FEA487001D567
:1014500044F00404300529D518F0700F26D008F0A8
:101460007000402815D006DC102809D020280AD0AA
:10147000302816D10AE050280ED0602811D10EE095
:1014800044F008040DE044F010040AE044F02004A5
:1014900007E044F0400404E044F0800401E044F438
:1014A00080742868816921F07001816129680420B5
:1014B0004860002C05D0686A204368622846FFF720
:1014C0008FFEBDE8F09F70B5040003D094F82000B3
:1014D00010B104E0012070BD204600F081F82068C2
:1014E000016841F00101016000F066FC0546052637
:1014F00004E000F061FC401B0A2811D82068406815
:10150000C007F6D02068016821F00201016000F0F8
:1015100053FC05460BE000F04FFC401B0A2806D99F
:10152000606A40F40030606284F82060D2E720688E
:1015300040688007EFD4207E0128206801683DD0F4
:1015400021F080010160607E01282068016838D0A8
:1015500021F040010160A07E01282068016833D09D
:1015600021F020010160E07E0128206801682ED072
:1015700041F010010160207F01282068016829D016
:1015800021F008010160607F01282068016824D0F3
:1015900021F004010160D4E902010843D4E90412F6
:1015A000114308436168491E08432168C86100204F
:1015B0006062012084F82000002070BD41F08001AD
:1015C000C0E741F04001C5E741F02001CAE721F042
:1015D0001001CFE741F00801D4E741F00401D9E759
:1015E000F0B587B0044614216846FEF7BDFF374BBF
:1015F0003748DFF8D4E01968D4F800C0344A02252F
:101600000326092710300024491CF44524D1196011
:10161000012907D1016841F000710160006800F004
:1016200000700590106840F001001060106802AB77
:1016300000F0010005904FF4C050CDE9000583E8AB
:10164000D0006946234800F0BFFA0022052114208B
:1016500000F084FC142033E0DFF87CE0F44531D165
:10166000D0F800C04CF0806CC0F800C0D0F800C0CA
:1016700001290CF0806CCDF814C0196007D1016805
:1016800041F000710160006800F000700590106882
:1016900040F002001060106802AB00F002000590FC
:1016A0004FF44050CDE9000583E8D00069460B486F
:1016B00000F08AFA00220521402000F04FFC402073
:1016C00000F03EFC07B0F0BD0064004014000020B4
:1016D0003038024000000240006800400004024030
:1016E0007047000030B5054600682E492E4C87B083
:1016F000884222D123466A4600212C48FFF771FD1B
:101700000098A0F58070413806D0012807D0A0F5D8
:10171000A060253811D108E02349254802E024487B
:1017200021490A30FEF7F2FF07E0208841BA1E483F
:101730000B380180618849BA41801E492868884277
:101740001DD1194B6A4600211B48FFF74AFD00993D
:10175000A1F50071053914D01848A1F540711B3965
:1017600014D047290BD1218849BA0180618849BA30
:101770004180A18849BA8180E18849BAC18007B017
:1017800030BD0949C81FFEF79BFFF8E721780172B9
:1017900061784172618849BA4181A18849BA8182E0
:1017A000EDE7000000640040230000201406002044
:1017B00094000020006800403C060020480A0020F9
:1017C000704770477047000070B5044690F82000DD
:1017D000012804D0606A40F40020606218E0022012
:1017E00084F820002068016821F00101016000F008
:1017F000E3FA05460EE000BF00F0DEFA401B0A28BF
:1018000008D9606A40F400306062052084F8200046
:10181000012070BD20684068C007EDD1606270BDD6
:1018200070477047704770477047704770472DE9A1
:10183000F0410446876D00F0BFFA064694F8350083
:101840000025022806D08020606584F834500120ED
:10185000BDE8F0812068016821F016010160206870
:10186000416921F080014161206C08B9A06C20B170
:101870002068016821F0080101602068016821F0FA
:10188000010101600CE000F097FA801B052807D9E0
:1018900020206065032084F8350084F83450D7E7B1
:1018A00020680068C007EED194F85C103F208840A3
:1018B000B860012084F8350084F834500020C7E770
:1018C00090F83510022903D080214165012070472E
:1018D000052180F835100068016821F001010160E0
:1018E000002070472DE9F84304464FF00009CDF879
:1018F000009063484FF41651A56D0068B0FBF1F7F6
:101900002E6894F85C10082000FA01F131420FD0E3
:1019100021680A6852070BD50A6822F004020A609F
:1019200094F85C108840A860606D40F0010060652C
:1019300094F85C104FF0010808FA01F0304208D02A
:1019400021684969090604D5A860606D40F002006D
:10195000606594F85C1004208840304208D021680B
:101960000968890704D5A860606D40F004006065CF
:1019700094F85C1010208840304218D02168096823
:10198000090714D5A86020680168490304D50068D8
:10199000000308D5A16C07E00168C90503D40168FC
:1019A00021F008010160216C09B12046884794F8B4
:1019B0005C1020208840304231D021680968C90677
:1019C0002DD5A86094F8350005282068016806D058
:1019D000490347D5006800031DD4616C1CE021F069
:1019E000160101602068416921F080014161206C8D
:1019F00008B9A06C20B12068016821F008010160DD
:101A000094F85C103F208840A86084F8358084F802
:101A10003490216D1FE0E16B09B120468847606D6D
:101A200000282BD0606DC00714D0052084F8350045
:101A30002068016821F0010101600098401C0090BD
:101A4000B84203D820680068C007F6D184F8358012
:101A500084F83490E16C002910D001B02046BDE834
:101A6000F04308470168C905D5D4016821F0100189
:101A7000016084F8358084F83490CCE7BDE8F883C1
:101A8000540300202DE9F041044600F095F9064684
:101A90005CB1022084F83500002584F834502068B9
:101AA000016821F0010101600DE00120BDE8F08135
:101AB00000F082F9801B052805D9202060650320ED
:101AC00084F83500F2E720680068C007F0D122688A
:101AD000116820480140D4E901031843D4E90336D2
:101AE0003343184363691843A3691843E3691843F0
:101AF000236A18430843616A042903D1D4E90B130C
:101B000019430843106020684069666A20F00701A5
:101B100030460E43012704280CD1A06A0643E06A30
:101B200040B12046FFF762F920B14020606584F89B
:101B30003570BAE7206846612046FFF743F994F80C
:101B40005C203F2191408160656584F835700020FC
:101B5000ACE700003F8010F02DE9F0410446866DAF
:101B600090F83400002501280DD0012084F83400BD
:101B700094F835700020012F07D084F83400022536
:101B80002846BDE8F0810220FBE7022784F8357083
:101B900060652046FFF754F994F85C103F208840B8
:101BA000B0602068016841F016010160206C20B12E
:101BB0002068016841F0080101602068016841F077
:101BC00001010160DCE700002DE9F84FDFF8BCA15E
:101BD0000022012503264FF00F090AF1040BAAF198
:101BE000040E00BF0B6805FA02F42340A34270D133
:101BF0000F7907F00307012F01D0022F16D1876854
:101C00004FEA420806FA08FC27EA0C07D1F80CC094
:101C10000CFA08FC4CEA070CC0F808C04768A74358
:101C20000C79C4F3001494403C4344600C79E443C1
:101C3000A4070AD0C4684FEA420C06FA0CF7BC436A
:101C40008F6807FA0CF72743C7600C7904F0030488
:101C5000022C12D1D40800EB840CDCF8204057078A
:101C6000FF0E09FA07F824EA0804D1F8108008FAF0
:101C700007F848EA0408CCF8208004684FEA420CD0
:101C800006FA0CF7BC430F7907F0030707FA0CF7C5
:101C9000274307604C6814F4403F70D03C4C2768E1
:101CA00047F480472760246822F0030704F4804447
:101CB0000094384C07EB040CDCF8084897074FEA0F
:101CC000177809FA08F7BC43334FB84202D100270E
:101CD00024E054E0314FB84201D101271EE0304FDB
:101CE000B84201D1022719E02E4FB84201D1032793
:101CF00014E02D4FB84201D104270FE02B4FB8421A
:101D000001D105270AE02A4FB84201D1062705E094
:101D1000284FB84201D1072700E0082707FA08F743
:101D20002743CCF80878DAF800405746D1F804C0C9
:101D30009C435FEACC2C00D51C433C60DBF80040A0
:101D40005F46D1F804C09C435FEA8C2C00D51C434D
:101D50003C60DEF800407746D1F804C09C435FEA5F
:101D60008C3C00D51C433C60084F083F3C68D1F8D0
:101D700004C09C435FEACC3C00D51C433C60521C31
:101D8000102AFFF42FAFBDE8F88F0000083C014097
:101D9000443802400030014000000240000402408C
:101DA00000080240000C02400010024000140240F3
:101DB00000180240001C0240014880687047000083
:101DC0004803002070B5040011D021684CF6CC40C7
:101DD0000860216845F255500860D4E9000141606F
:101DE0002168A0688860FFF7E7FF05460DE0012045
:101DF00070BD00BFFFF7E0FF401B312805D9206808
:101E0000C068800701D0032070BD2068C0688007CB
:101E1000F0D121684AF6AA200860002070BD006851
:101E20004AF6AA210160002070470000024881683C
:101E30000278114481607047480300200B4810B5B8
:101E4000016841F400710160016841F48061016042
:101E5000016841F480710160032000F09FF80F20B9
:101E600000F006F800F050F8002010BD003C0240E1
:101E700030B505461F4887B00024016841F48071E1
:101E80000160006806A900F48070009001A800F0CD
:101E900031F90498A8B100F04DF940001649174AED
:101EA000B0FBF1F11648491E026040F2E732C0E98A
:101EB0000324C0E90114846100F046FB040003D050
:101EC00015E000F037F9E9E70D4800F06BFB04007E
:101ED0000DD12D2000F034F8102D07D20022294614
:101EE0002D2000F03BF80748056000E0012407B012
:101EF000204630BD4038024040420F0000200040E4
:101F0000000900204C0300200C4882B0016841F415
:101F100080410160006800F4804000900748001F85
:101F2000016841F0805101600068002200F080509B
:101F300000900F21901E02B000F010B8443802400B
:101F4000002809DB00F01F020121914040098000B8
:101F500000F1E020C0F8001170470000F0B40E4B13
:101F60001B680C46C3F30223C3F10705042D00D9F7
:101F70000425191D072901D2002300E0DB1E0126DC
:101F800006FA05F1491E214099409E40761E1640F2
:101F90003143F0BC02F059B90CED00E0064900F005
:101FA000070208684FF6FF03184040EA0220034A80
:101FB00010430860704700000CED00E00000FA05D7
:101FC0002DE9F0470E46050065D0DFF81481D8F8FA
:101FD0000000F7B200F00700B04207D288F80070A6
:101FE000D8F8000000F00700B04254D128683D4CFA
:101FF000810712D5400703D5206840F4E0502060E7
:102000002878000703D5206840F4604020602068ED
:10201000A96820F0F000084320602878C0072DD080
:10202000304968680839012812D0022813D00328E3
:1020300011D00968890700292DDA216821F00301F0
:1020400001432160FFF7B8FE814641F2883A0EE075
:1020500009688903EFE709688901ECE7FFF7ACFE3F
:10206000A0EB0901514502D90320BDE8F0872068A3
:10207000696800F00C00B0EB810FEFD1D8F80010C8
:10208000404601F00701B14207D90770006800F02F
:102090000700B04201D00120E7E72878400705D5C6
:1020A0002068E96820F4E0500843206028780007A1
:1020B00006D52068296920F4604040EAC10020600C
:1020C00000F058F82168084AC1F30311515CC84078
:1020D0000649086006480068FFF7CAFE0020C4E70A
:1020E000003C0240083802406463000854030020AA
:1020F0004C0300200F2202600C4A136803F0030314
:102100004360136803F0F0038360136803F4E05343
:10211000C36012684FF4E05303EAD202026104483C
:10212000006800F0070008607047000008380240AF
:10213000003C02400448054900680968044AC1F3AC
:102140008221515CC8407047540300200838024087
:10215000746300080448054900680968044AC1F32B
:102160004231515CC8407047540300200838024097
:1021700074630008154810B5006810F00C0214488C
:1021800013D01449042A0FD0082A0ED10F4C241F53
:102190002268236802F03F025B0207D52068C0F383
:1021A0008810A0FB010106E0084610BD2168C1F3BC
:1021B0008811A1FB00010023FEF7C6F82168C1F3D6
:1021C0000141491C4900B0FBF1F010BD0838024044
:1021D0000024F40040787D012DE9F84F04006ED012
:1021E0002078DFF84C93C007A9F104054AD009F123
:1021F00004000168C1F38101012908D00068C0F31F
:10220000810002280AD1D9F80000400206D52868CA
:10221000800337D560680028E1D033E06068B0F50E
:10222000803F10D0B0F5A02F286810D020F4803067
:102230002860286820F4802028606068A8B1FFF733
:10224000BBFD06460DE0286840F48030F4E740F41A
:1022500080202860F7E700BFFFF7AEFD801B6428F1
:1022600073D828688003F7D50CE0FFF7A5FD064674
:1022700005E000BFFFF7A0FD801B6428F0D82868A8
:102280008003F7D42078DFF8AC8280074FF0000A93
:102290003ED5A748001D016811F00C0F08D000685A
:1022A000C0F3810002280BD1D9F80000400207D406
:1022B0002868800716D5E068012800D112E033E1D4
:1022C000E068B8B10120C8F80000FFF775FD0646C8
:1022D00005E000BFFFF770FD801B0228C0D828680A
:1022E0008007F7D52868216920F0F80040EAC1008E
:1022F00028600DE0C8F800A0FFF75EFD064604E088
:10230000FFF75AFD801B02281FD828688007F7D4E2
:102310002078000722D5864F87486169703771B1F0
:1023200001210160FFF748FD064604E0FFF744FD88
:10233000801B022809D838688007F7D50EE0C0F85E
:1023400000A0FFF739FD064605E082E0FFF734FD07
:10235000801B02287DD838688007F7D42078400792
:1023600068D5DFF8CCB100270BF13C0BDBF800009F
:10237000C0000BD4DBF8001041F08051CBF8001006
:10238000DBF80000012700F0805000906B4E3068B1
:10239000C00510D4306840F480703060FFF70CFD49
:1023A000009005E0FFF708FD0099401A022850D878
:1023B0003068C005F6D55E4EA0686C3601280FD097
:1023C0000528306810D020F001003060306820F01F
:1023D00004003060A068B8B1FFF7EEFC00900FE099
:1023E000306840F00100F4E740F004003060F7E7A7
:1023F000FFF7E2FC0099411A41F28830814266D829
:1024000030688007F4D50EE0FFF7D6FC009007E0B7
:10241000FFF7D2FC0099411A41F28830814256D828
:1024200030688007F4D42FB1DBF8001021F0805120
:10243000CBF80010A069C8B33D49091D0968C1F374
:10244000810102294AD00228504607D0C8F860000E
:1024500000E03CE0FFF7B0FC04463BE04746C8F82C
:102460006000FFF7A9FC064605E000BFFFF7A4FCEB
:10247000801B02282BD828688001F7D4D4E90701F3
:102480000843A16A2E4A490802EB0141626A41EA07
:102490008211084394F82C1040EA0161C9F8001039
:1024A00001203866FFF788FC044606E03EE000BFE6
:1024B000FFF782FC001B022809D828688001F7D5A5
:1024C00034E000BFFFF778FC001B022802D903208C
:1024D000BDE8F88F28688001F4D427E00128F7D000
:1024E000D9F80000E26900F4800191421CD1226A0F
:1024F00000F03F01914217D147F6C071626A014076
:10250000B1EB821F10D1A26A4FF0FF3300F44031CB
:1025100003EB5202B1EB024F06D194F82C1000F0FD
:102520007060B0EB016F01D00120D1E70020CFE750
:102530000438024000004742800E474200700040CD
:102540000000FFFF7047704710B5040003D094F8F7
:102550003D0010B107E0012010BD002084F83C00D0
:10256000204600F01EF8022084F83D00211D20685E
:1025700001F0E8F9012084F8460084F83E0084F870
:102580003F0084F8400084F8410084F8420084F859
:10259000430084F8440084F8450084F83D0000209E
:1025A00010BD704790F83D10012901D001207047FF
:1025B000022180F83D100168CA6842F00102CA6039
:1025C00000681149884214D0B0F1804F11D00F49F2
:1025D00088420ED00E4988420BD00E49884208D05E
:1025E0000D49884205D00D49884202D00C498842E5
:1025F00004D1816801F00701062903D0016841F088
:10260000010101600020704700000140000400400B
:1026100000080040000C0040000401400040014060
:1026200000180040704770B50446006801694FF01B
:102630000005C943890715D4C168C943890711D466
:10264000E91E01610120207720688069800720460B
:1026500002D0FFF7E7FF04E000F098F8204600F012
:1026600096F8257720680169C943490717D4C168DE
:10267000C943490713D46FF0040101610220207798
:102680002068806910F4407F204602D0FFF7CAFF1F
:1026900004E000F07BF8204600F079F82577206808
:1026A0000169C943090716D4C168C943090712D48F
:1026B0006FF008010161042020772068C06980075D
:1026C000204602D0FFF7AEFF04E000F05FF820469E
:1026D00000F05DF8257720680169C943C90617D461
:1026E000C168C943C90613D46FF010010161082005
:1026F00020772068C06910F4407F204602D0FFF7A1
:1027000091FF04E000F042F8204600F040F8257701
:1027100020680169C943C90708D1C168C943C9070D
:1027200004D1891E0161204600F032F82068016959
:10273000C943090609D4C168C943090605D46FF025
:10274000800101612046FFF7FDFE20680169C94351
:10275000490609D4C168C943490605D46FF0400150
:102760000161204600F01EF820680169C94389060E
:102770000BD4C168C943890607D46FF020010161F9
:102780002046BDE87040FFF7DEBE70BD7047704761
:1027900000680349884201D1FFF748BB7047000039
:1027A000002000407047704710B50446006840693B
:1027B00094F83D10C0F3C010212911D180B12068D8
:1027C000143050E8001F21F0800140E80012002A78
:1027D000F5D1606B08B1FFF72AF8204601F0EAF95D
:1027E0002068406994F83E10C0F38010222911D16E
:1027F00080B12068143050E8001F21F0400140E80B
:102800000012002AF5D1A06B08B1FFF710F820469E
:1028100001F0A9F9002010BD70470000F8B501686B
:1028200004460868CA684B6910F00F0F4FF00005A6
:1028300059D003F0010602F49077374365D0C10701
:1028400005D0D10503D5216C41F001012164410778
:1028500005D5D90703D0216C41F00201216481071D
:1028600005D5D90703D0216C41F00401216401078B
:1028700007D502F02001314303D0216C41F008015B
:102880002164216C00293AD0800604D5900602D537
:10289000204601F043FA20684069216CC0F38010A3
:1028A000090700D460B3204601F05DF92068406953
:1028B000400621D52068143050E8001F21F0400167
:1028C00040E80012002AF5D1A06BA8B16C4901655F
:1028D000A06BFEF7F5FF002811D0A06B016D01B0D1
:1028E000BDE8F040084783060FD593060DD5204676
:1028F000BDE8F84001F012BA2046FFF78DFFF8BDA1
:102900002046FFF789FF2564F8BD266B2023012EA2
:1029100079D1C60677D5D60675D50868486800907F
:102920004869400640D5A16B086840680004000C67
:10293000EAD0A28D8242E7D9E085C869B0F5807FF0
:102940002DD020680C3050E8001F21F4807140E841
:102950000012002AF5D12068143050E8001F21F041
:10296000010140E80012002AF5D12068143050E837
:10297000001F21F0400140E80012002AF5D184F840
:102980003E30256320680C3050E8001F21F0100114
:1029900040E80012002AF5D1A06BFEF748FFA08D99
:1029A000E18D401A81B229E0A08DE18D401A81B2FB
:1029B000E08D0028A8D00029A6D020680C3050E86F
:1029C000002F22F4907240E80026002EF5D12068F6
:1029D000143050E8002F22F0010240E80026002EBB
:1029E000F5D184F83E30256320680C3050E8002F84
:1029F00022F0100240E80023002BF5D12046FFF71B
:102A0000D2FEF8BDFFE705062BD5150629D594F8AB
:102A10003D002128F5D1A068B0F5805F01D1206983
:102A2000B0B1206A411C2162216800784860E08CC6
:102A3000401E0004000CE084E3D12068C16821F04E
:102A40008001C1602068C16841F04001C160D8E7E1
:102A5000206A0088C0F308004860206A801C206259
:102A6000E5E74006CDD55006CBD5CA68204622F012
:102A70004002CA6084F83D3000F0F6F9C1E700007A
:102A8000253A000870B5040004D094F83D000025F4
:102A900010B106E0012070BD84F83C50204600F0E3
:102AA00023F8242084F83D002068C16821F40051F7
:102AB000C160204601F092F92068016921F490413B
:102AC00001612068416921F02A0141612068C168E3
:102AD00041F40051C1602564202084F83D0084F851
:102AE0003E00002070BD00002DE9F04F87B0054684
:102AF00014216846FDF738FDA148DFF880821038C0
:102B00000221D5F800C09E4B032200248F06061533
:102B10004FF0080BC44555D1D3F800C04CF4801CCD
:102B2000C3F800C01B6803F480130593036843F0E7
:102B300004030360036803F004030593036843F090
:102B40000803036000688A4600F008000590C80288
:102B5000CDE9000ACDE902429146D8466946CDF852
:102B600010B08848FFF730F80420CDE9000ACDE91D
:102B700002496946CDF810808348FFF725F8DFF851
:102B8000108282494046C8F80010C0E90174C0E9CB
:102B90000346C8F81440F101C8F81840C8E90741D5
:102BA000C8F82440FEF76EFF08B1FEF7ECF9C5F84F
:102BB0003880002205213520C8F83850FFF7CEF9BB
:102BC000352065E0DFF8CC81DFF8B491DFF8C8E1AB
:102BD00009F104094FF0070AC4455ED1D9F800C0D5
:102BE0004CF0100CC9F800C0D9F8003003F0100305
:102BF0000593036843F001030360006800F00100DF
:102C000005904FF4C0608DE81300CDE9032A6946B2
:102C10007046FEF7D9FFDFF87881604908F1600857
:102C20004046C8F80010C0E90174C0E903468915A0
:102C3000C8F81440C0E906414902C8E90814B94679
:102C4000FEF720FF08B1FEF79EF9514F5348C5F833
:102C50003880C0377830C8F83850E7E8020940209B
:102C600051C74FF4403047F81449BC61C7E90740E9
:102C700047487C62C030FEF705FF08B1FEF783F9D4
:102C80006F63002205212520BD63FFF767F925202A
:102C9000FFF756F907B0BDE8F08FDFF80481C445AF
:102CA00046D1D3F800C04CF4003CC3F800C01B6808
:102CB00003F400330593036843F0010303600068E5
:102CC00000F0010005900C208DE81300CDE9032AE7
:102CD00069467046FEF778FF2C49DFF8C8807831E6
:102CE0004046C8F80010C0E90174C0E903468915E0
:102CF000C8F81440C0E906414FF44031C8F820102C
:102D00000421C8F824100121C8E90A14C8F8304089
:102D1000FEF7B8FE08B1FEF736F9C5F83880002294
:102D200005212620C8F83850FFF718F92620AFE70C
:102D30001D4B9C45AED1D9F8005045F02005C9F88F
:102D40000050D9F8003003F020030593036843F0E6
:102D500004030360006800F004000590C0208DE8C3
:102D60001300CDE9032B69460648FEF72DFF00222C
:102D700005214720FFF7F2F8472089E7005000407F
:102D80004038024000080240000C0240106002403F
:102D90008007002000100140000002404064024013
:102DA00000440040A00800200014014090F83E308C
:102DB000202B0ED159B152B190F83C30012B08D0E4
:102DC000012380F83C300023036301F08DB801201B
:102DD00070470220704770477047000070B5044686
:102DE00090F83D00202836D191B38AB394F83C0086
:102DF000012830D0012084F83C002162A284E284C2
:102E000000252564212084F83D00636B1348D863B6
:102E1000636B13481864636B1248D864606B134685
:102E200005652668606B321DFEF796FE21686FF01F
:102E30004000086084F83C502068143050E8001FBF
:102E400041F0800140E80012002AF5D1002070BD59
:102E5000FFE70120FBE70220F9E700001B3B000829
:102E60005D3B0008353A000870477047FEE70000F8
:102E700010B50349034800F0EDFB002010BD000031
:102E8000C93200088C09002000F004F8012001F08C
:102E90007FFCF9E700B5044801F0F0FB02485DF85B
:102EA00004EB0C3001F0F2BB340A002001F0D0BE7C
:102EB000104900B50020887001F1180000F01EF8DC
:102EC0000C485C3000F02AF80A48A03000F048F8BE
:102ED0000848E43000F036F8074800F065F8064886
:102EE000443000F061F804485DF804EB883000F0ED
:102EF00047B8000090000020B801002000210162C6
:102F0000034AC263034A0264034A8263416370470F
:102F10000000FA4500007A4600803B450549016201
:102F20000549C16305490164054981630021416385
:102F3000704700000000704200401C4500007A46C7
:102F400000409C45044901620021C163034A0264B8
:102F5000826341637047000000401C4600007A46CF
:102F6000044901620449C163044901648163002189
:102F70004163704700401C460000FA4500007A4655
:102F8000054901620549C163054901640549816339
:102F9000002141637047000000401C460000F041E2
:102FA000005043470000FA44054901620021C16313
:102FB0000449016404498163044941637047000086
:102FC0000000FA4400007A4600803B460000A04022
:102FD000104810B50E4901600321416000214FF4F3
:102FE00010228160C0E903124FF4001242610176A1
:102FF000012242768276C27601774177FEF763FA44
:10300000002803D0BDE81040FDF7BDBF10BD000093
:103010000064004014060020104810B50E490160FD
:103020000321416000214FF410228160C0E90312A6
:103030004FF4001242610176012242768276C27616
:1030400001774177FEF73FFA002803D0BDE8104032
:10305000FDF799BF10BD0000006800403C0600204D
:10306000194808B5016841F480010160016801F464
:1030700080010091016841F40011016000680022A4
:1030800000F40010009005210B20FEF767FF0B20D5
:10309000FEF756FF002205211020FEF75FFF1020EB
:1030A000FEF74EFF002205213A20FEF757FF3A2097
:1030B000FEF746FF002205214620FEF74FFFBDE840
:1030C00008404620FEF73CBF3038024010B5A4B09F
:1030D0001C221C496846FDF7F3F90021684601F0FF
:1030E00063FB194C17491C2220601C3107A8FDF70F
:1030F000E7F9002107A801F057FB124960601C2284
:1031000038310EA8FDF7DCF900210EA801F04CFBC8
:103110000C49A0601C22543115A8FDF7D1F90021FB
:1031200015A801F041FB0749E0601C2270311CA882
:10313000FDF7C6F900211CA801F036FB206124B080
:1031400010BD0000D05C000800000020154808B544
:10315000016841F080010160016801F08001009187
:10316000016841F001010160016801F00101009175
:10317000016841F002010160016801F00201009163
:10318000016841F004010160016801F0040100914F
:10319000016841F008010160006800F0080000903B
:1031A00008BD000030380240094810B507490160E9
:1031B000032141604FF4FA718160FEF703FE00289D
:1031C00003D0BDE81040FDF7DEBE10BD003000406A
:1031D000640600200C4810B50A4901604FF46121D3
:1031E0004160002181600C22C160C0E9041281614C
:1031F000C161FFF747FC002803D0BDE81040FDF790
:10320000C2BE10BD00500040700600200C4810B532
:103210000A4901604FF4E1314160002181600C22D4
:10322000C160C0E904128161C161FFF72BFC002875
:1032300003D0BDE81040FDF7A6BE10BD0010014050
:10324000B40600200E4810B50C4901600D494160DC
:103250004FF48051816000214FF48062C0E9031275
:103260000C22C0E90521C161FFF70CFC002803D046
:10327000BDE81040FDF787BE10BD000000440040CF
:10328000F8060020A08601000C4810B50A4901602C
:103290004FF4E1314160002181600C22C160C0E93E
:1032A00004128161C161FFF7EDFB002803D0BDE886
:1032B0001040FDF768BE10BD001401403C0700201F
:1032C000FEE7FFF7F5BDFEE72DE9F0410024051DFF
:1032D000474EB0F8847027E0285DC0283BD012DC50
:1032E000A52829D008DC902822D0A02824D0A12805
:1032F00022D0A22817D11FE0B02824D0B12822D094
:10330000B22810D11FE0D12867D006DCC12822D016
:10331000C22820D0D02806D124E0D92851D0E028D6
:1033200064D0F02862D0641CA742D5DCBDE8F081EF
:103330006878B070A41CF7E7281950F8011F716075
:10334000808830813BE0281950F8011FC6F80A1028
:103350008088F08133E0281950F8011F316180889E
:10336000B0822CE028194178827801EB022109B261
:1033700000EE101A2049F8EEC00A9FED1E0A80EEFA
:10338000801A81ED001AC278037902EB032212B28F
:1033900000EE902AF8EEE00A80EE801AF2EE040ABF
:1033A00081ED011A4279807902EB002000B200EE33
:1033B000100AB8EEC00A80EE201A81ED021AE41D50
:1033C000B2E70D4829190C3851F8012FC2604A683C
:1033D000026189680D344161A6E707482919102266
:1033E0000C30491CFDF727F811349DE7641D9BE75D
:1033F0003C0000200000C842180A002030B510EE42
:10340000101A30EE600AC16010EE901A10EE102A09
:1034100001614261416B00EE101A00EE901AB1EEAC
:10342000401A00EE102A01F0F5F810EE101A416172
:10343000C26900EE101A00EE902A30EE800A10EEFB
:10344000103AC361026A00EE103A00EE902AB4EE20
:10345000E00AF1EE10FA01DDC26111E000EE902AFF
:1034600000EE103AF1EE600AB4EEE00AF1EE10FA66
:1034700006D200EE102AB1EE400A10EE102AEBE759
:10348000026800EE101A00EE902A20EE800A10EE7C
:10349000104A4462426800EE102AC26900EE902A87
:1034A00020EE200A10EE103A00EE101A83628269B4
:1034B00000EE902A826870EE600A00EE102A20EE7C
:1034C000800A10EE105A00EE103AC562C26B00EE90
:1034D000902AB4EEE00AF1EE10FA01DD826211E00A
:1034E00000EE902A00EE103AF1EE600AB4EEE00A27
:1034F000F1EE10FA06D200EE102AB1EE400A10EEFC
:10350000102AEBE7826A00EE104A00EE902A70EE75
:10351000200A00EE105A30EE800A10EE102A0263E4
:103520008161816B00EE102A00EE901AB4EEE00A81
:10353000F1EE10FA01DD016311E000EE901A00EEE9
:10354000102AF1EE600AB4EEE00AF1EE10FA06D2AB
:1035500000EE101AB1EE400A10EE101AEBE7006B05
:1035600000EE100A30BD00002DE9F041384C014654
:1035700020462778D0E903200623A61D0025072F23
:1035800062D2DFE807F004081A1F272A31005A29FF
:103590005BD1012009E080F88810A52904D0A62974
:1035A00005D0A72951D105E0022020704DE0EAB3F3
:1035B000904749E00560237047E0A0F88410B1709F
:1035C0000320F2E730F8842F42EA01220280F170F2
:1035D0000420EAE761800520E7E7628842EA0121EA
:1035E00061800560A580E6E70368061D5F1C076033
:1035F000995590F88810A72907D10168082904D3A4
:103600000821A0F88410904725702069B0F8842024
:103610000168914219D390F88800A52815D10C496A
:103620000422891D881E01F005F800E00CE02169E4
:10363000074804C9001D00F0FDFFA088618888428A
:1036400002D1D4E90310884725700020BDE8F0813D
:103650005400002070B5044D0446E9608C21FCF74D
:1036600083FF2C6170BD00005400002030B5144B66
:103670001C68656945F0400565611B68DC6844F0BD
:103680001004DC600F4B1C68256825F001052560DF
:103690001C682568ED07F7D11D680B4CAC601C68F1
:1036A000E06018680161186842601868016841F4B8
:1036B000802101601868016841F00101016030BD9E
:1036C000F8060020A00800200444004070B504461D
:1036D0005A4D20682860207928712078A52870D15B
:1036E0000521204600F05AFD01283BD16178204693
:1036F000093100F035FD002834D0B4F8050040F25F
:103700000122A0F20121904248D014DC40F20112C3
:10371000A0F2011190422ED006DC012814D002281C
:1037200021D003281ED121E0012929D003292CD042
:10373000042979D12EE0092976D2DFE801F0753B22
:10374000435075595D687100D4F80700C5F805004D
:10375000D4F80B00C5F80900B4F80F00A5F80D0067
:10376000607CE87360E0E07928745DE033482022F3
:10377000E11D113022E0D4F80700C5F8310053E014
:10378000D4F80700C5F835004EE0B4F80700A5F8F6
:10379000390049E0E07985F83B0045E0FDF766FB3C
:1037A000D4F80700E863D4F80B002864D4F80F00BD
:1037B000686439E021481022E11D4930FCF73BFEE6
:1037C00032E039E0D4F80700C5F85900D4F80B000E
:1037D000C5F85D00D4F80F00C5F8610024E0D4F806
:1037E0000700C5F86500B4F80B00A5F869001BE0F8
:1037F000E07985F86B0017E0D4F80700E866B4F8C4
:103800000B00A5F87000607B85F872000CE0D4F81E
:103810000700C5F87300B4F80B00A5F8770003E0C3
:10382000D4F80700C5F87900B5F801000934015D46
:10383000A52901D104444BE770BD0000EE0B002028
:1038400002492422A1F12400FFF710BF4A0B0020F7
:10385000012000F09DFFFBE7012000F099FFFBE74E
:1038600010B5502080F31188BFF34F8FBFF36F8FD7
:1038700001F07EFD18B104494FF08050086000202F
:1038800080F3118810BD000004ED00E030B593B066
:1038900030216846FCF768FE14210CA8FCF764FE92
:1038A0001F480025016841F080510160006800F068
:1038B000805011901B48016841F48041016000680C
:1038C000022400F480401190092000904FF48030D1
:1038D00001900120CDE9050480050790192008908A
:1038E0004FF4A870CDE9090404200B906846FEF758
:1038F00073FC08B172B6FEE70CA90F2081E8310015
:103900004FF4A0500F904FF48050109005210CA858
:10391000FEF756FB002801D072B6FEE713B030BDAB
:1039200040380240007000400248016841F47001D4
:103930000160704788ED00E00148FEF774BE0000AA
:1039400000090020F0B50268254C264D264E274F71
:10395000274B4FF0804CA04209D0604507D0A842C9
:1039600005D0B04203D0B84201D0984204D122F031
:10397000700E4A6842EA0E02A0421BD0604519D080
:10398000A84217D0B04215D0B84213D0984211D0F7
:10399000184DA8420ED0184DA8420BD0174DA84282
:1039A00008D0174DA84205D0164DA84202D0164D9A
:1039B000A84203D122F44075CA682A434D6922F017
:1039C00080022A4302608A68C2620A688262A04258
:1039D00001D0984201D10969016301214161F0BD23
:1039E000000001400004004000080040000C0040BE
:1039F00000040140004001400044014000480140F3
:103A000000180040001C00400020004010B5044891
:103A1000FEF704FFBDE81040014800F0D9B80000EF
:103A20007006002010B5806B0021C185C184FEF7AF
:103A3000F3FE10BD70B5846B2068406994F83D10AA
:103A4000C0F3C0100025212904D118B1E584204617
:103A500000F0B0F82068406994F83E10C0F3801080
:103A6000222904D118B1E585204600F07CF8206CAD
:103A700040F0100020642046FEF7CEFE70BD10B569
:103A80000146806B09680968C9052FD40021C185EA
:103A900001680C3151E8002F22F4807241E80023C4
:103AA000002BF5D10168143151E8002F22F00102FA
:103AB00041E80023002BF5D10168143151E8002FB3
:103AC00022F0400241E80023002BF5D1202180F8AC
:103AD0003E10016B012909D101680C3151E8002F1A
:103AE00022F0100241E80023002BF5D1016B0129DF
:103AF00002D0FFF770F910BD818DFEF754FE10BDA6
:103B000010B5806B016B012902D0FFF765F910BD7C
:103B1000818D4908FEF747FE10BD10B50146806B48
:103B200009680968C90516D40021C18401681431E7
:103B300051E8002F22F0800241E80023002BF5D14C
:103B400001680C3151E8002F42F0400241E80023A7
:103B5000002BF5D110BDFFF787F910BD10B5806BB4
:103B6000FFF783F910BD01680C3151E8002F22F4F2
:103B7000907241E80023002BF5D10168143151E81F
:103B8000002F22F0010241E80023002BF5D1016B48
:103B9000012909D101680C3151E8002F22F01002EF
:103BA00041E80023002BF5D1202180F83E100021B0
:103BB0000163704701680C3151E8002F22F0C00208
:103BC00041E80023002BF5D1202180F83D107047FB
:103BD000F8B5054648480024854218D100680168B8
:103BE000C943C9061DD40168406800904248FEF7E9
:103BF000DBFD802241494048FFF7D8F83F48FFF7F6
:103C000065FDBDE8F84080213C48FCF78BBC3C4991
:103C10008D424CD108680268920603D5016840685D
:103C20000090F8BD0268D206FBD50268406800909B
:103C3000886B006802684FF024031503314A056859
:103C400025F001050560886B05686868C0F12400EF
:103C500080B210806B608A6B126813680ED443F4D4
:103C600000231360896B09680A6842F001020A6048
:103C7000122813D121482449C8300DE023F4002331
:103C80001360896B09680A6842F001020A60122811
:103C900004D11A481C49EC3001F080F800F056FDC0
:103CA00047F2305108441949C1E90004F8BD1848E9
:103CB0008542FBD100680168C943C906F6D4016892
:103CC000406800901248FEF76FFD124E0024305DF0
:103CD000FFF74AFC641C802CF9D380220D4928464A
:103CE000FFF764F880210B48FCF71CFCBDE8F840A6
:103CF0000948FEF794B80000B40600205E0A0020D0
:103D0000F806002068000020480A00207800002003
:103D1000700600206E0B00206406002008B590F8A5
:103D20003E10222901D0022008BD82684FF4805342
:103D30009A4201D1016921B1816A9A421BD04AB1EC
:103D40000AE00268816A5268C2F308020A80816A46
:103D5000891C08E0026972B10268526802F07F02B1
:103D60000A70816A491C8162C18D491E0904090CCF
:103D7000C18503D019E002685268F1E70168CA689A
:103D800022F02002CA600168CA6822F48072CA6008
:103D900001684A6922F001024A61202180F83E1040
:103DA000016B012903D0FFF716F8002008BD0021A0
:103DB000016301680C3151E8002F22F0100241E844
:103DC0000023002BF5D101680A68D20602D50A68E3
:103DD00049680091818DFEF7E6FCE6E770B5044680
:103DE00000680169E26821F44051114301612169D1
:103DF000A068E26908436169114308432168CA6801
:103E000049F20C639A430243CA6020684169A2697F
:103E100021F440711143416131492068884202D048
:103E20003049884202D1FEF795F901E0FEF782F9A8
:103E3000E2690023192164253226B2F5004F626839
:103E400028D0A0FB0101930F9200FCF77DFA0146F8
:103E5000B0FBF5F06FF01802504301EB800006EB69
:103E60000010B0FBF5F000F0F002B1FBF5F002EB52
:103E70000012B1FBF5F06FF01803584301EB80001E
:103E800006EB0010B0FBF5F000F00F0021681044C5
:103E9000886070BDA0FB010192185B41FCF754FAE9
:103EA0000146B0FBF5F00201B1FBF5F06FF018032D
:103EB000584301EB800006EBC000B0FBF5F000F0CA
:103EC000F80002EB4002B1FBF5F0584301EB800033
:103ED00006EBC000B0FBF5F000F00700D6E70000ED
:103EE000001001400014014038B581628285002530
:103EF000134604460564222084F83E00A26B1C4849
:103F0000D063A26B1B481064A26B1B48D064A06BEB
:103F10000A4605652168A06B091DFDF71DFE206896
:103F200001684068009084F83C50206948B12068DE
:103F30000C3050E8001F41F4807140E80012002A64
:103F4000F5D12068143050E8001F41F0010140E82D
:103F50000012002AF5D12068143050E8001F41F00B
:103F6000400140E80012002AF5D1002038BD0000D1
:103F70007F3A0008013B0008353A00082DE9F0437C
:103F80000DF11C0898E8F01291F8008000F8018B00
:103F900091F8018080F8008089784170817862F31F
:103FA000020121F038018170418863F38911418059
:103FB000C17864F38501C170C18865F30901C180CE
:103FC000B0F8071066F38C01A0F80710018967F3B9
:103FD0004F110181B0F80B1069F38C01A0F80B10A0
:103FE00082896CF34F128281BDE8F08370B505467B
:103FF000A52016460C460870012D06D0022D06D0CD
:10400000052D06D0072D06D008E0152104E0242157
:1040100002E0512100E06F21A4F80110E0780421B2
:10402000401CE0702046FCF7A3FB207140F20131F8
:10403000A4F80510012D06D0022D07D0052D08D0BB
:10404000072D09D00CE040F2011107E04FF4817117
:1040500004E040F2031101E04FF48271A4F807106C
:10406000A4F8096006F58076A4F80B60012D13D042
:10407000022D19D0052D20D0072D27D125467621D8
:104080002046FCF785FBA5F8760078222146BDE89E
:1040900070400F48FEF7A2BE25461C212046FCF7C3
:1040A00077FBA8831E22F1E725462B212046FCF74B
:1040B0006FFBA5F82B002D22E8E725465821204666
:1040C000FCF766FBA5F858005A22DFE770BD000038
:1040D000B406002010B50448FEF7A0FBBDE8104070
:1040E0000148FFF775BD0000B406002010B5044874
:1040F000FEF794FBBDE810400148FFF769BD0000E2
:10410000F80600200148FEF789BB00003C070020AC
:1041100010B5FFF795FBFEF7ABFE0C480068C168D1
:1041200041F01001C1600A480068C16841F0100107
:10413000C16008480068C16841F01001C1600648CC
:104140000068C16841F02001C16010BDB4060020C4
:10415000F8060020700600203C070020FEE7000063
:1041600030B50C46050014D0022C12D90A48A11E05
:1041700002882846FCF70AFF2919C2B211F8023C4E
:104180009A4206D111F8011CB1EB102F01D1012088
:1041900030BD002030BD0000FC02002030B50C46D0
:1041A00005000AD0022C08D9FF22611EFCF704FF8B
:1041B000291911F8011C814201D1012030BD0020D4
:1041C00030BD90ED001AB4EEC01AF1EE10FA02DC28
:1041D000B0EE410A01E080ED000AB4EEE00AF1EE33
:1041E00010FA01D2C0ED000A7047000090ED000AFD
:1041F000094A10EE101ADFED090A914202D930EE99
:10420000200A06E010EE101A054A914203DD30EE56
:10421000600A80ED000A70470000D2C20000B4437B
:1042200000007F434100080218BF04200A0E18BF97
:1042300040F001004FF07F4232EA010108BF40F038
:104240000200012808BF052070470907090E002851
:1042500004DB00F1E02080F80014704700F00F004C
:1042600000F1E02080F8141D7047000070B54FF099
:1042700068422DED048BF0EE408A18EE900AB0EE05
:10428000608A18EE101A02EB4003B3F1654F3CBF91
:1042900002EB4102B2F1654F7DD200BFC0F3C753BC
:1042A000C1F3C7529A1A1B2A09DD10F0004F14BF40
:1042B0009FED830A9FED830ABDEC048B70BD12F164
:1042C0001A0F36DA11F0004F09D010F0004F0CBF72
:1042D0009FED7D0A9FED7D0ABDEC048B70BD88EEDD
:1042E000889A19EE100AFFF79DFF042808BF00F016
:1042F00053F918EE900AFFF795FF054618EE100ADD
:10430000FFF790FF044619EE100AFFF78BFF042D0C
:1043100018BF052D08D1042C18BF052C04D1002886
:1043200004BF0220FCF74FF9B0EE490ABDEC048B44
:1043300070BD4200B2EB410F3AD910F0004F19BFE7
:10434000DFED630A9FED630ADFED630A9FED630A09
:10435000B0EE481A0A46B1EE688A80F00041F0EEED
:10436000418A10460A1A5200B2F1807F34D2484086
:1043700010F0004FDFED5A1A9FED5A2A1DBFBEEE16
:10438000001A70EEE10A30EE420AB6EE001A08BFDB
:1043900070EEA10A00E040E008BF30EE020AB0EE85
:1043A000682A01EE482A08EE818AC2EE081A15E052
:1043B00011F0004F04BF9FED4C0AF0EE400AD1D03F
:1043C00010F0004F19BFDFED490A9FED490ADFEDFC
:1043D000490A9FED490AC5E7C8EE881A21EEA11ADD
:1043E0009FED462ADFED462A41EE022A9FED452A3F
:1043F00001EE222ADFED442A41EE022A9FED432AF4
:10440000BDEC048B01EE222A21EE811A01EE020A94
:1044100030EE210A30EE200A70BD4FF07F42B2EB41
:10442000400F28BFB2EB410F09D2F0EE480AB0EEC0
:10443000680ABDEC048BBDE8704000F0AAB840EA01
:1044400001035B0008BF41F0FF410BD0B2EB400F0E
:1044500008BFB2EB410F08D120F0804008EE900A6F
:1044600021F0804108EE101A18E7B2EB400F12BF9E
:104470005FEA410340F0FF4001F000413FF40EAF1E
:10448000B2EB410F12BF5FEA400200F0004041F082
:10449000FF413FF403AF4A0092EA40033FF5FEAE0E
:1044A000002AACBF9FED1A0A9FED1A0A68EE808AB7
:1044B00028EE008A18EE900A18EE101AEEE60000B8
:1044C000DB0FC9BFDB0FC93FDB0F4940DB0F49C022
:1044D0000000C9BF22AAFDB90000C93F22AAFD39C8
:1044E0000060ED3EC30ACE3700000000000049C066
:1044F00022AA7DBA0000494022AA7D3A2DAD65BDB1
:104500008FB8D53D0FB511BE61C84C3EA8AAAABE52
:104510000000804F0000802F00B52DED048BB0EE21
:10452000409AF0EE609A83B051EC190B01F088FAD2
:1045300041EC180B18EE100A18EE901A8DED008B56
:10454000002818BF0120084320F00040C0F17F6020
:1045500000F1E040C00F14D019EE101A19EE900AC5
:104560008DED009B002918BF0121084320F0004079
:10457000C0F17F6000F1E040C00F04BF0120FCF7F4
:1045800022F8B0EE480A03B0F0EE680ABDEC048BE6
:1045900000BD30EE200A70479FED020A20EE000AAF
:1045A0007047000000000010174B00B5D3ED7F0AE4
:1045B0009FED162AF0EE401A80EE820A30EE610A74
:1045C00000F06EF8B0EE401A93ED7F0ADFED100AAE
:1045D00030EE200AC0EE020A30EEE10A00F060F888
:1045E000F0EEC10AF0EEC01AF4EEE10AF1EE10FAB4
:1045F00003DD012083F8480200BD002083F8480253
:10460000B0EE410A00BD00009000002083F9A244F2
:1046100000008045B4EEC10AF1EE10FA06DDB4EEFA
:10462000E00AF1EE10FA01D29FED010A7047000096
:1046300000000000F0B50388002541F221070CE0DE
:104640004C5D002683EA04235C001B0400D57C40FB
:10465000761C2346082EF7D36D1C9542F0D30380B9
:10466000F0BD0000B0EEC01AB4EEE01AF1EE10FAA0
:1046700001D29FED010A704700000000024B0ECBF3
:1046800080E80E0000207047180A00200349D1F886
:104690000A200260C9898180002070473C00002008
:1046A000DFED0F0A0F48104910E000BF10EE102A8E
:1046B000824203D930EE200A30EE200A10EE102A92
:1046C0008A4203DD30EE600A30EE600A10EE102AF6
:1046D0008242EBD810EE102A8A42E7DC70470000D5
:1046E000DB0F4940DB0F49C0DB0F4940FDF7A6FB5C
:1046F000FFF7CCF8FEF72AFDFEF7B2FCFEF768FCE8
:10470000FEF78AFCFEF782FDFEF79CFDFEF7BCFD7E
:10471000FEF760FDFEF748FDFCF72CFCFCF700F906
:10472000FEF7CFFD05489FED040A80ED7F0AFEF7F6
:10473000CDFC00F034F8FEE700008C429000002031
:1047400001460020842900D0C81C704738B54FF0BE
:10475000E0242069FDF730FB6569A1696D1C691AC9
:1047600000912169C1F3004181B1FDF725FBA169E9
:10477000691A00914FF47A725143B1FBF5F100EBE5
:104780004002C2EBC01001EBC00038BD0099F1E758
:1047900010B500B9012000F087FC002010BD10B555
:1047A00000F0A8FC002010BD7FB50D46044641690D
:1047B000B0F9080081B1A16971B1FFF7C1FFD4E977
:1047C00005128DE80700D4E900102B46226900F09D
:1047D000A4FD039004B070BDFFF7B2FF03A9CDE9BB
:1047E0000001208A2B4682B2D4E9001000F068FD57
:1047F000012801D00020EDE70398EBE72DE9F04117
:10480000184C0F460546E6682068001D00F084FB42
:1048100038B9206890F82C10012088402169814324
:104820002161681C07D137B12168BDE8F0410E480D
:10483000091D00F0B5BB20683544B54245602168CC
:1048400005D2A06BBDE8F041091D00F091BB606B83
:10485000091D00F08DFBA06A854200D2A562BDE86B
:10486000F081000058030020E80D00202DE9F04100
:10487000054600F0A1FB2E4CA068401CA0602068FB
:104880002C4F10B1606940B32DE02560A06801286D
:1048900029D1002606EB860007EB800000F05AFBCA
:1048A000761C072EF6D323488C3000F053FB2148AA
:1048B000A03000F04FFB1F48B43000F04BFB1D4808
:1048C000C83000F047FB1B48DC3000F043FB1948C0
:1048D0008C3060631430A06305E02068E96AC06A28
:1048E000884200D82560606A401C6062E96A012045
:1048F000226988401043206101EB810007EB8000B2
:10490000291D00F04DFB00F077FB606900280CD0FA
:104910002068E96AC06A884207D207494FF0805090
:104920000860BFF34F8FBFF36F8FBDE8F0810000C9
:10493000580300200C0D002004ED00E010B50446E3
:1049400090F8510058B101280CD002280FD0502007
:1049500080F31188BFF34F8FBFF36F8FFEE7206B9B
:1049600000F05EFB2046BDE8104000F059BB10BDD2
:1049700010484FF47051420706D0C01D0D4920F079
:104980000700411AC1F570510B4A00230144C2E9E6
:1049900000030839183A21F0070111604B600B60E1
:1049A0000B1AC0E9001393604FF000405360506150
:1049B00070470000FC0D0020AC030020144E154C85
:1049C000A6F1C8074FF08058DFF84C9012E000BF06
:1049D00000F0F2FAF068C568281D00F09DFAA068A2
:1049E000401EA0606068401E606000F005FB284625
:1049F000FFF7A4FF60680028EAD138680128F9D9D8
:104A0000C9F80080BFF34F8FBFF36F8FF2E700004C
:104A1000D40D00205803002004ED00E02DE9F047FC
:104A20009A46DDE9098481466FF00303206B03EBAE
:104A300082021044089E20F00707780707D0502014
:104A400080F31188BFF34F8FBFF36F8FFEE7002510
:104A500061B1002023180A5C83F834200A5C12B18B
:104A6000401C1028F6D384F8435001E084F83450F9
:104A7000072E00D30626E662C4E91165201D00F06A
:104A800074FA04F1180000F070FA2461C6F107000E
:104A90006462A061E56484F8505052464946384645
:104AA00000F0C0F82060B8F1000F01D0C8F8004055
:104AB000BDE8F08730B5114900E011460A6882422E
:104AC000FBD34B685C18844203D1406818444860AB
:104AD000084643681C18944209D1084C183C2468C5
:104AE000A24209D052681A4442600A681268026001
:104AF000814200D0086030BD0460F9E7AC030020BB
:104B00000648416B096829B1416BC968C9684968A1
:104B1000816270474FF0FF31FAE700005803002030
:104B200008484068401C4FF0500080F3118804D0C2
:104B3000BFF34F8FBFF36F8FFEE7BFF34F8FBFF30E
:104B40006F8FFEE7B40300202DE9F04105460027F2
:104B500000F006FB324E306808B9FFF709FF7069B4
:104B600005424ED1C5B3083568070ED005F00700E1
:104B7000C0F108000544680707D0502080F3118871
:104B8000BFF34F8FBFF36F8FFEE72DB37068854281
:104B900037D82348183001460C6801E020460C46FF
:104BA0006168A94202D221680029F7D131688C429C
:104BB00027D007682168016060680837411B102909
:104BC0000FD96019420708D0502080F31188BFF335
:104BD0004F8FBFF36F8FFEE713E041606560FFF713
:104BE00069FF61687068401A7060B268904200D2D4
:104BF000B060706901430020C4E90001F068401C06
:104C0000F06000F01BFC780707D0502080F311887B
:104C1000BFF34F8FBFF36F8FFEE73846BDE8F081DB
:104C20009403002010B5031F4FF080741C601B1FFD
:104C300021F001011960191F044B0B6014390A603F
:104C4000091F6FF0020244380A6010BD214B0008B2
:104C5000494C86B040F22D19A088401C80B2B0FBB0
:104C6000F9F2A08009FB12000028F5D1962050210E
:104C7000CDE90410322228230126CDE90232022593
:104C8000CDE90056002332463CA13D48FFF776F9B6
:104C90004FF47A777810CDE9040740F29A2140F278
:104CA000B632CDE902214FF005083548CDE900586C
:104CB0000023012233A10F30FFF760F920884FF461
:104CC0008761CDE9030105902D488DE8E0000023C0
:104CD00001222DA11E30FFF751F920884FF4707783
:104CE00000F10A0189B20A3880B2CDE90471CDE938
:104CF00002702348CDE900560023012223A12D3064
:104D0000FFF73CF9608840F2A231CDE9030100953C
:104D1000059040F26632CDE9016219480023012274
:104D20001BA13C30FFF72AF96088791ECDE9047099
:104D3000CDE902101248CDE900580023012215A147
:104D40004B30FFF71BF9608840F21A41CDE90301AF
:104D50000095059040F2DE32CDE90162084800235B
:104D600001220DA15A30FFF709F9054904220D3936
:104D70000720FFF73BF96FE76A0000203030310071
:104D8000950C0020303032003030330030303400A9
:104D9000303035003030360030303700F0B5002884
:104DA00064D0002962D00278437842EA0322C2F339
:104DB0000A020A8043788478DB0843EA4413C3F389
:104DC0000A044C808378C5789B0943EA85030579FA
:104DD00043EA8523C3F30A038B80057946796D087E
:104DE00045EAC615C5F30A05CD804679C6F3011616
:104DF0000E724679B6094E728679C77946EA072659
:104E00008E81067A477A46EA0726CE81867AC77A65
:104E100046EA07260E82067B8E74467BCE74867B1E
:104E2000C77B46EA07268E82067C407CA2F580621C
:104E300046EA002048810A80A4F580644C80A3F5EE
:104E400080638B80A5F5806500200832CD80102A14
:104E500000D808800834102C00D848800833102B64
:104E600000D888800835102D00D8C880F0BD00001B
:104E7000F0EEE00A10EE900A2249084422498842E6
:104E800004D29FED222ADFED220A03E0B7EE002ACA
:104E9000F0EE420A1F48B5EEC00A90ED801A70EE9F
:104EA000411AF1EE10FA13DB21EE823A61EEA02AEC
:104EB000B5EEC01AF1EE10FA02DB31EE030A7047CC
:104EC000B5EEC01AF1EE10FA02D231EE220A7047A6
:104ED000B5EEC00AF1EE10FAF9D222EE610A60EEE8
:104EE000E10AB5EEC01AF1EE10FA02D231EE400A34
:104EF0007047B5EEC01AF1EE10FAF9DB31EE600A38
:104F0000704700007A144EC07A142E00CDCC4C3E6F
:104F10009A99193F90000020D0E9013201699A6006
:104F2000D0E901235A604A68824201D182684A600E
:104F3000002202610868401E08600868704700008F
:104F4000034B036003F15400086080201060704739
:104F5000C003002000F108014FF0FF32C0E9011248
:104F6000C16001610021016070470021016170474B
:104F700030B50B685A1C02D000F1080202E0026949
:104F800004E02246546825689D42FAD953684B6074
:104F900099608A60516008610168491C016030BDF8
:104FA00042684A6093688B609368596091600861B9
:104FB0000168491C01607047502080F31188BFF3DD
:104FC0004F8FBFF36F8F0A494868401C4860012823
:104FD0000CD10848006810F0FF0F07D0502080F374
:104FE0001188BFF34F8FBFF36F8FFEE7704700004C
:104FF000B403002004ED00E00849486828B1401ED1
:10500000486001D180F311887047502080F31188E7
:10501000BFF34F8FBFF36F8FFEE70000B403002094
:1050200070B500282AD0164DA0F10804606869699F
:10503000084207D1502080F31188BFF34F8FBFF390
:105040006F8FFEE722683AB1502080F31188BFF3DA
:105050004F8FBFF36F8FFEE78843606000F080F8EA
:1050600060686968084468602046FFF723FD286986
:10507000401C2861BDE8704000F0E0B970BD000040
:10508000940300204FF0E020002101618161054977
:105090004FF47A720968B1FBF2F1491E41610721B0
:1050A000016170475403002010B5020014D00F486E
:1050B000006B38B1502080F31188BFF34F8FBFF3DE
:1050C0006F8FFEE700F04CF800211046FFF796FBCB
:1050D00000F0B4F9002807D105494FF0805008606E
:1050E000BFF34F8FBFF36F8F10BD00005803002038
:1050F00004ED00E010B586B00024039405AA04A9CD
:1051000003A80494FFF71CFFDDE903010094CDE937
:10511000011000230EA11048059A00F0FEF80F4977
:105120000028C86211D0502080F31188BFF34F8F40
:10513000BFF36F8F4FF0FF30886201204861CC6071
:1051400006B0BDE8104000F041B806B010BD000048
:1051500049444C4500000000BD49000858030020A8
:105160000248016B491C016370470000580300208E
:105170001448016B11B10121C16170470021C16167
:105180000169B1FA81F1C1F11F0101EB81020E4900
:1051900051F822306BB101EB820101F108034A683A
:1051A00052684A609A4201D152684A60D1680160EF
:1051B0007047502080F31188BFF34F8FBFF36F8F7C
:1051C000FEE70000580300200C0D00201CB53748F6
:1051D0000168374A914207D1502080F31188BFF30C
:1051E0004F8FBFF36F8FFEE700683149491E884239
:1051F00007D1502080F31188BFF34F8FBFF36F8F1B
:10520000FEE72C4908780190FF20087008788DF897
:1052100000009DF800009DF8002000F0F000904292
:1052200007D0502080F31188BFF34F8FBFF36F8FEB
:10523000FEE79DF80000204C00F050002070072091
:10524000A06005E09DF8002052008DF80020401E6F
:105250009DF800201206F5D4A060032807D0502046
:1052600080F31188BFF34F8FBFF36F8FFEE74FF4CA
:105270004070A060019808700C482030016841F42B
:1052800070010160016841F070410160FFF7FAFEB2
:1052900000206060FAF7FCFF0848016841F04041D7
:1052A0000160FAF7E1FF00201CBD000000ED00E006
:1052B00071C20F4100E400E0B403002034EF00E0CD
:1052C0002DE9FF5F8346DDE90E87994616468A463B
:1052D0009000FFF739FC05001CD05420FFF734FC88
:1052E000040014D00020256384F85100CDE9024069
:1052F000CDE900874B46324651465846FFF78EFBB4
:105300002046FFF7B3FA012004B0BDE8F09F28461D
:10531000FFF786FE4FF0FF30F6E7F0B585B0DDE928
:105320000B640A9DA6B1DCB15427009726630226C0
:1053300084F85160002604AFCDE90246CDE900575C
:10534000FFF76CFB2046FFF791FA049805B0F0BD1B
:10535000502080F31188BFF34F8FBFF36F8FFEE7AC
:10536000502080F31188BFF34F8FBFF36F8FFEE79C
:105370002DE9F0412F4C0026206B28B1A069401C7C
:10538000A0613046BDE8F081E5686D1CE56013D191
:10539000606B006838B1502080F31188BFF34F8FE5
:1053A000BFF36F8FFEE7606BA16B6163A063206A40
:1053B000401C2062FFF7A4FBA06ADFF87C808542D6
:1053C00009D3606B0068A0B1606BC068C76878687B
:1053D000854211D2A0622068C06A00EB800158F8B3
:1053E0002100012800D90126E0690028C9D0012642
:1053F000C7E74FF0FF30EDE7381DFFF78DFDB86AC6
:1054000018B107F11800FFF787FDF96A012022693A
:1054100088401043206101EB810108EB8100391DB8
:10542000FFF7BEFDF86A2168C96A8842C9D3012620
:10543000C7E70000580300200C0D00202DE9F047BD
:105440002C4D00242746286B38B1FFF7B5FD286B9B
:10545000401E2863286B40B146E0502080F311883D
:10546000BFF34F8FBFF36F8FFEE7A968224E012075
:10547000D1B3A6F1B40980463068E8B1F068C468D9
:1054800004F11800FFF748FD201DFFF745FDE06A15
:105490002A6908FA00F11143296100EB800109EB48
:1054A0008100211DFFF77CFDE06A2968C96A8842F6
:1054B000E2D3C5F81C80DFE70CB1FFF721FBAC6934
:1054C00044B14646FFF754FF00B1EE61641EF9D1C6
:1054D0000020A861E86938B1084901273807086049
:1054E000BFF34F8FBFF36F8FFFF786FD3846BDE8E0
:1054F000F087000058030020C00D002004ED00E0FC
:1055000021F00042A2F16052B2F5801F01F0004389
:1055100028BFD2F17F6C0BD95FEA001C43EAC202BC
:1055200042EB507018BF704728BF20F00100704751
:10553000B2F5801FBCBF184670474FEA410C1CF5FE
:10554000001F02D2084600F0BDBB70B500F024FA7F
:1055500000000089FFF7F6BF4FF00040A0F5800083
:10556000704700002DE9C04130B4DFF8A0C23CEA2A
:10557000111418BF3CEA131400F0EC8081EA030513
:105580001CEA111444EAD57418BF1CEA131500F084
:10559000C780A4EB05044FF0004545EAC12145EA68
:1055A000C32341EA505143EA525304F17F749942B4
:1055B00004F500344FEAC0204FEAC22208BF9042EF
:1055C00000F09C804FEA13650FF24016765D4FEABB
:1055D000134506FB05F7C7F1807706FB07F74FEA8F
:1055E000D737A7FB03687642C8F58038A7FB06CEFD
:1055F00038BFA8F1010807FB08E64FF0000EA6FB34
:10560000028CE6FB03CEDCF1000CCEF1004E38BF7D
:10561000AEF1010EA6FB0C584FF000074FF000054D
:10562000E6FB0E87A1FB08C6A0FB07CE16EB0E0615
:1056300045F10005E1FB076515F1E04E7EBFA4F5DD
:1056400080345FEA46066D4116F1800745F100059A
:105650004FEA17274FEA066647EA0567A6F1DE46D6
:10566000B6F1805F4FEA15251FD9384624F0010CAA
:1056700005EBC471BCF1FE6F01EB0C1102D8F0BC5C
:10568000BDE8008124425CBF01F5801E9EEAC47F14
:1056900002D4F0BCBDE80081244238D4F0BCA1F1B2
:1056A000C041BDE8004100F0C5B94FEAD22242EA4C
:1056B00043524FEAD323A7FB02864FEAD02040EAA9
:1056C000415007FB03661EEA0E0F4FEAD12105FB8E
:1056D000026658BFA6EB0056B6EB00564FEA520ED4
:1056E0004EEAC37E18EB0E0E56EB530EBDD518EBEB
:1056F00002085E417F1C55F10005B6E74FF48015A6
:105700004FF000074FF000064FF00008ADE7F0BC87
:105710004FF0000001F1C04101F00041BDE80081FF
:1057200011EA0C1F0CEA131500D00CE013EA0C1F51
:1057300000F025804FF00000F0BC81EA030101F089
:105740000041BDE80081F0BCBDE8004181EA0301F1
:1057500000F070B9F0BCBDE8004170B500F01CF974
:10576000097EFC3E00F007B881EA03014FF000001B
:1057700001F00041704781EA030100F05BB9F0BC21
:10578000BDE800414FF0000021497047FFFDFBF9E3
:10579000F7F5F4F2F0EEEDEBE9E8E6E4E3E1E0DE64
:1057A000DDDBDAD8D7D5D4D3D1D0CFCDCCCBCAC8D6
:1057B000C7C6C5C4C2C1C0BFBEBDBCBBBAB9B8B7FD
:1057C000B6B5B4B3B2B1B0AFAEADACABAAA9A8A8F0
:1057D000A7A6A5A4A3A3A2A1A09F9F9E9D9C9C9BBE
:1057E0009A99999897979695959493939291919069
:1057F0008F8F8E8E8D8C8C8B8B8A898988888787FA
:105800008685858484838382828181800000FF076E
:105810000000F87F10F0004248BF4042B0FA80F329
:1058200010FA03F10AD0C3F11D0303F580634FEAB8
:10583000415002EB035202EBD12170474FF00000C0
:1058400070470000DFF848C170B51CEA111E1EBF8A
:105850001CEA13159EEA0C0F95EA0C0F00F06F80FE
:1058600081EA030423EA4C134EEAD47E21EA4C1168
:1058700041F4801143F48013AE44A1FB024CA0FB21
:105880000365AEF17F7E361955EB0C05A1FB034C89
:105890004CF10003A0FB021C16EB0C06654153F112
:1058A0000003094218BF46F0010613F4007F0BD134
:1058B0004FEA03314FEA0530340341EA155140EA1B
:1058C00016506FF003020AE04FEAC3214FEAC520E9
:1058D000F40241EA555140EA56506FF0020202EBE1
:1058E0002E4201EB025585EACE710AD05FEA440CE4
:1058F00018BF24F0004450F1000041F1000120EAFB
:10590000D47040F2FE7C624500D270BDA84214BF44
:105910004FF080444FF04044002E08BF0024BEF1F9
:10592000806FA8BFA1F1C041BDE8704080F28280C5
:105930004FF0000001F1C04101F0004170479EEAC4
:105940000C0F0CEA131518BF95EA0C0F06D04FF098
:10595000000081EA030E0EF0004170BD00F01CF85B
:105960008900013E00F007B800F009B84FEA430C87
:105970005FEA5C5C08D081EA030100F05BB84FEAA3
:10598000410C5FEA5C5CF6D14FF0000001497047C2
:105990000000FF070000F87F0EF1020E2EF0030E4C
:1059A0005EF8046B364205D4012A43EB030515F576
:1059B000001F12D8012841EB010C1CF5001F0CD868
:1059C0000ED14FEAD17C15F5001F0CEB4C0C0CF1FD
:1059D000020C08BF4CEBD37C04E04FF0080C01E054
:1059E0004FEAD37C0CEB4C0526FA05F606F00706C9
:1059F000B6F1040C06D20EEB860CBDE870404CF0FC
:105A0000010C6047DFE80CF0090B02024FF0004187
:105A10004FF00000A1F5002170BD19461046012885
:105A200051EB010418BFD4F5001484BF002001F02D
:105A3000004170BD0808A0F500114FEA3101704720
:105A40002DE9F04101F5801CBCF5001FC0F2A980D2
:105A50004FEA115C21EA0C510CF1FD0C41F480116C
:105A60005FEA5C0C0CF5C07C01D34000494130A4D6
:105A7000890241EA905187028E0E0A0CA45D04FB54
:105A800004F602FB06F6C6F14046A4FB0662F60DDC
:105A900046EA422606FB06F4A4FB01235242C3F168
:105AA000404338BF5B1EA6FB02420024E6FB0324F2
:105AB000D20B42EA4446A6FB0623A1FB02E2A3FB6B
:105AC00007E4E3FB61426442C2F1404E38BFAEF1ED
:105AD000010EA6FB04234FF00002E6FB0E32A2FBF0
